{
  "_format": "hh-sol-artifact-1",
  "contractName": "DeoddUSD",
  "sourceName": "contracts/DeoddUSD.sol",
  "abi": [
    {
      "anonymous": false,
      "inputs": [
        {
          "indexed": false,
          "internalType": "address",
          "name": "previousAdmin",
          "type": "address"
        },
        {
          "indexed": false,
          "internalType": "address",
          "name": "newAdmin",
          "type": "address"
        }
      ],
      "name": "AdminChanged",
      "type": "event"
    },
    {
      "anonymous": false,
      "inputs": [
        {
          "indexed": true,
          "internalType": "address",
          "name": "owner",
          "type": "address"
        },
        {
          "indexed": true,
          "internalType": "address",
          "name": "spender",
          "type": "address"
        },
        {
          "indexed": false,
          "internalType": "uint256",
          "name": "value",
          "type": "uint256"
        }
      ],
      "name": "Approval",
      "type": "event"
    },
    {
      "anonymous": false,
      "inputs": [
        {
          "indexed": true,
          "internalType": "address",
          "name": "beacon",
          "type": "address"
        }
      ],
      "name": "BeaconUpgraded",
      "type": "event"
    },
    {
      "anonymous": false,
      "inputs": [
        {
          "indexed": false,
          "internalType": "uint8",
          "name": "version",
          "type": "uint8"
        }
      ],
      "name": "Initialized",
      "type": "event"
    },
    {
      "anonymous": false,
      "inputs": [
        {
          "indexed": true,
          "internalType": "address",
          "name": "to",
          "type": "address"
        },
        {
          "indexed": false,
          "internalType": "uint256",
          "name": "amount",
          "type": "uint256"
        },
        {
          "indexed": false,
          "internalType": "string",
          "name": "message",
          "type": "string"
        }
      ],
      "name": "MintDeoddUSD",
      "type": "event"
    },
    {
      "anonymous": false,
      "inputs": [
        {
          "indexed": true,
          "internalType": "address",
          "name": "previousOwner",
          "type": "address"
        },
        {
          "indexed": true,
          "internalType": "address",
          "name": "newOwner",
          "type": "address"
        }
      ],
      "name": "OwnershipTransferred",
      "type": "event"
    },
    {
      "anonymous": false,
      "inputs": [
        {
          "indexed": true,
          "internalType": "address",
          "name": "from",
          "type": "address"
        },
        {
          "indexed": true,
          "internalType": "address",
          "name": "to",
          "type": "address"
        },
        {
          "indexed": false,
          "internalType": "uint256",
          "name": "value",
          "type": "uint256"
        }
      ],
      "name": "Transfer",
      "type": "event"
    },
    {
      "anonymous": false,
      "inputs": [
        {
          "indexed": true,
          "internalType": "address",
          "name": "implementation",
          "type": "address"
        }
      ],
      "name": "Upgraded",
      "type": "event"
    },
    {
      "inputs": [
        {
          "internalType": "address",
          "name": "owner",
          "type": "address"
        },
        {
          "internalType": "address",
          "name": "spender",
          "type": "address"
        }
      ],
      "name": "allowance",
      "outputs": [
        {
          "internalType": "uint256",
          "name": "",
          "type": "uint256"
        }
      ],
      "stateMutability": "view",
      "type": "function"
    },
    {
      "inputs": [
        {
          "internalType": "address",
          "name": "spender",
          "type": "address"
        },
        {
          "internalType": "uint256",
          "name": "amount",
          "type": "uint256"
        }
      ],
      "name": "approve",
      "outputs": [
        {
          "internalType": "bool",
          "name": "",
          "type": "bool"
        }
      ],
      "stateMutability": "nonpayable",
      "type": "function"
    },
    {
      "inputs": [
        {
          "internalType": "address",
          "name": "account",
          "type": "address"
        }
      ],
      "name": "balanceOf",
      "outputs": [
        {
          "internalType": "uint256",
          "name": "",
          "type": "uint256"
        }
      ],
      "stateMutability": "view",
      "type": "function"
    },
    {
      "inputs": [],
      "name": "decimals",
      "outputs": [
        {
          "internalType": "uint8",
          "name": "",
          "type": "uint8"
        }
      ],
      "stateMutability": "view",
      "type": "function"
    },
    {
      "inputs": [
        {
          "internalType": "address",
          "name": "spender",
          "type": "address"
        },
        {
          "internalType": "uint256",
          "name": "subtractedValue",
          "type": "uint256"
        }
      ],
      "name": "decreaseAllowance",
      "outputs": [
        {
          "internalType": "bool",
          "name": "",
          "type": "bool"
        }
      ],
      "stateMutability": "nonpayable",
      "type": "function"
    },
    {
      "inputs": [],
      "name": "getImplementation",
      "outputs": [
        {
          "internalType": "address",
          "name": "",
          "type": "address"
        }
      ],
      "stateMutability": "view",
      "type": "function"
    },
    {
      "inputs": [
        {
          "internalType": "address",
          "name": "spender",
          "type": "address"
        },
        {
          "internalType": "uint256",
          "name": "addedValue",
          "type": "uint256"
        }
      ],
      "name": "increaseAllowance",
      "outputs": [
        {
          "internalType": "bool",
          "name": "",
          "type": "bool"
        }
      ],
      "stateMutability": "nonpayable",
      "type": "function"
    },
    {
      "inputs": [],
      "name": "initialize",
      "outputs": [],
      "stateMutability": "nonpayable",
      "type": "function"
    },
    {
      "inputs": [
        {
          "internalType": "address",
          "name": "operator",
          "type": "address"
        }
      ],
      "name": "isOperator",
      "outputs": [
        {
          "internalType": "bool",
          "name": "",
          "type": "bool"
        }
      ],
      "stateMutability": "view",
      "type": "function"
    },
    {
      "inputs": [
        {
          "internalType": "address",
          "name": "to",
          "type": "address"
        },
        {
          "internalType": "uint256",
          "name": "amount",
          "type": "uint256"
        },
        {
          "internalType": "string",
          "name": "message",
          "type": "string"
        }
      ],
      "name": "mint",
      "outputs": [],
      "stateMutability": "nonpayable",
      "type": "function"
    },
    {
      "inputs": [],
      "name": "name",
      "outputs": [
        {
          "internalType": "string",
          "name": "",
          "type": "string"
        }
      ],
      "stateMutability": "view",
      "type": "function"
    },
    {
      "inputs": [],
      "name": "owner",
      "outputs": [
        {
          "internalType": "address",
          "name": "",
          "type": "address"
        }
      ],
      "stateMutability": "view",
      "type": "function"
    },
    {
      "inputs": [],
      "name": "proxiableUUID",
      "outputs": [
        {
          "internalType": "bytes32",
          "name": "",
          "type": "bytes32"
        }
      ],
      "stateMutability": "view",
      "type": "function"
    },
    {
      "inputs": [
        {
          "internalType": "address",
          "name": "operator",
          "type": "address"
        }
      ],
      "name": "removeOperator",
      "outputs": [],
      "stateMutability": "nonpayable",
      "type": "function"
    },
    {
      "inputs": [],
      "name": "renounceOwnership",
      "outputs": [],
      "stateMutability": "nonpayable",
      "type": "function"
    },
    {
      "inputs": [
        {
          "internalType": "address",
          "name": "operator",
          "type": "address"
        }
      ],
      "name": "setOperator",
      "outputs": [],
      "stateMutability": "nonpayable",
      "type": "function"
    },
    {
      "inputs": [],
      "name": "symbol",
      "outputs": [
        {
          "internalType": "string",
          "name": "",
          "type": "string"
        }
      ],
      "stateMutability": "view",
      "type": "function"
    },
    {
      "inputs": [],
      "name": "totalSupply",
      "outputs": [
        {
          "internalType": "uint256",
          "name": "",
          "type": "uint256"
        }
      ],
      "stateMutability": "view",
      "type": "function"
    },
    {
      "inputs": [
        {
          "internalType": "address",
          "name": "to",
          "type": "address"
        },
        {
          "internalType": "uint256",
          "name": "amount",
          "type": "uint256"
        }
      ],
      "name": "transfer",
      "outputs": [
        {
          "internalType": "bool",
          "name": "",
          "type": "bool"
        }
      ],
      "stateMutability": "nonpayable",
      "type": "function"
    },
    {
      "inputs": [
        {
          "internalType": "address",
          "name": "from",
          "type": "address"
        },
        {
          "internalType": "address",
          "name": "to",
          "type": "address"
        },
        {
          "internalType": "uint256",
          "name": "amount",
          "type": "uint256"
        }
      ],
      "name": "transferFrom",
      "outputs": [
        {
          "internalType": "bool",
          "name": "",
          "type": "bool"
        }
      ],
      "stateMutability": "nonpayable",
      "type": "function"
    },
    {
      "inputs": [
        {
          "internalType": "address",
          "name": "newOwner",
          "type": "address"
        }
      ],
      "name": "transferOwnership",
      "outputs": [],
      "stateMutability": "nonpayable",
      "type": "function"
    },
    {
      "inputs": [
        {
          "internalType": "address",
          "name": "newImplementation",
          "type": "address"
        }
      ],
      "name": "upgradeTo",
      "outputs": [],
      "stateMutability": "nonpayable",
      "type": "function"
    },
    {
      "inputs": [
        {
          "internalType": "address",
          "name": "newImplementation",
          "type": "address"
        },
        {
          "internalType": "bytes",
          "name": "data",
          "type": "bytes"
        }
      ],
      "name": "upgradeToAndCall",
      "outputs": [],
      "stateMutability": "payable",
      "type": "function"
    }
  ],
  "bytecode": "0x60a06040523073ffffffffffffffffffffffffffffffffffffffff1660809073ffffffffffffffffffffffffffffffffffffffff1660601b81525034801561004657600080fd5b5060805160601c6134326100816000396000818161066a015281816106f90152818161082a015281816108b9015261096901526134326000f3fe6080604052600436106101405760003560e01c8063715018a6116100b6578063aaf10f421161006f578063aaf10f4214610465578063ac8a584a14610490578063b3ab15fb146104b9578063d3fc9864146104e2578063dd62ed3e1461050b578063f2fde38b1461054857610140565b8063715018a6146103675780638129fc1c1461037e5780638da5cb5b1461039557806395d89b41146103c0578063a457c2d7146103eb578063a9059cbb1461042857610140565b80633659cfe6116101085780633659cfe61461024057806339509351146102695780634f1ef286146102a657806352d1902d146102c25780636d70f7ae146102ed57806370a082311461032a57610140565b806306fdde0314610145578063095ea7b31461017057806318160ddd146101ad57806323b872dd146101d8578063313ce56714610215575b600080fd5b34801561015157600080fd5b5061015a610571565b604051610167919061281d565b60405180910390f35b34801561017c57600080fd5b506101976004803603810190610192919061233e565b610603565b6040516101a491906127cc565b60405180910390f35b3480156101b957600080fd5b506101c2610626565b6040516101cf9190612abf565b60405180910390f35b3480156101e457600080fd5b506101ff60048036038101906101fa919061228f565b610630565b60405161020c91906127cc565b60405180910390f35b34801561022157600080fd5b5061022a61065f565b6040516102379190612b0a565b60405180910390f35b34801561024c57600080fd5b5061026760048036038101906102629190612222565b610668565b005b34801561027557600080fd5b50610290600480360381019061028b919061233e565b6107f1565b60405161029d91906127cc565b60405180910390f35b6102c060048036038101906102bb91906122e2565b610828565b005b3480156102ce57600080fd5b506102d7610965565b6040516102e491906127e7565b60405180910390f35b3480156102f957600080fd5b50610314600480360381019061030f9190612222565b610a1e565b60405161032191906127cc565b60405180910390f35b34801561033657600080fd5b50610351600480360381019061034c9190612222565b610a74565b60405161035e9190612abf565b60405180910390f35b34801561037357600080fd5b5061037c610abd565b005b34801561038a57600080fd5b50610393610ad1565b005b3480156103a157600080fd5b506103aa610ca0565b6040516103b791906127b1565b60405180910390f35b3480156103cc57600080fd5b506103d5610cca565b6040516103e2919061281d565b60405180910390f35b3480156103f757600080fd5b50610412600480360381019061040d919061233e565b610d5c565b60405161041f91906127cc565b60405180910390f35b34801561043457600080fd5b5061044f600480360381019061044a919061233e565b610dd3565b60405161045c91906127cc565b60405180910390f35b34801561047157600080fd5b5061047a610df6565b60405161048791906127b1565b60405180910390f35b34801561049c57600080fd5b506104b760048036038101906104b29190612222565b610e05565b005b3480156104c557600080fd5b506104e060048036038101906104db9190612222565b610e68565b005b3480156104ee57600080fd5b506105096004803603810190610504919061237e565b610ecb565b005b34801561051757600080fd5b50610532600480360381019061052d919061224f565b610fb6565b60405161053f9190612abf565b60405180910390f35b34801561055457600080fd5b5061056f600480360381019061056a9190612222565b61103d565b005b60606036805461058090612ce7565b80601f01602080910402602001604051908101604052809291908181526020018280546105ac90612ce7565b80156105f95780601f106105ce576101008083540402835291602001916105f9565b820191906000526020600020905b8154815290600101906020018083116105dc57829003601f168201915b5050505050905090565b60008061060e6110c1565b905061061b8185856110c9565b600191505092915050565b6000603554905090565b60008061063b6110c1565b9050610648858285611294565b610653858585611320565b60019150509392505050565b60006012905090565b7f000000000000000000000000000000000000000000000000000000000000000073ffffffffffffffffffffffffffffffffffffffff163073ffffffffffffffffffffffffffffffffffffffff1614156106f7576040517f08c379a00000000000000000000000000000000000000000000000000000000081526004016106ee9061289f565b60405180910390fd5b7f000000000000000000000000000000000000000000000000000000000000000073ffffffffffffffffffffffffffffffffffffffff1661073661159b565b73ffffffffffffffffffffffffffffffffffffffff161461078c576040517f08c379a0000000000000000000000000000000000000000000000000000000008152600401610783906128ff565b60405180910390fd5b610795816115f2565b6107ee81600067ffffffffffffffff8111156107b4576107b3612da8565b5b6040519080825280601f01601f1916602001820160405280156107e65781602001600182028036833780820191505090505b5060006115fd565b50565b6000806107fc6110c1565b905061081d81858561080e8589610fb6565b6108189190612bde565b6110c9565b600191505092915050565b7f000000000000000000000000000000000000000000000000000000000000000073ffffffffffffffffffffffffffffffffffffffff163073ffffffffffffffffffffffffffffffffffffffff1614156108b7576040517f08c379a00000000000000000000000000000000000000000000000000000000081526004016108ae9061289f565b60405180910390fd5b7f000000000000000000000000000000000000000000000000000000000000000073ffffffffffffffffffffffffffffffffffffffff166108f661159b565b73ffffffffffffffffffffffffffffffffffffffff161461094c576040517f08c379a0000000000000000000000000000000000000000000000000000000008152600401610943906128ff565b60405180910390fd5b610955826115f2565b610961828260016115fd565b5050565b60007f000000000000000000000000000000000000000000000000000000000000000073ffffffffffffffffffffffffffffffffffffffff163073ffffffffffffffffffffffffffffffffffffffff16146109f5576040517f08c379a00000000000000000000000000000000000000000000000000000000081526004016109ec9061291f565b60405180910390fd5b7f360894a13ba1a3210667c828492db98dca3e2076cc3735a920a3ca505d382bbc60001b905090565b6000609760008373ffffffffffffffffffffffffffffffffffffffff1673ffffffffffffffffffffffffffffffffffffffff16815260200190815260200160002060009054906101000a900460ff169050919050565b6000603360008373ffffffffffffffffffffffffffffffffffffffff1673ffffffffffffffffffffffffffffffffffffffff168152602001908152602001600020549050919050565b610ac561177a565b610acf60006117f8565b565b60008060019054906101000a900460ff16159050808015610b025750600160008054906101000a900460ff1660ff16105b80610b2f5750610b11306118be565b158015610b2e5750600160008054906101000a900460ff1660ff16145b5b610b6e576040517f08c379a0000000000000000000000000000000000000000000000000000000008152600401610b659061295f565b60405180910390fd5b60016000806101000a81548160ff021916908360ff1602179055508015610bab576001600060016101000a81548160ff0219169083151502179055505b610c1f6040518060400160405280600981526020017f44656f64642d55534400000000000000000000000000000000000000000000008152506040518060400160405280600481526020017f44555344000000000000000000000000000000000000000000000000000000008152506118e1565b610c2761193e565b610c2f611ad4565b610c44336a52b7d2dcc80cd2e4000000611b25565b8015610c9d5760008060016101000a81548160ff0219169083151502179055507f7f26b83ff96e1f2b6a682f133852f6798a09c465da95921460cefb38474024986001604051610c949190612802565b60405180910390a15b50565b6000606560009054906101000a900473ffffffffffffffffffffffffffffffffffffffff16905090565b606060378054610cd990612ce7565b80601f0160208091040260200160405190810160405280929190818152602001828054610d0590612ce7565b8015610d525780601f10610d2757610100808354040283529160200191610d52565b820191906000526020600020905b815481529060010190602001808311610d3557829003601f168201915b5050505050905090565b600080610d676110c1565b90506000610d758286610fb6565b905083811015610dba576040517f08c379a0000000000000000000000000000000000000000000000000000000008152600401610db190612a7f565b60405180910390fd5b610dc782868684036110c9565b60019250505092915050565b600080610dde6110c1565b9050610deb818585611320565b600191505092915050565b6000610e0061159b565b905090565b610e0d61177a565b6000609760008373ffffffffffffffffffffffffffffffffffffffff1673ffffffffffffffffffffffffffffffffffffffff16815260200190815260200160002060006101000a81548160ff02191690831515021790555050565b610e7061177a565b6001609760008373ffffffffffffffffffffffffffffffffffffffff1673ffffffffffffffffffffffffffffffffffffffff16815260200190815260200160002060006101000a81548160ff02191690831515021790555050565b609760003373ffffffffffffffffffffffffffffffffffffffff1673ffffffffffffffffffffffffffffffffffffffff16815260200190815260200160002060009054906101000a900460ff16610f57576040517f08c379a0000000000000000000000000000000000000000000000000000000008152600401610f4e9061297f565b60405180910390fd5b610f618383611b25565b8273ffffffffffffffffffffffffffffffffffffffff167f701d664d7f3c314fb56fed5438db55f9124b16eb5a520d72656cf81a19286ed08383604051610fa9929190612ada565b60405180910390a2505050565b6000603460008473ffffffffffffffffffffffffffffffffffffffff1673ffffffffffffffffffffffffffffffffffffffff16815260200190815260200160002060008373ffffffffffffffffffffffffffffffffffffffff1673ffffffffffffffffffffffffffffffffffffffff16815260200190815260200160002054905092915050565b61104561177a565b600073ffffffffffffffffffffffffffffffffffffffff168173ffffffffffffffffffffffffffffffffffffffff1614156110b5576040517f08c379a00000000000000000000000000000000000000000000000000000000081526004016110ac9061285f565b60405180910390fd5b6110be816117f8565b50565b600033905090565b600073ffffffffffffffffffffffffffffffffffffffff168373ffffffffffffffffffffffffffffffffffffffff161415611139576040517f08c379a000000000000000000000000000000000000000000000000000000000815260040161113090612a3f565b60405180910390fd5b600073ffffffffffffffffffffffffffffffffffffffff168273ffffffffffffffffffffffffffffffffffffffff1614156111a9576040517f08c379a00000000000000000000000000000000000000000000000000000000081526004016111a09061287f565b60405180910390fd5b80603460008573ffffffffffffffffffffffffffffffffffffffff1673ffffffffffffffffffffffffffffffffffffffff16815260200190815260200160002060008473ffffffffffffffffffffffffffffffffffffffff1673ffffffffffffffffffffffffffffffffffffffff168152602001908152602001600020819055508173ffffffffffffffffffffffffffffffffffffffff168373ffffffffffffffffffffffffffffffffffffffff167f8c5be1e5ebec7d5bd14f71427d1e84f3dd0314c0f7b2291e5b200ac8c7c3b925836040516112879190612abf565b60405180910390a3505050565b60006112a08484610fb6565b90507fffffffffffffffffffffffffffffffffffffffffffffffffffffffffffffffff811461131a578181101561130c576040517f08c379a0000000000000000000000000000000000000000000000000000000008152600401611303906128bf565b60405180910390fd5b61131984848484036110c9565b5b50505050565b600073ffffffffffffffffffffffffffffffffffffffff168373ffffffffffffffffffffffffffffffffffffffff161415611390576040517f08c379a000000000000000000000000000000000000000000000000000000000815260040161138790612a1f565b60405180910390fd5b600073ffffffffffffffffffffffffffffffffffffffff168273ffffffffffffffffffffffffffffffffffffffff161415611400576040517f08c379a00000000000000000000000000000000000000000000000000000000081526004016113f79061283f565b60405180910390fd5b61140b838383611c7d565b6000603360008573ffffffffffffffffffffffffffffffffffffffff1673ffffffffffffffffffffffffffffffffffffffff16815260200190815260200160002054905081811015611492576040517f08c379a0000000000000000000000000000000000000000000000000000000008152600401611489906128df565b60405180910390fd5b818103603360008673ffffffffffffffffffffffffffffffffffffffff1673ffffffffffffffffffffffffffffffffffffffff1681526020019081526020016000208190555081603360008573ffffffffffffffffffffffffffffffffffffffff1673ffffffffffffffffffffffffffffffffffffffff168152602001908152602001600020600082825401925050819055508273ffffffffffffffffffffffffffffffffffffffff168473ffffffffffffffffffffffffffffffffffffffff167fddf252ad1be2c89b69c2b068fc378daa952ba7f163c4a11628f55a4df523b3ef846040516115829190612abf565b60405180910390a3611595848484611c82565b50505050565b60006115c97f360894a13ba1a3210667c828492db98dca3e2076cc3735a920a3ca505d382bbc60001b611c87565b60000160009054906101000a900473ffffffffffffffffffffffffffffffffffffffff16905090565b6115fa61177a565b50565b6116297f4910fdfa16fed3260ed0e7147f7cc6da11a60208b5b9406d12a635614ffd914360001b611c91565b60000160009054906101000a900460ff161561164d5761164883611c9b565b611775565b8273ffffffffffffffffffffffffffffffffffffffff166352d1902d6040518163ffffffff1660e01b815260040160206040518083038186803b15801561169357600080fd5b505afa9250505080156116c457506040513d601f19601f820116820180604052508101906116c191906123ed565b60015b611703576040517f08c379a00000000000000000000000000000000000000000000000000000000081526004016116fa9061299f565b60405180910390fd5b7f360894a13ba1a3210667c828492db98dca3e2076cc3735a920a3ca505d382bbc60001b8114611768576040517f08c379a000000000000000000000000000000000000000000000000000000000815260040161175f9061293f565b60405180910390fd5b50611774838383611d54565b5b505050565b6117826110c1565b73ffffffffffffffffffffffffffffffffffffffff166117a0610ca0565b73ffffffffffffffffffffffffffffffffffffffff16146117f6576040517f08c379a00000000000000000000000000000000000000000000000000000000081526004016117ed906129df565b60405180910390fd5b565b6000606560009054906101000a900473ffffffffffffffffffffffffffffffffffffffff16905081606560006101000a81548173ffffffffffffffffffffffffffffffffffffffff021916908373ffffffffffffffffffffffffffffffffffffffff1602179055508173ffffffffffffffffffffffffffffffffffffffff168173ffffffffffffffffffffffffffffffffffffffff167f8be0079c531659141344cd1fd0a4f28419497f9722a3daafe3b4186f6b6457e060405160405180910390a35050565b6000808273ffffffffffffffffffffffffffffffffffffffff163b119050919050565b600060019054906101000a900460ff16611930576040517f08c379a000000000000000000000000000000000000000000000000000000000815260040161192790612a5f565b60405180910390fd5b61193a8282611d80565b5050565b60008060019054906101000a900460ff1615905080801561196f5750600160008054906101000a900460ff1660ff16105b8061199c575061197e306118be565b15801561199b5750600160008054906101000a900460ff1660ff16145b5b6119db576040517f08c379a00000000000000000000000000000000000000000000000000000000081526004016119d29061295f565b60405180910390fd5b60016000806101000a81548160ff021916908360ff1602179055508015611a18576001600060016101000a81548160ff0219169083151502179055505b611a20611e01565b6001609760003373ffffffffffffffffffffffffffffffffffffffff1673ffffffffffffffffffffffffffffffffffffffff16815260200190815260200160002060006101000a81548160ff0219169083151502179055508015611ad15760008060016101000a81548160ff0219169083151502179055507f7f26b83ff96e1f2b6a682f133852f6798a09c465da95921460cefb38474024986001604051611ac89190612802565b60405180910390a15b50565b600060019054906101000a900460ff16611b23576040517f08c379a0000000000000000000000000000000000000000000000000000000008152600401611b1a90612a5f565b60405180910390fd5b565b600073ffffffffffffffffffffffffffffffffffffffff168273ffffffffffffffffffffffffffffffffffffffff161415611b95576040517f08c379a0000000000000000000000000000000000000000000000000000000008152600401611b8c90612a9f565b60405180910390fd5b611ba160008383611c7d565b8060356000828254611bb39190612bde565b9250508190555080603360008473ffffffffffffffffffffffffffffffffffffffff1673ffffffffffffffffffffffffffffffffffffffff168152602001908152602001600020600082825401925050819055508173ffffffffffffffffffffffffffffffffffffffff16600073ffffffffffffffffffffffffffffffffffffffff167fddf252ad1be2c89b69c2b068fc378daa952ba7f163c4a11628f55a4df523b3ef83604051611c659190612abf565b60405180910390a3611c7960008383611c82565b5050565b505050565b505050565b6000819050919050565b6000819050919050565b611ca4816118be565b611ce3576040517f08c379a0000000000000000000000000000000000000000000000000000000008152600401611cda906129bf565b60405180910390fd5b80611d107f360894a13ba1a3210667c828492db98dca3e2076cc3735a920a3ca505d382bbc60001b611c87565b60000160006101000a81548173ffffffffffffffffffffffffffffffffffffffff021916908373ffffffffffffffffffffffffffffffffffffffff16021790555050565b611d5d83611e5a565b600082511180611d6a5750805b15611d7b57611d798383611ea9565b505b505050565b600060019054906101000a900460ff16611dcf576040517f08c379a0000000000000000000000000000000000000000000000000000000008152600401611dc690612a5f565b60405180910390fd5b8160369080519060200190611de5929190612060565b508060379080519060200190611dfc929190612060565b505050565b600060019054906101000a900460ff16611e50576040517f08c379a0000000000000000000000000000000000000000000000000000000008152600401611e4790612a5f565b60405180910390fd5b611e58611f8d565b565b611e6381611c9b565b8073ffffffffffffffffffffffffffffffffffffffff167fbc7cd75a20ee27fd9adebab32041f755214dbc6bffa90cc0225b39da2e5c2d3b60405160405180910390a250565b6060611eb4836118be565b611ef3576040517f08c379a0000000000000000000000000000000000000000000000000000000008152600401611eea906129ff565b60405180910390fd5b6000808473ffffffffffffffffffffffffffffffffffffffff1684604051611f1b919061279a565b600060405180830381855af49150503d8060008114611f56576040519150601f19603f3d011682016040523d82523d6000602084013e611f5b565b606091505b5091509150611f8382826040518060600160405280602781526020016133d660279139611fee565b9250505092915050565b600060019054906101000a900460ff16611fdc576040517f08c379a0000000000000000000000000000000000000000000000000000000008152600401611fd390612a5f565b60405180910390fd5b611fec611fe76110c1565b6117f8565b565b60608315611ffe57829050612009565b6120088383612010565b5b9392505050565b6000825111156120235781518083602001fd5b806040517f08c379a0000000000000000000000000000000000000000000000000000000008152600401612057919061281d565b60405180910390fd5b82805461206c90612ce7565b90600052602060002090601f01602090048101928261208e57600085556120d5565b82601f106120a757805160ff19168380011785556120d5565b828001600101855582156120d5579182015b828111156120d45782518255916020019190600101906120b9565b5b5090506120e291906120e6565b5090565b5b808211156120ff5760008160009055506001016120e7565b5090565b600061211661211184612b4a565b612b25565b90508281526020810184848401111561213257612131612ddc565b5b61213d848285612ca5565b509392505050565b600061215861215384612b7b565b612b25565b90508281526020810184848401111561217457612173612ddc565b5b61217f848285612ca5565b509392505050565b60008135905061219681613390565b92915050565b6000815190506121ab816133a7565b92915050565b600082601f8301126121c6576121c5612dd7565b5b81356121d6848260208601612103565b91505092915050565b600082601f8301126121f4576121f3612dd7565b5b8135612204848260208601612145565b91505092915050565b60008135905061221c816133be565b92915050565b60006020828403121561223857612237612de6565b5b600061224684828501612187565b91505092915050565b6000806040838503121561226657612265612de6565b5b600061227485828601612187565b925050602061228585828601612187565b9150509250929050565b6000806000606084860312156122a8576122a7612de6565b5b60006122b686828701612187565b93505060206122c786828701612187565b92505060406122d88682870161220d565b9150509250925092565b600080604083850312156122f9576122f8612de6565b5b600061230785828601612187565b925050602083013567ffffffffffffffff81111561232857612327612de1565b5b612334858286016121b1565b9150509250929050565b6000806040838503121561235557612354612de6565b5b600061236385828601612187565b92505060206123748582860161220d565b9150509250929050565b60008060006060848603121561239757612396612de6565b5b60006123a586828701612187565b93505060206123b68682870161220d565b925050604084013567ffffffffffffffff8111156123d7576123d6612de1565b5b6123e3868287016121df565b9150509250925092565b60006020828403121561240357612402612de6565b5b60006124118482850161219c565b91505092915050565b61242381612c34565b82525050565b61243281612c46565b82525050565b61244181612c52565b82525050565b600061245282612bac565b61245c8185612bc2565b935061246c818560208601612cb4565b80840191505092915050565b61248181612c93565b82525050565b600061249282612bb7565b61249c8185612bcd565b93506124ac818560208601612cb4565b6124b581612deb565b840191505092915050565b60006124cd602383612bcd565b91506124d882612dfc565b604082019050919050565b60006124f0602683612bcd565b91506124fb82612e4b565b604082019050919050565b6000612513602283612bcd565b915061251e82612e9a565b604082019050919050565b6000612536602c83612bcd565b915061254182612ee9565b604082019050919050565b6000612559601d83612bcd565b915061256482612f38565b602082019050919050565b600061257c602683612bcd565b915061258782612f61565b604082019050919050565b600061259f602c83612bcd565b91506125aa82612fb0565b604082019050919050565b60006125c2603883612bcd565b91506125cd82612fff565b604082019050919050565b60006125e5602983612bcd565b91506125f08261304e565b604082019050919050565b6000612608602e83612bcd565b91506126138261309d565b604082019050919050565b600061262b601b83612bcd565b9150612636826130ec565b602082019050919050565b600061264e602e83612bcd565b915061265982613115565b604082019050919050565b6000612671602d83612bcd565b915061267c82613164565b604082019050919050565b6000612694602083612bcd565b915061269f826131b3565b602082019050919050565b60006126b7602683612bcd565b91506126c2826131dc565b604082019050919050565b60006126da602583612bcd565b91506126e58261322b565b604082019050919050565b60006126fd602483612bcd565b91506127088261327a565b604082019050919050565b6000612720602b83612bcd565b915061272b826132c9565b604082019050919050565b6000612743602583612bcd565b915061274e82613318565b604082019050919050565b6000612766601f83612bcd565b915061277182613367565b602082019050919050565b61278581612c7c565b82525050565b61279481612c86565b82525050565b60006127a68284612447565b915081905092915050565b60006020820190506127c6600083018461241a565b92915050565b60006020820190506127e16000830184612429565b92915050565b60006020820190506127fc6000830184612438565b92915050565b60006020820190506128176000830184612478565b92915050565b600060208201905081810360008301526128378184612487565b905092915050565b60006020820190508181036000830152612858816124c0565b9050919050565b60006020820190508181036000830152612878816124e3565b9050919050565b6000602082019050818103600083015261289881612506565b9050919050565b600060208201905081810360008301526128b881612529565b9050919050565b600060208201905081810360008301526128d88161254c565b9050919050565b600060208201905081810360008301526128f88161256f565b9050919050565b6000602082019050818103600083015261291881612592565b9050919050565b60006020820190508181036000830152612938816125b5565b9050919050565b60006020820190508181036000830152612958816125d8565b9050919050565b60006020820190508181036000830152612978816125fb565b9050919050565b600060208201905081810360008301526129988161261e565b9050919050565b600060208201905081810360008301526129b881612641565b9050919050565b600060208201905081810360008301526129d881612664565b9050919050565b600060208201905081810360008301526129f881612687565b9050919050565b60006020820190508181036000830152612a18816126aa565b9050919050565b60006020820190508181036000830152612a38816126cd565b9050919050565b60006020820190508181036000830152612a58816126f0565b9050919050565b60006020820190508181036000830152612a7881612713565b9050919050565b60006020820190508181036000830152612a9881612736565b9050919050565b60006020820190508181036000830152612ab881612759565b9050919050565b6000602082019050612ad4600083018461277c565b92915050565b6000604082019050612aef600083018561277c565b8181036020830152612b018184612487565b90509392505050565b6000602082019050612b1f600083018461278b565b92915050565b6000612b2f612b40565b9050612b3b8282612d19565b919050565b6000604051905090565b600067ffffffffffffffff821115612b6557612b64612da8565b5b612b6e82612deb565b9050602081019050919050565b600067ffffffffffffffff821115612b9657612b95612da8565b5b612b9f82612deb565b9050602081019050919050565b600081519050919050565b600081519050919050565b600081905092915050565b600082825260208201905092915050565b6000612be982612c7c565b9150612bf483612c7c565b9250827fffffffffffffffffffffffffffffffffffffffffffffffffffffffffffffffff03821115612c2957612c28612d4a565b5b828201905092915050565b6000612c3f82612c5c565b9050919050565b60008115159050919050565b6000819050919050565b600073ffffffffffffffffffffffffffffffffffffffff82169050919050565b6000819050919050565b600060ff82169050919050565b6000612c9e82612c86565b9050919050565b82818337600083830152505050565b60005b83811015612cd2578082015181840152602081019050612cb7565b83811115612ce1576000848401525b50505050565b60006002820490506001821680612cff57607f821691505b60208210811415612d1357612d12612d79565b5b50919050565b612d2282612deb565b810181811067ffffffffffffffff82111715612d4157612d40612da8565b5b80604052505050565b7f4e487b7100000000000000000000000000000000000000000000000000000000600052601160045260246000fd5b7f4e487b7100000000000000000000000000000000000000000000000000000000600052602260045260246000fd5b7f4e487b7100000000000000000000000000000000000000000000000000000000600052604160045260246000fd5b600080fd5b600080fd5b600080fd5b600080fd5b6000601f19601f8301169050919050565b7f45524332303a207472616e7366657220746f20746865207a65726f206164647260008201527f6573730000000000000000000000000000000000000000000000000000000000602082015250565b7f4f776e61626c653a206e6577206f776e657220697320746865207a65726f206160008201527f6464726573730000000000000000000000000000000000000000000000000000602082015250565b7f45524332303a20617070726f766520746f20746865207a65726f20616464726560008201527f7373000000000000000000000000000000000000000000000000000000000000602082015250565b7f46756e6374696f6e206d7573742062652063616c6c6564207468726f7567682060008201527f64656c656761746563616c6c0000000000000000000000000000000000000000602082015250565b7f45524332303a20696e73756666696369656e7420616c6c6f77616e6365000000600082015250565b7f45524332303a207472616e7366657220616d6f756e742065786365656473206260008201527f616c616e63650000000000000000000000000000000000000000000000000000602082015250565b7f46756e6374696f6e206d7573742062652063616c6c6564207468726f7567682060008201527f6163746976652070726f78790000000000000000000000000000000000000000602082015250565b7f555550535570677261646561626c653a206d757374206e6f742062652063616c60008201527f6c6564207468726f7567682064656c656761746563616c6c0000000000000000602082015250565b7f45524331393637557067726164653a20756e737570706f727465642070726f7860008201527f6961626c65555549440000000000000000000000000000000000000000000000602082015250565b7f496e697469616c697a61626c653a20636f6e747261637420697320616c72656160008201527f647920696e697469616c697a6564000000000000000000000000000000000000602082015250565b7f63616c6c6572206973206e6f7420746865206f70657261746f72730000000000600082015250565b7f45524331393637557067726164653a206e657720696d706c656d656e7461746960008201527f6f6e206973206e6f742055555053000000000000000000000000000000000000602082015250565b7f455243313936373a206e657720696d706c656d656e746174696f6e206973206e60008201527f6f74206120636f6e747261637400000000000000000000000000000000000000602082015250565b7f4f776e61626c653a2063616c6c6572206973206e6f7420746865206f776e6572600082015250565b7f416464726573733a2064656c65676174652063616c6c20746f206e6f6e2d636f60008201527f6e74726163740000000000000000000000000000000000000000000000000000602082015250565b7f45524332303a207472616e736665722066726f6d20746865207a65726f20616460008201527f6472657373000000000000000000000000000000000000000000000000000000602082015250565b7f45524332303a20617070726f76652066726f6d20746865207a65726f2061646460008201527f7265737300000000000000000000000000000000000000000000000000000000602082015250565b7f496e697469616c697a61626c653a20636f6e7472616374206973206e6f74206960008201527f6e697469616c697a696e67000000000000000000000000000000000000000000602082015250565b7f45524332303a2064656372656173656420616c6c6f77616e63652062656c6f7760008201527f207a65726f000000000000000000000000000000000000000000000000000000602082015250565b7f45524332303a206d696e7420746f20746865207a65726f206164647265737300600082015250565b61339981612c34565b81146133a457600080fd5b50565b6133b081612c52565b81146133bb57600080fd5b50565b6133c781612c7c565b81146133d257600080fd5b5056fe416464726573733a206c6f772d6c6576656c2064656c65676174652063616c6c206661696c6564a26469706673582212205c9d297de647190b48be394073e5fd008d6fa474a3dce7c6ace385383751e1b364736f6c63430008070033",
  "linkReferences": {},
  "deployedLinkReferences": {}
}