{
  "_format": "hh-sol-artifact-1",
  "contractName": "DeoddNFT",
  "sourceName": "contracts/DeoddNFT.sol",
  "abi": [
    {
      "inputs": [],
      "stateMutability": "nonpayable",
      "type": "constructor"
    },
    {
      "anonymous": false,
      "inputs": [
        {
          "indexed": true,
          "internalType": "address",
          "name": "owner",
          "type": "address"
        },
        {
          "indexed": true,
          "internalType": "address",
          "name": "approved",
          "type": "address"
        },
        {
          "indexed": true,
          "internalType": "uint256",
          "name": "tokenId",
          "type": "uint256"
        }
      ],
      "name": "Approval",
      "type": "event"
    },
    {
      "anonymous": false,
      "inputs": [
        {
          "indexed": true,
          "internalType": "address",
          "name": "owner",
          "type": "address"
        },
        {
          "indexed": true,
          "internalType": "address",
          "name": "operator",
          "type": "address"
        },
        {
          "indexed": false,
          "internalType": "bool",
          "name": "approved",
          "type": "bool"
        }
      ],
      "name": "ApprovalForAll",
      "type": "event"
    },
    {
      "anonymous": false,
      "inputs": [
        {
          "indexed": true,
          "internalType": "address",
          "name": "to",
          "type": "address"
        },
        {
          "indexed": false,
          "internalType": "uint256",
          "name": "tokenId",
          "type": "uint256"
        }
      ],
      "name": "MintNFT",
      "type": "event"
    },
    {
      "anonymous": false,
      "inputs": [
        {
          "indexed": true,
          "internalType": "address",
          "name": "previousOwner",
          "type": "address"
        },
        {
          "indexed": true,
          "internalType": "address",
          "name": "newOwner",
          "type": "address"
        }
      ],
      "name": "OwnershipTransferred",
      "type": "event"
    },
    {
      "anonymous": false,
      "inputs": [
        {
          "indexed": true,
          "internalType": "address",
          "name": "to",
          "type": "address"
        },
        {
          "indexed": false,
          "internalType": "uint256",
          "name": "tokenId",
          "type": "uint256"
        }
      ],
      "name": "SpawnNFT",
      "type": "event"
    },
    {
      "anonymous": false,
      "inputs": [
        {
          "indexed": true,
          "internalType": "address",
          "name": "from",
          "type": "address"
        },
        {
          "indexed": true,
          "internalType": "address",
          "name": "to",
          "type": "address"
        },
        {
          "indexed": true,
          "internalType": "uint256",
          "name": "tokenId",
          "type": "uint256"
        }
      ],
      "name": "Transfer",
      "type": "event"
    },
    {
      "inputs": [
        {
          "internalType": "address",
          "name": "to",
          "type": "address"
        },
        {
          "internalType": "uint256",
          "name": "tokenId",
          "type": "uint256"
        }
      ],
      "name": "approve",
      "outputs": [],
      "stateMutability": "nonpayable",
      "type": "function"
    },
    {
      "inputs": [
        {
          "internalType": "uint256",
          "name": "typeId",
          "type": "uint256"
        }
      ],
      "name": "availableNFT",
      "outputs": [
        {
          "internalType": "bool",
          "name": "",
          "type": "bool"
        }
      ],
      "stateMutability": "view",
      "type": "function"
    },
    {
      "inputs": [
        {
          "internalType": "address",
          "name": "owner",
          "type": "address"
        }
      ],
      "name": "balanceOf",
      "outputs": [
        {
          "internalType": "uint256",
          "name": "",
          "type": "uint256"
        }
      ],
      "stateMutability": "view",
      "type": "function"
    },
    {
      "inputs": [
        {
          "internalType": "uint256",
          "name": "tokenId",
          "type": "uint256"
        }
      ],
      "name": "claimToWallet",
      "outputs": [],
      "stateMutability": "nonpayable",
      "type": "function"
    },
    {
      "inputs": [
        {
          "internalType": "uint256",
          "name": "tokenId",
          "type": "uint256"
        }
      ],
      "name": "getApproved",
      "outputs": [
        {
          "internalType": "address",
          "name": "",
          "type": "address"
        }
      ],
      "stateMutability": "view",
      "type": "function"
    },
    {
      "inputs": [],
      "name": "getClaimedNFT",
      "outputs": [
        {
          "internalType": "uint256",
          "name": "",
          "type": "uint256"
        }
      ],
      "stateMutability": "view",
      "type": "function"
    },
    {
      "inputs": [],
      "name": "getSpawnedNFT",
      "outputs": [
        {
          "internalType": "uint256",
          "name": "",
          "type": "uint256"
        }
      ],
      "stateMutability": "view",
      "type": "function"
    },
    {
      "inputs": [
        {
          "internalType": "address",
          "name": "wallet",
          "type": "address"
        }
      ],
      "name": "getSpendingTokenNum",
      "outputs": [
        {
          "internalType": "uint256",
          "name": "",
          "type": "uint256"
        }
      ],
      "stateMutability": "view",
      "type": "function"
    },
    {
      "inputs": [
        {
          "internalType": "address",
          "name": "wallet",
          "type": "address"
        }
      ],
      "name": "getSpendingTokens",
      "outputs": [
        {
          "internalType": "bytes32[]",
          "name": "",
          "type": "bytes32[]"
        }
      ],
      "stateMutability": "view",
      "type": "function"
    },
    {
      "inputs": [
        {
          "internalType": "uint256",
          "name": "tokenId",
          "type": "uint256"
        }
      ],
      "name": "getTokenTypeId",
      "outputs": [
        {
          "internalType": "uint256",
          "name": "",
          "type": "uint256"
        }
      ],
      "stateMutability": "view",
      "type": "function"
    },
    {
      "inputs": [
        {
          "internalType": "uint256",
          "name": "tokenId",
          "type": "uint256"
        }
      ],
      "name": "getTokenTypeName",
      "outputs": [
        {
          "internalType": "string",
          "name": "",
          "type": "string"
        }
      ],
      "stateMutability": "view",
      "type": "function"
    },
    {
      "inputs": [
        {
          "internalType": "address",
          "name": "wallet",
          "type": "address"
        }
      ],
      "name": "getWalletTokenNum",
      "outputs": [
        {
          "internalType": "uint256",
          "name": "",
          "type": "uint256"
        }
      ],
      "stateMutability": "view",
      "type": "function"
    },
    {
      "inputs": [
        {
          "internalType": "address",
          "name": "wallet",
          "type": "address"
        }
      ],
      "name": "getWalletTokens",
      "outputs": [
        {
          "internalType": "bytes32[]",
          "name": "",
          "type": "bytes32[]"
        }
      ],
      "stateMutability": "view",
      "type": "function"
    },
    {
      "inputs": [
        {
          "internalType": "address",
          "name": "owner",
          "type": "address"
        },
        {
          "internalType": "address",
          "name": "operator",
          "type": "address"
        }
      ],
      "name": "isApprovedForAll",
      "outputs": [
        {
          "internalType": "bool",
          "name": "",
          "type": "bool"
        }
      ],
      "stateMutability": "view",
      "type": "function"
    },
    {
      "inputs": [
        {
          "internalType": "address",
          "name": "operator",
          "type": "address"
        }
      ],
      "name": "isOperator",
      "outputs": [
        {
          "internalType": "bool",
          "name": "",
          "type": "bool"
        }
      ],
      "stateMutability": "view",
      "type": "function"
    },
    {
      "inputs": [],
      "name": "name",
      "outputs": [
        {
          "internalType": "string",
          "name": "",
          "type": "string"
        }
      ],
      "stateMutability": "view",
      "type": "function"
    },
    {
      "inputs": [],
      "name": "owner",
      "outputs": [
        {
          "internalType": "address",
          "name": "",
          "type": "address"
        }
      ],
      "stateMutability": "view",
      "type": "function"
    },
    {
      "inputs": [
        {
          "internalType": "uint256",
          "name": "tokenId",
          "type": "uint256"
        }
      ],
      "name": "ownerOf",
      "outputs": [
        {
          "internalType": "address",
          "name": "",
          "type": "address"
        }
      ],
      "stateMutability": "view",
      "type": "function"
    },
    {
      "inputs": [
        {
          "internalType": "address",
          "name": "operator",
          "type": "address"
        }
      ],
      "name": "removeOperator",
      "outputs": [],
      "stateMutability": "nonpayable",
      "type": "function"
    },
    {
      "inputs": [],
      "name": "renounceOwnership",
      "outputs": [],
      "stateMutability": "nonpayable",
      "type": "function"
    },
    {
      "inputs": [
        {
          "internalType": "address",
          "name": "from",
          "type": "address"
        },
        {
          "internalType": "address",
          "name": "to",
          "type": "address"
        },
        {
          "internalType": "uint256",
          "name": "tokenId",
          "type": "uint256"
        }
      ],
      "name": "safeTransferFrom",
      "outputs": [],
      "stateMutability": "nonpayable",
      "type": "function"
    },
    {
      "inputs": [
        {
          "internalType": "address",
          "name": "from",
          "type": "address"
        },
        {
          "internalType": "address",
          "name": "to",
          "type": "address"
        },
        {
          "internalType": "uint256",
          "name": "tokenId",
          "type": "uint256"
        },
        {
          "internalType": "bytes",
          "name": "data",
          "type": "bytes"
        }
      ],
      "name": "safeTransferFrom",
      "outputs": [],
      "stateMutability": "nonpayable",
      "type": "function"
    },
    {
      "inputs": [
        {
          "internalType": "address",
          "name": "operator",
          "type": "address"
        },
        {
          "internalType": "bool",
          "name": "approved",
          "type": "bool"
        }
      ],
      "name": "setApprovalForAll",
      "outputs": [],
      "stateMutability": "nonpayable",
      "type": "function"
    },
    {
      "inputs": [
        {
          "internalType": "string",
          "name": "baseURI",
          "type": "string"
        }
      ],
      "name": "setBaseTokenURI",
      "outputs": [],
      "stateMutability": "nonpayable",
      "type": "function"
    },
    {
      "inputs": [
        {
          "internalType": "address",
          "name": "operator",
          "type": "address"
        }
      ],
      "name": "setOperator",
      "outputs": [],
      "stateMutability": "nonpayable",
      "type": "function"
    },
    {
      "inputs": [
        {
          "internalType": "address",
          "name": "to",
          "type": "address"
        },
        {
          "internalType": "uint256",
          "name": "typeId",
          "type": "uint256"
        }
      ],
      "name": "spawn",
      "outputs": [
        {
          "internalType": "uint256",
          "name": "",
          "type": "uint256"
        }
      ],
      "stateMutability": "nonpayable",
      "type": "function"
    },
    {
      "inputs": [
        {
          "internalType": "bytes4",
          "name": "interfaceId",
          "type": "bytes4"
        }
      ],
      "name": "supportsInterface",
      "outputs": [
        {
          "internalType": "bool",
          "name": "",
          "type": "bool"
        }
      ],
      "stateMutability": "view",
      "type": "function"
    },
    {
      "inputs": [],
      "name": "symbol",
      "outputs": [
        {
          "internalType": "string",
          "name": "",
          "type": "string"
        }
      ],
      "stateMutability": "view",
      "type": "function"
    },
    {
      "inputs": [
        {
          "internalType": "uint256",
          "name": "tokenId",
          "type": "uint256"
        }
      ],
      "name": "tokenURI",
      "outputs": [
        {
          "internalType": "string",
          "name": "",
          "type": "string"
        }
      ],
      "stateMutability": "view",
      "type": "function"
    },
    {
      "inputs": [
        {
          "internalType": "address",
          "name": "from",
          "type": "address"
        },
        {
          "internalType": "address",
          "name": "to",
          "type": "address"
        },
        {
          "internalType": "uint256",
          "name": "tokenId",
          "type": "uint256"
        }
      ],
      "name": "transferFrom",
      "outputs": [],
      "stateMutability": "nonpayable",
      "type": "function"
    },
    {
      "inputs": [
        {
          "internalType": "address",
          "name": "newOwner",
          "type": "address"
        }
      ],
      "name": "transferOwnership",
      "outputs": [],
      "stateMutability": "nonpayable",
      "type": "function"
    }
  ],
  "bytecode": "0x60806040523480156200001157600080fd5b506040518060400160405280600981526020017f44656f6464204e465400000000000000000000000000000000000000000000008152506040518060400160405280600581526020017f44454f44440000000000000000000000000000000000000000000000000000008152508160009080519060200190620000969291906200037b565b508060019080519060200190620000af9291906200037b565b505050620000d2620000c6620002ad60201b60201c565b620002b560201b60201c565b6001600860003373ffffffffffffffffffffffffffffffffffffffff1673ffffffffffffffffffffffffffffffffffffffff16815260200190815260200160002060006101000a81548160ff021916908315150217905550610320600a60006003811062000145576200014462000490565b5b01819055506050600a60016003811062000164576200016362000490565b5b01819055506008600a60026003811062000183576200018262000490565b5b01819055506040518060400160405280600681526020017f42726f6e7a650000000000000000000000000000000000000000000000000000815250601460008081526020019081526020016000209080519060200190620001e69291906200037b565b506040518060400160405280600481526020017f476f6c640000000000000000000000000000000000000000000000000000000081525060146000600181526020019081526020016000209080519060200190620002469291906200037b565b506040518060400160405280600781526020017f4469616d6f6e640000000000000000000000000000000000000000000000000081525060146000600281526020019081526020016000209080519060200190620002a69291906200037b565b50620004bf565b600033905090565b6000600760009054906101000a900473ffffffffffffffffffffffffffffffffffffffff16905081600760006101000a81548173ffffffffffffffffffffffffffffffffffffffff021916908373ffffffffffffffffffffffffffffffffffffffff1602179055508173ffffffffffffffffffffffffffffffffffffffff168173ffffffffffffffffffffffffffffffffffffffff167f8be0079c531659141344cd1fd0a4f28419497f9722a3daafe3b4186f6b6457e060405160405180910390a35050565b82805462000389906200042b565b90600052602060002090601f016020900481019282620003ad5760008555620003f9565b82601f10620003c857805160ff1916838001178555620003f9565b82800160010185558215620003f9579182015b82811115620003f8578251825591602001919060010190620003db565b5b5090506200040891906200040c565b5090565b5b80821115620004275760008160009055506001016200040d565b5090565b600060028204905060018216806200044457607f821691505b602082108114156200045b576200045a62000461565b5b50919050565b7f4e487b7100000000000000000000000000000000000000000000000000000000600052602260045260246000fd5b7f4e487b7100000000000000000000000000000000000000000000000000000000600052603260045260246000fd5b613d3880620004cf6000396000f3fe608060405234801561001057600080fd5b50600436106101e55760003560e01c806370a082311161010f578063ac8a584a116100a2578063c87b56dd11610071578063c87b56dd146105c6578063e985e9c5146105f6578063f2fde38b14610626578063fabc38be14610642576101e5565b8063ac8a584a14610542578063b3ab15fb1461055e578063b6f214e41461057a578063b88d4fde146105aa576101e5565b80639f17ea7f116100de5780639f17ea7f146104a8578063a1e463d8146104c6578063a22cb465146104f6578063a6f87bb514610512576101e5565b806370a0823114610432578063715018a6146104625780638da5cb5b1461046c57806395d89b411461048a576101e5565b80633bc204a3116101875780634fb47bb1116101565780634fb47bb11461038657806352e1956d146103b65780636352211e146103d25780636d70f7ae14610402576101e5565b80633bc204a3146102ec5780633cb1fea21461031c57806342842e0e1461033a578063472c766614610356576101e5565b8063095ea7b3116101c3578063095ea7b314610268578063127d5ad01461028457806323b872dd146102b457806330176e13146102d0576101e5565b806301ffc9a7146101ea57806306fdde031461021a578063081812fc14610238575b600080fd5b61020460048036038101906101ff9190612bae565b610672565b6040516102119190613119565b60405180910390f35b610222610754565b60405161022f9190613134565b60405180910390f35b610252600480360381019061024d9190612c51565b6107e6565b60405161025f9190613090565b60405180910390f35b610282600480360381019061027d9190612b6e565b61082c565b005b61029e60048036038101906102999190612c51565b610944565b6040516102ab91906133b6565b60405180910390f35b6102ce60048036038101906102c99190612a58565b610961565b005b6102ea60048036038101906102e59190612c08565b6109c1565b005b610306600480360381019061030191906129eb565b610a67565b60405161031391906130f7565b60405180910390f35b610324610b04565b60405161033191906133b6565b60405180910390f35b610354600480360381019061034f9190612a58565b610b0e565b005b610370600480360381019061036b91906129eb565b610b2e565b60405161037d91906133b6565b60405180910390f35b6103a0600480360381019061039b9190612c51565b610b7e565b6040516103ad9190613134565b60405180910390f35b6103d060048036038101906103cb9190612c51565b610c36565b005b6103ec60048036038101906103e79190612c51565b610dd1565b6040516103f99190613090565b60405180910390f35b61041c600480360381019061041791906129eb565b610e83565b6040516104299190613119565b60405180910390f35b61044c600480360381019061044791906129eb565b610ed9565b60405161045991906133b6565b60405180910390f35b61046a610f91565b005b610474610fa5565b6040516104819190613090565b60405180910390f35b610492610fcf565b60405161049f9190613134565b60405180910390f35b6104b0611061565b6040516104bd91906133b6565b60405180910390f35b6104e060048036038101906104db9190612b6e565b61106b565b6040516104ed91906133b6565b60405180910390f35b610510600480360381019061050b9190612b2e565b6112b6565b005b61052c600480360381019061052791906129eb565b6112cc565b60405161053991906133b6565b60405180910390f35b61055c600480360381019061055791906129eb565b61131c565b005b610578600480360381019061057391906129eb565b61137f565b005b610594600480360381019061058f9190612c51565b6113e2565b6040516105a19190613119565b60405180910390f35b6105c460048036038101906105bf9190612aab565b61145b565b005b6105e060048036038101906105db9190612c51565b6114bd565b6040516105ed9190613134565b60405180910390f35b610610600480360381019061060b9190612a18565b611525565b60405161061d9190613119565b60405180910390f35b610640600480360381019061063b91906129eb565b6115b9565b005b61065c600480360381019061065791906129eb565b61163d565b60405161066991906130f7565b60405180910390f35b60007f80ac58cd000000000000000000000000000000000000000000000000000000007bffffffffffffffffffffffffffffffffffffffffffffffffffffffff1916827bffffffffffffffffffffffffffffffffffffffffffffffffffffffff1916148061073d57507f5b5e139f000000000000000000000000000000000000000000000000000000007bffffffffffffffffffffffffffffffffffffffffffffffffffffffff1916827bffffffffffffffffffffffffffffffffffffffffffffffffffffffff1916145b8061074d575061074c826116da565b5b9050919050565b6060600080546107639061364f565b80601f016020809104026020016040519081016040528092919081815260200182805461078f9061364f565b80156107dc5780601f106107b1576101008083540402835291602001916107dc565b820191906000526020600020905b8154815290600101906020018083116107bf57829003601f168201915b5050505050905090565b60006107f182611744565b6004600083815260200190815260200160002060009054906101000a900473ffffffffffffffffffffffffffffffffffffffff169050919050565b600061083782610dd1565b90508073ffffffffffffffffffffffffffffffffffffffff168373ffffffffffffffffffffffffffffffffffffffff1614156108a8576040517f08c379a000000000000000000000000000000000000000000000000000000000815260040161089f90613336565b60405180910390fd5b8073ffffffffffffffffffffffffffffffffffffffff166108c761178f565b73ffffffffffffffffffffffffffffffffffffffff1614806108f657506108f5816108f061178f565b611525565b5b610935576040517f08c379a000000000000000000000000000000000000000000000000000000000815260040161092c90613296565b60405180910390fd5b61093f8383611797565b505050565b600060136000838152602001908152602001600020549050919050565b61097261096c61178f565b82611850565b6109b1576040517f08c379a00000000000000000000000000000000000000000000000000000000081526004016109a890613396565b60405180910390fd5b6109bc8383836118e5565b505050565b600860003373ffffffffffffffffffffffffffffffffffffffff1673ffffffffffffffffffffffffffffffffffffffff16815260200190815260200160002060009054906101000a900460ff16610a4d576040517f08c379a0000000000000000000000000000000000000000000000000000000008152600401610a4490613276565b60405180910390fd5b8060099080519060200190610a639291906127ff565b5050565b6060601260008373ffffffffffffffffffffffffffffffffffffffff1673ffffffffffffffffffffffffffffffffffffffff168152602001908152602001600020600001600001805480602002602001604051908101604052809291908181526020018280548015610af857602002820191906000526020600020905b815481526020019060010190808311610ae4575b50505050509050919050565b6000601154905090565b610b298383836040518060200160405280600081525061145b565b505050565b6000610b77600660008473ffffffffffffffffffffffffffffffffffffffff1673ffffffffffffffffffffffffffffffffffffffff168152602001908152602001600020611b4c565b9050919050565b606060146000601360008581526020019081526020016000205481526020019081526020016000208054610bb19061364f565b80601f0160208091040260200160405190810160405280929190818152602001828054610bdd9061364f565b8015610c2a5780601f10610bff57610100808354040283529160200191610c2a565b820191906000526020600020905b815481529060010190602001808311610c0d57829003601f168201915b50505050509050919050565b806010548110610c7b576040517f08c379a0000000000000000000000000000000000000000000000000000000008152600401610c7290613236565b60405180910390fd5b610ccc82601260003373ffffffffffffffffffffffffffffffffffffffff1673ffffffffffffffffffffffffffffffffffffffff168152602001908152602001600020611b6190919063ffffffff16565b610d0b576040517f08c379a0000000000000000000000000000000000000000000000000000000008152600401610d0290613156565b60405180910390fd5b610d5c82601260003373ffffffffffffffffffffffffffffffffffffffff1673ffffffffffffffffffffffffffffffffffffffff168152602001908152602001600020611b7b90919063ffffffff16565b50610d673383611b95565b60116000815480929190610d7a906136b2565b91905055503373ffffffffffffffffffffffffffffffffffffffff167f1f89f147a58d1673945cf416187db98efc8208408c011b91887acd59fd8523c383604051610dc591906133b6565b60405180910390a25050565b6000806002600084815260200190815260200160002060009054906101000a900473ffffffffffffffffffffffffffffffffffffffff169050600073ffffffffffffffffffffffffffffffffffffffff168173ffffffffffffffffffffffffffffffffffffffff161415610e7a576040517f08c379a0000000000000000000000000000000000000000000000000000000008152600401610e7190613316565b60405180910390fd5b80915050919050565b6000600860008373ffffffffffffffffffffffffffffffffffffffff1673ffffffffffffffffffffffffffffffffffffffff16815260200190815260200160002060009054906101000a900460ff169050919050565b60008073ffffffffffffffffffffffffffffffffffffffff168273ffffffffffffffffffffffffffffffffffffffff161415610f4a576040517f08c379a0000000000000000000000000000000000000000000000000000000008152600401610f4190613256565b60405180910390fd5b600360008373ffffffffffffffffffffffffffffffffffffffff1673ffffffffffffffffffffffffffffffffffffffff168152602001908152602001600020549050919050565b610f99611d6f565b610fa36000611ded565b565b6000600760009054906101000a900473ffffffffffffffffffffffffffffffffffffffff16905090565b606060018054610fde9061364f565b80601f016020809104026020016040519081016040528092919081815260200182805461100a9061364f565b80156110575780601f1061102c57610100808354040283529160200191611057565b820191906000526020600020905b81548152906001019060200180831161103a57829003601f168201915b5050505050905090565b6000601054905090565b6000600860003373ffffffffffffffffffffffffffffffffffffffff1673ffffffffffffffffffffffffffffffffffffffff16815260200190815260200160002060009054906101000a900460ff166110f9576040517f08c379a00000000000000000000000000000000000000000000000000000000081526004016110f090613276565b60405180910390fd5b816003811061113d576040517f08c379a000000000000000000000000000000000000000000000000000000000815260040161113490613356565b60405180910390fd5b600a8360038110611151576111506137e8565b5b0154600d8460038110611167576111666137e8565b5b0154106111a9576040517f08c379a00000000000000000000000000000000000000000000000000000000081526004016111a0906132d6565b60405180910390fd5b601060008154809291906111bc906136b2565b9190505550826013600060105481526020019081526020016000208190555061122e601054601260008773ffffffffffffffffffffffffffffffffffffffff1673ffffffffffffffffffffffffffffffffffffffff168152602001908152602001600020611eb390919063ffffffff16565b508373ffffffffffffffffffffffffffffffffffffffff167f75ddcd1f85aa7bf75e4b6dcadc8a1503ac5b34b698caff36454204aa2a8b829f60105460405161127791906133b6565b60405180910390a2600d8360038110611293576112926137e8565b5b0160008154809291906112a5906136b2565b919050555060105491505092915050565b6112c86112c161178f565b8383611ecd565b5050565b6000611315601260008473ffffffffffffffffffffffffffffffffffffffff1673ffffffffffffffffffffffffffffffffffffffff168152602001908152602001600020611b4c565b9050919050565b611324611d6f565b6000600860008373ffffffffffffffffffffffffffffffffffffffff1673ffffffffffffffffffffffffffffffffffffffff16815260200190815260200160002060006101000a81548160ff02191690831515021790555050565b611387611d6f565b6001600860008373ffffffffffffffffffffffffffffffffffffffff1673ffffffffffffffffffffffffffffffffffffffff16815260200190815260200160002060006101000a81548160ff02191690831515021790555050565b600060038210611427576040517f08c379a000000000000000000000000000000000000000000000000000000000815260040161141e90613376565b60405180910390fd5b600a826003811061143b5761143a6137e8565b5b0154600d8360038110611451576114506137e8565b5b0154109050919050565b61146c61146661178f565b83611850565b6114ab576040517f08c379a00000000000000000000000000000000000000000000000000000000081526004016114a290613396565b60405180910390fd5b6114b78484848461203a565b50505050565b60606114c882611744565b60006114d2612096565b905060008151116114f2576040518060200160405280600081525061151d565b806114fc84612128565b60405160200161150d92919061306c565b6040516020818303038152906040525b915050919050565b6000600560008473ffffffffffffffffffffffffffffffffffffffff1673ffffffffffffffffffffffffffffffffffffffff16815260200190815260200160002060008373ffffffffffffffffffffffffffffffffffffffff1673ffffffffffffffffffffffffffffffffffffffff16815260200190815260200160002060009054906101000a900460ff16905092915050565b6115c1611d6f565b600073ffffffffffffffffffffffffffffffffffffffff168173ffffffffffffffffffffffffffffffffffffffff161415611631576040517f08c379a000000000000000000000000000000000000000000000000000000000815260040161162890613196565b60405180910390fd5b61163a81611ded565b50565b6060600660008373ffffffffffffffffffffffffffffffffffffffff1673ffffffffffffffffffffffffffffffffffffffff1681526020019081526020016000206000016000018054806020026020016040519081016040528092919081815260200182805480156116ce57602002820191906000526020600020905b8154815260200190600101908083116116ba575b50505050509050919050565b60007f01ffc9a7000000000000000000000000000000000000000000000000000000007bffffffffffffffffffffffffffffffffffffffffffffffffffffffff1916827bffffffffffffffffffffffffffffffffffffffffffffffffffffffff1916149050919050565b61174d81612289565b61178c576040517f08c379a000000000000000000000000000000000000000000000000000000000815260040161178390613316565b60405180910390fd5b50565b600033905090565b816004600083815260200190815260200160002060006101000a81548173ffffffffffffffffffffffffffffffffffffffff021916908373ffffffffffffffffffffffffffffffffffffffff160217905550808273ffffffffffffffffffffffffffffffffffffffff1661180a83610dd1565b73ffffffffffffffffffffffffffffffffffffffff167f8c5be1e5ebec7d5bd14f71427d1e84f3dd0314c0f7b2291e5b200ac8c7c3b92560405160405180910390a45050565b60008061185c83610dd1565b90508073ffffffffffffffffffffffffffffffffffffffff168473ffffffffffffffffffffffffffffffffffffffff16148061189e575061189d8185611525565b5b806118dc57508373ffffffffffffffffffffffffffffffffffffffff166118c4846107e6565b73ffffffffffffffffffffffffffffffffffffffff16145b91505092915050565b8273ffffffffffffffffffffffffffffffffffffffff1661190582610dd1565b73ffffffffffffffffffffffffffffffffffffffff161461195b576040517f08c379a0000000000000000000000000000000000000000000000000000000008152600401611952906131b6565b60405180910390fd5b600073ffffffffffffffffffffffffffffffffffffffff168273ffffffffffffffffffffffffffffffffffffffff1614156119cb576040517f08c379a00000000000000000000000000000000000000000000000000000000081526004016119c2906131f6565b60405180910390fd5b6119d68383836122f5565b6119e1600082611797565b6001600360008573ffffffffffffffffffffffffffffffffffffffff1673ffffffffffffffffffffffffffffffffffffffff1681526020019081526020016000206000828254611a31919061355b565b925050819055506001600360008473ffffffffffffffffffffffffffffffffffffffff1673ffffffffffffffffffffffffffffffffffffffff1681526020019081526020016000206000828254611a8891906134d4565b92505081905550816002600083815260200190815260200160002060006101000a81548173ffffffffffffffffffffffffffffffffffffffff021916908373ffffffffffffffffffffffffffffffffffffffff160217905550808273ffffffffffffffffffffffffffffffffffffffff168473ffffffffffffffffffffffffffffffffffffffff167fddf252ad1be2c89b69c2b068fc378daa952ba7f163c4a11628f55a4df523b3ef60405160405180910390a4611b478383836123d7565b505050565b6000611b5a826000016123dc565b9050919050565b6000611b73836000018360001b6123ed565b905092915050565b6000611b8d836000018360001b612410565b905092915050565b600073ffffffffffffffffffffffffffffffffffffffff168273ffffffffffffffffffffffffffffffffffffffff161415611c05576040517f08c379a0000000000000000000000000000000000000000000000000000000008152600401611bfc906132b6565b60405180910390fd5b611c0e81612289565b15611c4e576040517f08c379a0000000000000000000000000000000000000000000000000000000008152600401611c45906131d6565b60405180910390fd5b611c5a600083836122f5565b6001600360008473ffffffffffffffffffffffffffffffffffffffff1673ffffffffffffffffffffffffffffffffffffffff1681526020019081526020016000206000828254611caa91906134d4565b92505081905550816002600083815260200190815260200160002060006101000a81548173ffffffffffffffffffffffffffffffffffffffff021916908373ffffffffffffffffffffffffffffffffffffffff160217905550808273ffffffffffffffffffffffffffffffffffffffff16600073ffffffffffffffffffffffffffffffffffffffff167fddf252ad1be2c89b69c2b068fc378daa952ba7f163c4a11628f55a4df523b3ef60405160405180910390a4611d6b600083836123d7565b5050565b611d7761178f565b73ffffffffffffffffffffffffffffffffffffffff16611d95610fa5565b73ffffffffffffffffffffffffffffffffffffffff1614611deb576040517f08c379a0000000000000000000000000000000000000000000000000000000008152600401611de2906132f6565b60405180910390fd5b565b6000600760009054906101000a900473ffffffffffffffffffffffffffffffffffffffff16905081600760006101000a81548173ffffffffffffffffffffffffffffffffffffffff021916908373ffffffffffffffffffffffffffffffffffffffff1602179055508173ffffffffffffffffffffffffffffffffffffffff168173ffffffffffffffffffffffffffffffffffffffff167f8be0079c531659141344cd1fd0a4f28419497f9722a3daafe3b4186f6b6457e060405160405180910390a35050565b6000611ec5836000018360001b612524565b905092915050565b8173ffffffffffffffffffffffffffffffffffffffff168373ffffffffffffffffffffffffffffffffffffffff161415611f3c576040517f08c379a0000000000000000000000000000000000000000000000000000000008152600401611f3390613216565b60405180910390fd5b80600560008573ffffffffffffffffffffffffffffffffffffffff1673ffffffffffffffffffffffffffffffffffffffff16815260200190815260200160002060008473ffffffffffffffffffffffffffffffffffffffff1673ffffffffffffffffffffffffffffffffffffffff16815260200190815260200160002060006101000a81548160ff0219169083151502179055508173ffffffffffffffffffffffffffffffffffffffff168373ffffffffffffffffffffffffffffffffffffffff167f17307eab39ab6107e8899845ad3d59bd9653f200f220920489ca2b5937696c318360405161202d9190613119565b60405180910390a3505050565b6120458484846118e5565b61205184848484612594565b612090576040517f08c379a000000000000000000000000000000000000000000000000000000000815260040161208790613176565b60405180910390fd5b50505050565b6060600980546120a59061364f565b80601f01602080910402602001604051908101604052809291908181526020018280546120d19061364f565b801561211e5780601f106120f35761010080835404028352916020019161211e565b820191906000526020600020905b81548152906001019060200180831161210157829003601f168201915b5050505050905090565b60606000821415612170576040518060400160405280600181526020017f30000000000000000000000000000000000000000000000000000000000000008152509050612284565b600082905060005b600082146121a257808061218b906136b2565b915050600a8261219b919061352a565b9150612178565b60008167ffffffffffffffff8111156121be576121bd613817565b5b6040519080825280601f01601f1916602001820160405280156121f05781602001600182028036833780820191505090505b5090505b6000851461227d57600182612209919061355b565b9150600a8561221891906136fb565b603061222491906134d4565b60f81b81838151811061223a576122396137e8565b5b60200101907effffffffffffffffffffffffffffffffffffffffffffffffffffffffffffff1916908160001a905350600a85612276919061352a565b94506121f4565b8093505050505b919050565b60008073ffffffffffffffffffffffffffffffffffffffff166002600084815260200190815260200160002060009054906101000a900473ffffffffffffffffffffffffffffffffffffffff1673ffffffffffffffffffffffffffffffffffffffff1614159050919050565b61230083838361272b565b600073ffffffffffffffffffffffffffffffffffffffff168373ffffffffffffffffffffffffffffffffffffffff1614156123445761233f8282612730565b6123d2565b600073ffffffffffffffffffffffffffffffffffffffff168273ffffffffffffffffffffffffffffffffffffffff161415612388576123838382612786565b6123d1565b8173ffffffffffffffffffffffffffffffffffffffff168373ffffffffffffffffffffffffffffffffffffffff16146123d0576123c58282612730565b6123cf8382612786565b5b5b5b505050565b505050565b600081600001805490509050919050565b600080836001016000848152602001908152602001600020541415905092915050565b60008083600101600084815260200190815260200160002054905060008114612518576000600182612442919061355b565b905060006001866000018054905061245a919061355b565b90508181146124c957600086600001828154811061247b5761247a6137e8565b5b906000526020600020015490508087600001848154811061249f5761249e6137e8565b5b90600052602060002001819055508387600101600083815260200190815260200160002081905550505b856000018054806124dd576124dc6137b9565b5b60019003818190600052602060002001600090559055856001016000868152602001908152602001600020600090556001935050505061251e565b60009150505b92915050565b600061253083836123ed565b61258957826000018290806001815401808255809150506001900390600052602060002001600090919091909150558260000180549050836001016000848152602001908152602001600020819055506001905061258e565b600090505b92915050565b60006125b58473ffffffffffffffffffffffffffffffffffffffff166127dc565b1561271e578373ffffffffffffffffffffffffffffffffffffffff1663150b7a026125de61178f565b8786866040518563ffffffff1660e01b815260040161260094939291906130ab565b602060405180830381600087803b15801561261a57600080fd5b505af192505050801561264b57506040513d601f19601f820116820180604052508101906126489190612bdb565b60015b6126ce573d806000811461267b576040519150601f19603f3d011682016040523d82523d6000602084013e612680565b606091505b506000815114156126c6576040517f08c379a00000000000000000000000000000000000000000000000000000000081526004016126bd90613176565b60405180910390fd5b805181602001fd5b63150b7a0260e01b7bffffffffffffffffffffffffffffffffffffffffffffffffffffffff1916817bffffffffffffffffffffffffffffffffffffffffffffffffffffffff191614915050612723565b600190505b949350505050565b505050565b61278181600660008573ffffffffffffffffffffffffffffffffffffffff1673ffffffffffffffffffffffffffffffffffffffff168152602001908152602001600020611eb390919063ffffffff16565b505050565b6127d781600660008573ffffffffffffffffffffffffffffffffffffffff1673ffffffffffffffffffffffffffffffffffffffff168152602001908152602001600020611b7b90919063ffffffff16565b505050565b6000808273ffffffffffffffffffffffffffffffffffffffff163b119050919050565b82805461280b9061364f565b90600052602060002090601f01602090048101928261282d5760008555612874565b82601f1061284657805160ff1916838001178555612874565b82800160010185558215612874579182015b82811115612873578251825591602001919060010190612858565b5b5090506128819190612885565b5090565b5b8082111561289e576000816000905550600101612886565b5090565b60006128b56128b0846133f6565b6133d1565b9050828152602081018484840111156128d1576128d061384b565b5b6128dc84828561360d565b509392505050565b60006128f76128f284613427565b6133d1565b9050828152602081018484840111156129135761291261384b565b5b61291e84828561360d565b509392505050565b60008135905061293581613ca6565b92915050565b60008135905061294a81613cbd565b92915050565b60008135905061295f81613cd4565b92915050565b60008151905061297481613cd4565b92915050565b600082601f83011261298f5761298e613846565b5b813561299f8482602086016128a2565b91505092915050565b600082601f8301126129bd576129bc613846565b5b81356129cd8482602086016128e4565b91505092915050565b6000813590506129e581613ceb565b92915050565b600060208284031215612a0157612a00613855565b5b6000612a0f84828501612926565b91505092915050565b60008060408385031215612a2f57612a2e613855565b5b6000612a3d85828601612926565b9250506020612a4e85828601612926565b9150509250929050565b600080600060608486031215612a7157612a70613855565b5b6000612a7f86828701612926565b9350506020612a9086828701612926565b9250506040612aa1868287016129d6565b9150509250925092565b60008060008060808587031215612ac557612ac4613855565b5b6000612ad387828801612926565b9450506020612ae487828801612926565b9350506040612af5878288016129d6565b925050606085013567ffffffffffffffff811115612b1657612b15613850565b5b612b228782880161297a565b91505092959194509250565b60008060408385031215612b4557612b44613855565b5b6000612b5385828601612926565b9250506020612b648582860161293b565b9150509250929050565b60008060408385031215612b8557612b84613855565b5b6000612b9385828601612926565b9250506020612ba4858286016129d6565b9150509250929050565b600060208284031215612bc457612bc3613855565b5b6000612bd284828501612950565b91505092915050565b600060208284031215612bf157612bf0613855565b5b6000612bff84828501612965565b91505092915050565b600060208284031215612c1e57612c1d613855565b5b600082013567ffffffffffffffff811115612c3c57612c3b613850565b5b612c48848285016129a8565b91505092915050565b600060208284031215612c6757612c66613855565b5b6000612c75848285016129d6565b91505092915050565b6000612c8a8383612d12565b60208301905092915050565b612c9f8161358f565b82525050565b6000612cb082613468565b612cba8185613496565b9350612cc583613458565b8060005b83811015612cf6578151612cdd8882612c7e565b9750612ce883613489565b925050600181019050612cc9565b5085935050505092915050565b612d0c816135a1565b82525050565b612d1b816135ad565b82525050565b6000612d2c82613473565b612d3681856134a7565b9350612d4681856020860161361c565b612d4f8161385a565b840191505092915050565b6000612d658261347e565b612d6f81856134b8565b9350612d7f81856020860161361c565b612d888161385a565b840191505092915050565b6000612d9e8261347e565b612da881856134c9565b9350612db881856020860161361c565b80840191505092915050565b6000612dd16017836134b8565b9150612ddc8261386b565b602082019050919050565b6000612df46032836134b8565b9150612dff82613894565b604082019050919050565b6000612e176026836134b8565b9150612e22826138e3565b604082019050919050565b6000612e3a6025836134b8565b9150612e4582613932565b604082019050919050565b6000612e5d601c836134b8565b9150612e6882613981565b602082019050919050565b6000612e806024836134b8565b9150612e8b826139aa565b604082019050919050565b6000612ea36019836134b8565b9150612eae826139f9565b602082019050919050565b6000612ec6600f836134b8565b9150612ed182613a22565b602082019050919050565b6000612ee96029836134b8565b9150612ef482613a4b565b604082019050919050565b6000612f0c601b836134b8565b9150612f1782613a9a565b602082019050919050565b6000612f2f603e836134b8565b9150612f3a82613ac3565b604082019050919050565b6000612f526020836134b8565b9150612f5d82613b12565b602082019050919050565b6000612f75600c836134b8565b9150612f8082613b3b565b602082019050919050565b6000612f986020836134b8565b9150612fa382613b64565b602082019050919050565b6000612fbb6018836134b8565b9150612fc682613b8d565b602082019050919050565b6000612fde6021836134b8565b9150612fe982613bb6565b604082019050919050565b6000613001600e836134b8565b915061300c82613c05565b602082019050919050565b6000613024600e836134b8565b915061302f82613c2e565b602082019050919050565b6000613047602e836134b8565b915061305282613c57565b604082019050919050565b61306681613603565b82525050565b60006130788285612d93565b91506130848284612d93565b91508190509392505050565b60006020820190506130a56000830184612c96565b92915050565b60006080820190506130c06000830187612c96565b6130cd6020830186612c96565b6130da604083018561305d565b81810360608301526130ec8184612d21565b905095945050505050565b600060208201905081810360008301526131118184612ca5565b905092915050565b600060208201905061312e6000830184612d03565b92915050565b6000602082019050818103600083015261314e8184612d5a565b905092915050565b6000602082019050818103600083015261316f81612dc4565b9050919050565b6000602082019050818103600083015261318f81612de7565b9050919050565b600060208201905081810360008301526131af81612e0a565b9050919050565b600060208201905081810360008301526131cf81612e2d565b9050919050565b600060208201905081810360008301526131ef81612e50565b9050919050565b6000602082019050818103600083015261320f81612e73565b9050919050565b6000602082019050818103600083015261322f81612e96565b9050919050565b6000602082019050818103600083015261324f81612eb9565b9050919050565b6000602082019050818103600083015261326f81612edc565b9050919050565b6000602082019050818103600083015261328f81612eff565b9050919050565b600060208201905081810360008301526132af81612f22565b9050919050565b600060208201905081810360008301526132cf81612f45565b9050919050565b600060208201905081810360008301526132ef81612f68565b9050919050565b6000602082019050818103600083015261330f81612f8b565b9050919050565b6000602082019050818103600083015261332f81612fae565b9050919050565b6000602082019050818103600083015261334f81612fd1565b9050919050565b6000602082019050818103600083015261336f81612ff4565b9050919050565b6000602082019050818103600083015261338f81613017565b9050919050565b600060208201905081810360008301526133af8161303a565b9050919050565b60006020820190506133cb600083018461305d565b92915050565b60006133db6133ec565b90506133e78282613681565b919050565b6000604051905090565b600067ffffffffffffffff82111561341157613410613817565b5b61341a8261385a565b9050602081019050919050565b600067ffffffffffffffff82111561344257613441613817565b5b61344b8261385a565b9050602081019050919050565b6000819050602082019050919050565b600081519050919050565b600081519050919050565b600081519050919050565b6000602082019050919050565b600082825260208201905092915050565b600082825260208201905092915050565b600082825260208201905092915050565b600081905092915050565b60006134df82613603565b91506134ea83613603565b9250827fffffffffffffffffffffffffffffffffffffffffffffffffffffffffffffffff0382111561351f5761351e61372c565b5b828201905092915050565b600061353582613603565b915061354083613603565b9250826135505761354f61375b565b5b828204905092915050565b600061356682613603565b915061357183613603565b9250828210156135845761358361372c565b5b828203905092915050565b600061359a826135e3565b9050919050565b60008115159050919050565b6000819050919050565b60007fffffffff0000000000000000000000000000000000000000000000000000000082169050919050565b600073ffffffffffffffffffffffffffffffffffffffff82169050919050565b6000819050919050565b82818337600083830152505050565b60005b8381101561363a57808201518184015260208101905061361f565b83811115613649576000848401525b50505050565b6000600282049050600182168061366757607f821691505b6020821081141561367b5761367a61378a565b5b50919050565b61368a8261385a565b810181811067ffffffffffffffff821117156136a9576136a8613817565b5b80604052505050565b60006136bd82613603565b91507fffffffffffffffffffffffffffffffffffffffffffffffffffffffffffffffff8214156136f0576136ef61372c565b5b600182019050919050565b600061370682613603565b915061371183613603565b9250826137215761372061375b565b5b828206905092915050565b7f4e487b7100000000000000000000000000000000000000000000000000000000600052601160045260246000fd5b7f4e487b7100000000000000000000000000000000000000000000000000000000600052601260045260246000fd5b7f4e487b7100000000000000000000000000000000000000000000000000000000600052602260045260246000fd5b7f4e487b7100000000000000000000000000000000000000000000000000000000600052603160045260246000fd5b7f4e487b7100000000000000000000000000000000000000000000000000000000600052603260045260246000fd5b7f4e487b7100000000000000000000000000000000000000000000000000000000600052604160045260246000fd5b600080fd5b600080fd5b600080fd5b600080fd5b6000601f19601f8301169050919050565b7f43616c6c6572206973206e6f7420746865206f776e6572000000000000000000600082015250565b7f4552433732313a207472616e7366657220746f206e6f6e20455243373231526560008201527f63656976657220696d706c656d656e7465720000000000000000000000000000602082015250565b7f4f776e61626c653a206e6577206f776e657220697320746865207a65726f206160008201527f6464726573730000000000000000000000000000000000000000000000000000602082015250565b7f4552433732313a207472616e736665722066726f6d20696e636f72726563742060008201527f6f776e6572000000000000000000000000000000000000000000000000000000602082015250565b7f4552433732313a20746f6b656e20616c7265616479206d696e74656400000000600082015250565b7f4552433732313a207472616e7366657220746f20746865207a65726f2061646460008201527f7265737300000000000000000000000000000000000000000000000000000000602082015250565b7f4552433732313a20617070726f766520746f2063616c6c657200000000000000600082015250565b7f496e76616c696420746f6b656e49640000000000000000000000000000000000600082015250565b7f4552433732313a2061646472657373207a65726f206973206e6f74206120766160008201527f6c6964206f776e65720000000000000000000000000000000000000000000000602082015250565b7f63616c6c6572206973206e6f7420746865206f70657261746f72730000000000600082015250565b7f4552433732313a20617070726f76652063616c6c6572206973206e6f7420746f60008201527f6b656e206f776e6572206e6f7220617070726f76656420666f7220616c6c0000602082015250565b7f4552433732313a206d696e7420746f20746865207a65726f2061646472657373600082015250565b7f4f7574206f6620626f756e640000000000000000000000000000000000000000600082015250565b7f4f776e61626c653a2063616c6c6572206973206e6f7420746865206f776e6572600082015250565b7f4552433732313a20696e76616c696420746f6b656e2049440000000000000000600082015250565b7f4552433732313a20617070726f76616c20746f2063757272656e74206f776e6560008201527f7200000000000000000000000000000000000000000000000000000000000000602082015250565b7f496e76616c696420747970654964000000000000000000000000000000000000600082015250565b7f696e76616c696420747970654964000000000000000000000000000000000000600082015250565b7f4552433732313a2063616c6c6572206973206e6f7420746f6b656e206f776e6560008201527f72206e6f7220617070726f766564000000000000000000000000000000000000602082015250565b613caf8161358f565b8114613cba57600080fd5b50565b613cc6816135a1565b8114613cd157600080fd5b50565b613cdd816135b7565b8114613ce857600080fd5b50565b613cf481613603565b8114613cff57600080fd5b5056fea26469706673582212202d4d3d683370699c0371824410b8b836b78c677e6709c9e4553bcceba7c3f05d64736f6c63430008070033",
  "linkReferences": {},
  "deployedLinkReferences": {}
}