{
  "_format": "hh-sol-artifact-1",
  "contractName": "DeoddNFT",
  "sourceName": "contracts/DeoddNFT.sol",
  "abi": [
    {
      "anonymous": false,
      "inputs": [
        {
          "indexed": false,
          "internalType": "address",
          "name": "previousAdmin",
          "type": "address"
        },
        {
          "indexed": false,
          "internalType": "address",
          "name": "newAdmin",
          "type": "address"
        }
      ],
      "name": "AdminChanged",
      "type": "event"
    },
    {
      "anonymous": false,
      "inputs": [
        {
          "indexed": true,
          "internalType": "address",
          "name": "owner",
          "type": "address"
        },
        {
          "indexed": true,
          "internalType": "address",
          "name": "approved",
          "type": "address"
        },
        {
          "indexed": true,
          "internalType": "uint256",
          "name": "tokenId",
          "type": "uint256"
        }
      ],
      "name": "Approval",
      "type": "event"
    },
    {
      "anonymous": false,
      "inputs": [
        {
          "indexed": true,
          "internalType": "address",
          "name": "owner",
          "type": "address"
        },
        {
          "indexed": true,
          "internalType": "address",
          "name": "operator",
          "type": "address"
        },
        {
          "indexed": false,
          "internalType": "bool",
          "name": "approved",
          "type": "bool"
        }
      ],
      "name": "ApprovalForAll",
      "type": "event"
    },
    {
      "anonymous": false,
      "inputs": [
        {
          "indexed": true,
          "internalType": "address",
          "name": "beacon",
          "type": "address"
        }
      ],
      "name": "BeaconUpgraded",
      "type": "event"
    },
    {
      "anonymous": false,
      "inputs": [
        {
          "indexed": false,
          "internalType": "uint8",
          "name": "version",
          "type": "uint8"
        }
      ],
      "name": "Initialized",
      "type": "event"
    },
    {
      "anonymous": false,
      "inputs": [
        {
          "indexed": true,
          "internalType": "address",
          "name": "to",
          "type": "address"
        },
        {
          "indexed": false,
          "internalType": "uint256",
          "name": "tokenId",
          "type": "uint256"
        }
      ],
      "name": "MintNFT",
      "type": "event"
    },
    {
      "anonymous": false,
      "inputs": [
        {
          "indexed": true,
          "internalType": "address",
          "name": "previousOwner",
          "type": "address"
        },
        {
          "indexed": true,
          "internalType": "address",
          "name": "newOwner",
          "type": "address"
        }
      ],
      "name": "OwnershipTransferred",
      "type": "event"
    },
    {
      "anonymous": false,
      "inputs": [
        {
          "indexed": true,
          "internalType": "address",
          "name": "from",
          "type": "address"
        },
        {
          "indexed": true,
          "internalType": "address",
          "name": "to",
          "type": "address"
        },
        {
          "indexed": true,
          "internalType": "uint256",
          "name": "tokenId",
          "type": "uint256"
        }
      ],
      "name": "Transfer",
      "type": "event"
    },
    {
      "anonymous": false,
      "inputs": [
        {
          "indexed": true,
          "internalType": "address",
          "name": "implementation",
          "type": "address"
        }
      ],
      "name": "Upgraded",
      "type": "event"
    },
    {
      "inputs": [
        {
          "internalType": "address",
          "name": "to",
          "type": "address"
        },
        {
          "internalType": "uint256",
          "name": "tokenId",
          "type": "uint256"
        }
      ],
      "name": "approve",
      "outputs": [],
      "stateMutability": "nonpayable",
      "type": "function"
    },
    {
      "inputs": [
        {
          "internalType": "address",
          "name": "owner",
          "type": "address"
        }
      ],
      "name": "balanceOf",
      "outputs": [
        {
          "internalType": "uint256",
          "name": "",
          "type": "uint256"
        }
      ],
      "stateMutability": "view",
      "type": "function"
    },
    {
      "inputs": [
        {
          "internalType": "uint256",
          "name": "tokenId",
          "type": "uint256"
        }
      ],
      "name": "getApproved",
      "outputs": [
        {
          "internalType": "address",
          "name": "",
          "type": "address"
        }
      ],
      "stateMutability": "view",
      "type": "function"
    },
    {
      "inputs": [],
      "name": "getImplementation",
      "outputs": [
        {
          "internalType": "address",
          "name": "",
          "type": "address"
        }
      ],
      "stateMutability": "view",
      "type": "function"
    },
    {
      "inputs": [
        {
          "internalType": "uint256",
          "name": "tokenId",
          "type": "uint256"
        }
      ],
      "name": "getTokenTypeId",
      "outputs": [
        {
          "internalType": "uint256",
          "name": "typeId",
          "type": "uint256"
        }
      ],
      "stateMutability": "view",
      "type": "function"
    },
    {
      "inputs": [
        {
          "internalType": "uint256",
          "name": "tokenId",
          "type": "uint256"
        }
      ],
      "name": "getTokenTypeName",
      "outputs": [
        {
          "internalType": "string",
          "name": "",
          "type": "string"
        }
      ],
      "stateMutability": "view",
      "type": "function"
    },
    {
      "inputs": [
        {
          "internalType": "address",
          "name": "wallet",
          "type": "address"
        }
      ],
      "name": "getWalletTokenNum",
      "outputs": [
        {
          "internalType": "uint256",
          "name": "",
          "type": "uint256"
        }
      ],
      "stateMutability": "view",
      "type": "function"
    },
    {
      "inputs": [
        {
          "internalType": "address",
          "name": "wallet",
          "type": "address"
        }
      ],
      "name": "getWalletTokens",
      "outputs": [
        {
          "internalType": "bytes32[]",
          "name": "",
          "type": "bytes32[]"
        }
      ],
      "stateMutability": "view",
      "type": "function"
    },
    {
      "inputs": [],
      "name": "init",
      "outputs": [],
      "stateMutability": "nonpayable",
      "type": "function"
    },
    {
      "inputs": [],
      "name": "initialize",
      "outputs": [],
      "stateMutability": "nonpayable",
      "type": "function"
    },
    {
      "inputs": [
        {
          "internalType": "address",
          "name": "owner",
          "type": "address"
        },
        {
          "internalType": "address",
          "name": "operator",
          "type": "address"
        }
      ],
      "name": "isApprovedForAll",
      "outputs": [
        {
          "internalType": "bool",
          "name": "",
          "type": "bool"
        }
      ],
      "stateMutability": "view",
      "type": "function"
    },
    {
      "inputs": [
        {
          "internalType": "address",
          "name": "operator",
          "type": "address"
        }
      ],
      "name": "isOperator",
      "outputs": [
        {
          "internalType": "bool",
          "name": "",
          "type": "bool"
        }
      ],
      "stateMutability": "view",
      "type": "function"
    },
    {
      "inputs": [
        {
          "internalType": "address",
          "name": "to",
          "type": "address"
        },
        {
          "internalType": "uint256",
          "name": "tokenId",
          "type": "uint256"
        }
      ],
      "name": "mint",
      "outputs": [],
      "stateMutability": "nonpayable",
      "type": "function"
    },
    {
      "inputs": [],
      "name": "name",
      "outputs": [
        {
          "internalType": "string",
          "name": "",
          "type": "string"
        }
      ],
      "stateMutability": "view",
      "type": "function"
    },
    {
      "inputs": [],
      "name": "owner",
      "outputs": [
        {
          "internalType": "address",
          "name": "",
          "type": "address"
        }
      ],
      "stateMutability": "view",
      "type": "function"
    },
    {
      "inputs": [
        {
          "internalType": "uint256",
          "name": "tokenId",
          "type": "uint256"
        }
      ],
      "name": "ownerOf",
      "outputs": [
        {
          "internalType": "address",
          "name": "",
          "type": "address"
        }
      ],
      "stateMutability": "view",
      "type": "function"
    },
    {
      "inputs": [],
      "name": "proxiableUUID",
      "outputs": [
        {
          "internalType": "bytes32",
          "name": "",
          "type": "bytes32"
        }
      ],
      "stateMutability": "view",
      "type": "function"
    },
    {
      "inputs": [
        {
          "internalType": "address",
          "name": "operator",
          "type": "address"
        }
      ],
      "name": "removeOperator",
      "outputs": [],
      "stateMutability": "nonpayable",
      "type": "function"
    },
    {
      "inputs": [],
      "name": "renounceOwnership",
      "outputs": [],
      "stateMutability": "nonpayable",
      "type": "function"
    },
    {
      "inputs": [
        {
          "internalType": "address",
          "name": "from",
          "type": "address"
        },
        {
          "internalType": "address",
          "name": "to",
          "type": "address"
        },
        {
          "internalType": "uint256",
          "name": "tokenId",
          "type": "uint256"
        }
      ],
      "name": "safeTransferFrom",
      "outputs": [],
      "stateMutability": "nonpayable",
      "type": "function"
    },
    {
      "inputs": [
        {
          "internalType": "address",
          "name": "from",
          "type": "address"
        },
        {
          "internalType": "address",
          "name": "to",
          "type": "address"
        },
        {
          "internalType": "uint256",
          "name": "tokenId",
          "type": "uint256"
        },
        {
          "internalType": "bytes",
          "name": "data",
          "type": "bytes"
        }
      ],
      "name": "safeTransferFrom",
      "outputs": [],
      "stateMutability": "nonpayable",
      "type": "function"
    },
    {
      "inputs": [
        {
          "internalType": "address",
          "name": "operator",
          "type": "address"
        },
        {
          "internalType": "bool",
          "name": "approved",
          "type": "bool"
        }
      ],
      "name": "setApprovalForAll",
      "outputs": [],
      "stateMutability": "nonpayable",
      "type": "function"
    },
    {
      "inputs": [
        {
          "internalType": "string",
          "name": "baseURI",
          "type": "string"
        }
      ],
      "name": "setBaseTokenURI",
      "outputs": [],
      "stateMutability": "nonpayable",
      "type": "function"
    },
    {
      "inputs": [
        {
          "internalType": "address",
          "name": "operator",
          "type": "address"
        }
      ],
      "name": "setOperator",
      "outputs": [],
      "stateMutability": "nonpayable",
      "type": "function"
    },
    {
      "inputs": [
        {
          "internalType": "bytes4",
          "name": "interfaceId",
          "type": "bytes4"
        }
      ],
      "name": "supportsInterface",
      "outputs": [
        {
          "internalType": "bool",
          "name": "",
          "type": "bool"
        }
      ],
      "stateMutability": "view",
      "type": "function"
    },
    {
      "inputs": [],
      "name": "symbol",
      "outputs": [
        {
          "internalType": "string",
          "name": "",
          "type": "string"
        }
      ],
      "stateMutability": "view",
      "type": "function"
    },
    {
      "inputs": [
        {
          "internalType": "uint256",
          "name": "tokenId",
          "type": "uint256"
        }
      ],
      "name": "tokenExists",
      "outputs": [
        {
          "internalType": "bool",
          "name": "",
          "type": "bool"
        }
      ],
      "stateMutability": "view",
      "type": "function"
    },
    {
      "inputs": [
        {
          "internalType": "uint256",
          "name": "tokenId",
          "type": "uint256"
        }
      ],
      "name": "tokenURI",
      "outputs": [
        {
          "internalType": "string",
          "name": "",
          "type": "string"
        }
      ],
      "stateMutability": "view",
      "type": "function"
    },
    {
      "inputs": [
        {
          "internalType": "address",
          "name": "from",
          "type": "address"
        },
        {
          "internalType": "address",
          "name": "to",
          "type": "address"
        },
        {
          "internalType": "uint256",
          "name": "tokenId",
          "type": "uint256"
        }
      ],
      "name": "transferFrom",
      "outputs": [],
      "stateMutability": "nonpayable",
      "type": "function"
    },
    {
      "inputs": [
        {
          "internalType": "address",
          "name": "newOwner",
          "type": "address"
        }
      ],
      "name": "transferOwnership",
      "outputs": [],
      "stateMutability": "nonpayable",
      "type": "function"
    },
    {
      "inputs": [
        {
          "internalType": "address",
          "name": "newImplementation",
          "type": "address"
        }
      ],
      "name": "upgradeTo",
      "outputs": [],
      "stateMutability": "nonpayable",
      "type": "function"
    },
    {
      "inputs": [
        {
          "internalType": "address",
          "name": "newImplementation",
          "type": "address"
        },
        {
          "internalType": "bytes",
          "name": "data",
          "type": "bytes"
        }
      ],
      "name": "upgradeToAndCall",
      "outputs": [],
      "stateMutability": "payable",
      "type": "function"
    },
    {
      "inputs": [
        {
          "internalType": "uint256",
          "name": "tokenId",
          "type": "uint256"
        }
      ],
      "name": "validTokenId",
      "outputs": [
        {
          "internalType": "bool",
          "name": "",
          "type": "bool"
        }
      ],
      "stateMutability": "view",
      "type": "function"
    }
  ],
  "bytecode": "0x60a06040523073ffffffffffffffffffffffffffffffffffffffff1660809073ffffffffffffffffffffffffffffffffffffffff1660601b81525034801561004657600080fd5b5060805160601c61521361008160003960008181610cb701528181610d460152818161102e015281816110bd015261122701526152136000f3fe6080604052600436106101ed5760003560e01c80636d70f7ae1161010d578063aaf10f42116100a0578063c87b56dd1161006f578063c87b56dd1461070f578063e1c7392a1461074c578063e985e9c514610763578063f2fde38b146107a0578063fabc38be146107c9576101ed565b8063aaf10f4214610669578063ac8a584a14610694578063b3ab15fb146106bd578063b88d4fde146106e6576101ed565b80638da5cb5b116100dc5780638da5cb5b146105ad57806395d89b41146105d85780639f776ada14610603578063a22cb46514610640576101ed565b80636d70f7ae1461050557806370a0823114610542578063715018a61461057f5780638129fc1c14610596576101ed565b80633659cfe6116101855780634f1ef286116101545780634f1ef286146104445780634fb47bb11461046057806352d1902d1461049d5780636352211e146104c8576101ed565b80633659cfe61461038c57806340c10f19146103b557806342842e0e146103de578063472c766614610407576101ed565b8063095ea7b3116101c1578063095ea7b3146102d4578063127d5ad0146102fd57806323b872dd1461033a57806330176e1314610363576101ed565b8062923f9e146101f257806301ffc9a71461022f57806306fdde031461026c578063081812fc14610297575b600080fd5b3480156101fe57600080fd5b5061021960048036038101906102149190613cf5565b610806565b60405161022691906142f5565b60405180910390f35b34801561023b57600080fd5b5061025660048036038101906102519190613c52565b61085f565b60405161026391906142f5565b60405180910390f35b34801561027857600080fd5b50610281610941565b60405161028e9190614346565b60405180910390f35b3480156102a357600080fd5b506102be60048036038101906102b99190613cf5565b6109d3565b6040516102cb919061426c565b60405180910390f35b3480156102e057600080fd5b506102fb60048036038101906102f69190613be5565b610a19565b005b34801561030957600080fd5b50610324600480360381019061031f9190613cf5565b610b31565b6040516103319190614688565b60405180910390f35b34801561034657600080fd5b50610361600480360381019061035c9190613a73565b610bae565b005b34801561036f57600080fd5b5061038a60048036038101906103859190613cac565b610c0e565b005b34801561039857600080fd5b506103b360048036038101906103ae9190613a06565b610cb5565b005b3480156103c157600080fd5b506103dc60048036038101906103d79190613be5565b610e3e565b005b3480156103ea57600080fd5b5061040560048036038101906104009190613a73565b610fbc565b005b34801561041357600080fd5b5061042e60048036038101906104299190613a06565b610fdc565b60405161043b9190614688565b60405180910390f35b61045e60048036038101906104599190613b89565b61102c565b005b34801561046c57600080fd5b5061048760048036038101906104829190613cf5565b611169565b6040516104949190614346565b60405180910390f35b3480156104a957600080fd5b506104b2611223565b6040516104bf9190614310565b60405180910390f35b3480156104d457600080fd5b506104ef60048036038101906104ea9190613cf5565b6112dc565b6040516104fc919061426c565b60405180910390f35b34801561051157600080fd5b5061052c60048036038101906105279190613a06565b611363565b60405161053991906142f5565b60405180910390f35b34801561054e57600080fd5b5061056960048036038101906105649190613a06565b6113b9565b6040516105769190614688565b60405180910390f35b34801561058b57600080fd5b50610594611471565b005b3480156105a257600080fd5b506105ab611485565b005b3480156105b957600080fd5b506105c2611647565b6040516105cf919061426c565b60405180910390f35b3480156105e457600080fd5b506105ed611671565b6040516105fa9190614346565b60405180910390f35b34801561060f57600080fd5b5061062a60048036038101906106259190613cf5565b611703565b60405161063791906142f5565b60405180910390f35b34801561064c57600080fd5b5061066760048036038101906106629190613b49565b611712565b005b34801561067557600080fd5b5061067e611728565b60405161068b919061426c565b60405180910390f35b3480156106a057600080fd5b506106bb60048036038101906106b69190613a06565b611737565b005b3480156106c957600080fd5b506106e460048036038101906106df9190613a06565b61179a565b005b3480156106f257600080fd5b5061070d60048036038101906107089190613ac6565b6117fd565b005b34801561071b57600080fd5b5061073660048036038101906107319190613cf5565b61185f565b6040516107439190614346565b60405180910390f35b34801561075857600080fd5b506107616118c7565b005b34801561076f57600080fd5b5061078a60048036038101906107859190613a33565b6118d9565b60405161079791906142f5565b60405180910390f35b3480156107ac57600080fd5b506107c760048036038101906107c29190613a06565b61196d565b005b3480156107d557600080fd5b506107f060048036038101906107eb9190613a06565b6119f1565b6040516107fd91906142d3565b60405180910390f35b60008161013054811061084e576040517f08c379a0000000000000000000000000000000000000000000000000000000008152600401610845906144e8565b60405180910390fd5b61085783611a8e565b915050919050565b60007f80ac58cd000000000000000000000000000000000000000000000000000000007bffffffffffffffffffffffffffffffffffffffffffffffffffffffff1916827bffffffffffffffffffffffffffffffffffffffffffffffffffffffff1916148061092a57507f5b5e139f000000000000000000000000000000000000000000000000000000007bffffffffffffffffffffffffffffffffffffffffffffffffffffffff1916827bffffffffffffffffffffffffffffffffffffffffffffffffffffffff1916145b8061093a575061093982611acf565b5b9050919050565b6060606580546109509061491a565b80601f016020809104026020016040519081016040528092919081815260200182805461097c9061491a565b80156109c95780601f1061099e576101008083540402835291602001916109c9565b820191906000526020600020905b8154815290600101906020018083116109ac57829003601f168201915b5050505050905090565b60006109de82611b39565b6069600083815260200190815260200160002060009054906101000a900473ffffffffffffffffffffffffffffffffffffffff169050919050565b6000610a24826112dc565b90508073ffffffffffffffffffffffffffffffffffffffff168373ffffffffffffffffffffffffffffffffffffffff161415610a95576040517f08c379a0000000000000000000000000000000000000000000000000000000008152600401610a8c906145e8565b60405180910390fd5b8073ffffffffffffffffffffffffffffffffffffffff16610ab4611b84565b73ffffffffffffffffffffffffffffffffffffffff161480610ae35750610ae281610add611b84565b6118d9565b5b610b22576040517f08c379a0000000000000000000000000000000000000000000000000000000008152600401610b1990614628565b60405180910390fd5b610b2c8383611b8c565b505050565b6000610134600060038110610b4957610b48614a39565b5b0154821015610b5b5760009050610ba9565b610134600160038110610b7157610b70614a39565b5b0154821015610b835760019050610ba8565b610134600260038110610b9957610b98614a39565b5b0154821015610ba757600290505b5b5b919050565b610bbf610bb9611b84565b82611c45565b610bfe576040517f08c379a0000000000000000000000000000000000000000000000000000000008152600401610bf590614368565b60405180910390fd5b610c09838383611cda565b505050565b60ca60003373ffffffffffffffffffffffffffffffffffffffff1673ffffffffffffffffffffffffffffffffffffffff16815260200190815260200160002060009054906101000a900460ff16610c9a576040517f08c379a0000000000000000000000000000000000000000000000000000000008152600401610c9190614528565b60405180910390fd5b8061012f9080519060200190610cb1929190613805565b5050565b7f000000000000000000000000000000000000000000000000000000000000000073ffffffffffffffffffffffffffffffffffffffff163073ffffffffffffffffffffffffffffffffffffffff161415610d44576040517f08c379a0000000000000000000000000000000000000000000000000000000008152600401610d3b90614408565b60405180910390fd5b7f000000000000000000000000000000000000000000000000000000000000000073ffffffffffffffffffffffffffffffffffffffff16610d83611fd4565b73ffffffffffffffffffffffffffffffffffffffff1614610dd9576040517f08c379a0000000000000000000000000000000000000000000000000000000008152600401610dd090614468565b60405180910390fd5b610de28161202b565b610e3b81600067ffffffffffffffff811115610e0157610e00614a68565b5b6040519080825280601f01601f191660200182016040528015610e335781602001600182028036833780820191505090505b506000612036565b50565b60ca60003373ffffffffffffffffffffffffffffffffffffffff1673ffffffffffffffffffffffffffffffffffffffff16815260200190815260200160002060009054906101000a900460ff16610eca576040517f08c379a0000000000000000000000000000000000000000000000000000000008152600401610ec190614528565b60405180910390fd5b80610130548110610f10576040517f08c379a0000000000000000000000000000000000000000000000000000000008152600401610f07906144e8565b60405180910390fd5b60001515610f1d83611a8e565b151514610f5f576040517f08c379a0000000000000000000000000000000000000000000000000000000008152600401610f5690614668565b60405180910390fd5b610f6983836121b3565b8273ffffffffffffffffffffffffffffffffffffffff167f1f89f147a58d1673945cf416187db98efc8208408c011b91887acd59fd8523c383604051610faf9190614688565b60405180910390a2505050565b610fd7838383604051806020016040528060008152506117fd565b505050565b6000611025609760008473ffffffffffffffffffffffffffffffffffffffff1673ffffffffffffffffffffffffffffffffffffffff1681526020019081526020016000206123d1565b9050919050565b7f000000000000000000000000000000000000000000000000000000000000000073ffffffffffffffffffffffffffffffffffffffff163073ffffffffffffffffffffffffffffffffffffffff1614156110bb576040517f08c379a00000000000000000000000000000000000000000000000000000000081526004016110b290614408565b60405180910390fd5b7f000000000000000000000000000000000000000000000000000000000000000073ffffffffffffffffffffffffffffffffffffffff166110fa611fd4565b73ffffffffffffffffffffffffffffffffffffffff1614611150576040517f08c379a000000000000000000000000000000000000000000000000000000000815260040161114790614468565b60405180910390fd5b6111598261202b565b61116582826001612036565b5050565b606061013860006101376000858152602001908152602001600020548152602001908152602001600020805461119e9061491a565b80601f01602080910402602001604051908101604052809291908181526020018280546111ca9061491a565b80156112175780601f106111ec57610100808354040283529160200191611217565b820191906000526020600020905b8154815290600101906020018083116111fa57829003601f168201915b50505050509050919050565b60007f000000000000000000000000000000000000000000000000000000000000000073ffffffffffffffffffffffffffffffffffffffff163073ffffffffffffffffffffffffffffffffffffffff16146112b3576040517f08c379a00000000000000000000000000000000000000000000000000000000081526004016112aa90614488565b60405180910390fd5b7f360894a13ba1a3210667c828492db98dca3e2076cc3735a920a3ca505d382bbc60001b905090565b6000806112e8836123e6565b9050600073ffffffffffffffffffffffffffffffffffffffff168173ffffffffffffffffffffffffffffffffffffffff16141561135a576040517f08c379a0000000000000000000000000000000000000000000000000000000008152600401611351906145c8565b60405180910390fd5b80915050919050565b600060ca60008373ffffffffffffffffffffffffffffffffffffffff1673ffffffffffffffffffffffffffffffffffffffff16815260200190815260200160002060009054906101000a900460ff169050919050565b60008073ffffffffffffffffffffffffffffffffffffffff168273ffffffffffffffffffffffffffffffffffffffff16141561142a576040517f08c379a0000000000000000000000000000000000000000000000000000000008152600401611421906144a8565b60405180910390fd5b606860008373ffffffffffffffffffffffffffffffffffffffff1673ffffffffffffffffffffffffffffffffffffffff168152602001908152602001600020549050919050565b611479612423565b61148360006124a1565b565b60008060019054906101000a900460ff161590508080156114b65750600160008054906101000a900460ff1660ff16105b806114e357506114c530612567565b1580156114e25750600160008054906101000a900460ff1660ff16145b5b611522576040517f08c379a000000000000000000000000000000000000000000000000000000000815260040161151990614508565b60405180910390fd5b60016000806101000a81548160ff021916908360ff160217905550801561155f576001600060016101000a81548160ff0219169083151502179055505b6115d36040518060400160405280600981526020017f44654f44442d4e465400000000000000000000000000000000000000000000008152506040518060400160405280600581526020017f44454f444400000000000000000000000000000000000000000000000000000081525061258a565b6115db6125e7565b6115e361277d565b6115eb6127ce565b80156116445760008060016101000a81548160ff0219169083151502179055507f7f26b83ff96e1f2b6a682f133852f6798a09c465da95921460cefb3847402498600160405161163b919061432b565b60405180910390a15b50565b6000609860009054906101000a900473ffffffffffffffffffffffffffffffffffffffff16905090565b6060606680546116809061491a565b80601f01602080910402602001604051908101604052809291908181526020018280546116ac9061491a565b80156116f95780601f106116ce576101008083540402835291602001916116f9565b820191906000526020600020905b8154815290600101906020018083116116dc57829003601f168201915b5050505050905090565b60006101305482109050919050565b61172461171d611b84565b8383612a86565b5050565b6000611732611fd4565b905090565b61173f612423565b600060ca60008373ffffffffffffffffffffffffffffffffffffffff1673ffffffffffffffffffffffffffffffffffffffff16815260200190815260200160002060006101000a81548160ff02191690831515021790555050565b6117a2612423565b600160ca60008373ffffffffffffffffffffffffffffffffffffffff1673ffffffffffffffffffffffffffffffffffffffff16815260200190815260200160002060006101000a81548160ff02191690831515021790555050565b61180e611808611b84565b83611c45565b61184d576040517f08c379a000000000000000000000000000000000000000000000000000000000815260040161184490614368565b60405180910390fd5b61185984848484612bf3565b50505050565b606061186a82611b39565b6000611874612c4f565b9050600081511161189457604051806020016040528060008152506118bf565b8061189e84612ce2565b6040516020016118af929190614248565b6040516020818303038152906040525b915050919050565b6118cf612423565b6118d76127ce565b565b6000606a60008473ffffffffffffffffffffffffffffffffffffffff1673ffffffffffffffffffffffffffffffffffffffff16815260200190815260200160002060008373ffffffffffffffffffffffffffffffffffffffff1673ffffffffffffffffffffffffffffffffffffffff16815260200190815260200160002060009054906101000a900460ff16905092915050565b611975612423565b600073ffffffffffffffffffffffffffffffffffffffff168173ffffffffffffffffffffffffffffffffffffffff1614156119e5576040517f08c379a00000000000000000000000000000000000000000000000000000000081526004016119dc906143a8565b60405180910390fd5b6119ee816124a1565b50565b6060609760008373ffffffffffffffffffffffffffffffffffffffff1673ffffffffffffffffffffffffffffffffffffffff168152602001908152602001600020600001600001805480602002602001604051908101604052809291908181526020018280548015611a8257602002820191906000526020600020905b815481526020019060010190808311611a6e575b50505050509050919050565b60008073ffffffffffffffffffffffffffffffffffffffff16611ab0836123e6565b73ffffffffffffffffffffffffffffffffffffffff1614159050919050565b60007f01ffc9a7000000000000000000000000000000000000000000000000000000007bffffffffffffffffffffffffffffffffffffffffffffffffffffffff1916827bffffffffffffffffffffffffffffffffffffffffffffffffffffffff1916149050919050565b611b4281611a8e565b611b81576040517f08c379a0000000000000000000000000000000000000000000000000000000008152600401611b78906145c8565b60405180910390fd5b50565b600033905090565b816069600083815260200190815260200160002060006101000a81548173ffffffffffffffffffffffffffffffffffffffff021916908373ffffffffffffffffffffffffffffffffffffffff160217905550808273ffffffffffffffffffffffffffffffffffffffff16611bff836112dc565b73ffffffffffffffffffffffffffffffffffffffff167f8c5be1e5ebec7d5bd14f71427d1e84f3dd0314c0f7b2291e5b200ac8c7c3b92560405160405180910390a45050565b600080611c51836112dc565b90508073ffffffffffffffffffffffffffffffffffffffff168473ffffffffffffffffffffffffffffffffffffffff161480611c935750611c9281856118d9565b5b80611cd157508373ffffffffffffffffffffffffffffffffffffffff16611cb9846109d3565b73ffffffffffffffffffffffffffffffffffffffff16145b91505092915050565b8273ffffffffffffffffffffffffffffffffffffffff16611cfa826112dc565b73ffffffffffffffffffffffffffffffffffffffff1614611d50576040517f08c379a0000000000000000000000000000000000000000000000000000000008152600401611d47906143c8565b60405180910390fd5b600073ffffffffffffffffffffffffffffffffffffffff168273ffffffffffffffffffffffffffffffffffffffff161415611dc0576040517f08c379a0000000000000000000000000000000000000000000000000000000008152600401611db790614428565b60405180910390fd5b611dcd8383836001612dba565b8273ffffffffffffffffffffffffffffffffffffffff16611ded826112dc565b73ffffffffffffffffffffffffffffffffffffffff1614611e43576040517f08c379a0000000000000000000000000000000000000000000000000000000008152600401611e3a906143c8565b60405180910390fd5b6069600082815260200190815260200160002060006101000a81549073ffffffffffffffffffffffffffffffffffffffff02191690556001606860008573ffffffffffffffffffffffffffffffffffffffff1673ffffffffffffffffffffffffffffffffffffffff168152602001908152602001600020600082825403925050819055506001606860008473ffffffffffffffffffffffffffffffffffffffff1673ffffffffffffffffffffffffffffffffffffffff16815260200190815260200160002060008282540192505081905550816067600083815260200190815260200160002060006101000a81548173ffffffffffffffffffffffffffffffffffffffff021916908373ffffffffffffffffffffffffffffffffffffffff160217905550808273ffffffffffffffffffffffffffffffffffffffff168473ffffffffffffffffffffffffffffffffffffffff167fddf252ad1be2c89b69c2b068fc378daa952ba7f163c4a11628f55a4df523b3ef60405160405180910390a4611fcf8383836001612e9e565b505050565b60006120027f360894a13ba1a3210667c828492db98dca3e2076cc3735a920a3ca505d382bbc60001b612ea4565b60000160009054906101000a900473ffffffffffffffffffffffffffffffffffffffff16905090565b612033612423565b50565b6120627f4910fdfa16fed3260ed0e7147f7cc6da11a60208b5b9406d12a635614ffd914360001b612eae565b60000160009054906101000a900460ff16156120865761208183612eb8565b6121ae565b8273ffffffffffffffffffffffffffffffffffffffff166352d1902d6040518163ffffffff1660e01b815260040160206040518083038186803b1580156120cc57600080fd5b505afa9250505080156120fd57506040513d601f19601f820116820180604052508101906120fa9190613c25565b60015b61213c576040517f08c379a000000000000000000000000000000000000000000000000000000000815260040161213390614568565b60405180910390fd5b7f360894a13ba1a3210667c828492db98dca3e2076cc3735a920a3ca505d382bbc60001b81146121a1576040517f08c379a0000000000000000000000000000000000000000000000000000000008152600401612198906144c8565b60405180910390fd5b506121ad838383612f71565b5b505050565b600073ffffffffffffffffffffffffffffffffffffffff168273ffffffffffffffffffffffffffffffffffffffff161415612223576040517f08c379a000000000000000000000000000000000000000000000000000000000815260040161221a90614548565b60405180910390fd5b61222c81611a8e565b1561226c576040517f08c379a0000000000000000000000000000000000000000000000000000000008152600401612263906143e8565b60405180910390fd5b61227a600083836001612dba565b61228381611a8e565b156122c3576040517f08c379a00000000000000000000000000000000000000000000000000000000081526004016122ba906143e8565b60405180910390fd5b6001606860008473ffffffffffffffffffffffffffffffffffffffff1673ffffffffffffffffffffffffffffffffffffffff16815260200190815260200160002060008282540192505081905550816067600083815260200190815260200160002060006101000a81548173ffffffffffffffffffffffffffffffffffffffff021916908373ffffffffffffffffffffffffffffffffffffffff160217905550808273ffffffffffffffffffffffffffffffffffffffff16600073ffffffffffffffffffffffffffffffffffffffff167fddf252ad1be2c89b69c2b068fc378daa952ba7f163c4a11628f55a4df523b3ef60405160405180910390a46123cd600083836001612e9e565b5050565b60006123df82600001612f9d565b9050919050565b60006067600083815260200190815260200160002060009054906101000a900473ffffffffffffffffffffffffffffffffffffffff169050919050565b61242b611b84565b73ffffffffffffffffffffffffffffffffffffffff16612449611647565b73ffffffffffffffffffffffffffffffffffffffff161461249f576040517f08c379a0000000000000000000000000000000000000000000000000000000008152600401612496906145a8565b60405180910390fd5b565b6000609860009054906101000a900473ffffffffffffffffffffffffffffffffffffffff16905081609860006101000a81548173ffffffffffffffffffffffffffffffffffffffff021916908373ffffffffffffffffffffffffffffffffffffffff1602179055508173ffffffffffffffffffffffffffffffffffffffff168173ffffffffffffffffffffffffffffffffffffffff167f8be0079c531659141344cd1fd0a4f28419497f9722a3daafe3b4186f6b6457e060405160405180910390a35050565b6000808273ffffffffffffffffffffffffffffffffffffffff163b119050919050565b600060019054906101000a900460ff166125d9576040517f08c379a00000000000000000000000000000000000000000000000000000000081526004016125d090614648565b60405180910390fd5b6125e38282612fae565b5050565b60008060019054906101000a900460ff161590508080156126185750600160008054906101000a900460ff1660ff16105b80612645575061262730612567565b1580156126445750600160008054906101000a900460ff1660ff16145b5b612684576040517f08c379a000000000000000000000000000000000000000000000000000000000815260040161267b90614508565b60405180910390fd5b60016000806101000a81548160ff021916908360ff16021790555080156126c1576001600060016101000a81548160ff0219169083151502179055505b6126c961302f565b600160ca60003373ffffffffffffffffffffffffffffffffffffffff1673ffffffffffffffffffffffffffffffffffffffff16815260200190815260200160002060006101000a81548160ff021916908315150217905550801561277a5760008060016101000a81548160ff0219169083151502179055507f7f26b83ff96e1f2b6a682f133852f6798a09c465da95921460cefb38474024986001604051612771919061432b565b60405180910390a15b50565b600060019054906101000a900460ff166127cc576040517f08c379a00000000000000000000000000000000000000000000000000000000081526004016127c390614648565b60405180910390fd5b565b6101906101316000600381106127e7576127e6614a39565b5b018190555061060461013160016003811061280557612804614a39565b5b01819055506101bb61013160026003811061282357612822614a39565b5b018190555061013160026003811061283e5761283d614a39565b5b015461013160016003811061285657612855614a39565b5b015461013160006003811061286e5761286d614a39565b5b015461287a91906147b1565b61288491906147b1565b610130819055506101316000600381106128a1576128a0614a39565b5b01546101346000600381106128b9576128b8614a39565b5b01819055506101316001600381106128d4576128d3614a39565b5b01546101346000600381106128ec576128eb614a39565b5b01546128f891906147b1565b61013460016003811061290e5761290d614a39565b5b018190555061013160026003811061292957612928614a39565b5b015461013460016003811061294157612940614a39565b5b015461294d91906147b1565b61013460026003811061296357612962614a39565b5b01819055506040518060400160405280600681526020017f42726f6e7a650000000000000000000000000000000000000000000000000000815250610138600080815260200190815260200160002090805190602001906129c5929190613805565b506040518060400160405280600481526020017f476f6c64000000000000000000000000000000000000000000000000000000008152506101386000600181526020019081526020016000209080519060200190612a24929190613805565b506040518060400160405280600781526020017f4469616d6f6e64000000000000000000000000000000000000000000000000008152506101386000600281526020019081526020016000209080519060200190612a83929190613805565b50565b8173ffffffffffffffffffffffffffffffffffffffff168373ffffffffffffffffffffffffffffffffffffffff161415612af5576040517f08c379a0000000000000000000000000000000000000000000000000000000008152600401612aec90614448565b60405180910390fd5b80606a60008573ffffffffffffffffffffffffffffffffffffffff1673ffffffffffffffffffffffffffffffffffffffff16815260200190815260200160002060008473ffffffffffffffffffffffffffffffffffffffff1673ffffffffffffffffffffffffffffffffffffffff16815260200190815260200160002060006101000a81548160ff0219169083151502179055508173ffffffffffffffffffffffffffffffffffffffff168373ffffffffffffffffffffffffffffffffffffffff167f17307eab39ab6107e8899845ad3d59bd9653f200f220920489ca2b5937696c3183604051612be691906142f5565b60405180910390a3505050565b612bfe848484611cda565b612c0a84848484613088565b612c49576040517f08c379a0000000000000000000000000000000000000000000000000000000008152600401612c4090614388565b60405180910390fd5b50505050565b606061012f8054612c5f9061491a565b80601f0160208091040260200160405190810160405280929190818152602001828054612c8b9061491a565b8015612cd85780601f10612cad57610100808354040283529160200191612cd8565b820191906000526020600020905b815481529060010190602001808311612cbb57829003601f168201915b5050505050905090565b606060006001612cf18461321f565b01905060008167ffffffffffffffff811115612d1057612d0f614a68565b5b6040519080825280601f01601f191660200182016040528015612d425781602001600182028036833780820191505090505b509050600082602001820190505b600115612daf578080600190039150507f3031323334353637383961626364656600000000000000000000000000000000600a86061a8153600a8581612d9957612d986149ac565b5b0494506000851415612daa57612daf565b612d50565b819350505050919050565b612dc684848484613372565b600073ffffffffffffffffffffffffffffffffffffffff168473ffffffffffffffffffffffffffffffffffffffff161415612e0a57612e058383613378565b612e98565b600073ffffffffffffffffffffffffffffffffffffffff168373ffffffffffffffffffffffffffffffffffffffff161415612e4e57612e4984836133ce565b612e97565b8273ffffffffffffffffffffffffffffffffffffffff168473ffffffffffffffffffffffffffffffffffffffff1614612e9657612e8b8383613378565b612e9584836133ce565b5b5b5b50505050565b50505050565b6000819050919050565b6000819050919050565b612ec181612567565b612f00576040517f08c379a0000000000000000000000000000000000000000000000000000000008152600401612ef790614588565b60405180910390fd5b80612f2d7f360894a13ba1a3210667c828492db98dca3e2076cc3735a920a3ca505d382bbc60001b612ea4565b60000160006101000a81548173ffffffffffffffffffffffffffffffffffffffff021916908373ffffffffffffffffffffffffffffffffffffffff16021790555050565b612f7a83613424565b600082511180612f875750805b15612f9857612f968383613473565b505b505050565b600081600001805490509050919050565b600060019054906101000a900460ff16612ffd576040517f08c379a0000000000000000000000000000000000000000000000000000000008152600401612ff490614648565b60405180910390fd5b8160659080519060200190613013929190613805565b50806066908051906020019061302a929190613805565b505050565b600060019054906101000a900460ff1661307e576040517f08c379a000000000000000000000000000000000000000000000000000000000815260040161307590614648565b60405180910390fd5b613086613557565b565b60006130a98473ffffffffffffffffffffffffffffffffffffffff16612567565b15613212578373ffffffffffffffffffffffffffffffffffffffff1663150b7a026130d2611b84565b8786866040518563ffffffff1660e01b81526004016130f49493929190614287565b602060405180830381600087803b15801561310e57600080fd5b505af192505050801561313f57506040513d601f19601f8201168201806040525081019061313c9190613c7f565b60015b6131c2573d806000811461316f576040519150601f19603f3d011682016040523d82523d6000602084013e613174565b606091505b506000815114156131ba576040517f08c379a00000000000000000000000000000000000000000000000000000000081526004016131b190614388565b60405180910390fd5b805181602001fd5b63150b7a0260e01b7bffffffffffffffffffffffffffffffffffffffffffffffffffffffff1916817bffffffffffffffffffffffffffffffffffffffffffffffffffffffff191614915050613217565b600190505b949350505050565b600080600090507a184f03e93ff9f4daa797ed6e38ed64bf6a1f010000000000000000831061327d577a184f03e93ff9f4daa797ed6e38ed64bf6a1f0100000000000000008381613273576132726149ac565b5b0492506040810190505b6d04ee2d6d415b85acef810000000083106132ba576d04ee2d6d415b85acef810000000083816132b0576132af6149ac565b5b0492506020810190505b662386f26fc1000083106132e957662386f26fc1000083816132df576132de6149ac565b5b0492506010810190505b6305f5e1008310613312576305f5e1008381613308576133076149ac565b5b0492506008810190505b612710831061333757612710838161332d5761332c6149ac565b5b0492506004810190505b6064831061335a57606483816133505761334f6149ac565b5b0492506002810190505b600a8310613369576001810190505b80915050919050565b50505050565b6133c981609760008573ffffffffffffffffffffffffffffffffffffffff1673ffffffffffffffffffffffffffffffffffffffff1681526020019081526020016000206135b890919063ffffffff16565b505050565b61341f81609760008573ffffffffffffffffffffffffffffffffffffffff1673ffffffffffffffffffffffffffffffffffffffff1681526020019081526020016000206135d290919063ffffffff16565b505050565b61342d81612eb8565b8073ffffffffffffffffffffffffffffffffffffffff167fbc7cd75a20ee27fd9adebab32041f755214dbc6bffa90cc0225b39da2e5c2d3b60405160405180910390a250565b606061347e83612567565b6134bd576040517f08c379a00000000000000000000000000000000000000000000000000000000081526004016134b490614608565b60405180910390fd5b6000808473ffffffffffffffffffffffffffffffffffffffff16846040516134e59190614231565b600060405180830381855af49150503d8060008114613520576040519150601f19603f3d011682016040523d82523d6000602084013e613525565b606091505b509150915061354d82826040518060600160405280602781526020016151b7602791396135ec565b9250505092915050565b600060019054906101000a900460ff166135a6576040517f08c379a000000000000000000000000000000000000000000000000000000000815260040161359d90614648565b60405180910390fd5b6135b66135b1611b84565b6124a1565b565b60006135ca836000018360001b61360e565b905092915050565b60006135e4836000018360001b61367e565b905092915050565b606083156135fc57829050613607565b6136068383613792565b5b9392505050565b600061361a83836137e2565b613673578260000182908060018154018082558091505060019003906000526020600020016000909190919091505582600001805490508360010160008481526020019081526020016000208190555060019050613678565b600090505b92915050565b600080836001016000848152602001908152602001600020549050600081146137865760006001826136b09190614807565b90506000600186600001805490506136c89190614807565b90508181146137375760008660000182815481106136e9576136e8614a39565b5b906000526020600020015490508087600001848154811061370d5761370c614a39565b5b90600052602060002001819055508387600101600083815260200190815260200160002081905550505b8560000180548061374b5761374a614a0a565b5b60019003818190600052602060002001600090559055856001016000868152602001908152602001600020600090556001935050505061378c565b60009150505b92915050565b6000825111156137a55781518083602001fd5b806040517f08c379a00000000000000000000000000000000000000000000000000000000081526004016137d99190614346565b60405180910390fd5b600080836001016000848152602001908152602001600020541415905092915050565b8280546138119061491a565b90600052602060002090601f016020900481019282613833576000855561387a565b82601f1061384c57805160ff191683800117855561387a565b8280016001018555821561387a579182015b8281111561387957825182559160200191906001019061385e565b5b509050613887919061388b565b5090565b5b808211156138a457600081600090555060010161388c565b5090565b60006138bb6138b6846146c8565b6146a3565b9050828152602081018484840111156138d7576138d6614a9c565b5b6138e28482856148d8565b509392505050565b60006138fd6138f8846146f9565b6146a3565b90508281526020810184848401111561391957613918614a9c565b5b6139248482856148d8565b509392505050565b60008135905061393b81615143565b92915050565b6000813590506139508161515a565b92915050565b60008151905061396581615171565b92915050565b60008135905061397a81615188565b92915050565b60008151905061398f81615188565b92915050565b600082601f8301126139aa576139a9614a97565b5b81356139ba8482602086016138a8565b91505092915050565b600082601f8301126139d8576139d7614a97565b5b81356139e88482602086016138ea565b91505092915050565b600081359050613a008161519f565b92915050565b600060208284031215613a1c57613a1b614aa6565b5b6000613a2a8482850161392c565b91505092915050565b60008060408385031215613a4a57613a49614aa6565b5b6000613a588582860161392c565b9250506020613a698582860161392c565b9150509250929050565b600080600060608486031215613a8c57613a8b614aa6565b5b6000613a9a8682870161392c565b9350506020613aab8682870161392c565b9250506040613abc868287016139f1565b9150509250925092565b60008060008060808587031215613ae057613adf614aa6565b5b6000613aee8782880161392c565b9450506020613aff8782880161392c565b9350506040613b10878288016139f1565b925050606085013567ffffffffffffffff811115613b3157613b30614aa1565b5b613b3d87828801613995565b91505092959194509250565b60008060408385031215613b6057613b5f614aa6565b5b6000613b6e8582860161392c565b9250506020613b7f85828601613941565b9150509250929050565b60008060408385031215613ba057613b9f614aa6565b5b6000613bae8582860161392c565b925050602083013567ffffffffffffffff811115613bcf57613bce614aa1565b5b613bdb85828601613995565b9150509250929050565b60008060408385031215613bfc57613bfb614aa6565b5b6000613c0a8582860161392c565b9250506020613c1b858286016139f1565b9150509250929050565b600060208284031215613c3b57613c3a614aa6565b5b6000613c4984828501613956565b91505092915050565b600060208284031215613c6857613c67614aa6565b5b6000613c768482850161396b565b91505092915050565b600060208284031215613c9557613c94614aa6565b5b6000613ca384828501613980565b91505092915050565b600060208284031215613cc257613cc1614aa6565b5b600082013567ffffffffffffffff811115613ce057613cdf614aa1565b5b613cec848285016139c3565b91505092915050565b600060208284031215613d0b57613d0a614aa6565b5b6000613d19848285016139f1565b91505092915050565b6000613d2e8383613db6565b60208301905092915050565b613d438161483b565b82525050565b6000613d548261473a565b613d5e8185614768565b9350613d698361472a565b8060005b83811015613d9a578151613d818882613d22565b9750613d8c8361475b565b925050600181019050613d6d565b5085935050505092915050565b613db08161484d565b82525050565b613dbf81614859565b82525050565b613dce81614859565b82525050565b6000613ddf82614745565b613de98185614779565b9350613df98185602086016148e7565b613e0281614aab565b840191505092915050565b6000613e1882614745565b613e22818561478a565b9350613e328185602086016148e7565b80840191505092915050565b613e47816148c6565b82525050565b6000613e5882614750565b613e628185614795565b9350613e728185602086016148e7565b613e7b81614aab565b840191505092915050565b6000613e9182614750565b613e9b81856147a6565b9350613eab8185602086016148e7565b80840191505092915050565b6000613ec4602d83614795565b9150613ecf82614abc565b604082019050919050565b6000613ee7603283614795565b9150613ef282614b0b565b604082019050919050565b6000613f0a602683614795565b9150613f1582614b5a565b604082019050919050565b6000613f2d602583614795565b9150613f3882614ba9565b604082019050919050565b6000613f50601c83614795565b9150613f5b82614bf8565b602082019050919050565b6000613f73602c83614795565b9150613f7e82614c21565b604082019050919050565b6000613f96602483614795565b9150613fa182614c70565b604082019050919050565b6000613fb9601983614795565b9150613fc482614cbf565b602082019050919050565b6000613fdc602c83614795565b9150613fe782614ce8565b604082019050919050565b6000613fff603883614795565b915061400a82614d37565b604082019050919050565b6000614022602983614795565b915061402d82614d86565b604082019050919050565b6000614045602983614795565b915061405082614dd5565b604082019050919050565b6000614068600f83614795565b915061407382614e24565b602082019050919050565b600061408b602e83614795565b915061409682614e4d565b604082019050919050565b60006140ae601b83614795565b91506140b982614e9c565b602082019050919050565b60006140d1602083614795565b91506140dc82614ec5565b602082019050919050565b60006140f4602e83614795565b91506140ff82614eee565b604082019050919050565b6000614117602d83614795565b915061412282614f3d565b604082019050919050565b600061413a602083614795565b915061414582614f8c565b602082019050919050565b600061415d601883614795565b915061416882614fb5565b602082019050919050565b6000614180602183614795565b915061418b82614fde565b604082019050919050565b60006141a3602683614795565b91506141ae8261502d565b604082019050919050565b60006141c6603d83614795565b91506141d18261507c565b604082019050919050565b60006141e9602b83614795565b91506141f4826150cb565b604082019050919050565b600061420c601683614795565b91506142178261511a565b602082019050919050565b61422b816148af565b82525050565b600061423d8284613e0d565b915081905092915050565b60006142548285613e86565b91506142608284613e86565b91508190509392505050565b60006020820190506142816000830184613d3a565b92915050565b600060808201905061429c6000830187613d3a565b6142a96020830186613d3a565b6142b66040830185614222565b81810360608301526142c88184613dd4565b905095945050505050565b600060208201905081810360008301526142ed8184613d49565b905092915050565b600060208201905061430a6000830184613da7565b92915050565b60006020820190506143256000830184613dc5565b92915050565b60006020820190506143406000830184613e3e565b92915050565b600060208201905081810360008301526143608184613e4d565b905092915050565b6000602082019050818103600083015261438181613eb7565b9050919050565b600060208201905081810360008301526143a181613eda565b9050919050565b600060208201905081810360008301526143c181613efd565b9050919050565b600060208201905081810360008301526143e181613f20565b9050919050565b6000602082019050818103600083015261440181613f43565b9050919050565b6000602082019050818103600083015261442181613f66565b9050919050565b6000602082019050818103600083015261444181613f89565b9050919050565b6000602082019050818103600083015261446181613fac565b9050919050565b6000602082019050818103600083015261448181613fcf565b9050919050565b600060208201905081810360008301526144a181613ff2565b9050919050565b600060208201905081810360008301526144c181614015565b9050919050565b600060208201905081810360008301526144e181614038565b9050919050565b600060208201905081810360008301526145018161405b565b9050919050565b600060208201905081810360008301526145218161407e565b9050919050565b60006020820190508181036000830152614541816140a1565b9050919050565b60006020820190508181036000830152614561816140c4565b9050919050565b60006020820190508181036000830152614581816140e7565b9050919050565b600060208201905081810360008301526145a18161410a565b9050919050565b600060208201905081810360008301526145c18161412d565b9050919050565b600060208201905081810360008301526145e181614150565b9050919050565b6000602082019050818103600083015261460181614173565b9050919050565b6000602082019050818103600083015261462181614196565b9050919050565b60006020820190508181036000830152614641816141b9565b9050919050565b60006020820190508181036000830152614661816141dc565b9050919050565b60006020820190508181036000830152614681816141ff565b9050919050565b600060208201905061469d6000830184614222565b92915050565b60006146ad6146be565b90506146b9828261494c565b919050565b6000604051905090565b600067ffffffffffffffff8211156146e3576146e2614a68565b5b6146ec82614aab565b9050602081019050919050565b600067ffffffffffffffff82111561471457614713614a68565b5b61471d82614aab565b9050602081019050919050565b6000819050602082019050919050565b600081519050919050565b600081519050919050565b600081519050919050565b6000602082019050919050565b600082825260208201905092915050565b600082825260208201905092915050565b600081905092915050565b600082825260208201905092915050565b600081905092915050565b60006147bc826148af565b91506147c7836148af565b9250827fffffffffffffffffffffffffffffffffffffffffffffffffffffffffffffffff038211156147fc576147fb61497d565b5b828201905092915050565b6000614812826148af565b915061481d836148af565b9250828210156148305761482f61497d565b5b828203905092915050565b60006148468261488f565b9050919050565b60008115159050919050565b6000819050919050565b60007fffffffff0000000000000000000000000000000000000000000000000000000082169050919050565b600073ffffffffffffffffffffffffffffffffffffffff82169050919050565b6000819050919050565b600060ff82169050919050565b60006148d1826148b9565b9050919050565b82818337600083830152505050565b60005b838110156149055780820151818401526020810190506148ea565b83811115614914576000848401525b50505050565b6000600282049050600182168061493257607f821691505b60208210811415614946576149456149db565b5b50919050565b61495582614aab565b810181811067ffffffffffffffff8211171561497457614973614a68565b5b80604052505050565b7f4e487b7100000000000000000000000000000000000000000000000000000000600052601160045260246000fd5b7f4e487b7100000000000000000000000000000000000000000000000000000000600052601260045260246000fd5b7f4e487b7100000000000000000000000000000000000000000000000000000000600052602260045260246000fd5b7f4e487b7100000000000000000000000000000000000000000000000000000000600052603160045260246000fd5b7f4e487b7100000000000000000000000000000000000000000000000000000000600052603260045260246000fd5b7f4e487b7100000000000000000000000000000000000000000000000000000000600052604160045260246000fd5b600080fd5b600080fd5b600080fd5b600080fd5b6000601f19601f8301169050919050565b7f4552433732313a2063616c6c6572206973206e6f7420746f6b656e206f776e6560008201527f72206f7220617070726f76656400000000000000000000000000000000000000602082015250565b7f4552433732313a207472616e7366657220746f206e6f6e20455243373231526560008201527f63656976657220696d706c656d656e7465720000000000000000000000000000602082015250565b7f4f776e61626c653a206e6577206f776e657220697320746865207a65726f206160008201527f6464726573730000000000000000000000000000000000000000000000000000602082015250565b7f4552433732313a207472616e736665722066726f6d20696e636f72726563742060008201527f6f776e6572000000000000000000000000000000000000000000000000000000602082015250565b7f4552433732313a20746f6b656e20616c7265616479206d696e74656400000000600082015250565b7f46756e6374696f6e206d7573742062652063616c6c6564207468726f7567682060008201527f64656c656761746563616c6c0000000000000000000000000000000000000000602082015250565b7f4552433732313a207472616e7366657220746f20746865207a65726f2061646460008201527f7265737300000000000000000000000000000000000000000000000000000000602082015250565b7f4552433732313a20617070726f766520746f2063616c6c657200000000000000600082015250565b7f46756e6374696f6e206d7573742062652063616c6c6564207468726f7567682060008201527f6163746976652070726f78790000000000000000000000000000000000000000602082015250565b7f555550535570677261646561626c653a206d757374206e6f742062652063616c60008201527f6c6564207468726f7567682064656c656761746563616c6c0000000000000000602082015250565b7f4552433732313a2061646472657373207a65726f206973206e6f74206120766160008201527f6c6964206f776e65720000000000000000000000000000000000000000000000602082015250565b7f45524331393637557067726164653a20756e737570706f727465642070726f7860008201527f6961626c65555549440000000000000000000000000000000000000000000000602082015250565b7f696e76616c696420746f6b656e49640000000000000000000000000000000000600082015250565b7f496e697469616c697a61626c653a20636f6e747261637420697320616c72656160008201527f647920696e697469616c697a6564000000000000000000000000000000000000602082015250565b7f63616c6c6572206973206e6f7420746865206f70657261746f72730000000000600082015250565b7f4552433732313a206d696e7420746f20746865207a65726f2061646472657373600082015250565b7f45524331393637557067726164653a206e657720696d706c656d656e7461746960008201527f6f6e206973206e6f742055555053000000000000000000000000000000000000602082015250565b7f455243313936373a206e657720696d706c656d656e746174696f6e206973206e60008201527f6f74206120636f6e747261637400000000000000000000000000000000000000602082015250565b7f4f776e61626c653a2063616c6c6572206973206e6f7420746865206f776e6572600082015250565b7f4552433732313a20696e76616c696420746f6b656e2049440000000000000000600082015250565b7f4552433732313a20617070726f76616c20746f2063757272656e74206f776e6560008201527f7200000000000000000000000000000000000000000000000000000000000000602082015250565b7f416464726573733a2064656c65676174652063616c6c20746f206e6f6e2d636f60008201527f6e74726163740000000000000000000000000000000000000000000000000000602082015250565b7f4552433732313a20617070726f76652063616c6c6572206973206e6f7420746f60008201527f6b656e206f776e6572206f7220617070726f76656420666f7220616c6c000000602082015250565b7f496e697469616c697a61626c653a20636f6e7472616374206973206e6f74206960008201527f6e697469616c697a696e67000000000000000000000000000000000000000000602082015250565b7f746f6b656e496420616c72656164792065786973747300000000000000000000600082015250565b61514c8161483b565b811461515757600080fd5b50565b6151638161484d565b811461516e57600080fd5b50565b61517a81614859565b811461518557600080fd5b50565b61519181614863565b811461519c57600080fd5b50565b6151a8816148af565b81146151b357600080fd5b5056fe416464726573733a206c6f772d6c6576656c2064656c65676174652063616c6c206661696c6564a26469706673582212208d1973dc0bcaf956deb92f7eaf3d120a159252c29c3cf3bd78c5ec0970c09bc264736f6c63430008070033",
  "linkReferences": {},
  "deployedLinkReferences": {}
}