{
  "_format": "hh-sol-artifact-1",
  "contractName": "Deodd",
  "sourceName": "contracts/Deodd.sol",
  "abi": [
    {
      "inputs": [
        {
          "internalType": "address",
          "name": "have",
          "type": "address"
        },
        {
          "internalType": "address",
          "name": "want",
          "type": "address"
        }
      ],
      "name": "OnlyCoordinatorCanFulfill",
      "type": "error"
    },
    {
      "anonymous": false,
      "inputs": [
        {
          "indexed": false,
          "internalType": "address",
          "name": "previousAdmin",
          "type": "address"
        },
        {
          "indexed": false,
          "internalType": "address",
          "name": "newAdmin",
          "type": "address"
        }
      ],
      "name": "AdminChanged",
      "type": "event"
    },
    {
      "anonymous": false,
      "inputs": [
        {
          "indexed": true,
          "internalType": "address",
          "name": "beacon",
          "type": "address"
        }
      ],
      "name": "BeaconUpgraded",
      "type": "event"
    },
    {
      "anonymous": false,
      "inputs": [
        {
          "indexed": true,
          "internalType": "address",
          "name": "wallet",
          "type": "address"
        },
        {
          "indexed": false,
          "internalType": "uint256",
          "name": "fId",
          "type": "uint256"
        },
        {
          "indexed": false,
          "internalType": "uint256",
          "name": "randomValue",
          "type": "uint256"
        },
        {
          "indexed": false,
          "internalType": "uint256",
          "name": "flipResult",
          "type": "uint256"
        },
        {
          "indexed": false,
          "internalType": "uint256",
          "name": "timestamp",
          "type": "uint256"
        }
      ],
      "name": "FlipResult",
      "type": "event"
    },
    {
      "anonymous": false,
      "inputs": [
        {
          "indexed": false,
          "internalType": "uint8",
          "name": "version",
          "type": "uint8"
        }
      ],
      "name": "Initialized",
      "type": "event"
    },
    {
      "anonymous": false,
      "inputs": [
        {
          "indexed": true,
          "internalType": "address",
          "name": "previousOwner",
          "type": "address"
        },
        {
          "indexed": true,
          "internalType": "address",
          "name": "newOwner",
          "type": "address"
        }
      ],
      "name": "OwnershipTransferred",
      "type": "event"
    },
    {
      "anonymous": false,
      "inputs": [
        {
          "indexed": true,
          "internalType": "address",
          "name": "from",
          "type": "address"
        },
        {
          "indexed": false,
          "internalType": "uint256",
          "name": "amount",
          "type": "uint256"
        }
      ],
      "name": "ReceiveBNB",
      "type": "event"
    },
    {
      "anonymous": false,
      "inputs": [
        {
          "indexed": true,
          "internalType": "address",
          "name": "user",
          "type": "address"
        },
        {
          "indexed": false,
          "internalType": "uint256",
          "name": "requestId",
          "type": "uint256"
        }
      ],
      "name": "RequestSent",
      "type": "event"
    },
    {
      "anonymous": false,
      "inputs": [
        {
          "indexed": true,
          "internalType": "address",
          "name": "user",
          "type": "address"
        },
        {
          "indexed": false,
          "internalType": "uint256",
          "name": "flipId",
          "type": "uint256"
        },
        {
          "indexed": false,
          "internalType": "uint256",
          "name": "requestId",
          "type": "uint256"
        },
        {
          "indexed": false,
          "internalType": "uint256",
          "name": "amount",
          "type": "uint256"
        }
      ],
      "name": "RollbackFlip",
      "type": "event"
    },
    {
      "anonymous": false,
      "inputs": [
        {
          "indexed": true,
          "internalType": "address",
          "name": "user",
          "type": "address"
        },
        {
          "indexed": false,
          "internalType": "uint256",
          "name": "flipId",
          "type": "uint256"
        },
        {
          "indexed": false,
          "internalType": "uint256",
          "name": "requestId",
          "type": "uint256"
        },
        {
          "indexed": false,
          "internalType": "uint256",
          "name": "amount",
          "type": "uint256"
        }
      ],
      "name": "RollbackUnfulfilled",
      "type": "event"
    },
    {
      "anonymous": false,
      "inputs": [
        {
          "indexed": true,
          "internalType": "address",
          "name": "implementation",
          "type": "address"
        }
      ],
      "name": "Upgraded",
      "type": "event"
    },
    {
      "anonymous": false,
      "inputs": [
        {
          "indexed": true,
          "internalType": "address",
          "name": "user",
          "type": "address"
        },
        {
          "indexed": false,
          "internalType": "uint256",
          "name": "fId",
          "type": "uint256"
        },
        {
          "indexed": false,
          "internalType": "uint256",
          "name": "requestId",
          "type": "uint256"
        },
        {
          "indexed": false,
          "internalType": "uint256",
          "name": "amount",
          "type": "uint256"
        },
        {
          "indexed": false,
          "internalType": "uint256",
          "name": "flipChoice",
          "type": "uint256"
        },
        {
          "indexed": false,
          "internalType": "uint256",
          "name": "requestedAt",
          "type": "uint256"
        }
      ],
      "name": "UserFlip",
      "type": "event"
    },
    {
      "inputs": [
        {
          "internalType": "uint256",
          "name": "bId",
          "type": "uint256"
        }
      ],
      "name": "calcServiceFee",
      "outputs": [
        {
          "internalType": "uint256",
          "name": "",
          "type": "uint256"
        }
      ],
      "stateMutability": "view",
      "type": "function"
    },
    {
      "inputs": [
        {
          "internalType": "uint256",
          "name": "flipChoice",
          "type": "uint256"
        },
        {
          "internalType": "uint256",
          "name": "bId",
          "type": "uint256"
        }
      ],
      "name": "flipTheCoin",
      "outputs": [],
      "stateMutability": "payable",
      "type": "function"
    },
    {
      "inputs": [],
      "name": "getBetAmount",
      "outputs": [
        {
          "internalType": "uint256[]",
          "name": "",
          "type": "uint256[]"
        }
      ],
      "stateMutability": "view",
      "type": "function"
    },
    {
      "inputs": [],
      "name": "getConfig",
      "outputs": [
        {
          "components": [
            {
              "internalType": "uint64",
              "name": "s_subscriptionId",
              "type": "uint64"
            },
            {
              "internalType": "bytes32",
              "name": "keyHash",
              "type": "bytes32"
            },
            {
              "internalType": "uint32",
              "name": "callbackGasLimit",
              "type": "uint32"
            },
            {
              "internalType": "uint16",
              "name": "numWords",
              "type": "uint16"
            },
            {
              "internalType": "uint16",
              "name": "requestConfirmations",
              "type": "uint16"
            }
          ],
          "internalType": "struct DeoddFlipCoin.VRFConfig",
          "name": "",
          "type": "tuple"
        }
      ],
      "stateMutability": "view",
      "type": "function"
    },
    {
      "inputs": [],
      "name": "getCoordinator",
      "outputs": [
        {
          "internalType": "address",
          "name": "",
          "type": "address"
        }
      ],
      "stateMutability": "view",
      "type": "function"
    },
    {
      "inputs": [
        {
          "internalType": "uint256",
          "name": "_requestId",
          "type": "uint256"
        }
      ],
      "name": "getFlipCoin",
      "outputs": [
        {
          "components": [
            {
              "internalType": "bool",
              "name": "fulfilled",
              "type": "bool"
            },
            {
              "internalType": "bool",
              "name": "exists",
              "type": "bool"
            },
            {
              "internalType": "uint256",
              "name": "fId",
              "type": "uint256"
            },
            {
              "internalType": "uint256",
              "name": "flipChoice",
              "type": "uint256"
            },
            {
              "internalType": "uint256",
              "name": "randomValue",
              "type": "uint256"
            },
            {
              "internalType": "uint256",
              "name": "amount",
              "type": "uint256"
            },
            {
              "internalType": "uint256",
              "name": "requestedAt",
              "type": "uint256"
            },
            {
              "internalType": "uint256",
              "name": "fulfilledAt",
              "type": "uint256"
            },
            {
              "internalType": "address",
              "name": "user",
              "type": "address"
            }
          ],
          "internalType": "struct DeoddFlipCoin.FlipCoin",
          "name": "",
          "type": "tuple"
        }
      ],
      "stateMutability": "view",
      "type": "function"
    },
    {
      "inputs": [],
      "name": "getImplementation",
      "outputs": [
        {
          "internalType": "address",
          "name": "",
          "type": "address"
        }
      ],
      "stateMutability": "view",
      "type": "function"
    },
    {
      "inputs": [],
      "name": "initialize",
      "outputs": [],
      "stateMutability": "nonpayable",
      "type": "function"
    },
    {
      "inputs": [
        {
          "internalType": "address",
          "name": "operator",
          "type": "address"
        }
      ],
      "name": "isOperator",
      "outputs": [
        {
          "internalType": "bool",
          "name": "",
          "type": "bool"
        }
      ],
      "stateMutability": "view",
      "type": "function"
    },
    {
      "inputs": [],
      "name": "owner",
      "outputs": [
        {
          "internalType": "address",
          "name": "",
          "type": "address"
        }
      ],
      "stateMutability": "view",
      "type": "function"
    },
    {
      "inputs": [],
      "name": "pendingRequestExists",
      "outputs": [
        {
          "internalType": "bool",
          "name": "",
          "type": "bool"
        }
      ],
      "stateMutability": "view",
      "type": "function"
    },
    {
      "inputs": [],
      "name": "proxiableUUID",
      "outputs": [
        {
          "internalType": "bytes32",
          "name": "",
          "type": "bytes32"
        }
      ],
      "stateMutability": "view",
      "type": "function"
    },
    {
      "inputs": [
        {
          "internalType": "uint256",
          "name": "requestId",
          "type": "uint256"
        },
        {
          "internalType": "uint256[]",
          "name": "randomWords",
          "type": "uint256[]"
        }
      ],
      "name": "rawFulfillRandomWords",
      "outputs": [],
      "stateMutability": "nonpayable",
      "type": "function"
    },
    {
      "inputs": [
        {
          "internalType": "address",
          "name": "operator",
          "type": "address"
        }
      ],
      "name": "removeOperator",
      "outputs": [],
      "stateMutability": "nonpayable",
      "type": "function"
    },
    {
      "inputs": [],
      "name": "renounceOwnership",
      "outputs": [],
      "stateMutability": "nonpayable",
      "type": "function"
    },
    {
      "inputs": [],
      "name": "rollbackUnfulfilled",
      "outputs": [],
      "stateMutability": "nonpayable",
      "type": "function"
    },
    {
      "inputs": [
        {
          "internalType": "uint256",
          "name": "",
          "type": "uint256"
        }
      ],
      "name": "s_requests",
      "outputs": [
        {
          "internalType": "bool",
          "name": "fulfilled",
          "type": "bool"
        },
        {
          "internalType": "bool",
          "name": "exists",
          "type": "bool"
        },
        {
          "internalType": "uint256",
          "name": "fId",
          "type": "uint256"
        },
        {
          "internalType": "uint256",
          "name": "flipChoice",
          "type": "uint256"
        },
        {
          "internalType": "uint256",
          "name": "randomValue",
          "type": "uint256"
        },
        {
          "internalType": "uint256",
          "name": "amount",
          "type": "uint256"
        },
        {
          "internalType": "uint256",
          "name": "requestedAt",
          "type": "uint256"
        },
        {
          "internalType": "uint256",
          "name": "fulfilledAt",
          "type": "uint256"
        },
        {
          "internalType": "address",
          "name": "user",
          "type": "address"
        }
      ],
      "stateMutability": "view",
      "type": "function"
    },
    {
      "inputs": [],
      "name": "serviceFee",
      "outputs": [
        {
          "internalType": "uint256",
          "name": "",
          "type": "uint256"
        }
      ],
      "stateMutability": "view",
      "type": "function"
    },
    {
      "inputs": [
        {
          "internalType": "uint256[]",
          "name": "_betAmount",
          "type": "uint256[]"
        }
      ],
      "name": "setBetAmount",
      "outputs": [],
      "stateMutability": "nonpayable",
      "type": "function"
    },
    {
      "inputs": [
        {
          "components": [
            {
              "internalType": "uint64",
              "name": "s_subscriptionId",
              "type": "uint64"
            },
            {
              "internalType": "bytes32",
              "name": "keyHash",
              "type": "bytes32"
            },
            {
              "internalType": "uint32",
              "name": "callbackGasLimit",
              "type": "uint32"
            },
            {
              "internalType": "uint16",
              "name": "numWords",
              "type": "uint16"
            },
            {
              "internalType": "uint16",
              "name": "requestConfirmations",
              "type": "uint16"
            }
          ],
          "internalType": "struct DeoddFlipCoin.VRFConfig",
          "name": "cfg",
          "type": "tuple"
        }
      ],
      "name": "setConfig",
      "outputs": [],
      "stateMutability": "nonpayable",
      "type": "function"
    },
    {
      "inputs": [
        {
          "internalType": "address",
          "name": "_vrfCoordinator",
          "type": "address"
        }
      ],
      "name": "setCoordinator",
      "outputs": [],
      "stateMutability": "nonpayable",
      "type": "function"
    },
    {
      "inputs": [
        {
          "internalType": "address",
          "name": "user",
          "type": "address"
        },
        {
          "internalType": "uint256",
          "name": "requestId",
          "type": "uint256"
        }
      ],
      "name": "setLastRequestId",
      "outputs": [],
      "stateMutability": "nonpayable",
      "type": "function"
    },
    {
      "inputs": [
        {
          "internalType": "address",
          "name": "operator",
          "type": "address"
        }
      ],
      "name": "setOperator",
      "outputs": [],
      "stateMutability": "nonpayable",
      "type": "function"
    },
    {
      "inputs": [
        {
          "internalType": "uint256",
          "name": "sf",
          "type": "uint256"
        }
      ],
      "name": "setServiceFee",
      "outputs": [],
      "stateMutability": "nonpayable",
      "type": "function"
    },
    {
      "inputs": [
        {
          "internalType": "uint256",
          "name": "_vrfFee",
          "type": "uint256"
        }
      ],
      "name": "setVRFee",
      "outputs": [],
      "stateMutability": "nonpayable",
      "type": "function"
    },
    {
      "inputs": [
        {
          "internalType": "address payable",
          "name": "wallet",
          "type": "address"
        }
      ],
      "name": "setWallet",
      "outputs": [],
      "stateMutability": "nonpayable",
      "type": "function"
    },
    {
      "inputs": [
        {
          "internalType": "address",
          "name": "newOwner",
          "type": "address"
        }
      ],
      "name": "transferOwnership",
      "outputs": [],
      "stateMutability": "nonpayable",
      "type": "function"
    },
    {
      "inputs": [
        {
          "internalType": "address",
          "name": "newImplementation",
          "type": "address"
        }
      ],
      "name": "upgradeTo",
      "outputs": [],
      "stateMutability": "nonpayable",
      "type": "function"
    },
    {
      "inputs": [
        {
          "internalType": "address",
          "name": "newImplementation",
          "type": "address"
        },
        {
          "internalType": "bytes",
          "name": "data",
          "type": "bytes"
        }
      ],
      "name": "upgradeToAndCall",
      "outputs": [],
      "stateMutability": "payable",
      "type": "function"
    },
    {
      "inputs": [],
      "name": "vrfFee",
      "outputs": [
        {
          "internalType": "uint256",
          "name": "",
          "type": "uint256"
        }
      ],
      "stateMutability": "view",
      "type": "function"
    },
    {
      "inputs": [
        {
          "internalType": "address",
          "name": "to",
          "type": "address"
        },
        {
          "internalType": "bool",
          "name": "allBNB",
          "type": "bool"
        },
        {
          "internalType": "uint256",
          "name": "amount",
          "type": "uint256"
        }
      ],
      "name": "withdrawBNB",
      "outputs": [],
      "stateMutability": "nonpayable",
      "type": "function"
    },
    {
      "stateMutability": "payable",
      "type": "receive"
    }
  ],
  "bytecode": "0x60a06040523073ffffffffffffffffffffffffffffffffffffffff1660809073ffffffffffffffffffffffffffffffffffffffff1660601b81525034801561004657600080fd5b5060805160601c614ff76100816000396000818161090f0152818161099e01528181610aab01528181610b3a0152610bea0152614ff76000f3fe6080604052600436106101dc5760003560e01c80638abdf5aa11610102578063b332639a11610095578063deaa59df11610064578063deaa59df146106a1578063f2fde38b146106ca578063fd80729d146106f3578063fde41e291461071c57610231565b8063b332639a1461061a578063b3ab15fb14610636578063c3f909d41461065f578063c70188ea1461068a57610231565b8063a168fa89116100d1578063a168fa8914610556578063a3ced7b91461059b578063aaf10f42146105c6578063ac8a584a146105f157610231565b80638abdf5aa1461049a5780638da5cb5b146104c55780638ea98117146104f0578063943ab22d1461051957610231565b806352d1902d1161017a578063715018a611610149578063715018a61461041857806371977fe01461042f57806373ba7f701461045a5780638129fc1c1461048357610231565b806352d1902d1461035e578063548acb76146103895780635cdf76f8146103b25780636d70f7ae146103db57610231565b80631fe543e3116101b65780631fe543e3146102c75780633659cfe6146102f05780633aff6851146103195780634f1ef2861461034257610231565b80630fd4e4b6146102365780631017507d1461025f5780631154e3b81461028a57610231565b36610231573373ffffffffffffffffffffffffffffffffffffffff167f344d9d9b1c237ca7e367c0536bc9744a50eb5d6976b76f09a09cb3e7e871df5d346040516102279190614376565b60405180910390a2005b600080fd5b34801561024257600080fd5b5061025d600480360381019061025891906136f7565b610747565b005b34801561026b57600080fd5b506102746107fe565b6040516102819190614376565b60405180910390f35b34801561029657600080fd5b506102b160048036038101906102ac9190613724565b610805565b6040516102be9190614376565b60405180910390f35b3480156102d357600080fd5b506102ee60048036038101906102e9919061377e565b610849565b005b3480156102fc57600080fd5b506103176004803603810190610312919061350b565b61090d565b005b34801561032557600080fd5b50610340600480360381019061033b9190613724565b610a96565b005b61035c600480360381019061035791906135b8565b610aa9565b005b34801561036a57600080fd5b50610373610be6565b6040516103809190613fb4565b60405180910390f35b34801561039557600080fd5b506103b060048036038101906103ab9190613565565b610c9f565b005b3480156103be57600080fd5b506103d960048036038101906103d49190613724565b610e55565b005b3480156103e757600080fd5b5061040260048036038101906103fd919061350b565b610e68565b60405161040f9190613f0c565b60405180910390f35b34801561042457600080fd5b5061042d610ebe565b005b34801561043b57600080fd5b50610444610ed2565b6040516104519190613e7d565b60405180910390f35b34801561046657600080fd5b50610481600480360381019061047c9190613614565b610efc565b005b34801561048f57600080fd5b50610498610f4c565b005b3480156104a657600080fd5b506104af611092565b6040516104bc9190614376565b60405180910390f35b3480156104d157600080fd5b506104da611099565b6040516104e79190613e7d565b60405180910390f35b3480156104fc57600080fd5b506105176004803603810190610512919061350b565b6110c3565b005b34801561052557600080fd5b50610540600480360381019061053b9190613724565b6111d4565b60405161054d919061433f565b60405180910390f35b34801561056257600080fd5b5061057d60048036038101906105789190613724565b61132d565b60405161059299989796959493929190613f27565b60405180910390f35b3480156105a757600080fd5b506105b06113b5565b6040516105bd9190613f0c565b60405180910390f35b3480156105d257600080fd5b506105db611480565b6040516105e89190613e7d565b60405180910390f35b3480156105fd57600080fd5b506106186004803603810190610613919061350b565b61148f565b005b610634600480360381019061062f91906137da565b6114f2565b005b34801561064257600080fd5b5061065d6004803603810190610658919061350b565b6117f6565b005b34801561066b57600080fd5b50610674611859565b604051610681919061435b565b60405180910390f35b34801561069657600080fd5b5061069f611915565b005b3480156106ad57600080fd5b506106c860048036038101906106c39190613538565b611cf2565b005b3480156106d657600080fd5b506106f160048036038101906106ec919061350b565b611d3f565b005b3480156106ff57600080fd5b5061071a60048036038101906107159190613654565b611dc3565b005b34801561072857600080fd5b50610731611def565b60405161073e9190613eea565b60405180910390f35b61074f611e48565b8060d060008201518160000160006101000a81548167ffffffffffffffff021916908367ffffffffffffffff1602179055506020820151816001015560408201518160020160006101000a81548163ffffffff021916908363ffffffff16021790555060608201518160020160046101000a81548161ffff021916908361ffff16021790555060808201518160020160066101000a81548161ffff021916908361ffff16021790555090505050565b6101065481565b60006127106101055461010984815481106108235761082261488f565b5b906000526020600020015461083891906145ef565b61084291906145be565b9050919050565b606660009054906101000a900473ffffffffffffffffffffffffffffffffffffffff1673ffffffffffffffffffffffffffffffffffffffff163373ffffffffffffffffffffffffffffffffffffffff16146108ff5733606660009054906101000a900473ffffffffffffffffffffffffffffffffffffffff166040517f1cf993f40000000000000000000000000000000000000000000000000000000081526004016108f6929190613e98565b60405180910390fd5b6109098282611ec6565b5050565b7f000000000000000000000000000000000000000000000000000000000000000073ffffffffffffffffffffffffffffffffffffffff163073ffffffffffffffffffffffffffffffffffffffff16141561099c576040517f08c379a0000000000000000000000000000000000000000000000000000000008152600401610993906140bf565b60405180910390fd5b7f000000000000000000000000000000000000000000000000000000000000000073ffffffffffffffffffffffffffffffffffffffff166109db6121d4565b73ffffffffffffffffffffffffffffffffffffffff1614610a31576040517f08c379a0000000000000000000000000000000000000000000000000000000008152600401610a28906140df565b60405180910390fd5b610a3a8161222b565b610a9381600067ffffffffffffffff811115610a5957610a586148be565b5b6040519080825280601f01601f191660200182016040528015610a8b5781602001600182028036833780820191505090505b506000612236565b50565b610a9e611e48565b806101068190555050565b7f000000000000000000000000000000000000000000000000000000000000000073ffffffffffffffffffffffffffffffffffffffff163073ffffffffffffffffffffffffffffffffffffffff161415610b38576040517f08c379a0000000000000000000000000000000000000000000000000000000008152600401610b2f906140bf565b60405180910390fd5b7f000000000000000000000000000000000000000000000000000000000000000073ffffffffffffffffffffffffffffffffffffffff16610b776121d4565b73ffffffffffffffffffffffffffffffffffffffff1614610bcd576040517f08c379a0000000000000000000000000000000000000000000000000000000008152600401610bc4906140df565b60405180910390fd5b610bd68261222b565b610be282826001612236565b5050565b60007f000000000000000000000000000000000000000000000000000000000000000073ffffffffffffffffffffffffffffffffffffffff163073ffffffffffffffffffffffffffffffffffffffff1614610c76576040517f08c379a0000000000000000000000000000000000000000000000000000000008152600401610c6d906140ff565b60405180910390fd5b7f360894a13ba1a3210667c828492db98dca3e2076cc3735a920a3ca505d382bbc60001b905090565b610ca7611e48565b8115610d5f5760008373ffffffffffffffffffffffffffffffffffffffff1647604051610cd390613e68565b60006040518083038185875af1925050503d8060008114610d10576040519150601f19603f3d011682016040523d82523d6000602084013e610d15565b606091505b5050905080610d59576040517f08c379a0000000000000000000000000000000000000000000000000000000008152600401610d50906142bf565b60405180910390fd5b50610e50565b47811115610da2576040517f08c379a0000000000000000000000000000000000000000000000000000000008152600401610d999061419f565b60405180910390fd5b60008373ffffffffffffffffffffffffffffffffffffffff1682604051610dc890613e68565b60006040518083038185875af1925050503d8060008114610e05576040519150601f19603f3d011682016040523d82523d6000602084013e610e0a565b606091505b5050905080610e4e576040517f08c379a0000000000000000000000000000000000000000000000000000000008152600401610e45906142bf565b60405180910390fd5b505b505050565b610e5d611e48565b806101058190555050565b6000606560008373ffffffffffffffffffffffffffffffffffffffff1673ffffffffffffffffffffffffffffffffffffffff16815260200190815260200160002060009054906101000a900460ff169050919050565b610ec6611e48565b610ed060006123b3565b565b6000606660009054906101000a900473ffffffffffffffffffffffffffffffffffffffff16905090565b610f04611e48565b8060cd60008473ffffffffffffffffffffffffffffffffffffffff1673ffffffffffffffffffffffffffffffffffffffff168152602001908152602001600020819055505050565b60008060019054906101000a900460ff16159050808015610f7d5750600160008054906101000a900460ff1660ff16105b80610faa5750610f8c30612479565b158015610fa95750600160008054906101000a900460ff1660ff16145b5b610fe9576040517f08c379a0000000000000000000000000000000000000000000000000000000008152600401610fe09061413f565b60405180910390fd5b60016000806101000a81548160ff021916908360ff1602179055508015611026576001600060016101000a81548160ff0219169083151502179055505b61102e61249c565b6110366125ea565b801561108f5760008060016101000a81548160ff0219169083151502179055507f7f26b83ff96e1f2b6a682f133852f6798a09c465da95921460cefb384740249860016040516110869190614022565b60405180910390a15b50565b6101055481565b6000603360009054906101000a900473ffffffffffffffffffffffffffffffffffffffff16905090565b606560003373ffffffffffffffffffffffffffffffffffffffff1673ffffffffffffffffffffffffffffffffffffffff16815260200190815260200160002060009054906101000a900460ff1661114f576040517f08c379a00000000000000000000000000000000000000000000000000000000081526004016111469061415f565b60405180910390fd5b80606660006101000a81548173ffffffffffffffffffffffffffffffffffffffff021916908373ffffffffffffffffffffffffffffffffffffffff1602179055508060cf60006101000a81548173ffffffffffffffffffffffffffffffffffffffff021916908373ffffffffffffffffffffffffffffffffffffffff16021790555050565b6111dc613170565b60cc600083815260200190815260200160002060000160019054906101000a900460ff1661123f576040517f08c379a00000000000000000000000000000000000000000000000000000000081526004016112369061405f565b60405180910390fd5b60cc6000838152602001908152602001600020604051806101200160405290816000820160009054906101000a900460ff161515151581526020016000820160019054906101000a900460ff161515151581526020016001820154815260200160028201548152602001600382015481526020016004820154815260200160058201548152602001600682015481526020016007820160009054906101000a900473ffffffffffffffffffffffffffffffffffffffff1673ffffffffffffffffffffffffffffffffffffffff1673ffffffffffffffffffffffffffffffffffffffff16815250509050919050565b60cc6020528060005260406000206000915090508060000160009054906101000a900460ff16908060000160019054906101000a900460ff16908060010154908060020154908060030154908060040154908060050154908060060154908060070160009054906101000a900473ffffffffffffffffffffffffffffffffffffffff16905089565b600060cf60009054906101000a900473ffffffffffffffffffffffffffffffffffffffff1673ffffffffffffffffffffffffffffffffffffffff1663e82ad7d460d060000160009054906101000a900467ffffffffffffffff166040518263ffffffff1660e01b815260040161142b9190614460565b60206040518083038186803b15801561144357600080fd5b505afa158015611457573d6000803e3d6000fd5b505050506040513d601f19601f8201168201806040525081019061147b919061369d565b905090565b600061148a6121d4565b905090565b611497611e48565b6000606560008373ffffffffffffffffffffffffffffffffffffffff1673ffffffffffffffffffffffffffffffffffffffff16815260200190815260200160002060006101000a81548160ff02191690831515021790555050565b80610108548110611538576040517f08c379a000000000000000000000000000000000000000000000000000000000815260040161152f9061421f565b60405180910390fd5b33600060cd60008373ffffffffffffffffffffffffffffffffffffffff1673ffffffffffffffffffffffffffffffffffffffff1681526020019081526020016000205414806115ed57506001151560cc600060cd60008573ffffffffffffffffffffffffffffffffffffffff1673ffffffffffffffffffffffffffffffffffffffff16815260200190815260200160002054815260200190815260200160002060000160009054906101000a900460ff161515145b61162c576040517f08c379a00000000000000000000000000000000000000000000000000000000081526004016116239061407f565b60405180910390fd5b61163461263b565b60028410611677576040517f08c379a000000000000000000000000000000000000000000000000000000000815260040161166e9061429f565b60405180910390fd5b61010a60009054906101000a900473ffffffffffffffffffffffffffffffffffffffff1673ffffffffffffffffffffffffffffffffffffffff163161010984815481106116c7576116c661488f565b5b9060005260206000200154610107546116e09190614568565b1115611721576040517f08c379a0000000000000000000000000000000000000000000000000000000008152600401611718906141ff565b60405180910390fd5b600061010984815481106117385761173761488f565b5b906000526020600020015490506000612710610105548361175991906145ef565b61176391906145be565b9050346101065482846117769190614568565b6117809190614568565b11156117c1576040517f08c379a00000000000000000000000000000000000000000000000000000000081526004016117b89061427f565b60405180910390fd5b8161010760008282546117d49190614568565b925050819055506117e633878461268b565b50506117f06129ab565b50505050565b6117fe611e48565b6001606560008373ffffffffffffffffffffffffffffffffffffffff1673ffffffffffffffffffffffffffffffffffffffff16815260200190815260200160002060006101000a81548160ff02191690831515021790555050565b6118616131d6565b60d06040518060a00160405290816000820160009054906101000a900467ffffffffffffffff1667ffffffffffffffff1667ffffffffffffffff168152602001600182015481526020016002820160009054906101000a900463ffffffff1663ffffffff1663ffffffff1681526020016002820160049054906101000a900461ffff1661ffff1661ffff1681526020016002820160069054906101000a900461ffff1661ffff1661ffff1681525050905090565b6000151560cc600060cd60003373ffffffffffffffffffffffffffffffffffffffff1673ffffffffffffffffffffffffffffffffffffffff16815260200190815260200160002054815260200190815260200160002060000160009054906101000a900460ff161515146119be576040517f08c379a00000000000000000000000000000000000000000000000000000000081526004016119b59061423f565b60405180910390fd5b61012c60cc600060cd60003373ffffffffffffffffffffffffffffffffffffffff1673ffffffffffffffffffffffffffffffffffffffff1681526020019081526020016000205481526020019081526020016000206005015442611a229190614649565b11611a62576040517f08c379a0000000000000000000000000000000000000000000000000000000008152600401611a59906142ff565b60405180910390fd5b600160cc600060cd60003373ffffffffffffffffffffffffffffffffffffffff1673ffffffffffffffffffffffffffffffffffffffff16815260200190815260200160002054815260200190815260200160002060000160006101000a81548160ff02191690831515021790555061010a60009054906101000a900473ffffffffffffffffffffffffffffffffffffffff1673ffffffffffffffffffffffffffffffffffffffff166381e18c103360cc600060cd60003373ffffffffffffffffffffffffffffffffffffffff1673ffffffffffffffffffffffffffffffffffffffff168152602001908152602001600020548152602001908152602001600020600401546040518363ffffffff1660e01b8152600401611b83929190613ec1565b600060405180830381600087803b158015611b9d57600080fd5b505af1158015611bb1573d6000803e3d6000fd5b505050503373ffffffffffffffffffffffffffffffffffffffff167fd1303054c698dcd81f1e4d5accada6b96047630a63ac9eaa37f7724b50f1e46260cc600060cd60003373ffffffffffffffffffffffffffffffffffffffff1673ffffffffffffffffffffffffffffffffffffffff1681526020019081526020016000205481526020019081526020016000206001015460cd60003373ffffffffffffffffffffffffffffffffffffffff1673ffffffffffffffffffffffffffffffffffffffff1681526020019081526020016000205460cc600060cd60003373ffffffffffffffffffffffffffffffffffffffff1673ffffffffffffffffffffffffffffffffffffffff16815260200190815260200160002054815260200190815260200160002060040154604051611ce893929190614391565b60405180910390a2565b611cfa611e48565b8061010a60006101000a81548173ffffffffffffffffffffffffffffffffffffffff021916908373ffffffffffffffffffffffffffffffffffffffff16021790555050565b611d47611e48565b600073ffffffffffffffffffffffffffffffffffffffff168173ffffffffffffffffffffffffffffffffffffffff161415611db7576040517f08c379a0000000000000000000000000000000000000000000000000000000008152600401611dae9061409f565b60405180910390fd5b611dc0816123b3565b50565b611dcb611e48565b806101099080519060200190611de2929190613220565b5080516101088190555050565b6060610109805480602002602001604051908101604052809291908181526020018280548015611e3e57602002820191906000526020600020905b815481526020019060010190808311611e2a575b5050505050905090565b611e506129b5565b73ffffffffffffffffffffffffffffffffffffffff16611e6e611099565b73ffffffffffffffffffffffffffffffffffffffff1614611ec4576040517f08c379a0000000000000000000000000000000000000000000000000000000008152600401611ebb906141df565b60405180910390fd5b565b6000151560cc600084815260200190815260200160002060000160009054906101000a900460ff16151514611f30576040517f08c379a0000000000000000000000000000000000000000000000000000000008152600401611f279061423f565b60405180910390fd5b600160cc600084815260200190815260200160002060000160006101000a81548160ff02191690831515021790555080600081518110611f7357611f7261488f565b5b602002602001015160cc6000848152602001908152602001600020600301819055504260cc60008481526020019081526020016000206006018190555060cc6000838152602001908152602001600020600401546101076000828254611fd99190614649565b92505081905550600061202560cc600085815260200190815260200160002060020154600260cc60008781526020019081526020016000206003015461201f9190614800565b146129bd565b905060008111156121195761010a60009054906101000a900473ffffffffffffffffffffffffffffffffffffffff1673ffffffffffffffffffffffffffffffffffffffff16630dcdb45e60cc600086815260200190815260200160002060070160009054906101000a900473ffffffffffffffffffffffffffffffffffffffff16600260cc6000888152602001908152602001600020600401546120c991906145ef565b6040518363ffffffff1660e01b81526004016120e6929190613ec1565b600060405180830381600087803b15801561210057600080fd5b505af1158015612114573d6000803e3d6000fd5b505050505b60cc600084815260200190815260200160002060070160009054906101000a900473ffffffffffffffffffffffffffffffffffffffff1673ffffffffffffffffffffffffffffffffffffffff167fbbc788ca8b6dac149c1197ef285361e8c3bac22fa1ae5eb6bf7a893191b088ad60cc60008681526020019081526020016000206001015460cc60008781526020019081526020016000206003015484426040516121c794939291906143c8565b60405180910390a2505050565b60006122027f360894a13ba1a3210667c828492db98dca3e2076cc3735a920a3ca505d382bbc60001b6129c7565b60000160009054906101000a900473ffffffffffffffffffffffffffffffffffffffff16905090565b612233611e48565b50565b6122627f4910fdfa16fed3260ed0e7147f7cc6da11a60208b5b9406d12a635614ffd914360001b6129d1565b60000160009054906101000a900460ff161561228657612281836129db565b6123ae565b8273ffffffffffffffffffffffffffffffffffffffff166352d1902d6040518163ffffffff1660e01b815260040160206040518083038186803b1580156122cc57600080fd5b505afa9250505080156122fd57506040513d601f19601f820116820180604052508101906122fa91906136ca565b60015b61233c576040517f08c379a00000000000000000000000000000000000000000000000000000000081526004016123339061417f565b60405180910390fd5b7f360894a13ba1a3210667c828492db98dca3e2076cc3735a920a3ca505d382bbc60001b81146123a1576040517f08c379a00000000000000000000000000000000000000000000000000000000081526004016123989061411f565b60405180910390fd5b506123ad838383612a94565b5b505050565b6000603360009054906101000a900473ffffffffffffffffffffffffffffffffffffffff16905081603360006101000a81548173ffffffffffffffffffffffffffffffffffffffff021916908373ffffffffffffffffffffffffffffffffffffffff1602179055508173ffffffffffffffffffffffffffffffffffffffff168173ffffffffffffffffffffffffffffffffffffffff167f8be0079c531659141344cd1fd0a4f28419497f9722a3daafe3b4186f6b6457e060405160405180910390a35050565b6000808273ffffffffffffffffffffffffffffffffffffffff163b119050919050565b60008060019054906101000a900460ff161590508080156124cd5750600160008054906101000a900460ff1660ff16105b806124fa57506124dc30612479565b1580156124f95750600160008054906101000a900460ff1660ff16145b5b612539576040517f08c379a00000000000000000000000000000000000000000000000000000000081526004016125309061413f565b60405180910390fd5b60016000806101000a81548160ff021916908360ff1602179055508015612576576001600060016101000a81548160ff0219169083151502179055505b61257e612ac0565b6125866125ea565b61258e612bfe565b80156125e75760008060016101000a81548160ff0219169083151502179055507f7f26b83ff96e1f2b6a682f133852f6798a09c465da95921460cefb384740249860016040516125de9190614022565b60405180910390a15b50565b600060019054906101000a900460ff16612639576040517f08c379a0000000000000000000000000000000000000000000000000000000008152600401612630906142df565b60405180910390fd5b565b600260d3541415612681576040517f08c379a00000000000000000000000000000000000000000000000000000000081526004016126789061431f565b60405180910390fd5b600260d381905550565b600060cf60009054906101000a900473ffffffffffffffffffffffffffffffffffffffff1673ffffffffffffffffffffffffffffffffffffffff16635d3b1d3060d06001015460d060000160009054906101000a900467ffffffffffffffff1660d060020160069054906101000a900461ffff1660d060020160009054906101000a900463ffffffff1660d060020160049054906101000a900461ffff166040518663ffffffff1660e01b8152600401612749959493929190613fcf565b602060405180830381600087803b15801561276357600080fd5b505af1158015612777573d6000803e3d6000fd5b505050506040513d601f19601f8201168201806040525081019061279b9190613751565b905060cb60008154809291906127b0906147b7565b919050555060405180610120016040528060001515815260200160011515815260200160cb54815260200184815260200160638152602001838152602001428152602001600081526020018573ffffffffffffffffffffffffffffffffffffffff1681525060cc600083815260200190815260200160002060008201518160000160006101000a81548160ff02191690831515021790555060208201518160000160016101000a81548160ff02191690831515021790555060408201518160010155606082015181600201556080820151816003015560a0820151816004015560c0820151816005015560e082015181600601556101008201518160070160006101000a81548173ffffffffffffffffffffffffffffffffffffffff021916908373ffffffffffffffffffffffffffffffffffffffff1602179055509050508060cd60008673ffffffffffffffffffffffffffffffffffffffff1673ffffffffffffffffffffffffffffffffffffffff168152602001908152602001600020819055508060ce600060cb548152602001908152602001600020819055503373ffffffffffffffffffffffffffffffffffffffff167fe55c93a5b5a3b3124aed3ba1fe9e9c3eab06d54d4ef813cc700625d2c2aee0d860cb548385874260405161299d95949392919061440d565b60405180910390a250505050565b600160d381905550565b600033905090565b6000819050919050565b6000819050919050565b6000819050919050565b6129e481612479565b612a23576040517f08c379a0000000000000000000000000000000000000000000000000000000008152600401612a1a906141bf565b60405180910390fd5b80612a507f360894a13ba1a3210667c828492db98dca3e2076cc3735a920a3ca505d382bbc60001b6129c7565b60000160006101000a81548173ffffffffffffffffffffffffffffffffffffffff021916908373ffffffffffffffffffffffffffffffffffffffff16021790555050565b612a9d83612d7b565b600082511180612aaa5750805b15612abb57612ab98383612dca565b505b505050565b60008060019054906101000a900460ff16159050808015612af15750600160008054906101000a900460ff1660ff16105b80612b1e5750612b0030612479565b158015612b1d5750600160008054906101000a900460ff1660ff16145b5b612b5d576040517f08c379a0000000000000000000000000000000000000000000000000000000008152600401612b549061413f565b60405180910390fd5b60016000806101000a81548160ff021916908360ff1602179055508015612b9a576001600060016101000a81548160ff0219169083151502179055505b612ba2612eae565b8015612bfb5760008060016101000a81548160ff0219169083151502179055507f7f26b83ff96e1f2b6a682f133852f6798a09c465da95921460cefb38474024986001604051612bf29190614022565b60405180910390a15b50565b73a2d23627bc0314f4cbd08ff54ecb89bb45685053606660006101000a81548173ffffffffffffffffffffffffffffffffffffffff021916908373ffffffffffffffffffffffffffffffffffffffff160217905550606660009054906101000a900473ffffffffffffffffffffffffffffffffffffffff1660cf60006101000a81548173ffffffffffffffffffffffffffffffffffffffff021916908373ffffffffffffffffffffffffffffffffffffffff160217905550609e60d060000160006101000a81548167ffffffffffffffff021916908367ffffffffffffffff1602179055507f617abc3f53ae11766071d04ada1c7b0fbd49833b9542e9e91da4d3191c70cc8060001b60d060010181905550620186a060d060020160006101000a81548163ffffffff021916908363ffffffff160217905550600360d060020160066101000a81548161ffff021916908361ffff160217905550600160d060020160046101000a81548161ffff021916908361ffff160217905550565b612d84816129db565b8073ffffffffffffffffffffffffffffffffffffffff167fbc7cd75a20ee27fd9adebab32041f755214dbc6bffa90cc0225b39da2e5c2d3b60405160405180910390a250565b6060612dd583612479565b612e14576040517f08c379a0000000000000000000000000000000000000000000000000000000008152600401612e0b9061425f565b60405180910390fd5b6000808473ffffffffffffffffffffffffffffffffffffffff1684604051612e3c9190613e51565b600060405180830381855af49150503d8060008114612e77576040519150601f19603f3d011682016040523d82523d6000602084013e612e7c565b606091505b5091509150612ea48282604051806060016040528060278152602001614f9b60279139613044565b9250505092915050565b60008060019054906101000a900460ff16159050808015612edf5750600160008054906101000a900460ff1660ff16105b80612f0c5750612eee30612479565b158015612f0b5750600160008054906101000a900460ff1660ff16145b5b612f4b576040517f08c379a0000000000000000000000000000000000000000000000000000000008152600401612f429061413f565b60405180910390fd5b60016000806101000a81548160ff021916908360ff1602179055508015612f88576001600060016101000a81548160ff0219169083151502179055505b612f90613066565b6001606560003373ffffffffffffffffffffffffffffffffffffffff1673ffffffffffffffffffffffffffffffffffffffff16815260200190815260200160002060006101000a81548160ff02191690831515021790555080156130415760008060016101000a81548160ff0219169083151502179055507f7f26b83ff96e1f2b6a682f133852f6798a09c465da95921460cefb384740249860016040516130389190614022565b60405180910390a15b50565b606083156130545782905061305f565b61305e83836130bf565b5b9392505050565b600060019054906101000a900460ff166130b5576040517f08c379a00000000000000000000000000000000000000000000000000000000081526004016130ac906142df565b60405180910390fd5b6130bd61310f565b565b6000825111156130d25781518083602001fd5b806040517f08c379a0000000000000000000000000000000000000000000000000000000008152600401613106919061403d565b60405180910390fd5b600060019054906101000a900460ff1661315e576040517f08c379a0000000000000000000000000000000000000000000000000000000008152600401613155906142df565b60405180910390fd5b61316e6131696129b5565b6123b3565b565b604051806101200160405280600015158152602001600015158152602001600081526020016000815260200160008152602001600081526020016000815260200160008152602001600073ffffffffffffffffffffffffffffffffffffffff1681525090565b6040518060a00160405280600067ffffffffffffffff16815260200160008019168152602001600063ffffffff168152602001600061ffff168152602001600061ffff1681525090565b82805482825590600052602060002090810192821561325c579160200282015b8281111561325b578251825591602001919060010190613240565b5b509050613269919061326d565b5090565b5b8082111561328657600081600090555060010161326e565b5090565b600061329d613298846144a0565b61447b565b905080838252602082019050828560208602820111156132c0576132bf6148f7565b5b60005b858110156132f057816132d688826134b7565b8452602084019350602083019250506001810190506132c3565b5050509392505050565b600061330d613308846144cc565b61447b565b905082815260208101848484011115613329576133286148fc565b5b613334848285614744565b509392505050565b60008135905061334b81614ee2565b92915050565b60008135905061336081614ef9565b92915050565b600082601f83011261337b5761337a6148ed565b5b813561338b84826020860161328a565b91505092915050565b6000813590506133a381614f10565b92915050565b6000815190506133b881614f10565b92915050565b6000813590506133cd81614f27565b92915050565b6000815190506133e281614f27565b92915050565b600082601f8301126133fd576133fc6148ed565b5b813561340d8482602086016132fa565b91505092915050565b600060a0828403121561342c5761342b6148f2565b5b61343660a061447b565b90506000613446848285016134f6565b600083015250602061345a848285016133be565b602083015250604061346e848285016134e1565b6040830152506060613482848285016134a2565b6060830152506080613496848285016134a2565b60808301525092915050565b6000813590506134b181614f3e565b92915050565b6000813590506134c681614f55565b92915050565b6000815190506134db81614f55565b92915050565b6000813590506134f081614f6c565b92915050565b60008135905061350581614f83565b92915050565b60006020828403121561352157613520614906565b5b600061352f8482850161333c565b91505092915050565b60006020828403121561354e5761354d614906565b5b600061355c84828501613351565b91505092915050565b60008060006060848603121561357e5761357d614906565b5b600061358c8682870161333c565b935050602061359d86828701613394565b92505060406135ae868287016134b7565b9150509250925092565b600080604083850312156135cf576135ce614906565b5b60006135dd8582860161333c565b925050602083013567ffffffffffffffff8111156135fe576135fd614901565b5b61360a858286016133e8565b9150509250929050565b6000806040838503121561362b5761362a614906565b5b60006136398582860161333c565b925050602061364a858286016134b7565b9150509250929050565b60006020828403121561366a57613669614906565b5b600082013567ffffffffffffffff81111561368857613687614901565b5b61369484828501613366565b91505092915050565b6000602082840312156136b3576136b2614906565b5b60006136c1848285016133a9565b91505092915050565b6000602082840312156136e0576136df614906565b5b60006136ee848285016133d3565b91505092915050565b600060a0828403121561370d5761370c614906565b5b600061371b84828501613416565b91505092915050565b60006020828403121561373a57613739614906565b5b6000613748848285016134b7565b91505092915050565b60006020828403121561376757613766614906565b5b6000613775848285016134cc565b91505092915050565b6000806040838503121561379557613794614906565b5b60006137a3858286016134b7565b925050602083013567ffffffffffffffff8111156137c4576137c3614901565b5b6137d085828601613366565b9150509250929050565b600080604083850312156137f1576137f0614906565b5b60006137ff858286016134b7565b9250506020613810858286016134b7565b9150509250929050565b60006138268383613df7565b60208301905092915050565b61383b8161467d565b82525050565b61384a8161467d565b82525050565b600061385b8261450d565b613865818561453b565b9350613870836144fd565b8060005b838110156138a1578151613888888261381a565b97506138938361452e565b925050600181019050613874565b5085935050505092915050565b6138b7816146a1565b82525050565b6138c6816146a1565b82525050565b6138d5816146ad565b82525050565b6138e4816146ad565b82525050565b60006138f582614518565b6138ff818561454c565b935061390f818560208601614753565b80840191505092915050565b61392481614720565b82525050565b600061393582614523565b61393f8185614557565b935061394f818560208601614753565b6139588161490b565b840191505092915050565b6000613970601183614557565b915061397b8261491c565b602082019050919050565b6000613993602e83614557565b915061399e82614945565b604082019050919050565b60006139b6602683614557565b91506139c182614994565b604082019050919050565b60006139d9602c83614557565b91506139e4826149e3565b604082019050919050565b60006139fc602c83614557565b9150613a0782614a32565b604082019050919050565b6000613a1f603883614557565b9150613a2a82614a81565b604082019050919050565b6000613a42602983614557565b9150613a4d82614ad0565b604082019050919050565b6000613a65602e83614557565b9150613a7082614b1f565b604082019050919050565b6000613a88601b83614557565b9150613a9382614b6e565b602082019050919050565b6000613aab602e83614557565b9150613ab682614b97565b604082019050919050565b6000613ace601c83614557565b9150613ad982614be6565b602082019050919050565b6000613af1602d83614557565b9150613afc82614c0f565b604082019050919050565b6000613b14602083614557565b9150613b1f82614c5e565b602082019050919050565b6000613b37602783614557565b9150613b4282614c87565b604082019050919050565b6000613b5a601283614557565b9150613b6582614cd6565b602082019050919050565b6000613b7d601183614557565b9150613b8882614cff565b602082019050919050565b6000613ba0602683614557565b9150613bab82614d28565b604082019050919050565b6000613bc360008361454c565b9150613bce82614d77565b600082019050919050565b6000613be6601883614557565b9150613bf182614d7a565b602082019050919050565b6000613c09601783614557565b9150613c1482614da3565b602082019050919050565b6000613c2c602383614557565b9150613c3782614dcc565b604082019050919050565b6000613c4f602b83614557565b9150613c5a82614e1b565b604082019050919050565b6000613c72602383614557565b9150613c7d82614e6a565b604082019050919050565b6000613c95601f83614557565b9150613ca082614eb9565b602082019050919050565b61012082016000820151613cc260008501826138ae565b506020820151613cd560208501826138ae565b506040820151613ce86040850182613df7565b506060820151613cfb6060850182613df7565b506080820151613d0e6080850182613df7565b5060a0820151613d2160a0850182613df7565b5060c0820151613d3460c0850182613df7565b5060e0820151613d4760e0850182613df7565b50610100820151613d5c610100850182613832565b50505050565b60a082016000820151613d786000850182613e33565b506020820151613d8b60208501826138cc565b506040820151613d9e6040850182613e15565b506060820151613db16060850182613dca565b506080820151613dc46080850182613dca565b50505050565b613dd3816146b7565b82525050565b613de2816146b7565b82525050565b613df181614732565b82525050565b613e00816146e5565b82525050565b613e0f816146e5565b82525050565b613e1e816146ef565b82525050565b613e2d816146ef565b82525050565b613e3c816146ff565b82525050565b613e4b816146ff565b82525050565b6000613e5d82846138ea565b915081905092915050565b6000613e7382613bb6565b9150819050919050565b6000602082019050613e926000830184613841565b92915050565b6000604082019050613ead6000830185613841565b613eba6020830184613841565b9392505050565b6000604082019050613ed66000830185613841565b613ee36020830184613e06565b9392505050565b60006020820190508181036000830152613f048184613850565b905092915050565b6000602082019050613f2160008301846138bd565b92915050565b600061012082019050613f3d600083018c6138bd565b613f4a602083018b6138bd565b613f57604083018a613e06565b613f646060830189613e06565b613f716080830188613e06565b613f7e60a0830187613e06565b613f8b60c0830186613e06565b613f9860e0830185613e06565b613fa6610100830184613841565b9a9950505050505050505050565b6000602082019050613fc960008301846138db565b92915050565b600060a082019050613fe460008301886138db565b613ff16020830187613e42565b613ffe6040830186613dd9565b61400b6060830185613e24565b6140186080830184613de8565b9695505050505050565b6000602082019050614037600083018461391b565b92915050565b60006020820190508181036000830152614057818461392a565b905092915050565b6000602082019050818103600083015261407881613963565b9050919050565b6000602082019050818103600083015261409881613986565b9050919050565b600060208201905081810360008301526140b8816139a9565b9050919050565b600060208201905081810360008301526140d8816139cc565b9050919050565b600060208201905081810360008301526140f8816139ef565b9050919050565b6000602082019050818103600083015261411881613a12565b9050919050565b6000602082019050818103600083015261413881613a35565b9050919050565b6000602082019050818103600083015261415881613a58565b9050919050565b6000602082019050818103600083015261417881613a7b565b9050919050565b6000602082019050818103600083015261419881613a9e565b9050919050565b600060208201905081810360008301526141b881613ac1565b9050919050565b600060208201905081810360008301526141d881613ae4565b9050919050565b600060208201905081810360008301526141f881613b07565b9050919050565b6000602082019050818103600083015261421881613b2a565b9050919050565b6000602082019050818103600083015261423881613b4d565b9050919050565b6000602082019050818103600083015261425881613b70565b9050919050565b6000602082019050818103600083015261427881613b93565b9050919050565b6000602082019050818103600083015261429881613bd9565b9050919050565b600060208201905081810360008301526142b881613bfc565b9050919050565b600060208201905081810360008301526142d881613c1f565b9050919050565b600060208201905081810360008301526142f881613c42565b9050919050565b6000602082019050818103600083015261431881613c65565b9050919050565b6000602082019050818103600083015261433881613c88565b9050919050565b6000610120820190506143556000830184613cab565b92915050565b600060a0820190506143706000830184613d62565b92915050565b600060208201905061438b6000830184613e06565b92915050565b60006060820190506143a66000830186613e06565b6143b36020830185613e06565b6143c06040830184613e06565b949350505050565b60006080820190506143dd6000830187613e06565b6143ea6020830186613e06565b6143f76040830185613e06565b6144046060830184613e06565b95945050505050565b600060a0820190506144226000830188613e06565b61442f6020830187613e06565b61443c6040830186613e06565b6144496060830185613e06565b6144566080830184613e06565b9695505050505050565b60006020820190506144756000830184613e42565b92915050565b6000614485614496565b90506144918282614786565b919050565b6000604051905090565b600067ffffffffffffffff8211156144bb576144ba6148be565b5b602082029050602081019050919050565b600067ffffffffffffffff8211156144e7576144e66148be565b5b6144f08261490b565b9050602081019050919050565b6000819050602082019050919050565b600081519050919050565b600081519050919050565b600081519050919050565b6000602082019050919050565b600082825260208201905092915050565b600081905092915050565b600082825260208201905092915050565b6000614573826146e5565b915061457e836146e5565b9250827fffffffffffffffffffffffffffffffffffffffffffffffffffffffffffffffff038211156145b3576145b2614831565b5b828201905092915050565b60006145c9826146e5565b91506145d4836146e5565b9250826145e4576145e3614860565b5b828204905092915050565b60006145fa826146e5565b9150614605836146e5565b9250817fffffffffffffffffffffffffffffffffffffffffffffffffffffffffffffffff048311821515161561463e5761463d614831565b5b828202905092915050565b6000614654826146e5565b915061465f836146e5565b92508282101561467257614671614831565b5b828203905092915050565b6000614688826146c5565b9050919050565b600061469a826146c5565b9050919050565b60008115159050919050565b6000819050919050565b600061ffff82169050919050565b600073ffffffffffffffffffffffffffffffffffffffff82169050919050565b6000819050919050565b600063ffffffff82169050919050565b600067ffffffffffffffff82169050919050565b600060ff82169050919050565b600061472b82614713565b9050919050565b600061473d826146b7565b9050919050565b82818337600083830152505050565b60005b83811015614771578082015181840152602081019050614756565b83811115614780576000848401525b50505050565b61478f8261490b565b810181811067ffffffffffffffff821117156147ae576147ad6148be565b5b80604052505050565b60006147c2826146e5565b91507fffffffffffffffffffffffffffffffffffffffffffffffffffffffffffffffff8214156147f5576147f4614831565b5b600182019050919050565b600061480b826146e5565b9150614816836146e5565b92508261482657614825614860565b5b828206905092915050565b7f4e487b7100000000000000000000000000000000000000000000000000000000600052601160045260246000fd5b7f4e487b7100000000000000000000000000000000000000000000000000000000600052601260045260246000fd5b7f4e487b7100000000000000000000000000000000000000000000000000000000600052603260045260246000fd5b7f4e487b7100000000000000000000000000000000000000000000000000000000600052604160045260246000fd5b600080fd5b600080fd5b600080fd5b600080fd5b600080fd5b600080fd5b6000601f19601f8301169050919050565b7f72657175657374206e6f7420666f756e64000000000000000000000000000000600082015250565b7f706c65617365207761697420756e74696c207468652063757272656e7420666c60008201527f69702069732066696e6973686564000000000000000000000000000000000000602082015250565b7f4f776e61626c653a206e6577206f776e657220697320746865207a65726f206160008201527f6464726573730000000000000000000000000000000000000000000000000000602082015250565b7f46756e6374696f6e206d7573742062652063616c6c6564207468726f7567682060008201527f64656c656761746563616c6c0000000000000000000000000000000000000000602082015250565b7f46756e6374696f6e206d7573742062652063616c6c6564207468726f7567682060008201527f6163746976652070726f78790000000000000000000000000000000000000000602082015250565b7f555550535570677261646561626c653a206d757374206e6f742062652063616c60008201527f6c6564207468726f7567682064656c656761746563616c6c0000000000000000602082015250565b7f45524331393637557067726164653a20756e737570706f727465642070726f7860008201527f6961626c65555549440000000000000000000000000000000000000000000000602082015250565b7f496e697469616c697a61626c653a20636f6e747261637420697320616c72656160008201527f647920696e697469616c697a6564000000000000000000000000000000000000602082015250565b7f63616c6c6572206973206e6f7420746865206f70657261746f72730000000000600082015250565b7f45524331393637557067726164653a206e657720696d706c656d656e7461746960008201527f6f6e206973206e6f742055555053000000000000000000000000000000000000602082015250565b7f636c61696d20616d6f756e7420657863656564732062616c616e636500000000600082015250565b7f455243313936373a206e657720696d706c656d656e746174696f6e206973206e60008201527f6f74206120636f6e747261637400000000000000000000000000000000000000602082015250565b7f4f776e61626c653a2063616c6c6572206973206e6f7420746865206f776e6572600082015250565b7f6d6f6e657920696e207468652062616e6b206973206e6f7420656e6f7567682060008201527f746f20666c697000000000000000000000000000000000000000000000000000602082015250565b7f496e76616c69642062657420616d6f756e740000000000000000000000000000600082015250565b7f616c72656164792066756c66696c6c6564000000000000000000000000000000600082015250565b7f416464726573733a2064656c65676174652063616c6c20746f206e6f6e2d636f60008201527f6e74726163740000000000000000000000000000000000000000000000000000602082015250565b50565b7f6e6f7420656e6f756768206d6f6e657920746f20666c69700000000000000000600082015250565b7f696e76616c696420686561642f7461696c20696e707574000000000000000000600082015250565b7f4661696c656420746f2073656e6420424e422066726f6d2044656f646457616c60008201527f6c65740000000000000000000000000000000000000000000000000000000000602082015250565b7f496e697469616c697a61626c653a20636f6e7472616374206973206e6f74206960008201527f6e697469616c697a696e67000000000000000000000000000000000000000000602082015250565b7f706c65617365207761697420356d696e20616674657220666c6970207265717560008201527f6573740000000000000000000000000000000000000000000000000000000000602082015250565b7f5265656e7472616e637947756172643a207265656e7472616e742063616c6c00600082015250565b614eeb8161467d565b8114614ef657600080fd5b50565b614f028161468f565b8114614f0d57600080fd5b50565b614f19816146a1565b8114614f2457600080fd5b50565b614f30816146ad565b8114614f3b57600080fd5b50565b614f47816146b7565b8114614f5257600080fd5b50565b614f5e816146e5565b8114614f6957600080fd5b50565b614f75816146ef565b8114614f8057600080fd5b50565b614f8c816146ff565b8114614f9757600080fd5b5056fe416464726573733a206c6f772d6c6576656c2064656c65676174652063616c6c206661696c6564a2646970667358221220146d019e42fd99b02babf051fb3e16cf5d52e070c2f3d12597c5fba75f771a6c64736f6c63430008070033",
  "linkReferences": {},
  "deployedLinkReferences": {}
}