{
  "_format": "hh-sol-artifact-1",
  "contractName": "Deodd",
  "sourceName": "contracts/Deodd.sol",
  "abi": [
    {
      "inputs": [
        {
          "internalType": "address",
          "name": "have",
          "type": "address"
        },
        {
          "internalType": "address",
          "name": "want",
          "type": "address"
        }
      ],
      "name": "OnlyCoordinatorCanFulfill",
      "type": "error"
    },
    {
      "anonymous": false,
      "inputs": [
        {
          "indexed": false,
          "internalType": "address",
          "name": "previousAdmin",
          "type": "address"
        },
        {
          "indexed": false,
          "internalType": "address",
          "name": "newAdmin",
          "type": "address"
        }
      ],
      "name": "AdminChanged",
      "type": "event"
    },
    {
      "anonymous": false,
      "inputs": [
        {
          "indexed": true,
          "internalType": "address",
          "name": "beacon",
          "type": "address"
        }
      ],
      "name": "BeaconUpgraded",
      "type": "event"
    },
    {
      "anonymous": false,
      "inputs": [
        {
          "indexed": true,
          "internalType": "address",
          "name": "wallet",
          "type": "address"
        },
        {
          "indexed": false,
          "internalType": "uint256",
          "name": "fId",
          "type": "uint256"
        },
        {
          "indexed": false,
          "internalType": "uint256",
          "name": "randomValue",
          "type": "uint256"
        },
        {
          "indexed": false,
          "internalType": "uint256",
          "name": "flipResult",
          "type": "uint256"
        },
        {
          "indexed": false,
          "internalType": "uint256",
          "name": "timestamp",
          "type": "uint256"
        }
      ],
      "name": "FlipResult",
      "type": "event"
    },
    {
      "anonymous": false,
      "inputs": [
        {
          "indexed": false,
          "internalType": "uint8",
          "name": "version",
          "type": "uint8"
        }
      ],
      "name": "Initialized",
      "type": "event"
    },
    {
      "anonymous": false,
      "inputs": [
        {
          "indexed": true,
          "internalType": "address",
          "name": "previousOwner",
          "type": "address"
        },
        {
          "indexed": true,
          "internalType": "address",
          "name": "newOwner",
          "type": "address"
        }
      ],
      "name": "OwnershipTransferred",
      "type": "event"
    },
    {
      "anonymous": false,
      "inputs": [
        {
          "indexed": true,
          "internalType": "address",
          "name": "from",
          "type": "address"
        },
        {
          "indexed": false,
          "internalType": "uint256",
          "name": "amount",
          "type": "uint256"
        }
      ],
      "name": "ReceiveBNB",
      "type": "event"
    },
    {
      "anonymous": false,
      "inputs": [
        {
          "indexed": true,
          "internalType": "address",
          "name": "user",
          "type": "address"
        },
        {
          "indexed": false,
          "internalType": "uint256",
          "name": "requestId",
          "type": "uint256"
        }
      ],
      "name": "RequestSent",
      "type": "event"
    },
    {
      "anonymous": false,
      "inputs": [
        {
          "indexed": true,
          "internalType": "address",
          "name": "user",
          "type": "address"
        },
        {
          "indexed": false,
          "internalType": "uint256",
          "name": "flipId",
          "type": "uint256"
        },
        {
          "indexed": false,
          "internalType": "uint256",
          "name": "requestId",
          "type": "uint256"
        },
        {
          "indexed": false,
          "internalType": "uint256",
          "name": "amount",
          "type": "uint256"
        }
      ],
      "name": "RollbackFlip",
      "type": "event"
    },
    {
      "anonymous": false,
      "inputs": [
        {
          "indexed": true,
          "internalType": "address",
          "name": "user",
          "type": "address"
        },
        {
          "indexed": false,
          "internalType": "uint256",
          "name": "flipId",
          "type": "uint256"
        },
        {
          "indexed": false,
          "internalType": "uint256",
          "name": "requestId",
          "type": "uint256"
        },
        {
          "indexed": false,
          "internalType": "uint256",
          "name": "amount",
          "type": "uint256"
        }
      ],
      "name": "RollbackUnfulfilled",
      "type": "event"
    },
    {
      "anonymous": false,
      "inputs": [
        {
          "indexed": true,
          "internalType": "address",
          "name": "implementation",
          "type": "address"
        }
      ],
      "name": "Upgraded",
      "type": "event"
    },
    {
      "anonymous": false,
      "inputs": [
        {
          "indexed": true,
          "internalType": "address",
          "name": "user",
          "type": "address"
        },
        {
          "indexed": false,
          "internalType": "uint256",
          "name": "fId",
          "type": "uint256"
        },
        {
          "indexed": false,
          "internalType": "uint256",
          "name": "requestId",
          "type": "uint256"
        },
        {
          "indexed": false,
          "internalType": "uint256",
          "name": "amount",
          "type": "uint256"
        },
        {
          "indexed": false,
          "internalType": "uint256",
          "name": "flipChoice",
          "type": "uint256"
        },
        {
          "indexed": false,
          "internalType": "uint256",
          "name": "requestedAt",
          "type": "uint256"
        }
      ],
      "name": "UserFlip",
      "type": "event"
    },
    {
      "inputs": [
        {
          "internalType": "uint256",
          "name": "bId",
          "type": "uint256"
        }
      ],
      "name": "calcServiceFee",
      "outputs": [
        {
          "internalType": "uint256",
          "name": "",
          "type": "uint256"
        }
      ],
      "stateMutability": "view",
      "type": "function"
    },
    {
      "inputs": [
        {
          "internalType": "uint256",
          "name": "flipChoice",
          "type": "uint256"
        },
        {
          "internalType": "uint256",
          "name": "bId",
          "type": "uint256"
        }
      ],
      "name": "flipTheCoin",
      "outputs": [],
      "stateMutability": "payable",
      "type": "function"
    },
    {
      "inputs": [],
      "name": "getBetAmount",
      "outputs": [
        {
          "internalType": "uint256[]",
          "name": "",
          "type": "uint256[]"
        }
      ],
      "stateMutability": "view",
      "type": "function"
    },
    {
      "inputs": [],
      "name": "getConfig",
      "outputs": [
        {
          "components": [
            {
              "internalType": "uint64",
              "name": "s_subscriptionId",
              "type": "uint64"
            },
            {
              "internalType": "bytes32",
              "name": "keyHash",
              "type": "bytes32"
            },
            {
              "internalType": "uint32",
              "name": "callbackGasLimit",
              "type": "uint32"
            },
            {
              "internalType": "uint16",
              "name": "numWords",
              "type": "uint16"
            },
            {
              "internalType": "uint16",
              "name": "requestConfirmations",
              "type": "uint16"
            }
          ],
          "internalType": "struct DeoddFlipCoin.VRFConfig",
          "name": "",
          "type": "tuple"
        }
      ],
      "stateMutability": "view",
      "type": "function"
    },
    {
      "inputs": [],
      "name": "getCoordinator",
      "outputs": [
        {
          "internalType": "address",
          "name": "",
          "type": "address"
        }
      ],
      "stateMutability": "view",
      "type": "function"
    },
    {
      "inputs": [
        {
          "internalType": "uint256",
          "name": "_requestId",
          "type": "uint256"
        }
      ],
      "name": "getFlipCoin",
      "outputs": [
        {
          "components": [
            {
              "internalType": "bool",
              "name": "fulfilled",
              "type": "bool"
            },
            {
              "internalType": "bool",
              "name": "exists",
              "type": "bool"
            },
            {
              "internalType": "uint256",
              "name": "fId",
              "type": "uint256"
            },
            {
              "internalType": "uint256",
              "name": "flipChoice",
              "type": "uint256"
            },
            {
              "internalType": "uint256",
              "name": "randomValue",
              "type": "uint256"
            },
            {
              "internalType": "uint256",
              "name": "amount",
              "type": "uint256"
            },
            {
              "internalType": "uint256",
              "name": "requestedAt",
              "type": "uint256"
            },
            {
              "internalType": "uint256",
              "name": "fulfilledAt",
              "type": "uint256"
            },
            {
              "internalType": "address",
              "name": "user",
              "type": "address"
            }
          ],
          "internalType": "struct DeoddFlipCoin.FlipCoin",
          "name": "",
          "type": "tuple"
        }
      ],
      "stateMutability": "view",
      "type": "function"
    },
    {
      "inputs": [],
      "name": "getImplementation",
      "outputs": [
        {
          "internalType": "address",
          "name": "",
          "type": "address"
        }
      ],
      "stateMutability": "view",
      "type": "function"
    },
    {
      "inputs": [
        {
          "internalType": "address",
          "name": "user",
          "type": "address"
        }
      ],
      "name": "getLastRequestId",
      "outputs": [
        {
          "internalType": "uint256",
          "name": "",
          "type": "uint256"
        }
      ],
      "stateMutability": "view",
      "type": "function"
    },
    {
      "inputs": [],
      "name": "initialize",
      "outputs": [],
      "stateMutability": "nonpayable",
      "type": "function"
    },
    {
      "inputs": [
        {
          "internalType": "address",
          "name": "operator",
          "type": "address"
        }
      ],
      "name": "isOperator",
      "outputs": [
        {
          "internalType": "bool",
          "name": "",
          "type": "bool"
        }
      ],
      "stateMutability": "view",
      "type": "function"
    },
    {
      "inputs": [],
      "name": "owner",
      "outputs": [
        {
          "internalType": "address",
          "name": "",
          "type": "address"
        }
      ],
      "stateMutability": "view",
      "type": "function"
    },
    {
      "inputs": [
        {
          "internalType": "address",
          "name": "user",
          "type": "address"
        }
      ],
      "name": "pendingRequestExists",
      "outputs": [
        {
          "internalType": "bool",
          "name": "",
          "type": "bool"
        }
      ],
      "stateMutability": "view",
      "type": "function"
    },
    {
      "inputs": [],
      "name": "pendingRequestExists",
      "outputs": [
        {
          "internalType": "bool",
          "name": "",
          "type": "bool"
        }
      ],
      "stateMutability": "view",
      "type": "function"
    },
    {
      "inputs": [],
      "name": "proxiableUUID",
      "outputs": [
        {
          "internalType": "bytes32",
          "name": "",
          "type": "bytes32"
        }
      ],
      "stateMutability": "view",
      "type": "function"
    },
    {
      "inputs": [
        {
          "internalType": "uint256",
          "name": "requestId",
          "type": "uint256"
        },
        {
          "internalType": "uint256[]",
          "name": "randomWords",
          "type": "uint256[]"
        }
      ],
      "name": "rawFulfillRandomWords",
      "outputs": [],
      "stateMutability": "nonpayable",
      "type": "function"
    },
    {
      "inputs": [
        {
          "internalType": "address",
          "name": "operator",
          "type": "address"
        }
      ],
      "name": "removeOperator",
      "outputs": [],
      "stateMutability": "nonpayable",
      "type": "function"
    },
    {
      "inputs": [],
      "name": "renounceOwnership",
      "outputs": [],
      "stateMutability": "nonpayable",
      "type": "function"
    },
    {
      "inputs": [],
      "name": "rollbackUnfulfilled",
      "outputs": [],
      "stateMutability": "nonpayable",
      "type": "function"
    },
    {
      "inputs": [
        {
          "internalType": "uint256",
          "name": "",
          "type": "uint256"
        }
      ],
      "name": "s_requests",
      "outputs": [
        {
          "internalType": "bool",
          "name": "fulfilled",
          "type": "bool"
        },
        {
          "internalType": "bool",
          "name": "exists",
          "type": "bool"
        },
        {
          "internalType": "uint256",
          "name": "fId",
          "type": "uint256"
        },
        {
          "internalType": "uint256",
          "name": "flipChoice",
          "type": "uint256"
        },
        {
          "internalType": "uint256",
          "name": "randomValue",
          "type": "uint256"
        },
        {
          "internalType": "uint256",
          "name": "amount",
          "type": "uint256"
        },
        {
          "internalType": "uint256",
          "name": "requestedAt",
          "type": "uint256"
        },
        {
          "internalType": "uint256",
          "name": "fulfilledAt",
          "type": "uint256"
        },
        {
          "internalType": "address",
          "name": "user",
          "type": "address"
        }
      ],
      "stateMutability": "view",
      "type": "function"
    },
    {
      "inputs": [],
      "name": "serviceFee",
      "outputs": [
        {
          "internalType": "uint256",
          "name": "",
          "type": "uint256"
        }
      ],
      "stateMutability": "view",
      "type": "function"
    },
    {
      "inputs": [
        {
          "internalType": "uint256[]",
          "name": "_betAmount",
          "type": "uint256[]"
        }
      ],
      "name": "setBetAmount",
      "outputs": [],
      "stateMutability": "nonpayable",
      "type": "function"
    },
    {
      "inputs": [
        {
          "components": [
            {
              "internalType": "uint64",
              "name": "s_subscriptionId",
              "type": "uint64"
            },
            {
              "internalType": "bytes32",
              "name": "keyHash",
              "type": "bytes32"
            },
            {
              "internalType": "uint32",
              "name": "callbackGasLimit",
              "type": "uint32"
            },
            {
              "internalType": "uint16",
              "name": "numWords",
              "type": "uint16"
            },
            {
              "internalType": "uint16",
              "name": "requestConfirmations",
              "type": "uint16"
            }
          ],
          "internalType": "struct DeoddFlipCoin.VRFConfig",
          "name": "cfg",
          "type": "tuple"
        }
      ],
      "name": "setConfig",
      "outputs": [],
      "stateMutability": "nonpayable",
      "type": "function"
    },
    {
      "inputs": [
        {
          "internalType": "address",
          "name": "_vrfCoordinator",
          "type": "address"
        }
      ],
      "name": "setCoordinator",
      "outputs": [],
      "stateMutability": "nonpayable",
      "type": "function"
    },
    {
      "inputs": [
        {
          "internalType": "address",
          "name": "user",
          "type": "address"
        },
        {
          "internalType": "uint256",
          "name": "requestId",
          "type": "uint256"
        }
      ],
      "name": "setLastRequestId",
      "outputs": [],
      "stateMutability": "nonpayable",
      "type": "function"
    },
    {
      "inputs": [
        {
          "internalType": "address",
          "name": "operator",
          "type": "address"
        }
      ],
      "name": "setOperator",
      "outputs": [],
      "stateMutability": "nonpayable",
      "type": "function"
    },
    {
      "inputs": [
        {
          "internalType": "uint256",
          "name": "sf",
          "type": "uint256"
        }
      ],
      "name": "setServiceFee",
      "outputs": [],
      "stateMutability": "nonpayable",
      "type": "function"
    },
    {
      "inputs": [
        {
          "internalType": "uint256",
          "name": "_vrfFee",
          "type": "uint256"
        }
      ],
      "name": "setVRFee",
      "outputs": [],
      "stateMutability": "nonpayable",
      "type": "function"
    },
    {
      "inputs": [
        {
          "internalType": "address payable",
          "name": "wallet",
          "type": "address"
        }
      ],
      "name": "setWallet",
      "outputs": [],
      "stateMutability": "nonpayable",
      "type": "function"
    },
    {
      "inputs": [
        {
          "internalType": "address",
          "name": "newOwner",
          "type": "address"
        }
      ],
      "name": "transferOwnership",
      "outputs": [],
      "stateMutability": "nonpayable",
      "type": "function"
    },
    {
      "inputs": [
        {
          "internalType": "address",
          "name": "newImplementation",
          "type": "address"
        }
      ],
      "name": "upgradeTo",
      "outputs": [],
      "stateMutability": "nonpayable",
      "type": "function"
    },
    {
      "inputs": [
        {
          "internalType": "address",
          "name": "newImplementation",
          "type": "address"
        },
        {
          "internalType": "bytes",
          "name": "data",
          "type": "bytes"
        }
      ],
      "name": "upgradeToAndCall",
      "outputs": [],
      "stateMutability": "payable",
      "type": "function"
    },
    {
      "inputs": [],
      "name": "vrfFee",
      "outputs": [
        {
          "internalType": "uint256",
          "name": "",
          "type": "uint256"
        }
      ],
      "stateMutability": "view",
      "type": "function"
    },
    {
      "inputs": [
        {
          "internalType": "address",
          "name": "to",
          "type": "address"
        },
        {
          "internalType": "bool",
          "name": "allBNB",
          "type": "bool"
        },
        {
          "internalType": "uint256",
          "name": "amount",
          "type": "uint256"
        }
      ],
      "name": "withdrawBNB",
      "outputs": [],
      "stateMutability": "nonpayable",
      "type": "function"
    },
    {
      "stateMutability": "payable",
      "type": "receive"
    }
  ],
  "bytecode": "0x60a06040523073ffffffffffffffffffffffffffffffffffffffff1660809073ffffffffffffffffffffffffffffffffffffffff1660601b81525034801561004657600080fd5b5060805160601c6151fb6100816000396000818161099f01528181610a2e01528181610c6601528181610cf50152610da501526151fb6000f3fe6080604052600436106101f25760003560e01c80638129fc1c1161010d578063ac8a584a116100a0578063c70188ea1161006f578063c70188ea1461071a578063deaa59df14610731578063f2fde38b1461075a578063fd80729d14610783578063fde41e29146107ac57610247565b8063ac8a584a14610681578063b332639a146106aa578063b3ab15fb146106c6578063c3f909d4146106ef57610247565b8063943ab22d116100dc578063943ab22d146105a9578063a168fa89146105e6578063a3ced7b91461062b578063aaf10f421461065657610247565b80638129fc1c146105135780638abdf5aa1461052a5780638da5cb5b146105555780638ea981171461058057610247565b806352d1902d1161018557806370bdf26e1161015457806370bdf26e1461046b578063715018a6146104a857806371977fe0146104bf57806373ba7f70146104ea57610247565b806352d1902d146103b1578063548acb76146103dc5780635cdf76f8146104055780636d70f7ae1461042e57610247565b80633659cfe6116101c15780633659cfe6146103065780633aff68511461032f5780634459ccbc146103585780634f1ef2861461039557610247565b80630fd4e4b61461024c5780631017507d146102755780631154e3b8146102a05780631fe543e3146102dd57610247565b36610247573373ffffffffffffffffffffffffffffffffffffffff167f344d9d9b1c237ca7e367c0536bc9744a50eb5d6976b76f09a09cb3e7e871df5d3460405161023d919061457a565b60405180910390a2005b600080fd5b34801561025857600080fd5b50610273600480360381019061026e91906138fb565b6107d7565b005b34801561028157600080fd5b5061028a61088e565b604051610297919061457a565b60405180910390f35b3480156102ac57600080fd5b506102c760048036038101906102c29190613928565b610895565b6040516102d4919061457a565b60405180910390f35b3480156102e957600080fd5b5061030460048036038101906102ff9190613982565b6108d9565b005b34801561031257600080fd5b5061032d6004803603810190610328919061370f565b61099d565b005b34801561033b57600080fd5b5061035660048036038101906103519190613928565b610b26565b005b34801561036457600080fd5b5061037f600480360381019061037a919061370f565b610b39565b60405161038c9190614110565b60405180910390f35b6103af60048036038101906103aa91906137bc565b610c64565b005b3480156103bd57600080fd5b506103c6610da1565b6040516103d391906141b8565b60405180910390f35b3480156103e857600080fd5b5061040360048036038101906103fe9190613769565b610e5a565b005b34801561041157600080fd5b5061042c60048036038101906104279190613928565b611010565b005b34801561043a57600080fd5b506104556004803603810190610450919061370f565b611023565b6040516104629190614110565b60405180910390f35b34801561047757600080fd5b50610492600480360381019061048d919061370f565b611079565b60405161049f919061457a565b60405180910390f35b3480156104b457600080fd5b506104bd6110c2565b005b3480156104cb57600080fd5b506104d46110d6565b6040516104e19190614081565b60405180910390f35b3480156104f657600080fd5b50610511600480360381019061050c9190613818565b611100565b005b34801561051f57600080fd5b50610528611150565b005b34801561053657600080fd5b5061053f611296565b60405161054c919061457a565b60405180910390f35b34801561056157600080fd5b5061056a61129d565b6040516105779190614081565b60405180910390f35b34801561058c57600080fd5b506105a760048036038101906105a2919061370f565b6112c7565b005b3480156105b557600080fd5b506105d060048036038101906105cb9190613928565b6113d8565b6040516105dd9190614543565b60405180910390f35b3480156105f257600080fd5b5061060d60048036038101906106089190613928565b611531565b6040516106229998979695949392919061412b565b60405180910390f35b34801561063757600080fd5b506106406115b9565b60405161064d9190614110565b60405180910390f35b34801561066257600080fd5b5061066b611684565b6040516106789190614081565b60405180910390f35b34801561068d57600080fd5b506106a860048036038101906106a3919061370f565b611693565b005b6106c460048036038101906106bf91906139de565b6116f6565b005b3480156106d257600080fd5b506106ed60048036038101906106e8919061370f565b6119fa565b005b3480156106fb57600080fd5b50610704611a5d565b604051610711919061455f565b60405180910390f35b34801561072657600080fd5b5061072f611b19565b005b34801561073d57600080fd5b506107586004803603810190610753919061373c565b611ef6565b005b34801561076657600080fd5b50610781600480360381019061077c919061370f565b611f43565b005b34801561078f57600080fd5b506107aa60048036038101906107a59190613858565b611fc7565b005b3480156107b857600080fd5b506107c1611ff3565b6040516107ce91906140ee565b60405180910390f35b6107df61204c565b8060d060008201518160000160006101000a81548167ffffffffffffffff021916908367ffffffffffffffff1602179055506020820151816001015560408201518160020160006101000a81548163ffffffff021916908363ffffffff16021790555060608201518160020160046101000a81548161ffff021916908361ffff16021790555060808201518160020160066101000a81548161ffff021916908361ffff16021790555090505050565b6101065481565b60006127106101055461010984815481106108b3576108b2614a93565b5b90600052602060002001546108c891906147f3565b6108d291906147c2565b9050919050565b606660009054906101000a900473ffffffffffffffffffffffffffffffffffffffff1673ffffffffffffffffffffffffffffffffffffffff163373ffffffffffffffffffffffffffffffffffffffff161461098f5733606660009054906101000a900473ffffffffffffffffffffffffffffffffffffffff166040517f1cf993f400000000000000000000000000000000000000000000000000000000815260040161098692919061409c565b60405180910390fd5b61099982826120ca565b5050565b7f000000000000000000000000000000000000000000000000000000000000000073ffffffffffffffffffffffffffffffffffffffff163073ffffffffffffffffffffffffffffffffffffffff161415610a2c576040517f08c379a0000000000000000000000000000000000000000000000000000000008152600401610a23906142e3565b60405180910390fd5b7f000000000000000000000000000000000000000000000000000000000000000073ffffffffffffffffffffffffffffffffffffffff16610a6b6123d8565b73ffffffffffffffffffffffffffffffffffffffff1614610ac1576040517f08c379a0000000000000000000000000000000000000000000000000000000008152600401610ab890614303565b60405180910390fd5b610aca8161242f565b610b2381600067ffffffffffffffff811115610ae957610ae8614ac2565b5b6040519080825280601f01601f191660200182016040528015610b1b5781602001600182028036833780820191505090505b50600061243a565b50565b610b2e61204c565b806101068190555050565b60008060cd60008473ffffffffffffffffffffffffffffffffffffffff1673ffffffffffffffffffffffffffffffffffffffff1681526020019081526020016000205414158015610bf057506000151560cc600060cd60008673ffffffffffffffffffffffffffffffffffffffff1673ffffffffffffffffffffffffffffffffffffffff16815260200190815260200160002054815260200190815260200160002060000160009054906101000a900460ff161515145b8015610c5d5750603c60cc600060cd60008673ffffffffffffffffffffffffffffffffffffffff1673ffffffffffffffffffffffffffffffffffffffff1681526020019081526020016000205481526020019081526020016000206005015442610c5a919061484d565b10155b9050919050565b7f000000000000000000000000000000000000000000000000000000000000000073ffffffffffffffffffffffffffffffffffffffff163073ffffffffffffffffffffffffffffffffffffffff161415610cf3576040517f08c379a0000000000000000000000000000000000000000000000000000000008152600401610cea906142e3565b60405180910390fd5b7f000000000000000000000000000000000000000000000000000000000000000073ffffffffffffffffffffffffffffffffffffffff16610d326123d8565b73ffffffffffffffffffffffffffffffffffffffff1614610d88576040517f08c379a0000000000000000000000000000000000000000000000000000000008152600401610d7f90614303565b60405180910390fd5b610d918261242f565b610d9d8282600161243a565b5050565b60007f000000000000000000000000000000000000000000000000000000000000000073ffffffffffffffffffffffffffffffffffffffff163073ffffffffffffffffffffffffffffffffffffffff1614610e31576040517f08c379a0000000000000000000000000000000000000000000000000000000008152600401610e2890614323565b60405180910390fd5b7f360894a13ba1a3210667c828492db98dca3e2076cc3735a920a3ca505d382bbc60001b905090565b610e6261204c565b8115610f1a5760008373ffffffffffffffffffffffffffffffffffffffff1647604051610e8e9061406c565b60006040518083038185875af1925050503d8060008114610ecb576040519150601f19603f3d011682016040523d82523d6000602084013e610ed0565b606091505b5050905080610f14576040517f08c379a0000000000000000000000000000000000000000000000000000000008152600401610f0b906144e3565b60405180910390fd5b5061100b565b47811115610f5d576040517f08c379a0000000000000000000000000000000000000000000000000000000008152600401610f54906143c3565b60405180910390fd5b60008373ffffffffffffffffffffffffffffffffffffffff1682604051610f839061406c565b60006040518083038185875af1925050503d8060008114610fc0576040519150601f19603f3d011682016040523d82523d6000602084013e610fc5565b606091505b5050905080611009576040517f08c379a0000000000000000000000000000000000000000000000000000000008152600401611000906144e3565b60405180910390fd5b505b505050565b61101861204c565b806101058190555050565b6000606560008373ffffffffffffffffffffffffffffffffffffffff1673ffffffffffffffffffffffffffffffffffffffff16815260200190815260200160002060009054906101000a900460ff169050919050565b600060cd60008373ffffffffffffffffffffffffffffffffffffffff1673ffffffffffffffffffffffffffffffffffffffff168152602001908152602001600020549050919050565b6110ca61204c565b6110d460006125b7565b565b6000606660009054906101000a900473ffffffffffffffffffffffffffffffffffffffff16905090565b61110861204c565b8060cd60008473ffffffffffffffffffffffffffffffffffffffff1673ffffffffffffffffffffffffffffffffffffffff168152602001908152602001600020819055505050565b60008060019054906101000a900460ff161590508080156111815750600160008054906101000a900460ff1660ff16105b806111ae57506111903061267d565b1580156111ad5750600160008054906101000a900460ff1660ff16145b5b6111ed576040517f08c379a00000000000000000000000000000000000000000000000000000000081526004016111e490614363565b60405180910390fd5b60016000806101000a81548160ff021916908360ff160217905550801561122a576001600060016101000a81548160ff0219169083151502179055505b6112326126a0565b61123a6127ee565b80156112935760008060016101000a81548160ff0219169083151502179055507f7f26b83ff96e1f2b6a682f133852f6798a09c465da95921460cefb3847402498600160405161128a9190614226565b60405180910390a15b50565b6101055481565b6000603360009054906101000a900473ffffffffffffffffffffffffffffffffffffffff16905090565b606560003373ffffffffffffffffffffffffffffffffffffffff1673ffffffffffffffffffffffffffffffffffffffff16815260200190815260200160002060009054906101000a900460ff16611353576040517f08c379a000000000000000000000000000000000000000000000000000000000815260040161134a90614383565b60405180910390fd5b80606660006101000a81548173ffffffffffffffffffffffffffffffffffffffff021916908373ffffffffffffffffffffffffffffffffffffffff1602179055508060cf60006101000a81548173ffffffffffffffffffffffffffffffffffffffff021916908373ffffffffffffffffffffffffffffffffffffffff16021790555050565b6113e0613374565b60cc600083815260200190815260200160002060000160019054906101000a900460ff16611443576040517f08c379a000000000000000000000000000000000000000000000000000000000815260040161143a90614263565b60405180910390fd5b60cc6000838152602001908152602001600020604051806101200160405290816000820160009054906101000a900460ff161515151581526020016000820160019054906101000a900460ff161515151581526020016001820154815260200160028201548152602001600382015481526020016004820154815260200160058201548152602001600682015481526020016007820160009054906101000a900473ffffffffffffffffffffffffffffffffffffffff1673ffffffffffffffffffffffffffffffffffffffff1673ffffffffffffffffffffffffffffffffffffffff16815250509050919050565b60cc6020528060005260406000206000915090508060000160009054906101000a900460ff16908060000160019054906101000a900460ff16908060010154908060020154908060030154908060040154908060050154908060060154908060070160009054906101000a900473ffffffffffffffffffffffffffffffffffffffff16905089565b600060cf60009054906101000a900473ffffffffffffffffffffffffffffffffffffffff1673ffffffffffffffffffffffffffffffffffffffff1663e82ad7d460d060000160009054906101000a900467ffffffffffffffff166040518263ffffffff1660e01b815260040161162f9190614664565b60206040518083038186803b15801561164757600080fd5b505afa15801561165b573d6000803e3d6000fd5b505050506040513d601f19601f8201168201806040525081019061167f91906138a1565b905090565b600061168e6123d8565b905090565b61169b61204c565b6000606560008373ffffffffffffffffffffffffffffffffffffffff1673ffffffffffffffffffffffffffffffffffffffff16815260200190815260200160002060006101000a81548160ff02191690831515021790555050565b8061010854811061173c576040517f08c379a000000000000000000000000000000000000000000000000000000000815260040161173390614443565b60405180910390fd5b33600060cd60008373ffffffffffffffffffffffffffffffffffffffff1673ffffffffffffffffffffffffffffffffffffffff1681526020019081526020016000205414806117f157506001151560cc600060cd60008573ffffffffffffffffffffffffffffffffffffffff1673ffffffffffffffffffffffffffffffffffffffff16815260200190815260200160002054815260200190815260200160002060000160009054906101000a900460ff161515145b611830576040517f08c379a000000000000000000000000000000000000000000000000000000000815260040161182790614283565b60405180910390fd5b61183861283f565b6002841061187b576040517f08c379a0000000000000000000000000000000000000000000000000000000008152600401611872906144c3565b60405180910390fd5b61010a60009054906101000a900473ffffffffffffffffffffffffffffffffffffffff1673ffffffffffffffffffffffffffffffffffffffff163161010984815481106118cb576118ca614a93565b5b9060005260206000200154610107546118e4919061476c565b1115611925576040517f08c379a000000000000000000000000000000000000000000000000000000000815260040161191c90614423565b60405180910390fd5b6000610109848154811061193c5761193b614a93565b5b906000526020600020015490506000612710610105548361195d91906147f3565b61196791906147c2565b90503461010654828461197a919061476c565b611984919061476c565b11156119c5576040517f08c379a00000000000000000000000000000000000000000000000000000000081526004016119bc906144a3565b60405180910390fd5b8161010760008282546119d8919061476c565b925050819055506119ea33878461288f565b50506119f4612baf565b50505050565b611a0261204c565b6001606560008373ffffffffffffffffffffffffffffffffffffffff1673ffffffffffffffffffffffffffffffffffffffff16815260200190815260200160002060006101000a81548160ff02191690831515021790555050565b611a656133da565b60d06040518060a00160405290816000820160009054906101000a900467ffffffffffffffff1667ffffffffffffffff1667ffffffffffffffff168152602001600182015481526020016002820160009054906101000a900463ffffffff1663ffffffff1663ffffffff1681526020016002820160049054906101000a900461ffff1661ffff1661ffff1681526020016002820160069054906101000a900461ffff1661ffff1661ffff1681525050905090565b6000151560cc600060cd60003373ffffffffffffffffffffffffffffffffffffffff1673ffffffffffffffffffffffffffffffffffffffff16815260200190815260200160002054815260200190815260200160002060000160009054906101000a900460ff16151514611bc2576040517f08c379a0000000000000000000000000000000000000000000000000000000008152600401611bb990614463565b60405180910390fd5b603c60cc600060cd60003373ffffffffffffffffffffffffffffffffffffffff1673ffffffffffffffffffffffffffffffffffffffff1681526020019081526020016000205481526020019081526020016000206005015442611c25919061484d565b1015611c66576040517f08c379a0000000000000000000000000000000000000000000000000000000008152600401611c5d906142c3565b60405180910390fd5b600160cc600060cd60003373ffffffffffffffffffffffffffffffffffffffff1673ffffffffffffffffffffffffffffffffffffffff16815260200190815260200160002054815260200190815260200160002060000160006101000a81548160ff02191690831515021790555061010a60009054906101000a900473ffffffffffffffffffffffffffffffffffffffff1673ffffffffffffffffffffffffffffffffffffffff166381e18c103360cc600060cd60003373ffffffffffffffffffffffffffffffffffffffff1673ffffffffffffffffffffffffffffffffffffffff168152602001908152602001600020548152602001908152602001600020600401546040518363ffffffff1660e01b8152600401611d879291906140c5565b600060405180830381600087803b158015611da157600080fd5b505af1158015611db5573d6000803e3d6000fd5b505050503373ffffffffffffffffffffffffffffffffffffffff167fd1303054c698dcd81f1e4d5accada6b96047630a63ac9eaa37f7724b50f1e46260cc600060cd60003373ffffffffffffffffffffffffffffffffffffffff1673ffffffffffffffffffffffffffffffffffffffff1681526020019081526020016000205481526020019081526020016000206001015460cd60003373ffffffffffffffffffffffffffffffffffffffff1673ffffffffffffffffffffffffffffffffffffffff1681526020019081526020016000205460cc600060cd60003373ffffffffffffffffffffffffffffffffffffffff1673ffffffffffffffffffffffffffffffffffffffff16815260200190815260200160002054815260200190815260200160002060040154604051611eec93929190614595565b60405180910390a2565b611efe61204c565b8061010a60006101000a81548173ffffffffffffffffffffffffffffffffffffffff021916908373ffffffffffffffffffffffffffffffffffffffff16021790555050565b611f4b61204c565b600073ffffffffffffffffffffffffffffffffffffffff168173ffffffffffffffffffffffffffffffffffffffff161415611fbb576040517f08c379a0000000000000000000000000000000000000000000000000000000008152600401611fb2906142a3565b60405180910390fd5b611fc4816125b7565b50565b611fcf61204c565b806101099080519060200190611fe6929190613424565b5080516101088190555050565b606061010980548060200260200160405190810160405280929190818152602001828054801561204257602002820191906000526020600020905b81548152602001906001019080831161202e575b5050505050905090565b612054612bb9565b73ffffffffffffffffffffffffffffffffffffffff1661207261129d565b73ffffffffffffffffffffffffffffffffffffffff16146120c8576040517f08c379a00000000000000000000000000000000000000000000000000000000081526004016120bf90614403565b60405180910390fd5b565b6000151560cc600084815260200190815260200160002060000160009054906101000a900460ff16151514612134576040517f08c379a000000000000000000000000000000000000000000000000000000000815260040161212b90614463565b60405180910390fd5b600160cc600084815260200190815260200160002060000160006101000a81548160ff0219169083151502179055508060008151811061217757612176614a93565b5b602002602001015160cc6000848152602001908152602001600020600301819055504260cc60008481526020019081526020016000206006018190555060cc60008381526020019081526020016000206004015461010760008282546121dd919061484d565b92505081905550600061222960cc600085815260200190815260200160002060020154600260cc6000878152602001908152602001600020600301546122239190614a04565b14612bc1565b9050600081111561231d5761010a60009054906101000a900473ffffffffffffffffffffffffffffffffffffffff1673ffffffffffffffffffffffffffffffffffffffff16630dcdb45e60cc600086815260200190815260200160002060070160009054906101000a900473ffffffffffffffffffffffffffffffffffffffff16600260cc6000888152602001908152602001600020600401546122cd91906147f3565b6040518363ffffffff1660e01b81526004016122ea9291906140c5565b600060405180830381600087803b15801561230457600080fd5b505af1158015612318573d6000803e3d6000fd5b505050505b60cc600084815260200190815260200160002060070160009054906101000a900473ffffffffffffffffffffffffffffffffffffffff1673ffffffffffffffffffffffffffffffffffffffff167fbbc788ca8b6dac149c1197ef285361e8c3bac22fa1ae5eb6bf7a893191b088ad60cc60008681526020019081526020016000206001015460cc60008781526020019081526020016000206003015484426040516123cb94939291906145cc565b60405180910390a2505050565b60006124067f360894a13ba1a3210667c828492db98dca3e2076cc3735a920a3ca505d382bbc60001b612bcb565b60000160009054906101000a900473ffffffffffffffffffffffffffffffffffffffff16905090565b61243761204c565b50565b6124667f4910fdfa16fed3260ed0e7147f7cc6da11a60208b5b9406d12a635614ffd914360001b612bd5565b60000160009054906101000a900460ff161561248a5761248583612bdf565b6125b2565b8273ffffffffffffffffffffffffffffffffffffffff166352d1902d6040518163ffffffff1660e01b815260040160206040518083038186803b1580156124d057600080fd5b505afa92505050801561250157506040513d601f19601f820116820180604052508101906124fe91906138ce565b60015b612540576040517f08c379a0000000000000000000000000000000000000000000000000000000008152600401612537906143a3565b60405180910390fd5b7f360894a13ba1a3210667c828492db98dca3e2076cc3735a920a3ca505d382bbc60001b81146125a5576040517f08c379a000000000000000000000000000000000000000000000000000000000815260040161259c90614343565b60405180910390fd5b506125b1838383612c98565b5b505050565b6000603360009054906101000a900473ffffffffffffffffffffffffffffffffffffffff16905081603360006101000a81548173ffffffffffffffffffffffffffffffffffffffff021916908373ffffffffffffffffffffffffffffffffffffffff1602179055508173ffffffffffffffffffffffffffffffffffffffff168173ffffffffffffffffffffffffffffffffffffffff167f8be0079c531659141344cd1fd0a4f28419497f9722a3daafe3b4186f6b6457e060405160405180910390a35050565b6000808273ffffffffffffffffffffffffffffffffffffffff163b119050919050565b60008060019054906101000a900460ff161590508080156126d15750600160008054906101000a900460ff1660ff16105b806126fe57506126e03061267d565b1580156126fd5750600160008054906101000a900460ff1660ff16145b5b61273d576040517f08c379a000000000000000000000000000000000000000000000000000000000815260040161273490614363565b60405180910390fd5b60016000806101000a81548160ff021916908360ff160217905550801561277a576001600060016101000a81548160ff0219169083151502179055505b612782612cc4565b61278a6127ee565b612792612e02565b80156127eb5760008060016101000a81548160ff0219169083151502179055507f7f26b83ff96e1f2b6a682f133852f6798a09c465da95921460cefb384740249860016040516127e29190614226565b60405180910390a15b50565b600060019054906101000a900460ff1661283d576040517f08c379a000000000000000000000000000000000000000000000000000000000815260040161283490614503565b60405180910390fd5b565b600260d3541415612885576040517f08c379a000000000000000000000000000000000000000000000000000000000815260040161287c90614523565b60405180910390fd5b600260d381905550565b600060cf60009054906101000a900473ffffffffffffffffffffffffffffffffffffffff1673ffffffffffffffffffffffffffffffffffffffff16635d3b1d3060d06001015460d060000160009054906101000a900467ffffffffffffffff1660d060020160069054906101000a900461ffff1660d060020160009054906101000a900463ffffffff1660d060020160049054906101000a900461ffff166040518663ffffffff1660e01b815260040161294d9594939291906141d3565b602060405180830381600087803b15801561296757600080fd5b505af115801561297b573d6000803e3d6000fd5b505050506040513d601f19601f8201168201806040525081019061299f9190613955565b905060cb60008154809291906129b4906149bb565b919050555060405180610120016040528060001515815260200160011515815260200160cb54815260200184815260200160638152602001838152602001428152602001600081526020018573ffffffffffffffffffffffffffffffffffffffff1681525060cc600083815260200190815260200160002060008201518160000160006101000a81548160ff02191690831515021790555060208201518160000160016101000a81548160ff02191690831515021790555060408201518160010155606082015181600201556080820151816003015560a0820151816004015560c0820151816005015560e082015181600601556101008201518160070160006101000a81548173ffffffffffffffffffffffffffffffffffffffff021916908373ffffffffffffffffffffffffffffffffffffffff1602179055509050508060cd60008673ffffffffffffffffffffffffffffffffffffffff1673ffffffffffffffffffffffffffffffffffffffff168152602001908152602001600020819055508060ce600060cb548152602001908152602001600020819055503373ffffffffffffffffffffffffffffffffffffffff167fe55c93a5b5a3b3124aed3ba1fe9e9c3eab06d54d4ef813cc700625d2c2aee0d860cb5483858742604051612ba1959493929190614611565b60405180910390a250505050565b600160d381905550565b600033905090565b6000819050919050565b6000819050919050565b6000819050919050565b612be88161267d565b612c27576040517f08c379a0000000000000000000000000000000000000000000000000000000008152600401612c1e906143e3565b60405180910390fd5b80612c547f360894a13ba1a3210667c828492db98dca3e2076cc3735a920a3ca505d382bbc60001b612bcb565b60000160006101000a81548173ffffffffffffffffffffffffffffffffffffffff021916908373ffffffffffffffffffffffffffffffffffffffff16021790555050565b612ca183612f7f565b600082511180612cae5750805b15612cbf57612cbd8383612fce565b505b505050565b60008060019054906101000a900460ff16159050808015612cf55750600160008054906101000a900460ff1660ff16105b80612d225750612d043061267d565b158015612d215750600160008054906101000a900460ff1660ff16145b5b612d61576040517f08c379a0000000000000000000000000000000000000000000000000000000008152600401612d5890614363565b60405180910390fd5b60016000806101000a81548160ff021916908360ff1602179055508015612d9e576001600060016101000a81548160ff0219169083151502179055505b612da66130b2565b8015612dff5760008060016101000a81548160ff0219169083151502179055507f7f26b83ff96e1f2b6a682f133852f6798a09c465da95921460cefb38474024986001604051612df69190614226565b60405180910390a15b50565b73a2d23627bc0314f4cbd08ff54ecb89bb45685053606660006101000a81548173ffffffffffffffffffffffffffffffffffffffff021916908373ffffffffffffffffffffffffffffffffffffffff160217905550606660009054906101000a900473ffffffffffffffffffffffffffffffffffffffff1660cf60006101000a81548173ffffffffffffffffffffffffffffffffffffffff021916908373ffffffffffffffffffffffffffffffffffffffff160217905550609e60d060000160006101000a81548167ffffffffffffffff021916908367ffffffffffffffff1602179055507f617abc3f53ae11766071d04ada1c7b0fbd49833b9542e9e91da4d3191c70cc8060001b60d060010181905550620186a060d060020160006101000a81548163ffffffff021916908363ffffffff160217905550600360d060020160066101000a81548161ffff021916908361ffff160217905550600160d060020160046101000a81548161ffff021916908361ffff160217905550565b612f8881612bdf565b8073ffffffffffffffffffffffffffffffffffffffff167fbc7cd75a20ee27fd9adebab32041f755214dbc6bffa90cc0225b39da2e5c2d3b60405160405180910390a250565b6060612fd98361267d565b613018576040517f08c379a000000000000000000000000000000000000000000000000000000000815260040161300f90614483565b60405180910390fd5b6000808473ffffffffffffffffffffffffffffffffffffffff16846040516130409190614055565b600060405180830381855af49150503d806000811461307b576040519150601f19603f3d011682016040523d82523d6000602084013e613080565b606091505b50915091506130a8828260405180606001604052806027815260200161519f60279139613248565b9250505092915050565b60008060019054906101000a900460ff161590508080156130e35750600160008054906101000a900460ff1660ff16105b8061311057506130f23061267d565b15801561310f5750600160008054906101000a900460ff1660ff16145b5b61314f576040517f08c379a000000000000000000000000000000000000000000000000000000000815260040161314690614363565b60405180910390fd5b60016000806101000a81548160ff021916908360ff160217905550801561318c576001600060016101000a81548160ff0219169083151502179055505b61319461326a565b6001606560003373ffffffffffffffffffffffffffffffffffffffff1673ffffffffffffffffffffffffffffffffffffffff16815260200190815260200160002060006101000a81548160ff02191690831515021790555080156132455760008060016101000a81548160ff0219169083151502179055507f7f26b83ff96e1f2b6a682f133852f6798a09c465da95921460cefb3847402498600160405161323c9190614226565b60405180910390a15b50565b6060831561325857829050613263565b61326283836132c3565b5b9392505050565b600060019054906101000a900460ff166132b9576040517f08c379a00000000000000000000000000000000000000000000000000000000081526004016132b090614503565b60405180910390fd5b6132c1613313565b565b6000825111156132d65781518083602001fd5b806040517f08c379a000000000000000000000000000000000000000000000000000000000815260040161330a9190614241565b60405180910390fd5b600060019054906101000a900460ff16613362576040517f08c379a000000000000000000000000000000000000000000000000000000000815260040161335990614503565b60405180910390fd5b61337261336d612bb9565b6125b7565b565b604051806101200160405280600015158152602001600015158152602001600081526020016000815260200160008152602001600081526020016000815260200160008152602001600073ffffffffffffffffffffffffffffffffffffffff1681525090565b6040518060a00160405280600067ffffffffffffffff16815260200160008019168152602001600063ffffffff168152602001600061ffff168152602001600061ffff1681525090565b828054828255906000526020600020908101928215613460579160200282015b8281111561345f578251825591602001919060010190613444565b5b50905061346d9190613471565b5090565b5b8082111561348a576000816000905550600101613472565b5090565b60006134a161349c846146a4565b61467f565b905080838252602082019050828560208602820111156134c4576134c3614afb565b5b60005b858110156134f457816134da88826136bb565b8452602084019350602083019250506001810190506134c7565b5050509392505050565b600061351161350c846146d0565b61467f565b90508281526020810184848401111561352d5761352c614b00565b5b613538848285614948565b509392505050565b60008135905061354f816150e6565b92915050565b600081359050613564816150fd565b92915050565b600082601f83011261357f5761357e614af1565b5b813561358f84826020860161348e565b91505092915050565b6000813590506135a781615114565b92915050565b6000815190506135bc81615114565b92915050565b6000813590506135d18161512b565b92915050565b6000815190506135e68161512b565b92915050565b600082601f83011261360157613600614af1565b5b81356136118482602086016134fe565b91505092915050565b600060a082840312156136305761362f614af6565b5b61363a60a061467f565b9050600061364a848285016136fa565b600083015250602061365e848285016135c2565b6020830152506040613672848285016136e5565b6040830152506060613686848285016136a6565b606083015250608061369a848285016136a6565b60808301525092915050565b6000813590506136b581615142565b92915050565b6000813590506136ca81615159565b92915050565b6000815190506136df81615159565b92915050565b6000813590506136f481615170565b92915050565b60008135905061370981615187565b92915050565b60006020828403121561372557613724614b0a565b5b600061373384828501613540565b91505092915050565b60006020828403121561375257613751614b0a565b5b600061376084828501613555565b91505092915050565b60008060006060848603121561378257613781614b0a565b5b600061379086828701613540565b93505060206137a186828701613598565b92505060406137b2868287016136bb565b9150509250925092565b600080604083850312156137d3576137d2614b0a565b5b60006137e185828601613540565b925050602083013567ffffffffffffffff81111561380257613801614b05565b5b61380e858286016135ec565b9150509250929050565b6000806040838503121561382f5761382e614b0a565b5b600061383d85828601613540565b925050602061384e858286016136bb565b9150509250929050565b60006020828403121561386e5761386d614b0a565b5b600082013567ffffffffffffffff81111561388c5761388b614b05565b5b6138988482850161356a565b91505092915050565b6000602082840312156138b7576138b6614b0a565b5b60006138c5848285016135ad565b91505092915050565b6000602082840312156138e4576138e3614b0a565b5b60006138f2848285016135d7565b91505092915050565b600060a0828403121561391157613910614b0a565b5b600061391f8482850161361a565b91505092915050565b60006020828403121561393e5761393d614b0a565b5b600061394c848285016136bb565b91505092915050565b60006020828403121561396b5761396a614b0a565b5b6000613979848285016136d0565b91505092915050565b6000806040838503121561399957613998614b0a565b5b60006139a7858286016136bb565b925050602083013567ffffffffffffffff8111156139c8576139c7614b05565b5b6139d48582860161356a565b9150509250929050565b600080604083850312156139f5576139f4614b0a565b5b6000613a03858286016136bb565b9250506020613a14858286016136bb565b9150509250929050565b6000613a2a8383613ffb565b60208301905092915050565b613a3f81614881565b82525050565b613a4e81614881565b82525050565b6000613a5f82614711565b613a69818561473f565b9350613a7483614701565b8060005b83811015613aa5578151613a8c8882613a1e565b9750613a9783614732565b925050600181019050613a78565b5085935050505092915050565b613abb816148a5565b82525050565b613aca816148a5565b82525050565b613ad9816148b1565b82525050565b613ae8816148b1565b82525050565b6000613af98261471c565b613b038185614750565b9350613b13818560208601614957565b80840191505092915050565b613b2881614924565b82525050565b6000613b3982614727565b613b43818561475b565b9350613b53818560208601614957565b613b5c81614b0f565b840191505092915050565b6000613b7460118361475b565b9150613b7f82614b20565b602082019050919050565b6000613b97602e8361475b565b9150613ba282614b49565b604082019050919050565b6000613bba60268361475b565b9150613bc582614b98565b604082019050919050565b6000613bdd60298361475b565b9150613be882614be7565b604082019050919050565b6000613c00602c8361475b565b9150613c0b82614c36565b604082019050919050565b6000613c23602c8361475b565b9150613c2e82614c85565b604082019050919050565b6000613c4660388361475b565b9150613c5182614cd4565b604082019050919050565b6000613c6960298361475b565b9150613c7482614d23565b604082019050919050565b6000613c8c602e8361475b565b9150613c9782614d72565b604082019050919050565b6000613caf601b8361475b565b9150613cba82614dc1565b602082019050919050565b6000613cd2602e8361475b565b9150613cdd82614dea565b604082019050919050565b6000613cf5601c8361475b565b9150613d0082614e39565b602082019050919050565b6000613d18602d8361475b565b9150613d2382614e62565b604082019050919050565b6000613d3b60208361475b565b9150613d4682614eb1565b602082019050919050565b6000613d5e60278361475b565b9150613d6982614eda565b604082019050919050565b6000613d8160128361475b565b9150613d8c82614f29565b602082019050919050565b6000613da460118361475b565b9150613daf82614f52565b602082019050919050565b6000613dc760268361475b565b9150613dd282614f7b565b604082019050919050565b6000613dea600083614750565b9150613df582614fca565b600082019050919050565b6000613e0d60188361475b565b9150613e1882614fcd565b602082019050919050565b6000613e3060178361475b565b9150613e3b82614ff6565b602082019050919050565b6000613e5360238361475b565b9150613e5e8261501f565b604082019050919050565b6000613e76602b8361475b565b9150613e818261506e565b604082019050919050565b6000613e99601f8361475b565b9150613ea4826150bd565b602082019050919050565b61012082016000820151613ec66000850182613ab2565b506020820151613ed96020850182613ab2565b506040820151613eec6040850182613ffb565b506060820151613eff6060850182613ffb565b506080820151613f126080850182613ffb565b5060a0820151613f2560a0850182613ffb565b5060c0820151613f3860c0850182613ffb565b5060e0820151613f4b60e0850182613ffb565b50610100820151613f60610100850182613a36565b50505050565b60a082016000820151613f7c6000850182614037565b506020820151613f8f6020850182613ad0565b506040820151613fa26040850182614019565b506060820151613fb56060850182613fce565b506080820151613fc86080850182613fce565b50505050565b613fd7816148bb565b82525050565b613fe6816148bb565b82525050565b613ff581614936565b82525050565b614004816148e9565b82525050565b614013816148e9565b82525050565b614022816148f3565b82525050565b614031816148f3565b82525050565b61404081614903565b82525050565b61404f81614903565b82525050565b60006140618284613aee565b915081905092915050565b600061407782613ddd565b9150819050919050565b60006020820190506140966000830184613a45565b92915050565b60006040820190506140b16000830185613a45565b6140be6020830184613a45565b9392505050565b60006040820190506140da6000830185613a45565b6140e7602083018461400a565b9392505050565b600060208201905081810360008301526141088184613a54565b905092915050565b60006020820190506141256000830184613ac1565b92915050565b600061012082019050614141600083018c613ac1565b61414e602083018b613ac1565b61415b604083018a61400a565b614168606083018961400a565b614175608083018861400a565b61418260a083018761400a565b61418f60c083018661400a565b61419c60e083018561400a565b6141aa610100830184613a45565b9a9950505050505050505050565b60006020820190506141cd6000830184613adf565b92915050565b600060a0820190506141e86000830188613adf565b6141f56020830187614046565b6142026040830186613fdd565b61420f6060830185614028565b61421c6080830184613fec565b9695505050505050565b600060208201905061423b6000830184613b1f565b92915050565b6000602082019050818103600083015261425b8184613b2e565b905092915050565b6000602082019050818103600083015261427c81613b67565b9050919050565b6000602082019050818103600083015261429c81613b8a565b9050919050565b600060208201905081810360008301526142bc81613bad565b9050919050565b600060208201905081810360008301526142dc81613bd0565b9050919050565b600060208201905081810360008301526142fc81613bf3565b9050919050565b6000602082019050818103600083015261431c81613c16565b9050919050565b6000602082019050818103600083015261433c81613c39565b9050919050565b6000602082019050818103600083015261435c81613c5c565b9050919050565b6000602082019050818103600083015261437c81613c7f565b9050919050565b6000602082019050818103600083015261439c81613ca2565b9050919050565b600060208201905081810360008301526143bc81613cc5565b9050919050565b600060208201905081810360008301526143dc81613ce8565b9050919050565b600060208201905081810360008301526143fc81613d0b565b9050919050565b6000602082019050818103600083015261441c81613d2e565b9050919050565b6000602082019050818103600083015261443c81613d51565b9050919050565b6000602082019050818103600083015261445c81613d74565b9050919050565b6000602082019050818103600083015261447c81613d97565b9050919050565b6000602082019050818103600083015261449c81613dba565b9050919050565b600060208201905081810360008301526144bc81613e00565b9050919050565b600060208201905081810360008301526144dc81613e23565b9050919050565b600060208201905081810360008301526144fc81613e46565b9050919050565b6000602082019050818103600083015261451c81613e69565b9050919050565b6000602082019050818103600083015261453c81613e8c565b9050919050565b6000610120820190506145596000830184613eaf565b92915050565b600060a0820190506145746000830184613f66565b92915050565b600060208201905061458f600083018461400a565b92915050565b60006060820190506145aa600083018661400a565b6145b7602083018561400a565b6145c4604083018461400a565b949350505050565b60006080820190506145e1600083018761400a565b6145ee602083018661400a565b6145fb604083018561400a565b614608606083018461400a565b95945050505050565b600060a082019050614626600083018861400a565b614633602083018761400a565b614640604083018661400a565b61464d606083018561400a565b61465a608083018461400a565b9695505050505050565b60006020820190506146796000830184614046565b92915050565b600061468961469a565b9050614695828261498a565b919050565b6000604051905090565b600067ffffffffffffffff8211156146bf576146be614ac2565b5b602082029050602081019050919050565b600067ffffffffffffffff8211156146eb576146ea614ac2565b5b6146f482614b0f565b9050602081019050919050565b6000819050602082019050919050565b600081519050919050565b600081519050919050565b600081519050919050565b6000602082019050919050565b600082825260208201905092915050565b600081905092915050565b600082825260208201905092915050565b6000614777826148e9565b9150614782836148e9565b9250827fffffffffffffffffffffffffffffffffffffffffffffffffffffffffffffffff038211156147b7576147b6614a35565b5b828201905092915050565b60006147cd826148e9565b91506147d8836148e9565b9250826147e8576147e7614a64565b5b828204905092915050565b60006147fe826148e9565b9150614809836148e9565b9250817fffffffffffffffffffffffffffffffffffffffffffffffffffffffffffffffff048311821515161561484257614841614a35565b5b828202905092915050565b6000614858826148e9565b9150614863836148e9565b92508282101561487657614875614a35565b5b828203905092915050565b600061488c826148c9565b9050919050565b600061489e826148c9565b9050919050565b60008115159050919050565b6000819050919050565b600061ffff82169050919050565b600073ffffffffffffffffffffffffffffffffffffffff82169050919050565b6000819050919050565b600063ffffffff82169050919050565b600067ffffffffffffffff82169050919050565b600060ff82169050919050565b600061492f82614917565b9050919050565b6000614941826148bb565b9050919050565b82818337600083830152505050565b60005b8381101561497557808201518184015260208101905061495a565b83811115614984576000848401525b50505050565b61499382614b0f565b810181811067ffffffffffffffff821117156149b2576149b1614ac2565b5b80604052505050565b60006149c6826148e9565b91507fffffffffffffffffffffffffffffffffffffffffffffffffffffffffffffffff8214156149f9576149f8614a35565b5b600182019050919050565b6000614a0f826148e9565b9150614a1a836148e9565b925082614a2a57614a29614a64565b5b828206905092915050565b7f4e487b7100000000000000000000000000000000000000000000000000000000600052601160045260246000fd5b7f4e487b7100000000000000000000000000000000000000000000000000000000600052601260045260246000fd5b7f4e487b7100000000000000000000000000000000000000000000000000000000600052603260045260246000fd5b7f4e487b7100000000000000000000000000000000000000000000000000000000600052604160045260246000fd5b600080fd5b600080fd5b600080fd5b600080fd5b600080fd5b600080fd5b6000601f19601f8301169050919050565b7f72657175657374206e6f7420666f756e64000000000000000000000000000000600082015250565b7f706c65617365207761697420756e74696c207468652063757272656e7420666c60008201527f69702069732066696e6973686564000000000000000000000000000000000000602082015250565b7f4f776e61626c653a206e6577206f776e657220697320746865207a65726f206160008201527f6464726573730000000000000000000000000000000000000000000000000000602082015250565b7f706c656173652077616974203630207365636f6e647320616674657220666c6960008201527f7020726571756573740000000000000000000000000000000000000000000000602082015250565b7f46756e6374696f6e206d7573742062652063616c6c6564207468726f7567682060008201527f64656c656761746563616c6c0000000000000000000000000000000000000000602082015250565b7f46756e6374696f6e206d7573742062652063616c6c6564207468726f7567682060008201527f6163746976652070726f78790000000000000000000000000000000000000000602082015250565b7f555550535570677261646561626c653a206d757374206e6f742062652063616c60008201527f6c6564207468726f7567682064656c656761746563616c6c0000000000000000602082015250565b7f45524331393637557067726164653a20756e737570706f727465642070726f7860008201527f6961626c65555549440000000000000000000000000000000000000000000000602082015250565b7f496e697469616c697a61626c653a20636f6e747261637420697320616c72656160008201527f647920696e697469616c697a6564000000000000000000000000000000000000602082015250565b7f63616c6c6572206973206e6f7420746865206f70657261746f72730000000000600082015250565b7f45524331393637557067726164653a206e657720696d706c656d656e7461746960008201527f6f6e206973206e6f742055555053000000000000000000000000000000000000602082015250565b7f636c61696d20616d6f756e7420657863656564732062616c616e636500000000600082015250565b7f455243313936373a206e657720696d706c656d656e746174696f6e206973206e60008201527f6f74206120636f6e747261637400000000000000000000000000000000000000602082015250565b7f4f776e61626c653a2063616c6c6572206973206e6f7420746865206f776e6572600082015250565b7f6d6f6e657920696e207468652062616e6b206973206e6f7420656e6f7567682060008201527f746f20666c697000000000000000000000000000000000000000000000000000602082015250565b7f496e76616c69642062657420616d6f756e740000000000000000000000000000600082015250565b7f616c72656164792066756c66696c6c6564000000000000000000000000000000600082015250565b7f416464726573733a2064656c65676174652063616c6c20746f206e6f6e2d636f60008201527f6e74726163740000000000000000000000000000000000000000000000000000602082015250565b50565b7f6e6f7420656e6f756768206d6f6e657920746f20666c69700000000000000000600082015250565b7f696e76616c696420686561642f7461696c20696e707574000000000000000000600082015250565b7f4661696c656420746f2073656e6420424e422066726f6d2044656f646457616c60008201527f6c65740000000000000000000000000000000000000000000000000000000000602082015250565b7f496e697469616c697a61626c653a20636f6e7472616374206973206e6f74206960008201527f6e697469616c697a696e67000000000000000000000000000000000000000000602082015250565b7f5265656e7472616e637947756172643a207265656e7472616e742063616c6c00600082015250565b6150ef81614881565b81146150fa57600080fd5b50565b61510681614893565b811461511157600080fd5b50565b61511d816148a5565b811461512857600080fd5b50565b615134816148b1565b811461513f57600080fd5b50565b61514b816148bb565b811461515657600080fd5b50565b615162816148e9565b811461516d57600080fd5b50565b615179816148f3565b811461518457600080fd5b50565b61519081614903565b811461519b57600080fd5b5056fe416464726573733a206c6f772d6c6576656c2064656c65676174652063616c6c206661696c6564a2646970667358221220ec013b6b63405ffbd9bc3c51739601ad60e3927fd0b68d53b2c0b3ce84ae5a0264736f6c63430008070033",
  "linkReferences": {},
  "deployedLinkReferences": {}
}