{
  "_format": "hh-sol-artifact-1",
  "contractName": "Deodd",
  "sourceName": "contracts/Deodd.sol",
  "abi": [
    {
      "inputs": [
        {
          "internalType": "address",
          "name": "have",
          "type": "address"
        },
        {
          "internalType": "address",
          "name": "want",
          "type": "address"
        }
      ],
      "name": "OnlyCoordinatorCanFulfill",
      "type": "error"
    },
    {
      "anonymous": false,
      "inputs": [
        {
          "indexed": false,
          "internalType": "address",
          "name": "previousAdmin",
          "type": "address"
        },
        {
          "indexed": false,
          "internalType": "address",
          "name": "newAdmin",
          "type": "address"
        }
      ],
      "name": "AdminChanged",
      "type": "event"
    },
    {
      "anonymous": false,
      "inputs": [
        {
          "indexed": true,
          "internalType": "address",
          "name": "beacon",
          "type": "address"
        }
      ],
      "name": "BeaconUpgraded",
      "type": "event"
    },
    {
      "anonymous": false,
      "inputs": [
        {
          "indexed": true,
          "internalType": "address",
          "name": "from",
          "type": "address"
        },
        {
          "indexed": false,
          "internalType": "uint256",
          "name": "amount",
          "type": "uint256"
        }
      ],
      "name": "DepositJackpot",
      "type": "event"
    },
    {
      "anonymous": false,
      "inputs": [
        {
          "indexed": true,
          "internalType": "address",
          "name": "wallet",
          "type": "address"
        },
        {
          "indexed": false,
          "internalType": "uint256",
          "name": "fId",
          "type": "uint256"
        },
        {
          "indexed": false,
          "internalType": "uint256",
          "name": "amount",
          "type": "uint256"
        },
        {
          "indexed": false,
          "internalType": "uint256",
          "name": "flipChoice",
          "type": "uint256"
        },
        {
          "indexed": false,
          "internalType": "uint256",
          "name": "playerWin",
          "type": "uint256"
        },
        {
          "indexed": false,
          "internalType": "uint256",
          "name": "tpoint",
          "type": "uint256"
        },
        {
          "indexed": false,
          "internalType": "uint256",
          "name": "jackpotReward",
          "type": "uint256"
        },
        {
          "indexed": false,
          "internalType": "uint256",
          "name": "tokenId",
          "type": "uint256"
        },
        {
          "indexed": false,
          "internalType": "uint256",
          "name": "typeId",
          "type": "uint256"
        },
        {
          "indexed": false,
          "internalType": "uint256",
          "name": "timestamp",
          "type": "uint256"
        }
      ],
      "name": "FlipCoinResult",
      "type": "event"
    },
    {
      "anonymous": false,
      "inputs": [
        {
          "indexed": false,
          "internalType": "uint8",
          "name": "version",
          "type": "uint8"
        }
      ],
      "name": "Initialized",
      "type": "event"
    },
    {
      "anonymous": false,
      "inputs": [
        {
          "indexed": true,
          "internalType": "address",
          "name": "previousOwner",
          "type": "address"
        },
        {
          "indexed": true,
          "internalType": "address",
          "name": "newOwner",
          "type": "address"
        }
      ],
      "name": "OwnershipTransferred",
      "type": "event"
    },
    {
      "anonymous": false,
      "inputs": [
        {
          "indexed": true,
          "internalType": "address",
          "name": "from",
          "type": "address"
        },
        {
          "indexed": false,
          "internalType": "uint256",
          "name": "amount",
          "type": "uint256"
        }
      ],
      "name": "ReceiveBNB",
      "type": "event"
    },
    {
      "anonymous": false,
      "inputs": [
        {
          "indexed": false,
          "internalType": "uint256",
          "name": "flipId",
          "type": "uint256"
        },
        {
          "indexed": false,
          "internalType": "uint256",
          "name": "requestId",
          "type": "uint256"
        },
        {
          "indexed": false,
          "internalType": "uint256[]",
          "name": "randomWords",
          "type": "uint256[]"
        }
      ],
      "name": "RequestFulfilled",
      "type": "event"
    },
    {
      "anonymous": false,
      "inputs": [
        {
          "indexed": false,
          "internalType": "uint256",
          "name": "requestId",
          "type": "uint256"
        },
        {
          "indexed": false,
          "internalType": "uint32",
          "name": "numWords",
          "type": "uint32"
        }
      ],
      "name": "RequestSent",
      "type": "event"
    },
    {
      "anonymous": false,
      "inputs": [
        {
          "indexed": true,
          "internalType": "address",
          "name": "implementation",
          "type": "address"
        }
      ],
      "name": "Upgraded",
      "type": "event"
    },
    {
      "inputs": [],
      "name": "claimBNB",
      "outputs": [],
      "stateMutability": "nonpayable",
      "type": "function"
    },
    {
      "inputs": [
        {
          "internalType": "uint256",
          "name": "flipChoice",
          "type": "uint256"
        },
        {
          "internalType": "uint256",
          "name": "bId",
          "type": "uint256"
        }
      ],
      "name": "flipTheCoin",
      "outputs": [],
      "stateMutability": "payable",
      "type": "function"
    },
    {
      "inputs": [],
      "name": "getAllRequestIds",
      "outputs": [
        {
          "internalType": "uint256[]",
          "name": "",
          "type": "uint256[]"
        }
      ],
      "stateMutability": "view",
      "type": "function"
    },
    {
      "inputs": [],
      "name": "getBetAmount",
      "outputs": [
        {
          "internalType": "uint256[]",
          "name": "",
          "type": "uint256[]"
        }
      ],
      "stateMutability": "view",
      "type": "function"
    },
    {
      "inputs": [],
      "name": "getConfig",
      "outputs": [
        {
          "components": [
            {
              "internalType": "uint64",
              "name": "s_subscriptionId",
              "type": "uint64"
            },
            {
              "internalType": "bytes32",
              "name": "keyHash",
              "type": "bytes32"
            },
            {
              "internalType": "uint32",
              "name": "callbackGasLimit",
              "type": "uint32"
            },
            {
              "internalType": "uint16",
              "name": "requestConfirmations",
              "type": "uint16"
            }
          ],
          "internalType": "struct RNGConsumer.VRFConfig",
          "name": "",
          "type": "tuple"
        }
      ],
      "stateMutability": "view",
      "type": "function"
    },
    {
      "inputs": [],
      "name": "getCoordinator",
      "outputs": [
        {
          "internalType": "address",
          "name": "",
          "type": "address"
        }
      ],
      "stateMutability": "view",
      "type": "function"
    },
    {
      "inputs": [],
      "name": "getImplementation",
      "outputs": [
        {
          "internalType": "address",
          "name": "",
          "type": "address"
        }
      ],
      "stateMutability": "view",
      "type": "function"
    },
    {
      "inputs": [],
      "name": "getNumWords",
      "outputs": [
        {
          "internalType": "uint32",
          "name": "",
          "type": "uint32"
        }
      ],
      "stateMutability": "view",
      "type": "function"
    },
    {
      "inputs": [
        {
          "internalType": "address",
          "name": "player",
          "type": "address"
        }
      ],
      "name": "getPlayerAsset",
      "outputs": [
        {
          "internalType": "uint256",
          "name": "",
          "type": "uint256"
        }
      ],
      "stateMutability": "view",
      "type": "function"
    },
    {
      "inputs": [
        {
          "internalType": "address",
          "name": "player",
          "type": "address"
        }
      ],
      "name": "getPlayerLatestFlipId",
      "outputs": [
        {
          "internalType": "uint256",
          "name": "",
          "type": "uint256"
        }
      ],
      "stateMutability": "view",
      "type": "function"
    },
    {
      "inputs": [
        {
          "internalType": "uint256",
          "name": "_requestId",
          "type": "uint256"
        }
      ],
      "name": "getRequestStatus",
      "outputs": [
        {
          "internalType": "bool",
          "name": "fulfilled",
          "type": "bool"
        },
        {
          "internalType": "uint256[]",
          "name": "randomWords",
          "type": "uint256[]"
        }
      ],
      "stateMutability": "view",
      "type": "function"
    },
    {
      "inputs": [],
      "name": "initialize",
      "outputs": [],
      "stateMutability": "nonpayable",
      "type": "function"
    },
    {
      "inputs": [
        {
          "internalType": "address",
          "name": "operator",
          "type": "address"
        }
      ],
      "name": "isOperator",
      "outputs": [
        {
          "internalType": "bool",
          "name": "",
          "type": "bool"
        }
      ],
      "stateMutability": "view",
      "type": "function"
    },
    {
      "inputs": [],
      "name": "lastRequestId",
      "outputs": [
        {
          "internalType": "uint256",
          "name": "",
          "type": "uint256"
        }
      ],
      "stateMutability": "view",
      "type": "function"
    },
    {
      "inputs": [],
      "name": "owner",
      "outputs": [
        {
          "internalType": "address",
          "name": "",
          "type": "address"
        }
      ],
      "stateMutability": "view",
      "type": "function"
    },
    {
      "inputs": [],
      "name": "proxiableUUID",
      "outputs": [
        {
          "internalType": "bytes32",
          "name": "",
          "type": "bytes32"
        }
      ],
      "stateMutability": "view",
      "type": "function"
    },
    {
      "inputs": [
        {
          "internalType": "uint256",
          "name": "requestId",
          "type": "uint256"
        },
        {
          "internalType": "uint256[]",
          "name": "randomWords",
          "type": "uint256[]"
        }
      ],
      "name": "rawFulfillRandomWords",
      "outputs": [],
      "stateMutability": "nonpayable",
      "type": "function"
    },
    {
      "inputs": [
        {
          "internalType": "address",
          "name": "operator",
          "type": "address"
        }
      ],
      "name": "removeOperator",
      "outputs": [],
      "stateMutability": "nonpayable",
      "type": "function"
    },
    {
      "inputs": [],
      "name": "renounceOwnership",
      "outputs": [],
      "stateMutability": "nonpayable",
      "type": "function"
    },
    {
      "inputs": [
        {
          "internalType": "uint256",
          "name": "",
          "type": "uint256"
        }
      ],
      "name": "requestIds",
      "outputs": [
        {
          "internalType": "uint256",
          "name": "",
          "type": "uint256"
        }
      ],
      "stateMutability": "view",
      "type": "function"
    },
    {
      "inputs": [
        {
          "internalType": "uint256",
          "name": "",
          "type": "uint256"
        }
      ],
      "name": "s_requests",
      "outputs": [
        {
          "internalType": "bool",
          "name": "fulfilled",
          "type": "bool"
        },
        {
          "internalType": "bool",
          "name": "exists",
          "type": "bool"
        }
      ],
      "stateMutability": "view",
      "type": "function"
    },
    {
      "inputs": [
        {
          "internalType": "uint256[]",
          "name": "_betAmount",
          "type": "uint256[]"
        }
      ],
      "name": "setBetAmount",
      "outputs": [],
      "stateMutability": "nonpayable",
      "type": "function"
    },
    {
      "inputs": [
        {
          "internalType": "address",
          "name": "_vrfCoordinator",
          "type": "address"
        }
      ],
      "name": "setCoordinator",
      "outputs": [],
      "stateMutability": "nonpayable",
      "type": "function"
    },
    {
      "inputs": [
        {
          "internalType": "address payable",
          "name": "_fm",
          "type": "address"
        }
      ],
      "name": "setFeeManager",
      "outputs": [],
      "stateMutability": "nonpayable",
      "type": "function"
    },
    {
      "inputs": [
        {
          "internalType": "address",
          "name": "fWallet",
          "type": "address"
        }
      ],
      "name": "setFeeWallet",
      "outputs": [],
      "stateMutability": "nonpayable",
      "type": "function"
    },
    {
      "inputs": [
        {
          "internalType": "uint32",
          "name": "nw",
          "type": "uint32"
        }
      ],
      "name": "setNumWords",
      "outputs": [],
      "stateMutability": "nonpayable",
      "type": "function"
    },
    {
      "inputs": [
        {
          "internalType": "address",
          "name": "operator",
          "type": "address"
        }
      ],
      "name": "setOperator",
      "outputs": [],
      "stateMutability": "nonpayable",
      "type": "function"
    },
    {
      "inputs": [],
      "name": "start",
      "outputs": [],
      "stateMutability": "nonpayable",
      "type": "function"
    },
    {
      "inputs": [
        {
          "internalType": "address",
          "name": "newOwner",
          "type": "address"
        }
      ],
      "name": "transferOwnership",
      "outputs": [],
      "stateMutability": "nonpayable",
      "type": "function"
    },
    {
      "inputs": [],
      "name": "turnOffChainLink",
      "outputs": [],
      "stateMutability": "nonpayable",
      "type": "function"
    },
    {
      "inputs": [],
      "name": "turnOnChainLink",
      "outputs": [],
      "stateMutability": "nonpayable",
      "type": "function"
    },
    {
      "inputs": [
        {
          "components": [
            {
              "internalType": "uint64",
              "name": "s_subscriptionId",
              "type": "uint64"
            },
            {
              "internalType": "bytes32",
              "name": "keyHash",
              "type": "bytes32"
            },
            {
              "internalType": "uint32",
              "name": "callbackGasLimit",
              "type": "uint32"
            },
            {
              "internalType": "uint16",
              "name": "requestConfirmations",
              "type": "uint16"
            }
          ],
          "internalType": "struct RNGConsumer.VRFConfig",
          "name": "cfg",
          "type": "tuple"
        }
      ],
      "name": "updateConfig",
      "outputs": [],
      "stateMutability": "nonpayable",
      "type": "function"
    },
    {
      "inputs": [
        {
          "internalType": "address",
          "name": "newImplementation",
          "type": "address"
        }
      ],
      "name": "upgradeTo",
      "outputs": [],
      "stateMutability": "nonpayable",
      "type": "function"
    },
    {
      "inputs": [
        {
          "internalType": "address",
          "name": "newImplementation",
          "type": "address"
        },
        {
          "internalType": "bytes",
          "name": "data",
          "type": "bytes"
        }
      ],
      "name": "upgradeToAndCall",
      "outputs": [],
      "stateMutability": "payable",
      "type": "function"
    },
    {
      "stateMutability": "payable",
      "type": "receive"
    }
  ],
  "bytecode": "0x60a06040523073ffffffffffffffffffffffffffffffffffffffff1660809073ffffffffffffffffffffffffffffffffffffffff1660601b81525034801561004657600080fd5b5060805160601c61554c6200008260003960008181610928015281816109b701528181610afe01528181610b8d0152610c3d015261554c6000f3fe6080604052600436106101fc5760003560e01c8063a7c4c0ec1161010d578063d866f5c0116100a0578063f2fde38b1161006f578063f2fde38b146106fd578063f30c07d314610726578063fc2a88c31461074f578063fd80729d1461077a578063fde41e29146107a357610251565b8063d866f5c014610640578063d8a4676f1461067d578063ec1e6bd6146106bb578063eecb2575146106e657610251565b8063b3ab15fb116100dc578063b3ab15fb146105be578063be9a6555146105e7578063c3f909d4146105fe578063c9defa181461062957610251565b8063a7c4c0ec14610537578063aaf10f421461054e578063ac8a584a14610579578063b332639a146105a257610251565b8063715018a6116101905780638b05c5451161015f5780638b05c5451461043f5780638da5cb5b1461047c5780638ea98117146104a757806390d49b9d146104d0578063a168fa89146104f957610251565b8063715018a6146103a957806371977fe0146103c05780638129fc1c146103eb5780638796ba8c1461040257610251565b80634f1ef286116101cc5780634f1ef286146102fa57806352d1902d1461031657806353a2c19a146103415780636d70f7ae1461036c57610251565b8062844975146102565780631fe543e31461027f5780633659cfe6146102a8578063472d35b9146102d157610251565b36610251573373ffffffffffffffffffffffffffffffffffffffff167f344d9d9b1c237ca7e367c0536bc9744a50eb5d6976b76f09a09cb3e7e871df5d34604051610247919061493a565b60405180910390a2005b600080fd5b34801561026257600080fd5b5061027d60048036038101906102789190613ced565b6107ce565b005b34801561028b57600080fd5b506102a660048036038101906102a19190613d74565b610862565b005b3480156102b457600080fd5b506102cf60048036038101906102ca9190613bc1565b610926565b005b3480156102dd57600080fd5b506102f860048036038101906102f39190613bee565b610aaf565b005b610314600480360381019061030f9190613c1b565b610afc565b005b34801561032257600080fd5b5061032b610c39565b60405161033891906145b4565b60405180910390f35b34801561034d57600080fd5b50610356610cf2565b6040516103639190614a49565b60405180910390f35b34801561037857600080fd5b50610393600480360381019061038e9190613bc1565b610d0c565b6040516103a09190614540565b60405180910390f35b3480156103b557600080fd5b506103be610d62565b005b3480156103cc57600080fd5b506103d5610d76565b6040516103e29190614442565b60405180910390f35b3480156103f757600080fd5b50610400610da0565b005b34801561040e57600080fd5b5061042960048036038101906104249190613d1a565b610efa565b604051610436919061493a565b60405180910390f35b34801561044b57600080fd5b5061046660048036038101906104619190613bc1565b610f1e565b604051610473919061493a565b60405180910390f35b34801561048857600080fd5b50610491610f68565b60405161049e9190614442565b60405180910390f35b3480156104b357600080fd5b506104ce60048036038101906104c99190613bc1565b610f92565b005b3480156104dc57600080fd5b506104f760048036038101906104f29190613bc1565b6110a3565b005b34801561050557600080fd5b50610520600480360381019061051b9190613d1a565b611174565b60405161052e92919061458b565b60405180910390f35b34801561054357600080fd5b5061054c6111b2565b005b34801561055a57600080fd5b506105636111d8565b6040516105709190614442565b60405180910390f35b34801561058557600080fd5b506105a0600480360381019061059b9190613bc1565b6111e7565b005b6105bc60048036038101906105b79190613dd0565b61124a565b005b3480156105ca57600080fd5b506105e560048036038101906105e09190613bc1565b6119fb565b005b3480156105f357600080fd5b506105fc611a5e565b005b34801561060a57600080fd5b50610613611b5e565b604051610620919061491f565b60405180910390f35b34801561063557600080fd5b5061063e611bfa565b005b34801561064c57600080fd5b5061066760048036038101906106629190613bc1565b611c20565b604051610674919061493a565b60405180910390f35b34801561068957600080fd5b506106a4600480360381019061069f9190613d1a565b611c6a565b6040516106b292919061455b565b60405180910390f35b3480156106c757600080fd5b506106d0611d95565b6040516106dd919061451e565b60405180910390f35b3480156106f257600080fd5b506106fb611ded565b005b34801561070957600080fd5b50610724600480360381019061071f9190613bc1565b611f85565b005b34801561073257600080fd5b5061074d60048036038101906107489190613e50565b612009565b005b34801561075b57600080fd5b50610764612035565b604051610771919061493a565b60405180910390f35b34801561078657600080fd5b506107a1600480360381019061079c9190613c77565b61203b565b005b3480156107af57600080fd5b506107b8612067565b6040516107c5919061451e565b60405180910390f35b6107d66120c0565b8060cf60008201518160000160006101000a81548167ffffffffffffffff021916908367ffffffffffffffff1602179055506020820151816001015560408201518160020160006101000a81548163ffffffff021916908363ffffffff16021790555060608201518160020160046101000a81548161ffff021916908361ffff16021790555090505050565b606660009054906101000a900473ffffffffffffffffffffffffffffffffffffffff1673ffffffffffffffffffffffffffffffffffffffff163373ffffffffffffffffffffffffffffffffffffffff16146109185733606660009054906101000a900473ffffffffffffffffffffffffffffffffffffffff166040517f1cf993f400000000000000000000000000000000000000000000000000000000815260040161090f92919061445d565b60405180910390fd5b610922828261213e565b5050565b7f000000000000000000000000000000000000000000000000000000000000000073ffffffffffffffffffffffffffffffffffffffff163073ffffffffffffffffffffffffffffffffffffffff1614156109b5576040517f08c379a00000000000000000000000000000000000000000000000000000000081526004016109ac9061469f565b60405180910390fd5b7f000000000000000000000000000000000000000000000000000000000000000073ffffffffffffffffffffffffffffffffffffffff166109f461225e565b73ffffffffffffffffffffffffffffffffffffffff1614610a4a576040517f08c379a0000000000000000000000000000000000000000000000000000000008152600401610a41906146bf565b60405180910390fd5b610a53816122b5565b610aac81600067ffffffffffffffff811115610a7257610a71614e92565b5b6040519080825280601f01601f191660200182016040528015610aa45781602001600182028036833780820191505090505b5060006122c0565b50565b610ab76120c0565b8061011060006101000a81548173ffffffffffffffffffffffffffffffffffffffff021916908373ffffffffffffffffffffffffffffffffffffffff16021790555050565b7f000000000000000000000000000000000000000000000000000000000000000073ffffffffffffffffffffffffffffffffffffffff163073ffffffffffffffffffffffffffffffffffffffff161415610b8b576040517f08c379a0000000000000000000000000000000000000000000000000000000008152600401610b829061469f565b60405180910390fd5b7f000000000000000000000000000000000000000000000000000000000000000073ffffffffffffffffffffffffffffffffffffffff16610bca61225e565b73ffffffffffffffffffffffffffffffffffffffff1614610c20576040517f08c379a0000000000000000000000000000000000000000000000000000000008152600401610c17906146bf565b60405180910390fd5b610c29826122b5565b610c35828260016122c0565b5050565b60007f000000000000000000000000000000000000000000000000000000000000000073ffffffffffffffffffffffffffffffffffffffff163073ffffffffffffffffffffffffffffffffffffffff1614610cc9576040517f08c379a0000000000000000000000000000000000000000000000000000000008152600401610cc09061471f565b60405180910390fd5b7f360894a13ba1a3210667c828492db98dca3e2076cc3735a920a3ca505d382bbc60001b905090565b600060d260009054906101000a900463ffffffff16905090565b6000606560008373ffffffffffffffffffffffffffffffffffffffff1673ffffffffffffffffffffffffffffffffffffffff16815260200190815260200160002060009054906101000a900460ff169050919050565b610d6a6120c0565b610d74600061243d565b565b6000606660009054906101000a900473ffffffffffffffffffffffffffffffffffffffff16905090565b60008060019054906101000a900460ff16159050808015610dd15750600160008054906101000a900460ff1660ff16105b80610dfe5750610de030612503565b158015610dfd5750600160008054906101000a900460ff1660ff16145b5b610e3d576040517f08c379a0000000000000000000000000000000000000000000000000000000008152600401610e349061477f565b60405180910390fd5b60016000806101000a81548160ff021916908360ff1602179055508015610e7a576001600060016101000a81548160ff0219169083151502179055505b610e82612526565b600061010960006101000a81548160ff0219169083151502179055508015610ef75760008060016101000a81548160ff0219169083151502179055507f7f26b83ff96e1f2b6a682f133852f6798a09c465da95921460cefb38474024986001604051610eee9190614622565b60405180910390a15b50565b60cd8181548110610f0a57600080fd5b906000526020600020016000915090505481565b600061010e60008373ffffffffffffffffffffffffffffffffffffffff1673ffffffffffffffffffffffffffffffffffffffff168152602001908152602001600020549050919050565b6000603360009054906101000a900473ffffffffffffffffffffffffffffffffffffffff16905090565b606560003373ffffffffffffffffffffffffffffffffffffffff1673ffffffffffffffffffffffffffffffffffffffff16815260200190815260200160002060009054906101000a900460ff1661101e576040517f08c379a00000000000000000000000000000000000000000000000000000000081526004016110159061479f565b60405180910390fd5b80606660006101000a81548173ffffffffffffffffffffffffffffffffffffffff021916908373ffffffffffffffffffffffffffffffffffffffff1602179055508060cc60006101000a81548173ffffffffffffffffffffffffffffffffffffffff021916908373ffffffffffffffffffffffffffffffffffffffff16021790555050565b606560003373ffffffffffffffffffffffffffffffffffffffff1673ffffffffffffffffffffffffffffffffffffffff16815260200190815260200160002060009054906101000a900460ff1661112f576040517f08c379a00000000000000000000000000000000000000000000000000000000081526004016111269061479f565b60405180910390fd5b8061011160006101000a81548173ffffffffffffffffffffffffffffffffffffffff021916908373ffffffffffffffffffffffffffffffffffffffff16021790555050565b60cb6020528060005260406000206000915090508060000160009054906101000a900460ff16908060000160019054906101000a900460ff16905082565b6111ba6120c0565b600161010960006101000a81548160ff021916908315150217905550565b60006111e261225e565b905090565b6111ef6120c0565b6000606560008373ffffffffffffffffffffffffffffffffffffffff1673ffffffffffffffffffffffffffffffffffffffff16815260200190815260200160002060006101000a81548160ff02191690831515021790555050565b33600061010c600061010d60008573ffffffffffffffffffffffffffffffffffffffff1673ffffffffffffffffffffffffffffffffffffffff16815260200190815260200160002054815260200190815260200160002054905060008114806112da57506000151560cb600083815260200190815260200160002060000160009054906101000a900460ff161515145b611319576040517f08c379a0000000000000000000000000000000000000000000000000000000008152600401611310906148bf565b60405180910390fd5b8261010754811061135f576040517f08c379a00000000000000000000000000000000000000000000000000000000081526004016113569061481f565b60405180910390fd5b611367612686565b600285106113aa576040517f08c379a00000000000000000000000000000000000000000000000000000000081526004016113a19061487f565b60405180910390fd5b60003390503461010e60008373ffffffffffffffffffffffffffffffffffffffff1673ffffffffffffffffffffffffffffffffffffffff16815260200190815260200160002060008282546113ff9190614b51565b925050819055503461010860008282546114199190614b51565b92505081905550600061010f868154811061143757611436614e63565b5b90600052602060002001549050600061011060009054906101000a900473ffffffffffffffffffffffffffffffffffffffff1673ffffffffffffffffffffffffffffffffffffffff1663e8834762836040518263ffffffff1660e01b81526004016114a2919061493a565b60206040518083038186803b1580156114ba57600080fd5b505afa1580156114ce573d6000803e3d6000fd5b505050506040513d601f19601f820116820180604052508101906114f29190613d47565b9050600081836115029190614b51565b905061010e60008573ffffffffffffffffffffffffffffffffffffffff1673ffffffffffffffffffffffffffffffffffffffff16815260200190815260200160002054811115611587576040517f08c379a000000000000000000000000000000000000000000000000000000000815260040161157e9061473f565b60405180910390fd5b8061010e60008673ffffffffffffffffffffffffffffffffffffffff1673ffffffffffffffffffffffffffffffffffffffff16815260200190815260200160002060008282546115d79190614c01565b925050819055508061010860008282546115f19190614c01565b92505081905550600061011160009054906101000a900473ffffffffffffffffffffffffffffffffffffffff1673ffffffffffffffffffffffffffffffffffffffff1683604051611641906143df565b60006040518083038185875af1925050503d806000811461167e576040519150601f19603f3d011682016040523d82523d6000602084013e611683565b606091505b50509050806116c7576040517f08c379a00000000000000000000000000000000000000000000000000000000081526004016116be9061489f565b60405180910390fd5b61011060009054906101000a900473ffffffffffffffffffffffffffffffffffffffff1673ffffffffffffffffffffffffffffffffffffffff1663c7c9fcaa856040518263ffffffff1660e01b8152600401611723919061493a565b600060405180830381600087803b15801561173d57600080fd5b505af1158015611751573d6000803e3d6000fd5b50505050600061011060009054906101000a900473ffffffffffffffffffffffffffffffffffffffff1673ffffffffffffffffffffffffffffffffffffffff166359e2eb486040518163ffffffff1660e01b815260040160206040518083038186803b1580156117c057600080fd5b505afa1580156117d4573d6000803e3d6000fd5b505050506040513d601f19601f820116820180604052508101906117f89190613d47565b9050600061011060009054906101000a900473ffffffffffffffffffffffffffffffffffffffff1673ffffffffffffffffffffffffffffffffffffffff166380790c8a6040518163ffffffff1660e01b815260040160206040518083038186803b15801561186557600080fd5b505afa158015611879573d6000803e3d6000fd5b505050506040513d601f19601f8201168201806040525081019061189d9190613d47565b905061010660008154809291906118b390614d5d565b91905055506040518060c001604052806101065481526020018c81526020018d81526020018381526020018281526020018873ffffffffffffffffffffffffffffffffffffffff1681525061010a6000610106548152602001908152602001600020600082015181600001556020820151816001015560408201518160020155606082015181600301556080820151816004015560a08201518160050160006101000a81548173ffffffffffffffffffffffffffffffffffffffff021916908373ffffffffffffffffffffffffffffffffffffffff1602179055509050506101065461010d60003373ffffffffffffffffffffffffffffffffffffffff1673ffffffffffffffffffffffffffffffffffffffff168152602001908152602001600020819055506119e5610106546126d6565b505050505050506119f4612959565b5050505050565b611a036120c0565b6001606560008373ffffffffffffffffffffffffffffffffffffffff1673ffffffffffffffffffffffffffffffffffffffff16815260200190815260200160002060006101000a81548160ff02191690831515021790555050565b611a666120c0565b6000151561010960019054906101000a900460ff16151514611abd576040517f08c379a0000000000000000000000000000000000000000000000000000000008152600401611ab4906146df565b60405180910390fd5b600161010960016101000a81548160ff02191690831515021790555061011060009054906101000a900473ffffffffffffffffffffffffffffffffffffffff1673ffffffffffffffffffffffffffffffffffffffff1663be9a65556040518163ffffffff1660e01b8152600401600060405180830381600087803b158015611b4457600080fd5b505af1158015611b58573d6000803e3d6000fd5b50505050565b611b666138d5565b60cf6040518060800160405290816000820160009054906101000a900467ffffffffffffffff1667ffffffffffffffff1667ffffffffffffffff168152602001600182015481526020016002820160009054906101000a900463ffffffff1663ffffffff1663ffffffff1681526020016002820160049054906101000a900461ffff1661ffff1661ffff1681525050905090565b611c026120c0565b600061010960006101000a81548160ff021916908315150217905550565b600061010d60008373ffffffffffffffffffffffffffffffffffffffff1673ffffffffffffffffffffffffffffffffffffffff168152602001908152602001600020549050919050565b6000606060cb600084815260200190815260200160002060000160019054906101000a900460ff16611cd1576040517f08c379a0000000000000000000000000000000000000000000000000000000008152600401611cc89061465f565b60405180910390fd5b600060cb60008581526020019081526020016000206040518060600160405290816000820160009054906101000a900460ff161515151581526020016000820160019054906101000a900460ff1615151515815260200160018201805480602002602001604051908101604052809291908181526020018280548015611d7657602002820191906000526020600020905b815481526020019060010190808311611d62575b5050505050815250509050806000015181604001519250925050915091565b606060cd805480602002602001604051908101604052809291908181526020018280548015611de357602002820191906000526020600020905b815481526020019060010190808311611dcf575b5050505050905090565b600061010e60003373ffffffffffffffffffffffffffffffffffffffff1673ffffffffffffffffffffffffffffffffffffffff16815260200190815260200160002054905060008111611e75576040517f08c379a0000000000000000000000000000000000000000000000000000000008152600401611e6c906146ff565b60405180910390fd5b600061010e60003373ffffffffffffffffffffffffffffffffffffffff1673ffffffffffffffffffffffffffffffffffffffff16815260200190815260200160002081905550806101086000828254611ece9190614c01565b9250508190555060003373ffffffffffffffffffffffffffffffffffffffff1682604051611efb906143df565b60006040518083038185875af1925050503d8060008114611f38576040519150601f19603f3d011682016040523d82523d6000602084013e611f3d565b606091505b5050905080611f81576040517f08c379a0000000000000000000000000000000000000000000000000000000008152600401611f789061483f565b60405180910390fd5b5050565b611f8d6120c0565b600073ffffffffffffffffffffffffffffffffffffffff168173ffffffffffffffffffffffffffffffffffffffff161415611ffd576040517f08c379a0000000000000000000000000000000000000000000000000000000008152600401611ff49061467f565b60405180910390fd5b6120068161243d565b50565b6120116120c0565b8060d260006101000a81548163ffffffff021916908363ffffffff16021790555050565b60ce5481565b6120436120c0565b8061010f908051906020019061205a929190613914565b5080516101078190555050565b606061010f8054806020026020016040519081016040528092919081815260200182805480156120b657602002820191906000526020600020905b8154815260200190600101908083116120a2575b5050505050905090565b6120c8612963565b73ffffffffffffffffffffffffffffffffffffffff166120e6610f68565b73ffffffffffffffffffffffffffffffffffffffff161461213c576040517f08c379a0000000000000000000000000000000000000000000000000000000008152600401612133906147ff565b60405180910390fd5b565b60cb600083815260200190815260200160002060000160019054906101000a900460ff166121a1576040517f08c379a00000000000000000000000000000000000000000000000000000000081526004016121989061465f565b60405180910390fd5b600160cb600084815260200190815260200160002060000160006101000a81548160ff0219169083151502179055508060cb600084815260200190815260200160002060010190805190602001906121fa929190613914565b50600061010b600084815260200190815260200160002054905061221e818461296b565b7f5e3f21ca8056862d06a417cdb923dd8d3e06312bca2a8821974a27e7a522030b81848460405161225193929190614955565b60405180910390a1505050565b600061228c7f360894a13ba1a3210667c828492db98dca3e2076cc3735a920a3ca505d382bbc60001b612e89565b60000160009054906101000a900473ffffffffffffffffffffffffffffffffffffffff16905090565b6122bd6120c0565b50565b6122ec7f4910fdfa16fed3260ed0e7147f7cc6da11a60208b5b9406d12a635614ffd914360001b612e93565b60000160009054906101000a900460ff16156123105761230b83612e9d565b612438565b8273ffffffffffffffffffffffffffffffffffffffff166352d1902d6040518163ffffffff1660e01b815260040160206040518083038186803b15801561235657600080fd5b505afa92505050801561238757506040513d601f19601f820116820180604052508101906123849190613cc0565b60015b6123c6576040517f08c379a00000000000000000000000000000000000000000000000000000000081526004016123bd906147bf565b60405180910390fd5b7f360894a13ba1a3210667c828492db98dca3e2076cc3735a920a3ca505d382bbc60001b811461242b576040517f08c379a00000000000000000000000000000000000000000000000000000000081526004016124229061475f565b60405180910390fd5b50612437838383612f56565b5b505050565b6000603360009054906101000a900473ffffffffffffffffffffffffffffffffffffffff16905081603360006101000a81548173ffffffffffffffffffffffffffffffffffffffff021916908373ffffffffffffffffffffffffffffffffffffffff1602179055508173ffffffffffffffffffffffffffffffffffffffff168173ffffffffffffffffffffffffffffffffffffffff167f8be0079c531659141344cd1fd0a4f28419497f9722a3daafe3b4186f6b6457e060405160405180910390a35050565b6000808273ffffffffffffffffffffffffffffffffffffffff163b119050919050565b60008060019054906101000a900460ff161590508080156125575750600160008054906101000a900460ff1660ff16105b80612584575061256630612503565b1580156125835750600160008054906101000a900460ff1660ff16145b5b6125c3576040517f08c379a00000000000000000000000000000000000000000000000000000000081526004016125ba9061477f565b60405180910390fd5b60016000806101000a81548160ff021916908360ff1602179055508015612600576001600060016101000a81548160ff0219169083151502179055505b612608612f82565b6126106130c0565b612618613111565b44426126249190614b51565b60d38190555080156126835760008060016101000a81548160ff0219169083151502179055507f7f26b83ff96e1f2b6a682f133852f6798a09c465da95921460cefb3847402498600160405161267a9190614622565b60405180910390a15b50565b600260d45414156126cc576040517f08c379a00000000000000000000000000000000000000000000000000000000081526004016126c3906148ff565b60405180910390fd5b600260d481905550565b61010960009054906101000a900460ff16156127305760006126f661322d565b90508161010b6000838152602001908152602001600020819055508061010c60008481526020019081526020016000208190555050612956565b6040518060600160405280600015158152602001600115158152602001600467ffffffffffffffff81111561276857612767614e92565b5b6040519080825280602002602001820160405280156127965781602001602082028036833780820191505090505b5081525060cb600083815260200190815260200160002060008201518160000160006101000a81548160ff02191690831515021790555060208201518160000160016101000a81548160ff0219169083151502179055506040820151816001019080519060200190612809929190613914565b50905050600261281833613499565b6128229190614dd4565b60cb600083815260200190815260200160002060010160008154811061284b5761284a614e63565b5b906000526020600020018190555061286233613499565b60cb600083815260200190815260200160002060010160018154811061288b5761288a614e63565b5b90600052602060002001819055506128a233613499565b60cb60008381526020019081526020016000206001016002815481106128cb576128ca614e63565b5b90600052602060002001819055506128e233613499565b60cb600083815260200190815260200160002060010160038154811061290b5761290a614e63565b5b90600052602060002001819055508061010b6000838152602001908152602001600020819055508061010c600083815260200190815260200160002081905550612955818261296b565b5b50565b600160d481905550565b600033905090565b600061010a60008481526020019081526020016000206040518060c001604052908160008201548152602001600182015481526020016002820154815260200160038201548152602001600482015481526020016005820160009054906101000a900473ffffffffffffffffffffffffffffffffffffffff1673ffffffffffffffffffffffffffffffffffffffff1673ffffffffffffffffffffffffffffffffffffffff1681525050905060008160a00151905060008260400151600260cb6000878152602001908152602001600020600101600081548110612a5157612a50614e63565b5b9060005260206000200154612a669190614dd4565b14612a72576000612a75565b60015b60ff1690506000811115612b5357600261010f846020015181548110612a9e57612a9d614e63565b5b9060005260206000200154612ab39190614ba7565b61010e60008473ffffffffffffffffffffffffffffffffffffffff1673ffffffffffffffffffffffffffffffffffffffff1681526020019081526020016000206000828254612b029190614b51565b92505081905550600261010f846020015181548110612b2457612b23614e63565b5b9060005260206000200154612b399190614ba7565b6101086000828254612b4b9190614b51565b925050819055505b60008061011060009054906101000a900473ffffffffffffffffffffffffffffffffffffffff1673ffffffffffffffffffffffffffffffffffffffff16633c201bbe858760200151886080015160cb60008c8152602001908152602001600020600101600281548110612bc957612bc8614e63565b5b906000526020600020015460cb60008d8152602001908152602001600020600101600381548110612bfd57612bfc614e63565b5b90600052602060002001546040518663ffffffff1660e01b8152600401612c289594939291906144cb565b6040805180830381600087803b158015612c4157600080fd5b505af1158015612c55573d6000803e3d6000fd5b505050506040513d601f19601f82011682018060405250810190612c799190613e10565b809250819350505060008061011060009054906101000a900473ffffffffffffffffffffffffffffffffffffffff1673ffffffffffffffffffffffffffffffffffffffff16633c53ca298789602001518a6060015160cb60008e8152602001908152602001600020600101600181548110612cf757612cf6614e63565b5b90600052602060002001546040518563ffffffff1660e01b8152600401612d219493929190614486565b6040805180830381600087803b158015612d3a57600080fd5b505af1158015612d4e573d6000803e3d6000fd5b505050506040513d601f19601f82011682018060405250810190612d729190613e10565b80925081935050506000811115612df5578061010e60008873ffffffffffffffffffffffffffffffffffffffff1673ffffffffffffffffffffffffffffffffffffffff1681526020019081526020016000206000828254612dd39190614b51565b92505081905550806101086000828254612ded9190614b51565b925050819055505b8573ffffffffffffffffffffffffffffffffffffffff167fa0c45f4d488af5b4862c0c5ac758f71671de9dbed9da97533b7288f4a8de5ef0886000015161010f8a6020015181548110612e4b57612e4a614e63565b5b90600052602060002001548a604001518987878b8b42604051612e7699989796959493929190614993565b60405180910390a2505050505050505050565b6000819050919050565b6000819050919050565b612ea681612503565b612ee5576040517f08c379a0000000000000000000000000000000000000000000000000000000008152600401612edc906147df565b60405180910390fd5b80612f127f360894a13ba1a3210667c828492db98dca3e2076cc3735a920a3ca505d382bbc60001b612e89565b60000160006101000a81548173ffffffffffffffffffffffffffffffffffffffff021916908373ffffffffffffffffffffffffffffffffffffffff16021790555050565b612f5f836134e0565b600082511180612f6c5750805b15612f7d57612f7b838361352f565b505b505050565b60008060019054906101000a900460ff16159050808015612fb35750600160008054906101000a900460ff1660ff16105b80612fe05750612fc230612503565b158015612fdf5750600160008054906101000a900460ff1660ff16145b5b61301f576040517f08c379a00000000000000000000000000000000000000000000000000000000081526004016130169061477f565b60405180910390fd5b60016000806101000a81548160ff021916908360ff160217905550801561305c576001600060016101000a81548160ff0219169083151502179055505b613064613613565b80156130bd5760008060016101000a81548160ff0219169083151502179055507f7f26b83ff96e1f2b6a682f133852f6798a09c465da95921460cefb384740249860016040516130b49190614622565b60405180910390a15b50565b600060019054906101000a900460ff1661310f576040517f08c379a0000000000000000000000000000000000000000000000000000000008152600401613106906148df565b60405180910390fd5b565b736a2aad07396b36fe02a22b33cf443582f682c82f60cc60006101000a81548173ffffffffffffffffffffffffffffffffffffffff021916908373ffffffffffffffffffffffffffffffffffffffff16021790555061077260cf60000160006101000a81548167ffffffffffffffff021916908367ffffffffffffffff1602179055507fd4bb89654db74673a187bd804519e65e3f71a52bc55f11da7601a13dcf50531460001b60cf60010181905550620186a060cf60020160006101000a81548163ffffffff021916908363ffffffff160217905550600360cf60020160046101000a81548161ffff021916908361ffff160217905550600460d260006101000a81548163ffffffff021916908363ffffffff160217905550565b600060cc60009054906101000a900473ffffffffffffffffffffffffffffffffffffffff1673ffffffffffffffffffffffffffffffffffffffff16635d3b1d3060cf6001015460cf60000160009054906101000a900467ffffffffffffffff1660cf60020160049054906101000a900461ffff1660cf60020160009054906101000a900463ffffffff1660d260009054906101000a900463ffffffff166040518663ffffffff1660e01b81526004016132ea9594939291906145cf565b602060405180830381600087803b15801561330457600080fd5b505af1158015613318573d6000803e3d6000fd5b505050506040513d601f19601f8201168201806040525081019061333c9190613d47565b90506040518060600160405280600015158152602001600115158152602001600067ffffffffffffffff81111561337657613375614e92565b5b6040519080825280602002602001820160405280156133a45781602001602082028036833780820191505090505b5081525060cb600083815260200190815260200160002060008201518160000160006101000a81548160ff02191690831515021790555060208201518160000160016101000a81548160ff0219169083151502179055506040820151816001019080519060200190613417929190613914565b5090505060cd8190806001815401808255809150506001900390600052602060002001600090919091909150558060ce819055507fcc58b13ad3eab50626c6a6300b1d139cd6ebb1688a7cced9461c2f7e762665ee8160d260009054906101000a900463ffffffff1660405161348e929190614a20565b60405180910390a190565b60008044428460d3546040516020016134b594939291906143f4565b6040516020818303038152906040528051906020012060001c90508060d38190555080915050919050565b6134e981612e9d565b8073ffffffffffffffffffffffffffffffffffffffff167fbc7cd75a20ee27fd9adebab32041f755214dbc6bffa90cc0225b39da2e5c2d3b60405160405180910390a250565b606061353a83612503565b613579576040517f08c379a00000000000000000000000000000000000000000000000000000000081526004016135709061485f565b60405180910390fd5b6000808473ffffffffffffffffffffffffffffffffffffffff16846040516135a191906143c8565b600060405180830381855af49150503d80600081146135dc576040519150601f19603f3d011682016040523d82523d6000602084013e6135e1565b606091505b509150915061360982826040518060600160405280602781526020016154f0602791396137a9565b9250505092915050565b60008060019054906101000a900460ff161590508080156136445750600160008054906101000a900460ff1660ff16105b80613671575061365330612503565b1580156136705750600160008054906101000a900460ff1660ff16145b5b6136b0576040517f08c379a00000000000000000000000000000000000000000000000000000000081526004016136a79061477f565b60405180910390fd5b60016000806101000a81548160ff021916908360ff16021790555080156136ed576001600060016101000a81548160ff0219169083151502179055505b6136f56137cb565b6001606560003373ffffffffffffffffffffffffffffffffffffffff1673ffffffffffffffffffffffffffffffffffffffff16815260200190815260200160002060006101000a81548160ff02191690831515021790555080156137a65760008060016101000a81548160ff0219169083151502179055507f7f26b83ff96e1f2b6a682f133852f6798a09c465da95921460cefb3847402498600160405161379d9190614622565b60405180910390a15b50565b606083156137b9578290506137c4565b6137c38383613824565b5b9392505050565b600060019054906101000a900460ff1661381a576040517f08c379a0000000000000000000000000000000000000000000000000000000008152600401613811906148df565b60405180910390fd5b613822613874565b565b6000825111156138375781518083602001fd5b806040517f08c379a000000000000000000000000000000000000000000000000000000000815260040161386b919061463d565b60405180910390fd5b600060019054906101000a900460ff166138c3576040517f08c379a00000000000000000000000000000000000000000000000000000000081526004016138ba906148df565b60405180910390fd5b6138d36138ce612963565b61243d565b565b6040518060800160405280600067ffffffffffffffff16815260200160008019168152602001600063ffffffff168152602001600061ffff1681525090565b828054828255906000526020600020908101928215613950579160200282015b8281111561394f578251825591602001919060010190613934565b5b50905061395d9190613961565b5090565b5b8082111561397a576000816000905550600101613962565b5090565b600061399161398c84614a89565b614a64565b905080838252602082019050828560208602820111156139b4576139b3614ecb565b5b60005b858110156139e457816139ca8882613b6d565b8452602084019350602083019250506001810190506139b7565b5050509392505050565b6000613a016139fc84614ab5565b614a64565b905082815260208101848484011115613a1d57613a1c614ed0565b5b613a28848285614cea565b509392505050565b600081359050613a3f8161544e565b92915050565b600081359050613a5481615465565b92915050565b600082601f830112613a6f57613a6e614ec1565b5b8135613a7f84826020860161397e565b91505092915050565b600081359050613a978161547c565b92915050565b600081519050613aac8161547c565b92915050565b600082601f830112613ac757613ac6614ec1565b5b8135613ad78482602086016139ee565b91505092915050565b600060808284031215613af657613af5614ec6565b5b613b006080614a64565b90506000613b1084828501613bac565b6000830152506020613b2484828501613a88565b6020830152506040613b3884828501613b97565b6040830152506060613b4c84828501613b58565b60608301525092915050565b600081359050613b6781615493565b92915050565b600081359050613b7c816154aa565b92915050565b600081519050613b91816154aa565b92915050565b600081359050613ba6816154c1565b92915050565b600081359050613bbb816154d8565b92915050565b600060208284031215613bd757613bd6614eda565b5b6000613be584828501613a30565b91505092915050565b600060208284031215613c0457613c03614eda565b5b6000613c1284828501613a45565b91505092915050565b60008060408385031215613c3257613c31614eda565b5b6000613c4085828601613a30565b925050602083013567ffffffffffffffff811115613c6157613c60614ed5565b5b613c6d85828601613ab2565b9150509250929050565b600060208284031215613c8d57613c8c614eda565b5b600082013567ffffffffffffffff811115613cab57613caa614ed5565b5b613cb784828501613a5a565b91505092915050565b600060208284031215613cd657613cd5614eda565b5b6000613ce484828501613a9d565b91505092915050565b600060808284031215613d0357613d02614eda565b5b6000613d1184828501613ae0565b91505092915050565b600060208284031215613d3057613d2f614eda565b5b6000613d3e84828501613b6d565b91505092915050565b600060208284031215613d5d57613d5c614eda565b5b6000613d6b84828501613b82565b91505092915050565b60008060408385031215613d8b57613d8a614eda565b5b6000613d9985828601613b6d565b925050602083013567ffffffffffffffff811115613dba57613db9614ed5565b5b613dc685828601613a5a565b9150509250929050565b60008060408385031215613de757613de6614eda565b5b6000613df585828601613b6d565b9250506020613e0685828601613b6d565b9150509250929050565b60008060408385031215613e2757613e26614eda565b5b6000613e3585828601613b82565b9250506020613e4685828601613b82565b9150509250929050565b600060208284031215613e6657613e65614eda565b5b6000613e7484828501613b97565b91505092915050565b6000613e898383614357565b60208301905092915050565b613e9e81614c35565b82525050565b613eb5613eb082614c35565b614da6565b82525050565b6000613ec682614af6565b613ed08185614b24565b9350613edb83614ae6565b8060005b83811015613f0c578151613ef38882613e7d565b9750613efe83614b17565b925050600181019050613edf565b5085935050505092915050565b613f2281614c59565b82525050565b613f3181614c65565b82525050565b613f4081614c65565b82525050565b6000613f5182614b01565b613f5b8185614b35565b9350613f6b818560208601614cf9565b80840191505092915050565b613f8081614cd8565b82525050565b6000613f9182614b0c565b613f9b8185614b40565b9350613fab818560208601614cf9565b613fb481614edf565b840191505092915050565b6000613fcc601183614b40565b9150613fd782614efd565b602082019050919050565b6000613fef602683614b40565b9150613ffa82614f26565b604082019050919050565b6000614012602c83614b40565b915061401d82614f75565b604082019050919050565b6000614035602c83614b40565b915061404082614fc4565b604082019050919050565b6000614058600f83614b40565b915061406382615013565b602082019050919050565b600061407b601083614b40565b91506140868261503c565b602082019050919050565b600061409e603883614b40565b91506140a982615065565b604082019050919050565b60006140c1601883614b40565b91506140cc826150b4565b602082019050919050565b60006140e4602983614b40565b91506140ef826150dd565b604082019050919050565b6000614107602e83614b40565b91506141128261512c565b604082019050919050565b600061412a601b83614b40565b91506141358261517b565b602082019050919050565b600061414d602e83614b40565b9150614158826151a4565b604082019050919050565b6000614170602d83614b40565b915061417b826151f3565b604082019050919050565b6000614193602083614b40565b915061419e82615242565b602082019050919050565b60006141b6601283614b40565b91506141c18261526b565b602082019050919050565b60006141d9600f83614b40565b91506141e482615294565b602082019050919050565b60006141fc602683614b40565b9150614207826152bd565b604082019050919050565b600061421f601783614b40565b915061422a8261530c565b602082019050919050565b6000614242602583614b40565b915061424d82615335565b604082019050919050565b6000614265603483614b40565b915061427082615384565b604082019050919050565b6000614288600083614b35565b9150614293826153d3565b600082019050919050565b60006142ab602b83614b40565b91506142b6826153d6565b604082019050919050565b60006142ce601f83614b40565b91506142d982615425565b602082019050919050565b6080820160008201516142fa60008501826143aa565b50602082015161430d6020850182613f28565b506040820151614320604085018261438c565b5060608201516143336060850182614339565b50505050565b61434281614c6f565b82525050565b61435181614c6f565b82525050565b61436081614c9d565b82525050565b61436f81614c9d565b82525050565b61438661438182614c9d565b614dca565b82525050565b61439581614ca7565b82525050565b6143a481614ca7565b82525050565b6143b381614cb7565b82525050565b6143c281614cb7565b82525050565b60006143d48284613f46565b915081905092915050565b60006143ea8261427b565b9150819050919050565b60006144008287614375565b6020820191506144108286614375565b6020820191506144208285613ea4565b6014820191506144308284614375565b60208201915081905095945050505050565b60006020820190506144576000830184613e95565b92915050565b60006040820190506144726000830185613e95565b61447f6020830184613e95565b9392505050565b600060808201905061449b6000830187613e95565b6144a86020830186614366565b6144b56040830185614366565b6144c26060830184614366565b95945050505050565b600060a0820190506144e06000830188613e95565b6144ed6020830187614366565b6144fa6040830186614366565b6145076060830185614366565b6145146080830184614366565b9695505050505050565b600060208201905081810360008301526145388184613ebb565b905092915050565b60006020820190506145556000830184613f19565b92915050565b60006040820190506145706000830185613f19565b81810360208301526145828184613ebb565b90509392505050565b60006040820190506145a06000830185613f19565b6145ad6020830184613f19565b9392505050565b60006020820190506145c96000830184613f37565b92915050565b600060a0820190506145e46000830188613f37565b6145f160208301876143b9565b6145fe6040830186614348565b61460b606083018561439b565b614618608083018461439b565b9695505050505050565b60006020820190506146376000830184613f77565b92915050565b600060208201905081810360008301526146578184613f86565b905092915050565b6000602082019050818103600083015261467881613fbf565b9050919050565b6000602082019050818103600083015261469881613fe2565b9050919050565b600060208201905081810360008301526146b881614005565b9050919050565b600060208201905081810360008301526146d881614028565b9050919050565b600060208201905081810360008301526146f88161404b565b9050919050565b600060208201905081810360008301526147188161406e565b9050919050565b6000602082019050818103600083015261473881614091565b9050919050565b60006020820190508181036000830152614758816140b4565b9050919050565b60006020820190508181036000830152614778816140d7565b9050919050565b60006020820190508181036000830152614798816140fa565b9050919050565b600060208201905081810360008301526147b88161411d565b9050919050565b600060208201905081810360008301526147d881614140565b9050919050565b600060208201905081810360008301526147f881614163565b9050919050565b6000602082019050818103600083015261481881614186565b9050919050565b60006020820190508181036000830152614838816141a9565b9050919050565b60006020820190508181036000830152614858816141cc565b9050919050565b60006020820190508181036000830152614878816141ef565b9050919050565b6000602082019050818103600083015261489881614212565b9050919050565b600060208201905081810360008301526148b881614235565b9050919050565b600060208201905081810360008301526148d881614258565b9050919050565b600060208201905081810360008301526148f88161429e565b9050919050565b60006020820190508181036000830152614918816142c1565b9050919050565b600060808201905061493460008301846142e4565b92915050565b600060208201905061494f6000830184614366565b92915050565b600060608201905061496a6000830186614366565b6149776020830185614366565b81810360408301526149898184613ebb565b9050949350505050565b6000610120820190506149a9600083018c614366565b6149b6602083018b614366565b6149c3604083018a614366565b6149d06060830189614366565b6149dd6080830188614366565b6149ea60a0830187614366565b6149f760c0830186614366565b614a0460e0830185614366565b614a12610100830184614366565b9a9950505050505050505050565b6000604082019050614a356000830185614366565b614a42602083018461439b565b9392505050565b6000602082019050614a5e600083018461439b565b92915050565b6000614a6e614a7f565b9050614a7a8282614d2c565b919050565b6000604051905090565b600067ffffffffffffffff821115614aa457614aa3614e92565b5b602082029050602081019050919050565b600067ffffffffffffffff821115614ad057614acf614e92565b5b614ad982614edf565b9050602081019050919050565b6000819050602082019050919050565b600081519050919050565b600081519050919050565b600081519050919050565b6000602082019050919050565b600082825260208201905092915050565b600081905092915050565b600082825260208201905092915050565b6000614b5c82614c9d565b9150614b6783614c9d565b9250827fffffffffffffffffffffffffffffffffffffffffffffffffffffffffffffffff03821115614b9c57614b9b614e05565b5b828201905092915050565b6000614bb282614c9d565b9150614bbd83614c9d565b9250817fffffffffffffffffffffffffffffffffffffffffffffffffffffffffffffffff0483118215151615614bf657614bf5614e05565b5b828202905092915050565b6000614c0c82614c9d565b9150614c1783614c9d565b925082821015614c2a57614c29614e05565b5b828203905092915050565b6000614c4082614c7d565b9050919050565b6000614c5282614c7d565b9050919050565b60008115159050919050565b6000819050919050565b600061ffff82169050919050565b600073ffffffffffffffffffffffffffffffffffffffff82169050919050565b6000819050919050565b600063ffffffff82169050919050565b600067ffffffffffffffff82169050919050565b600060ff82169050919050565b6000614ce382614ccb565b9050919050565b82818337600083830152505050565b60005b83811015614d17578082015181840152602081019050614cfc565b83811115614d26576000848401525b50505050565b614d3582614edf565b810181811067ffffffffffffffff82111715614d5457614d53614e92565b5b80604052505050565b6000614d6882614c9d565b91507fffffffffffffffffffffffffffffffffffffffffffffffffffffffffffffffff821415614d9b57614d9a614e05565b5b600182019050919050565b6000614db182614db8565b9050919050565b6000614dc382614ef0565b9050919050565b6000819050919050565b6000614ddf82614c9d565b9150614dea83614c9d565b925082614dfa57614df9614e34565b5b828206905092915050565b7f4e487b7100000000000000000000000000000000000000000000000000000000600052601160045260246000fd5b7f4e487b7100000000000000000000000000000000000000000000000000000000600052601260045260246000fd5b7f4e487b7100000000000000000000000000000000000000000000000000000000600052603260045260246000fd5b7f4e487b7100000000000000000000000000000000000000000000000000000000600052604160045260246000fd5b600080fd5b600080fd5b600080fd5b600080fd5b600080fd5b600080fd5b6000601f19601f8301169050919050565b60008160601b9050919050565b7f72657175657374206e6f7420666f756e64000000000000000000000000000000600082015250565b7f4f776e61626c653a206e6577206f776e657220697320746865207a65726f206160008201527f6464726573730000000000000000000000000000000000000000000000000000602082015250565b7f46756e6374696f6e206d7573742062652063616c6c6564207468726f7567682060008201527f64656c656761746563616c6c0000000000000000000000000000000000000000602082015250565b7f46756e6374696f6e206d7573742062652063616c6c6564207468726f7567682060008201527f6163746976652070726f78790000000000000000000000000000000000000000602082015250565b7f416c726561647920737461727465640000000000000000000000000000000000600082015250565b7f6e6f7468696e6720746f20636c61696d00000000000000000000000000000000600082015250565b7f555550535570677261646561626c653a206d757374206e6f742062652063616c60008201527f6c6564207468726f7567682064656c656761746563616c6c0000000000000000602082015250565b7f4e6f7420656e6f756768206d6f6e657920746f20666c69700000000000000000600082015250565b7f45524331393637557067726164653a20756e737570706f727465642070726f7860008201527f6961626c65555549440000000000000000000000000000000000000000000000602082015250565b7f496e697469616c697a61626c653a20636f6e747261637420697320616c72656160008201527f647920696e697469616c697a6564000000000000000000000000000000000000602082015250565b7f63616c6c6572206973206e6f7420746865206f70657261746f72730000000000600082015250565b7f45524331393637557067726164653a206e657720696d706c656d656e7461746960008201527f6f6e206973206e6f742055555053000000000000000000000000000000000000602082015250565b7f455243313936373a206e657720696d706c656d656e746174696f6e206973206e60008201527f6f74206120636f6e747261637400000000000000000000000000000000000000602082015250565b7f4f776e61626c653a2063616c6c6572206973206e6f7420746865206f776e6572600082015250565b7f496e76616c69642062657420616d6f756e740000000000000000000000000000600082015250565b7f4661696c656420746f20636c61696d0000000000000000000000000000000000600082015250565b7f416464726573733a2064656c65676174652063616c6c20746f206e6f6e2d636f60008201527f6e74726163740000000000000000000000000000000000000000000000000000602082015250565b7f496e76616c696420486561642f5461696c20696e707574000000000000000000600082015250565b7f63616e2774206e6f74207472616e73666572206d6f6e657920746f206665655760008201527f616c6c6574000000000000000000000000000000000000000000000000000000602082015250565b7f506c65617365207761697420756e74696c20796f75722070726576696f75732060008201527f666c697070696e672069732066696e6973686564000000000000000000000000602082015250565b50565b7f496e697469616c697a61626c653a20636f6e7472616374206973206e6f74206960008201527f6e697469616c697a696e67000000000000000000000000000000000000000000602082015250565b7f5265656e7472616e637947756172643a207265656e7472616e742063616c6c00600082015250565b61545781614c35565b811461546257600080fd5b50565b61546e81614c47565b811461547957600080fd5b50565b61548581614c65565b811461549057600080fd5b50565b61549c81614c6f565b81146154a757600080fd5b50565b6154b381614c9d565b81146154be57600080fd5b50565b6154ca81614ca7565b81146154d557600080fd5b50565b6154e181614cb7565b81146154ec57600080fd5b5056fe416464726573733a206c6f772d6c6576656c2064656c65676174652063616c6c206661696c6564a264697066735822122008f821382d28245166b8af2c669b948aabd98e47036af280456394bdf3fe23fa64736f6c63430008070033",
  "linkReferences": {},
  "deployedLinkReferences": {}
}