{
  "_format": "hh-sol-artifact-1",
  "contractName": "DeoddShop",
  "sourceName": "contracts/DeoddShop.sol",
  "abi": [
    {
      "anonymous": false,
      "inputs": [
        {
          "indexed": false,
          "internalType": "address",
          "name": "previousAdmin",
          "type": "address"
        },
        {
          "indexed": false,
          "internalType": "address",
          "name": "newAdmin",
          "type": "address"
        }
      ],
      "name": "AdminChanged",
      "type": "event"
    },
    {
      "anonymous": false,
      "inputs": [
        {
          "indexed": true,
          "internalType": "address",
          "name": "beacon",
          "type": "address"
        }
      ],
      "name": "BeaconUpgraded",
      "type": "event"
    },
    {
      "anonymous": false,
      "inputs": [
        {
          "indexed": false,
          "internalType": "uint8",
          "name": "version",
          "type": "uint8"
        }
      ],
      "name": "Initialized",
      "type": "event"
    },
    {
      "anonymous": false,
      "inputs": [
        {
          "indexed": true,
          "internalType": "address",
          "name": "wallet",
          "type": "address"
        },
        {
          "indexed": false,
          "internalType": "address",
          "name": "tokenAddress",
          "type": "address"
        },
        {
          "indexed": false,
          "internalType": "uint256",
          "name": "tokenId",
          "type": "uint256"
        },
        {
          "indexed": false,
          "internalType": "uint256",
          "name": "amount",
          "type": "uint256"
        },
        {
          "indexed": false,
          "internalType": "uint256",
          "name": "timestamp",
          "type": "uint256"
        }
      ],
      "name": "ItemSold",
      "type": "event"
    },
    {
      "anonymous": false,
      "inputs": [
        {
          "indexed": true,
          "internalType": "address",
          "name": "previousOwner",
          "type": "address"
        },
        {
          "indexed": true,
          "internalType": "address",
          "name": "newOwner",
          "type": "address"
        }
      ],
      "name": "OwnershipTransferred",
      "type": "event"
    },
    {
      "anonymous": false,
      "inputs": [
        {
          "indexed": false,
          "internalType": "address",
          "name": "from",
          "type": "address"
        },
        {
          "indexed": false,
          "internalType": "uint256",
          "name": "amount",
          "type": "uint256"
        }
      ],
      "name": "ReceiveBNB",
      "type": "event"
    },
    {
      "anonymous": false,
      "inputs": [
        {
          "indexed": true,
          "internalType": "address",
          "name": "implementation",
          "type": "address"
        }
      ],
      "name": "Upgraded",
      "type": "event"
    },
    {
      "inputs": [
        {
          "internalType": "uint256",
          "name": "tokenId",
          "type": "uint256"
        }
      ],
      "name": "availableToken",
      "outputs": [
        {
          "internalType": "bool",
          "name": "",
          "type": "bool"
        }
      ],
      "stateMutability": "view",
      "type": "function"
    },
    {
      "inputs": [
        {
          "internalType": "uint256",
          "name": "typeId",
          "type": "uint256"
        }
      ],
      "name": "getBNBPrice",
      "outputs": [
        {
          "internalType": "uint256",
          "name": "",
          "type": "uint256"
        }
      ],
      "stateMutability": "view",
      "type": "function"
    },
    {
      "inputs": [],
      "name": "getImplementation",
      "outputs": [
        {
          "internalType": "address",
          "name": "",
          "type": "address"
        }
      ],
      "stateMutability": "view",
      "type": "function"
    },
    {
      "inputs": [
        {
          "internalType": "uint256",
          "name": "typeId",
          "type": "uint256"
        }
      ],
      "name": "getTokenPrice",
      "outputs": [
        {
          "internalType": "uint256",
          "name": "",
          "type": "uint256"
        }
      ],
      "stateMutability": "view",
      "type": "function"
    },
    {
      "inputs": [
        {
          "internalType": "address",
          "name": "_nft",
          "type": "address"
        }
      ],
      "name": "initialize",
      "outputs": [],
      "stateMutability": "nonpayable",
      "type": "function"
    },
    {
      "inputs": [],
      "name": "openShop",
      "outputs": [],
      "stateMutability": "nonpayable",
      "type": "function"
    },
    {
      "inputs": [],
      "name": "owner",
      "outputs": [
        {
          "internalType": "address",
          "name": "",
          "type": "address"
        }
      ],
      "stateMutability": "view",
      "type": "function"
    },
    {
      "inputs": [],
      "name": "proxiableUUID",
      "outputs": [
        {
          "internalType": "bytes32",
          "name": "",
          "type": "bytes32"
        }
      ],
      "stateMutability": "view",
      "type": "function"
    },
    {
      "inputs": [
        {
          "internalType": "uint256",
          "name": "tokenId",
          "type": "uint256"
        }
      ],
      "name": "purchaseItemByBNB",
      "outputs": [],
      "stateMutability": "payable",
      "type": "function"
    },
    {
      "inputs": [
        {
          "internalType": "uint256",
          "name": "tokenId",
          "type": "uint256"
        }
      ],
      "name": "purchaseItemByToken",
      "outputs": [],
      "stateMutability": "nonpayable",
      "type": "function"
    },
    {
      "inputs": [],
      "name": "renounceOwnership",
      "outputs": [],
      "stateMutability": "nonpayable",
      "type": "function"
    },
    {
      "inputs": [
        {
          "internalType": "uint256",
          "name": "typeId",
          "type": "uint256"
        },
        {
          "internalType": "uint256",
          "name": "p",
          "type": "uint256"
        }
      ],
      "name": "setBNBPrice",
      "outputs": [],
      "stateMutability": "nonpayable",
      "type": "function"
    },
    {
      "inputs": [
        {
          "internalType": "address",
          "name": "destWallet",
          "type": "address"
        }
      ],
      "name": "setDestWallet",
      "outputs": [],
      "stateMutability": "nonpayable",
      "type": "function"
    },
    {
      "inputs": [
        {
          "internalType": "address",
          "name": "_nft",
          "type": "address"
        }
      ],
      "name": "setItem",
      "outputs": [],
      "stateMutability": "nonpayable",
      "type": "function"
    },
    {
      "inputs": [
        {
          "internalType": "uint256",
          "name": "st",
          "type": "uint256"
        },
        {
          "internalType": "uint256",
          "name": "et",
          "type": "uint256"
        }
      ],
      "name": "setOpeningTime",
      "outputs": [],
      "stateMutability": "nonpayable",
      "type": "function"
    },
    {
      "inputs": [
        {
          "internalType": "address",
          "name": "tokenAddress",
          "type": "address"
        },
        {
          "internalType": "uint256",
          "name": "typeId",
          "type": "uint256"
        },
        {
          "internalType": "uint256",
          "name": "p",
          "type": "uint256"
        }
      ],
      "name": "setTokenPrice",
      "outputs": [],
      "stateMutability": "nonpayable",
      "type": "function"
    },
    {
      "inputs": [
        {
          "internalType": "address",
          "name": "newOwner",
          "type": "address"
        }
      ],
      "name": "transferOwnership",
      "outputs": [],
      "stateMutability": "nonpayable",
      "type": "function"
    },
    {
      "inputs": [
        {
          "internalType": "address",
          "name": "newImplementation",
          "type": "address"
        }
      ],
      "name": "upgradeTo",
      "outputs": [],
      "stateMutability": "nonpayable",
      "type": "function"
    },
    {
      "inputs": [
        {
          "internalType": "address",
          "name": "newImplementation",
          "type": "address"
        },
        {
          "internalType": "bytes",
          "name": "data",
          "type": "bytes"
        }
      ],
      "name": "upgradeToAndCall",
      "outputs": [],
      "stateMutability": "payable",
      "type": "function"
    },
    {
      "inputs": [
        {
          "internalType": "address",
          "name": "to",
          "type": "address"
        },
        {
          "internalType": "bool",
          "name": "allBNB",
          "type": "bool"
        },
        {
          "internalType": "uint256",
          "name": "amount",
          "type": "uint256"
        }
      ],
      "name": "withdrawBNB",
      "outputs": [],
      "stateMutability": "nonpayable",
      "type": "function"
    },
    {
      "inputs": [
        {
          "internalType": "address",
          "name": "to",
          "type": "address"
        },
        {
          "internalType": "uint256",
          "name": "amount",
          "type": "uint256"
        }
      ],
      "name": "withdrawToken",
      "outputs": [],
      "stateMutability": "nonpayable",
      "type": "function"
    },
    {
      "stateMutability": "payable",
      "type": "receive"
    }
  ],
  "bytecode": "0x60a06040523073ffffffffffffffffffffffffffffffffffffffff1660809073ffffffffffffffffffffffffffffffffffffffff1660601b81525034801561004657600080fd5b5060805160601c6131e2610081600039600081816106e901528181610778015281816108720152818161090101526109b101526131e26000f3fe60806040526004361061012e5760003560e01c80638da5cb5b116100ab578063aaf10f421161006f578063aaf10f42146103c8578063c457fb37146103f3578063c4d66de814610430578063eb1c031614610459578063f2fde38b14610482578063f764b9a0146104ab5761016e565b80638da5cb5b146103185780639e281a98146103435780639e2fbfc61461036c578063a30e5c4d14610395578063a6f5a22b146103b15761016e565b80634f1ef286116100f25780634f1ef2861461026857806352d1902d14610284578063548acb76146102af5780636f4f4eae146102d8578063715018a6146103015761016e565b80630213c80d146101735780630b07180d1461019c578063165ed276146101d95780631af92bcb146102025780633659cfe61461023f5761016e565b3661016e577f344d9d9b1c237ca7e367c0536bc9744a50eb5d6976b76f09a09cb3e7e871df5d333460405161016492919061275d565b60405180910390a1005b600080fd5b34801561017f57600080fd5b5061019a6004803603810190610195919061232e565b6104d4565b005b3480156101a857600080fd5b506101c360048036038101906101be91906122d4565b610580565b6040516101d091906127cb565b60405180910390f35b3480156101e557600080fd5b5061020060048036038101906101fb919061210b565b610639565b005b34801561020e57600080fd5b50610229600480360381019061022491906122d4565b610685565b6040516102369190612a9e565b60405180910390f35b34801561024b57600080fd5b506102666004803603810190610261919061210b565b6106e7565b005b610282600480360381019061027d919061218b565b610870565b005b34801561029057600080fd5b506102996109ad565b6040516102a691906127e6565b60405180910390f35b3480156102bb57600080fd5b506102d660048036038101906102d19190612138565b610a66565b005b3480156102e457600080fd5b506102ff60048036038101906102fa91906122d4565b610c1c565b005b34801561030d57600080fd5b5061031661103c565b005b34801561032457600080fd5b5061032d611050565b60405161033a919061270b565b60405180910390f35b34801561034f57600080fd5b5061036a600480360381019061036591906121e7565b61107a565b005b34801561037857600080fd5b50610393600480360381019061038e919061232e565b611136565b005b6103af60048036038101906103aa91906122d4565b611150565b005b3480156103bd57600080fd5b506103c661154a565b005b3480156103d457600080fd5b506103dd61155b565b6040516103ea919061270b565b60405180910390f35b3480156103ff57600080fd5b5061041a600480360381019061041591906122d4565b61156a565b6040516104279190612a9e565b60405180910390f35b34801561043c57600080fd5b506104576004803603810190610452919061210b565b6115cc565b005b34801561046557600080fd5b50610480600480360381019061047b9190612227565b6117ad565b005b34801561048e57600080fd5b506104a960048036038101906104a4919061210b565b611856565b005b3480156104b757600080fd5b506104d260048036038101906104cd919061210b565b6118da565b005b6104dc611926565b8160038110610520576040517f08c379a00000000000000000000000000000000000000000000000000000000081526004016105179061287e565b60405180910390fd5b60008211610563576040517f08c379a000000000000000000000000000000000000000000000000000000000815260040161055a90612a3e565b60405180910390fd5b8160cb600085815260200190815260200160002081905550505050565b600080151560cd60009054906101000a900473ffffffffffffffffffffffffffffffffffffffff1673ffffffffffffffffffffffffffffffffffffffff1662923f9e846040518263ffffffff1660e01b81526004016105df9190612a9e565b60206040518083038186803b1580156105f757600080fd5b505afa15801561060b573d6000803e3d6000fd5b505050506040513d601f19601f8201168201806040525081019061062f919061227a565b1515149050919050565b610641611926565b8060cd60006101000a81548173ffffffffffffffffffffffffffffffffffffffff021916908373ffffffffffffffffffffffffffffffffffffffff16021790555050565b600081600381106106cb576040517f08c379a00000000000000000000000000000000000000000000000000000000081526004016106c29061287e565b60405180910390fd5b60cb600084815260200190815260200160002054915050919050565b7f000000000000000000000000000000000000000000000000000000000000000073ffffffffffffffffffffffffffffffffffffffff163073ffffffffffffffffffffffffffffffffffffffff161415610776576040517f08c379a000000000000000000000000000000000000000000000000000000000815260040161076d9061285e565b60405180910390fd5b7f000000000000000000000000000000000000000000000000000000000000000073ffffffffffffffffffffffffffffffffffffffff166107b56119a4565b73ffffffffffffffffffffffffffffffffffffffff161461080b576040517f08c379a0000000000000000000000000000000000000000000000000000000008152600401610802906128be565b60405180910390fd5b610814816119fb565b61086d81600067ffffffffffffffff81111561083357610832612c25565b5b6040519080825280601f01601f1916602001820160405280156108655781602001600182028036833780820191505090505b506000611a06565b50565b7f000000000000000000000000000000000000000000000000000000000000000073ffffffffffffffffffffffffffffffffffffffff163073ffffffffffffffffffffffffffffffffffffffff1614156108ff576040517f08c379a00000000000000000000000000000000000000000000000000000000081526004016108f69061285e565b60405180910390fd5b7f000000000000000000000000000000000000000000000000000000000000000073ffffffffffffffffffffffffffffffffffffffff1661093e6119a4565b73ffffffffffffffffffffffffffffffffffffffff1614610994576040517f08c379a000000000000000000000000000000000000000000000000000000000815260040161098b906128be565b60405180910390fd5b61099d826119fb565b6109a982826001611a06565b5050565b60007f000000000000000000000000000000000000000000000000000000000000000073ffffffffffffffffffffffffffffffffffffffff163073ffffffffffffffffffffffffffffffffffffffff1614610a3d576040517f08c379a0000000000000000000000000000000000000000000000000000000008152600401610a349061291e565b60405180910390fd5b7f360894a13ba1a3210667c828492db98dca3e2076cc3735a920a3ca505d382bbc60001b905090565b610a6e611926565b8115610b265760008373ffffffffffffffffffffffffffffffffffffffff1647604051610a9a906126f6565b60006040518083038185875af1925050503d8060008114610ad7576040519150601f19603f3d011682016040523d82523d6000602084013e610adc565b606091505b5050905080610b20576040517f08c379a0000000000000000000000000000000000000000000000000000000008152600401610b1790612a5e565b60405180910390fd5b50610c17565b47811115610b69576040517f08c379a0000000000000000000000000000000000000000000000000000000008152600401610b60906129be565b60405180910390fd5b60008373ffffffffffffffffffffffffffffffffffffffff1682604051610b8f906126f6565b60006040518083038185875af1925050503d8060008114610bcc576040519150601f19603f3d011682016040523d82523d6000602084013e610bd1565b606091505b5050905080610c15576040517f08c379a0000000000000000000000000000000000000000000000000000000008152600401610c0c90612a5e565b60405180910390fd5b505b505050565b8060cd60009054906101000a900473ffffffffffffffffffffffffffffffffffffffff1673ffffffffffffffffffffffffffffffffffffffff16639f776ada826040518263ffffffff1660e01b8152600401610c789190612a9e565b60206040518083038186803b158015610c9057600080fd5b505afa158015610ca4573d6000803e3d6000fd5b505050506040513d601f19601f82011682018060405250810190610cc8919061227a565b610d07576040517f08c379a0000000000000000000000000000000000000000000000000000000008152600401610cfe9061289e565b60405180910390fd5b4260ce5411158015610d1a575060cf5442105b610d59576040517f08c379a0000000000000000000000000000000000000000000000000000000008152600401610d50906128de565b60405180910390fd5b600060ca600060cd60009054906101000a900473ffffffffffffffffffffffffffffffffffffffff1673ffffffffffffffffffffffffffffffffffffffff1663127d5ad0866040518263ffffffff1660e01b8152600401610dba9190612a9e565b60206040518083038186803b158015610dd257600080fd5b505afa158015610de6573d6000803e3d6000fd5b505050506040513d601f19601f82011682018060405250810190610e0a9190612301565b815260200190815260200160002054905060008111610e5e576040517f08c379a0000000000000000000000000000000000000000000000000000000008152600401610e559061293e565b60405180910390fd5b60c960009054906101000a900473ffffffffffffffffffffffffffffffffffffffff1673ffffffffffffffffffffffffffffffffffffffff166323b872dd3360cc60009054906101000a900473ffffffffffffffffffffffffffffffffffffffff16846040518463ffffffff1660e01b8152600401610edf93929190612726565b602060405180830381600087803b158015610ef957600080fd5b505af1158015610f0d573d6000803e3d6000fd5b505050506040513d601f19601f82011682018060405250810190610f31919061227a565b5060cd60009054906101000a900473ffffffffffffffffffffffffffffffffffffffff1673ffffffffffffffffffffffffffffffffffffffff166340c10f1933856040518363ffffffff1660e01b8152600401610f8f92919061275d565b600060405180830381600087803b158015610fa957600080fd5b505af1158015610fbd573d6000803e3d6000fd5b505050503373ffffffffffffffffffffffffffffffffffffffff167ff02db46465eb9e76c10f2aa3eb522115e5f8dc7da63fc2e81ce4f984b775816e60c960009054906101000a900473ffffffffffffffffffffffffffffffffffffffff1685844260405161102f9493929190612786565b60405180910390a2505050565b611044611926565b61104e6000611b83565b565b6000603360009054906101000a900473ffffffffffffffffffffffffffffffffffffffff16905090565b611082611926565b60c960009054906101000a900473ffffffffffffffffffffffffffffffffffffffff1673ffffffffffffffffffffffffffffffffffffffff1663a9059cbb83836040518363ffffffff1660e01b81526004016110df92919061275d565b602060405180830381600087803b1580156110f957600080fd5b505af115801561110d573d6000803e3d6000fd5b505050506040513d601f19601f82011682018060405250810190611131919061227a565b505050565b61113e611926565b8160ce819055508060cf819055505050565b8060cd60009054906101000a900473ffffffffffffffffffffffffffffffffffffffff1673ffffffffffffffffffffffffffffffffffffffff16639f776ada826040518263ffffffff1660e01b81526004016111ac9190612a9e565b60206040518083038186803b1580156111c457600080fd5b505afa1580156111d8573d6000803e3d6000fd5b505050506040513d601f19601f820116820180604052508101906111fc919061227a565b61123b576040517f08c379a00000000000000000000000000000000000000000000000000000000081526004016112329061289e565b60405180910390fd5b4260ce541115801561124e575060cf5442105b61128d576040517f08c379a0000000000000000000000000000000000000000000000000000000008152600401611284906128de565b60405180910390fd5b600060cb600060cd60009054906101000a900473ffffffffffffffffffffffffffffffffffffffff1673ffffffffffffffffffffffffffffffffffffffff1663127d5ad0866040518263ffffffff1660e01b81526004016112ee9190612a9e565b60206040518083038186803b15801561130657600080fd5b505afa15801561131a573d6000803e3d6000fd5b505050506040513d601f19601f8201168201806040525081019061133e9190612301565b815260200190815260200160002054905060008111611392576040517f08c379a00000000000000000000000000000000000000000000000000000000081526004016113899061293e565b60405180910390fd5b600060cc60009054906101000a900473ffffffffffffffffffffffffffffffffffffffff1673ffffffffffffffffffffffffffffffffffffffff16826040516113da906126f6565b60006040518083038185875af1925050503d8060008114611417576040519150601f19603f3d011682016040523d82523d6000602084013e61141c565b606091505b5050905080611460576040517f08c379a0000000000000000000000000000000000000000000000000000000008152600401611457906128fe565b60405180910390fd5b60cd60009054906101000a900473ffffffffffffffffffffffffffffffffffffffff1673ffffffffffffffffffffffffffffffffffffffff166340c10f1933866040518363ffffffff1660e01b81526004016114bd92919061275d565b600060405180830381600087803b1580156114d757600080fd5b505af11580156114eb573d6000803e3d6000fd5b505050503373ffffffffffffffffffffffffffffffffffffffff167ff02db46465eb9e76c10f2aa3eb522115e5f8dc7da63fc2e81ce4f984b775816e600086854260405161153c9493929190612786565b60405180910390a250505050565b611552611926565b4260ce81905550565b60006115656119a4565b905090565b600081600381106115b0576040517f08c379a00000000000000000000000000000000000000000000000000000000081526004016115a79061287e565b60405180910390fd5b60ca600084815260200190815260200160002054915050919050565b60008060019054906101000a900460ff161590508080156115fd5750600160008054906101000a900460ff1660ff16105b8061162a575061160c30611c49565b1580156116295750600160008054906101000a900460ff1660ff16145b5b611669576040517f08c379a00000000000000000000000000000000000000000000000000000000081526004016116609061297e565b60405180910390fd5b60016000806101000a81548160ff021916908360ff16021790555080156116a6576001600060016101000a81548160ff0219169083151502179055505b6116ae611c6c565b6116b6611cc5565b8160cd60006101000a81548173ffffffffffffffffffffffffffffffffffffffff021916908373ffffffffffffffffffffffffffffffffffffffff1602179055503060cc60006101000a81548173ffffffffffffffffffffffffffffffffffffffff021916908373ffffffffffffffffffffffffffffffffffffffff1602179055506402540be3ff60ce819055506402540be3ff60cf8190555080156117a95760008060016101000a81548160ff0219169083151502179055507f7f26b83ff96e1f2b6a682f133852f6798a09c465da95921460cefb384740249860016040516117a09190612801565b60405180910390a15b5050565b6117b5611926565b600081116117f8576040517f08c379a00000000000000000000000000000000000000000000000000000000081526004016117ef90612a3e565b60405180910390fd5b8260c960006101000a81548173ffffffffffffffffffffffffffffffffffffffff021916908373ffffffffffffffffffffffffffffffffffffffff1602179055508060ca600084815260200190815260200160002081905550505050565b61185e611926565b600073ffffffffffffffffffffffffffffffffffffffff168173ffffffffffffffffffffffffffffffffffffffff1614156118ce576040517f08c379a00000000000000000000000000000000000000000000000000000000081526004016118c59061283e565b60405180910390fd5b6118d781611b83565b50565b6118e2611926565b8060cc60006101000a81548173ffffffffffffffffffffffffffffffffffffffff021916908373ffffffffffffffffffffffffffffffffffffffff16021790555050565b61192e611d16565b73ffffffffffffffffffffffffffffffffffffffff1661194c611050565b73ffffffffffffffffffffffffffffffffffffffff16146119a2576040517f08c379a0000000000000000000000000000000000000000000000000000000008152600401611999906129fe565b60405180910390fd5b565b60006119d27f360894a13ba1a3210667c828492db98dca3e2076cc3735a920a3ca505d382bbc60001b611d1e565b60000160009054906101000a900473ffffffffffffffffffffffffffffffffffffffff16905090565b611a03611926565b50565b611a327f4910fdfa16fed3260ed0e7147f7cc6da11a60208b5b9406d12a635614ffd914360001b611d28565b60000160009054906101000a900460ff1615611a5657611a5183611d32565b611b7e565b8273ffffffffffffffffffffffffffffffffffffffff166352d1902d6040518163ffffffff1660e01b815260040160206040518083038186803b158015611a9c57600080fd5b505afa925050508015611acd57506040513d601f19601f82011682018060405250810190611aca91906122a7565b60015b611b0c576040517f08c379a0000000000000000000000000000000000000000000000000000000008152600401611b039061299e565b60405180910390fd5b7f360894a13ba1a3210667c828492db98dca3e2076cc3735a920a3ca505d382bbc60001b8114611b71576040517f08c379a0000000000000000000000000000000000000000000000000000000008152600401611b689061295e565b60405180910390fd5b50611b7d838383611deb565b5b505050565b6000603360009054906101000a900473ffffffffffffffffffffffffffffffffffffffff16905081603360006101000a81548173ffffffffffffffffffffffffffffffffffffffff021916908373ffffffffffffffffffffffffffffffffffffffff1602179055508173ffffffffffffffffffffffffffffffffffffffff168173ffffffffffffffffffffffffffffffffffffffff167f8be0079c531659141344cd1fd0a4f28419497f9722a3daafe3b4186f6b6457e060405160405180910390a35050565b6000808273ffffffffffffffffffffffffffffffffffffffff163b119050919050565b600060019054906101000a900460ff16611cbb576040517f08c379a0000000000000000000000000000000000000000000000000000000008152600401611cb290612a7e565b60405180910390fd5b611cc3611e17565b565b600060019054906101000a900460ff16611d14576040517f08c379a0000000000000000000000000000000000000000000000000000000008152600401611d0b90612a7e565b60405180910390fd5b565b600033905090565b6000819050919050565b6000819050919050565b611d3b81611c49565b611d7a576040517f08c379a0000000000000000000000000000000000000000000000000000000008152600401611d71906129de565b60405180910390fd5b80611da77f360894a13ba1a3210667c828492db98dca3e2076cc3735a920a3ca505d382bbc60001b611d1e565b60000160006101000a81548173ffffffffffffffffffffffffffffffffffffffff021916908373ffffffffffffffffffffffffffffffffffffffff16021790555050565b611df483611e78565b600082511180611e015750805b15611e1257611e108383611ec7565b505b505050565b600060019054906101000a900460ff16611e66576040517f08c379a0000000000000000000000000000000000000000000000000000000008152600401611e5d90612a7e565b60405180910390fd5b611e76611e71611d16565b611b83565b565b611e8181611d32565b8073ffffffffffffffffffffffffffffffffffffffff167fbc7cd75a20ee27fd9adebab32041f755214dbc6bffa90cc0225b39da2e5c2d3b60405160405180910390a250565b6060611ed283611c49565b611f11576040517f08c379a0000000000000000000000000000000000000000000000000000000008152600401611f0890612a1e565b60405180910390fd5b6000808473ffffffffffffffffffffffffffffffffffffffff1684604051611f3991906126df565b600060405180830381855af49150503d8060008114611f74576040519150601f19603f3d011682016040523d82523d6000602084013e611f79565b606091505b5091509150611fa1828260405180606001604052806027815260200161318660279139611fab565b9250505092915050565b60608315611fbb57829050611fc6565b611fc58383611fcd565b5b9392505050565b600082511115611fe05781518083602001fd5b806040517f08c379a0000000000000000000000000000000000000000000000000000000008152600401612014919061281c565b60405180910390fd5b600061203061202b84612ade565b612ab9565b90508281526020810184848401111561204c5761204b612c59565b5b612057848285612bb2565b509392505050565b60008135905061206e81613129565b92915050565b60008135905061208381613140565b92915050565b60008151905061209881613140565b92915050565b6000815190506120ad81613157565b92915050565b600082601f8301126120c8576120c7612c54565b5b81356120d884826020860161201d565b91505092915050565b6000813590506120f08161316e565b92915050565b6000815190506121058161316e565b92915050565b60006020828403121561212157612120612c63565b5b600061212f8482850161205f565b91505092915050565b60008060006060848603121561215157612150612c63565b5b600061215f8682870161205f565b935050602061217086828701612074565b9250506040612181868287016120e1565b9150509250925092565b600080604083850312156121a2576121a1612c63565b5b60006121b08582860161205f565b925050602083013567ffffffffffffffff8111156121d1576121d0612c5e565b5b6121dd858286016120b3565b9150509250929050565b600080604083850312156121fe576121fd612c63565b5b600061220c8582860161205f565b925050602061221d858286016120e1565b9150509250929050565b6000806000606084860312156122405761223f612c63565b5b600061224e8682870161205f565b935050602061225f868287016120e1565b9250506040612270868287016120e1565b9150509250925092565b6000602082840312156122905761228f612c63565b5b600061229e84828501612089565b91505092915050565b6000602082840312156122bd576122bc612c63565b5b60006122cb8482850161209e565b91505092915050565b6000602082840312156122ea576122e9612c63565b5b60006122f8848285016120e1565b91505092915050565b60006020828403121561231757612316612c63565b5b6000612325848285016120f6565b91505092915050565b6000806040838503121561234557612344612c63565b5b6000612353858286016120e1565b9250506020612364858286016120e1565b9150509250929050565b61237781612b41565b82525050565b61238681612b53565b82525050565b61239581612b5f565b82525050565b60006123a682612b0f565b6123b08185612b25565b93506123c0818560208601612bc1565b80840191505092915050565b6123d581612ba0565b82525050565b60006123e682612b1a565b6123f08185612b30565b9350612400818560208601612bc1565b61240981612c68565b840191505092915050565b6000612421602683612b30565b915061242c82612c79565b604082019050919050565b6000612444602c83612b30565b915061244f82612cc8565b604082019050919050565b6000612467601a83612b30565b915061247282612d17565b602082019050919050565b600061248a600f83612b30565b915061249582612d40565b602082019050919050565b60006124ad602c83612b30565b91506124b882612d69565b604082019050919050565b60006124d0600f83612b30565b91506124db82612db8565b602082019050919050565b60006124f3601283612b30565b91506124fe82612de1565b602082019050919050565b6000612516603883612b30565b915061252182612e0a565b604082019050919050565b6000612539601683612b30565b915061254482612e59565b602082019050919050565b600061255c602983612b30565b915061256782612e82565b604082019050919050565b600061257f602e83612b30565b915061258a82612ed1565b604082019050919050565b60006125a2602e83612b30565b91506125ad82612f20565b604082019050919050565b60006125c5601c83612b30565b91506125d082612f6f565b602082019050919050565b60006125e8602d83612b30565b91506125f382612f98565b604082019050919050565b600061260b602083612b30565b915061261682612fe7565b602082019050919050565b600061262e602683612b30565b915061263982613010565b604082019050919050565b6000612651602083612b30565b915061265c8261305f565b602082019050919050565b6000612674600083612b25565b915061267f82613088565b600082019050919050565b6000612697602383612b30565b91506126a28261308b565b604082019050919050565b60006126ba602b83612b30565b91506126c5826130da565b604082019050919050565b6126d981612b89565b82525050565b60006126eb828461239b565b915081905092915050565b600061270182612667565b9150819050919050565b6000602082019050612720600083018461236e565b92915050565b600060608201905061273b600083018661236e565b612748602083018561236e565b61275560408301846126d0565b949350505050565b6000604082019050612772600083018561236e565b61277f60208301846126d0565b9392505050565b600060808201905061279b600083018761236e565b6127a860208301866126d0565b6127b560408301856126d0565b6127c260608301846126d0565b95945050505050565b60006020820190506127e0600083018461237d565b92915050565b60006020820190506127fb600083018461238c565b92915050565b600060208201905061281660008301846123cc565b92915050565b6000602082019050818103600083015261283681846123db565b905092915050565b6000602082019050818103600083015261285781612414565b9050919050565b6000602082019050818103600083015261287781612437565b9050919050565b600060208201905081810360008301526128978161245a565b9050919050565b600060208201905081810360008301526128b78161247d565b9050919050565b600060208201905081810360008301526128d7816124a0565b9050919050565b600060208201905081810360008301526128f7816124c3565b9050919050565b60006020820190508181036000830152612917816124e6565b9050919050565b6000602082019050818103600083015261293781612509565b9050919050565b600060208201905081810360008301526129578161252c565b9050919050565b600060208201905081810360008301526129778161254f565b9050919050565b6000602082019050818103600083015261299781612572565b9050919050565b600060208201905081810360008301526129b781612595565b9050919050565b600060208201905081810360008301526129d7816125b8565b9050919050565b600060208201905081810360008301526129f7816125db565b9050919050565b60006020820190508181036000830152612a17816125fe565b9050919050565b60006020820190508181036000830152612a3781612621565b9050919050565b60006020820190508181036000830152612a5781612644565b9050919050565b60006020820190508181036000830152612a778161268a565b9050919050565b60006020820190508181036000830152612a97816126ad565b9050919050565b6000602082019050612ab360008301846126d0565b92915050565b6000612ac3612ad4565b9050612acf8282612bf4565b919050565b6000604051905090565b600067ffffffffffffffff821115612af957612af8612c25565b5b612b0282612c68565b9050602081019050919050565b600081519050919050565b600081519050919050565b600081905092915050565b600082825260208201905092915050565b6000612b4c82612b69565b9050919050565b60008115159050919050565b6000819050919050565b600073ffffffffffffffffffffffffffffffffffffffff82169050919050565b6000819050919050565b600060ff82169050919050565b6000612bab82612b93565b9050919050565b82818337600083830152505050565b60005b83811015612bdf578082015181840152602081019050612bc4565b83811115612bee576000848401525b50505050565b612bfd82612c68565b810181811067ffffffffffffffff82111715612c1c57612c1b612c25565b5b80604052505050565b7f4e487b7100000000000000000000000000000000000000000000000000000000600052604160045260246000fd5b600080fd5b600080fd5b600080fd5b600080fd5b6000601f19601f8301169050919050565b7f4f776e61626c653a206e6577206f776e657220697320746865207a65726f206160008201527f6464726573730000000000000000000000000000000000000000000000000000602082015250565b7f46756e6374696f6e206d7573742062652063616c6c6564207468726f7567682060008201527f64656c656761746563616c6c0000000000000000000000000000000000000000602082015250565b7f53686f703a20696e76616c696420746f6b656e20747970654964000000000000600082015250565b7f496e76616c696420746f6b656e49640000000000000000000000000000000000600082015250565b7f46756e6374696f6e206d7573742062652063616c6c6564207468726f7567682060008201527f6163746976652070726f78790000000000000000000000000000000000000000602082015250565b7f4e6f74206f70656e696e67206e6f770000000000000000000000000000000000600082015250565b7f4661696c656420746f2070757263686173650000000000000000000000000000600082015250565b7f555550535570677261646561626c653a206d757374206e6f742062652063616c60008201527f6c6564207468726f7567682064656c656761746563616c6c0000000000000000602082015250565b7f5072696365206d757374206265206e6f6e2d7a65726f00000000000000000000600082015250565b7f45524331393637557067726164653a20756e737570706f727465642070726f7860008201527f6961626c65555549440000000000000000000000000000000000000000000000602082015250565b7f496e697469616c697a61626c653a20636f6e747261637420697320616c72656160008201527f647920696e697469616c697a6564000000000000000000000000000000000000602082015250565b7f45524331393637557067726164653a206e657720696d706c656d656e7461746960008201527f6f6e206973206e6f742055555053000000000000000000000000000000000000602082015250565b7f636c61696d20616d6f756e7420657863656564732062616c616e636500000000600082015250565b7f455243313936373a206e657720696d706c656d656e746174696f6e206973206e60008201527f6f74206120636f6e747261637400000000000000000000000000000000000000602082015250565b7f4f776e61626c653a2063616c6c6572206973206e6f7420746865206f776e6572600082015250565b7f416464726573733a2064656c65676174652063616c6c20746f206e6f6e2d636f60008201527f6e74726163740000000000000000000000000000000000000000000000000000602082015250565b7f5072696365206d7573742062652067726561746572207468616e207a65726f21600082015250565b50565b7f4661696c656420746f2073656e6420424e422066726f6d2044656f646457616c60008201527f6c65740000000000000000000000000000000000000000000000000000000000602082015250565b7f496e697469616c697a61626c653a20636f6e7472616374206973206e6f74206960008201527f6e697469616c697a696e67000000000000000000000000000000000000000000602082015250565b61313281612b41565b811461313d57600080fd5b50565b61314981612b53565b811461315457600080fd5b50565b61316081612b5f565b811461316b57600080fd5b50565b61317781612b89565b811461318257600080fd5b5056fe416464726573733a206c6f772d6c6576656c2064656c65676174652063616c6c206661696c6564a2646970667358221220b701fca7e5f5e7ab5dd5f645fcd2c1653220cb43aa74688ca582e33851592c2764736f6c63430008070033",
  "linkReferences": {},
  "deployedLinkReferences": {}
}