{
  "_format": "hh-sol-artifact-1",
  "contractName": "Deodd",
  "sourceName": "contracts/Deodd.sol",
  "abi": [
    {
      "inputs": [
        {
          "internalType": "address",
          "name": "have",
          "type": "address"
        },
        {
          "internalType": "address",
          "name": "want",
          "type": "address"
        }
      ],
      "name": "OnlyCoordinatorCanFulfill",
      "type": "error"
    },
    {
      "anonymous": false,
      "inputs": [
        {
          "indexed": false,
          "internalType": "address",
          "name": "previousAdmin",
          "type": "address"
        },
        {
          "indexed": false,
          "internalType": "address",
          "name": "newAdmin",
          "type": "address"
        }
      ],
      "name": "AdminChanged",
      "type": "event"
    },
    {
      "anonymous": false,
      "inputs": [
        {
          "indexed": true,
          "internalType": "address",
          "name": "beacon",
          "type": "address"
        }
      ],
      "name": "BeaconUpgraded",
      "type": "event"
    },
    {
      "anonymous": false,
      "inputs": [
        {
          "indexed": true,
          "internalType": "address",
          "name": "wallet",
          "type": "address"
        },
        {
          "indexed": false,
          "internalType": "uint256",
          "name": "fId",
          "type": "uint256"
        },
        {
          "indexed": false,
          "internalType": "uint256",
          "name": "requestId",
          "type": "uint256"
        },
        {
          "indexed": false,
          "internalType": "uint256",
          "name": "amount",
          "type": "uint256"
        },
        {
          "indexed": false,
          "internalType": "uint256",
          "name": "flipChoice",
          "type": "uint256"
        },
        {
          "indexed": false,
          "internalType": "uint256",
          "name": "requestedAt",
          "type": "uint256"
        }
      ],
      "name": "Flip",
      "type": "event"
    },
    {
      "anonymous": false,
      "inputs": [
        {
          "indexed": true,
          "internalType": "address",
          "name": "wallet",
          "type": "address"
        },
        {
          "indexed": false,
          "internalType": "uint256",
          "name": "fId",
          "type": "uint256"
        },
        {
          "indexed": false,
          "internalType": "uint256",
          "name": "randomValue",
          "type": "uint256"
        },
        {
          "indexed": false,
          "internalType": "uint256",
          "name": "flipResult",
          "type": "uint256"
        },
        {
          "indexed": false,
          "internalType": "uint256",
          "name": "timestamp",
          "type": "uint256"
        }
      ],
      "name": "FlipResult",
      "type": "event"
    },
    {
      "anonymous": false,
      "inputs": [
        {
          "indexed": false,
          "internalType": "uint8",
          "name": "version",
          "type": "uint8"
        }
      ],
      "name": "Initialized",
      "type": "event"
    },
    {
      "anonymous": false,
      "inputs": [
        {
          "indexed": true,
          "internalType": "address",
          "name": "previousOwner",
          "type": "address"
        },
        {
          "indexed": true,
          "internalType": "address",
          "name": "newOwner",
          "type": "address"
        }
      ],
      "name": "OwnershipTransferred",
      "type": "event"
    },
    {
      "anonymous": false,
      "inputs": [
        {
          "indexed": false,
          "internalType": "address",
          "name": "account",
          "type": "address"
        }
      ],
      "name": "Paused",
      "type": "event"
    },
    {
      "anonymous": false,
      "inputs": [
        {
          "indexed": true,
          "internalType": "address",
          "name": "from",
          "type": "address"
        },
        {
          "indexed": false,
          "internalType": "uint256",
          "name": "amount",
          "type": "uint256"
        }
      ],
      "name": "ReceiveBNB",
      "type": "event"
    },
    {
      "anonymous": false,
      "inputs": [
        {
          "indexed": true,
          "internalType": "address",
          "name": "wallet",
          "type": "address"
        },
        {
          "indexed": false,
          "internalType": "uint256",
          "name": "requestId",
          "type": "uint256"
        }
      ],
      "name": "RequestSent",
      "type": "event"
    },
    {
      "anonymous": false,
      "inputs": [
        {
          "indexed": true,
          "internalType": "address",
          "name": "wallet",
          "type": "address"
        },
        {
          "indexed": false,
          "internalType": "uint256",
          "name": "flipId",
          "type": "uint256"
        },
        {
          "indexed": false,
          "internalType": "uint256",
          "name": "requestId",
          "type": "uint256"
        },
        {
          "indexed": false,
          "internalType": "uint256",
          "name": "amount",
          "type": "uint256"
        }
      ],
      "name": "RollbackFlip",
      "type": "event"
    },
    {
      "anonymous": false,
      "inputs": [
        {
          "indexed": true,
          "internalType": "address",
          "name": "wallet",
          "type": "address"
        },
        {
          "indexed": false,
          "internalType": "uint256",
          "name": "flipId",
          "type": "uint256"
        },
        {
          "indexed": false,
          "internalType": "uint256",
          "name": "requestId",
          "type": "uint256"
        },
        {
          "indexed": false,
          "internalType": "uint256",
          "name": "amount",
          "type": "uint256"
        }
      ],
      "name": "RollbackUnfulfilled",
      "type": "event"
    },
    {
      "anonymous": false,
      "inputs": [
        {
          "indexed": false,
          "internalType": "address",
          "name": "account",
          "type": "address"
        }
      ],
      "name": "Unpaused",
      "type": "event"
    },
    {
      "anonymous": false,
      "inputs": [
        {
          "indexed": true,
          "internalType": "address",
          "name": "implementation",
          "type": "address"
        }
      ],
      "name": "Upgraded",
      "type": "event"
    },
    {
      "inputs": [
        {
          "internalType": "uint256",
          "name": "bId",
          "type": "uint256"
        }
      ],
      "name": "calcServiceFee",
      "outputs": [
        {
          "internalType": "uint256",
          "name": "",
          "type": "uint256"
        }
      ],
      "stateMutability": "view",
      "type": "function"
    },
    {
      "inputs": [
        {
          "internalType": "uint256",
          "name": "flipChoice",
          "type": "uint256"
        },
        {
          "internalType": "uint256",
          "name": "bId",
          "type": "uint256"
        }
      ],
      "name": "flipTheCoin",
      "outputs": [],
      "stateMutability": "payable",
      "type": "function"
    },
    {
      "inputs": [],
      "name": "getBetAmount",
      "outputs": [
        {
          "internalType": "uint256[]",
          "name": "",
          "type": "uint256[]"
        }
      ],
      "stateMutability": "view",
      "type": "function"
    },
    {
      "inputs": [],
      "name": "getConfig",
      "outputs": [
        {
          "components": [
            {
              "internalType": "uint64",
              "name": "s_subscriptionId",
              "type": "uint64"
            },
            {
              "internalType": "bytes32",
              "name": "keyHash",
              "type": "bytes32"
            },
            {
              "internalType": "uint32",
              "name": "callbackGasLimit",
              "type": "uint32"
            },
            {
              "internalType": "uint16",
              "name": "numWords",
              "type": "uint16"
            },
            {
              "internalType": "uint16",
              "name": "requestConfirmations",
              "type": "uint16"
            }
          ],
          "internalType": "struct DeoddFlipCoin.VRFConfig",
          "name": "",
          "type": "tuple"
        }
      ],
      "stateMutability": "view",
      "type": "function"
    },
    {
      "inputs": [],
      "name": "getCoordinator",
      "outputs": [
        {
          "internalType": "address",
          "name": "",
          "type": "address"
        }
      ],
      "stateMutability": "view",
      "type": "function"
    },
    {
      "inputs": [
        {
          "internalType": "uint256",
          "name": "_requestId",
          "type": "uint256"
        }
      ],
      "name": "getFlipCoin",
      "outputs": [
        {
          "components": [
            {
              "internalType": "bool",
              "name": "fulfilled",
              "type": "bool"
            },
            {
              "internalType": "bool",
              "name": "exists",
              "type": "bool"
            },
            {
              "internalType": "uint256",
              "name": "fId",
              "type": "uint256"
            },
            {
              "internalType": "uint256",
              "name": "flipChoice",
              "type": "uint256"
            },
            {
              "internalType": "uint256",
              "name": "randomValue",
              "type": "uint256"
            },
            {
              "internalType": "uint256",
              "name": "amount",
              "type": "uint256"
            },
            {
              "internalType": "uint256",
              "name": "requestedAt",
              "type": "uint256"
            },
            {
              "internalType": "uint256",
              "name": "fulfilledAt",
              "type": "uint256"
            },
            {
              "internalType": "address",
              "name": "player",
              "type": "address"
            }
          ],
          "internalType": "struct DeoddFlipCoin.FlipCoin",
          "name": "",
          "type": "tuple"
        }
      ],
      "stateMutability": "view",
      "type": "function"
    },
    {
      "inputs": [],
      "name": "getImplementation",
      "outputs": [
        {
          "internalType": "address",
          "name": "",
          "type": "address"
        }
      ],
      "stateMutability": "view",
      "type": "function"
    },
    {
      "inputs": [
        {
          "internalType": "address",
          "name": "wallet",
          "type": "address"
        }
      ],
      "name": "getLastRequestId",
      "outputs": [
        {
          "internalType": "uint256",
          "name": "",
          "type": "uint256"
        }
      ],
      "stateMutability": "view",
      "type": "function"
    },
    {
      "inputs": [],
      "name": "initialize",
      "outputs": [],
      "stateMutability": "nonpayable",
      "type": "function"
    },
    {
      "inputs": [
        {
          "internalType": "address",
          "name": "operator",
          "type": "address"
        }
      ],
      "name": "isOperator",
      "outputs": [
        {
          "internalType": "bool",
          "name": "",
          "type": "bool"
        }
      ],
      "stateMutability": "view",
      "type": "function"
    },
    {
      "inputs": [],
      "name": "owner",
      "outputs": [
        {
          "internalType": "address",
          "name": "",
          "type": "address"
        }
      ],
      "stateMutability": "view",
      "type": "function"
    },
    {
      "inputs": [],
      "name": "pause",
      "outputs": [],
      "stateMutability": "nonpayable",
      "type": "function"
    },
    {
      "inputs": [],
      "name": "paused",
      "outputs": [
        {
          "internalType": "bool",
          "name": "",
          "type": "bool"
        }
      ],
      "stateMutability": "view",
      "type": "function"
    },
    {
      "inputs": [
        {
          "internalType": "address",
          "name": "wallet",
          "type": "address"
        }
      ],
      "name": "pendingRequestExists",
      "outputs": [
        {
          "internalType": "bool",
          "name": "",
          "type": "bool"
        }
      ],
      "stateMutability": "view",
      "type": "function"
    },
    {
      "inputs": [],
      "name": "pendingRequestExists",
      "outputs": [
        {
          "internalType": "bool",
          "name": "",
          "type": "bool"
        }
      ],
      "stateMutability": "view",
      "type": "function"
    },
    {
      "inputs": [],
      "name": "proxiableUUID",
      "outputs": [
        {
          "internalType": "bytes32",
          "name": "",
          "type": "bytes32"
        }
      ],
      "stateMutability": "view",
      "type": "function"
    },
    {
      "inputs": [
        {
          "internalType": "uint256",
          "name": "requestId",
          "type": "uint256"
        },
        {
          "internalType": "uint256[]",
          "name": "randomWords",
          "type": "uint256[]"
        }
      ],
      "name": "rawFulfillRandomWords",
      "outputs": [],
      "stateMutability": "nonpayable",
      "type": "function"
    },
    {
      "inputs": [
        {
          "internalType": "address",
          "name": "operator",
          "type": "address"
        }
      ],
      "name": "removeOperator",
      "outputs": [],
      "stateMutability": "nonpayable",
      "type": "function"
    },
    {
      "inputs": [],
      "name": "renounceOwnership",
      "outputs": [],
      "stateMutability": "nonpayable",
      "type": "function"
    },
    {
      "inputs": [],
      "name": "rollbackUnfulfilled",
      "outputs": [],
      "stateMutability": "nonpayable",
      "type": "function"
    },
    {
      "inputs": [
        {
          "internalType": "uint256",
          "name": "",
          "type": "uint256"
        }
      ],
      "name": "s_requests",
      "outputs": [
        {
          "internalType": "bool",
          "name": "fulfilled",
          "type": "bool"
        },
        {
          "internalType": "bool",
          "name": "exists",
          "type": "bool"
        },
        {
          "internalType": "uint256",
          "name": "fId",
          "type": "uint256"
        },
        {
          "internalType": "uint256",
          "name": "flipChoice",
          "type": "uint256"
        },
        {
          "internalType": "uint256",
          "name": "randomValue",
          "type": "uint256"
        },
        {
          "internalType": "uint256",
          "name": "amount",
          "type": "uint256"
        },
        {
          "internalType": "uint256",
          "name": "requestedAt",
          "type": "uint256"
        },
        {
          "internalType": "uint256",
          "name": "fulfilledAt",
          "type": "uint256"
        },
        {
          "internalType": "address",
          "name": "player",
          "type": "address"
        }
      ],
      "stateMutability": "view",
      "type": "function"
    },
    {
      "inputs": [],
      "name": "serviceFee",
      "outputs": [
        {
          "internalType": "uint256",
          "name": "",
          "type": "uint256"
        }
      ],
      "stateMutability": "view",
      "type": "function"
    },
    {
      "inputs": [
        {
          "internalType": "uint256[]",
          "name": "_betAmount",
          "type": "uint256[]"
        }
      ],
      "name": "setBetAmount",
      "outputs": [],
      "stateMutability": "nonpayable",
      "type": "function"
    },
    {
      "inputs": [
        {
          "components": [
            {
              "internalType": "uint64",
              "name": "s_subscriptionId",
              "type": "uint64"
            },
            {
              "internalType": "bytes32",
              "name": "keyHash",
              "type": "bytes32"
            },
            {
              "internalType": "uint32",
              "name": "callbackGasLimit",
              "type": "uint32"
            },
            {
              "internalType": "uint16",
              "name": "numWords",
              "type": "uint16"
            },
            {
              "internalType": "uint16",
              "name": "requestConfirmations",
              "type": "uint16"
            }
          ],
          "internalType": "struct DeoddFlipCoin.VRFConfig",
          "name": "cfg",
          "type": "tuple"
        }
      ],
      "name": "setConfig",
      "outputs": [],
      "stateMutability": "nonpayable",
      "type": "function"
    },
    {
      "inputs": [
        {
          "internalType": "address",
          "name": "_vrfCoordinator",
          "type": "address"
        }
      ],
      "name": "setCoordinator",
      "outputs": [],
      "stateMutability": "nonpayable",
      "type": "function"
    },
    {
      "inputs": [
        {
          "internalType": "address",
          "name": "wallet",
          "type": "address"
        },
        {
          "internalType": "uint256",
          "name": "requestId",
          "type": "uint256"
        }
      ],
      "name": "setLastRequestId",
      "outputs": [],
      "stateMutability": "nonpayable",
      "type": "function"
    },
    {
      "inputs": [
        {
          "internalType": "address",
          "name": "operator",
          "type": "address"
        }
      ],
      "name": "setOperator",
      "outputs": [],
      "stateMutability": "nonpayable",
      "type": "function"
    },
    {
      "inputs": [
        {
          "internalType": "uint256",
          "name": "sf",
          "type": "uint256"
        }
      ],
      "name": "setServiceFee",
      "outputs": [],
      "stateMutability": "nonpayable",
      "type": "function"
    },
    {
      "inputs": [
        {
          "internalType": "uint256",
          "name": "_vrfFee",
          "type": "uint256"
        }
      ],
      "name": "setVRFee",
      "outputs": [],
      "stateMutability": "nonpayable",
      "type": "function"
    },
    {
      "inputs": [
        {
          "internalType": "address payable",
          "name": "wallet",
          "type": "address"
        }
      ],
      "name": "setWallet",
      "outputs": [],
      "stateMutability": "nonpayable",
      "type": "function"
    },
    {
      "inputs": [
        {
          "internalType": "address",
          "name": "newOwner",
          "type": "address"
        }
      ],
      "name": "transferOwnership",
      "outputs": [],
      "stateMutability": "nonpayable",
      "type": "function"
    },
    {
      "inputs": [],
      "name": "unpause",
      "outputs": [],
      "stateMutability": "nonpayable",
      "type": "function"
    },
    {
      "inputs": [
        {
          "internalType": "address",
          "name": "newImplementation",
          "type": "address"
        }
      ],
      "name": "upgradeTo",
      "outputs": [],
      "stateMutability": "nonpayable",
      "type": "function"
    },
    {
      "inputs": [
        {
          "internalType": "address",
          "name": "newImplementation",
          "type": "address"
        },
        {
          "internalType": "bytes",
          "name": "data",
          "type": "bytes"
        }
      ],
      "name": "upgradeToAndCall",
      "outputs": [],
      "stateMutability": "payable",
      "type": "function"
    },
    {
      "inputs": [],
      "name": "vrfFee",
      "outputs": [
        {
          "internalType": "uint256",
          "name": "",
          "type": "uint256"
        }
      ],
      "stateMutability": "view",
      "type": "function"
    },
    {
      "inputs": [
        {
          "internalType": "address",
          "name": "to",
          "type": "address"
        },
        {
          "internalType": "bool",
          "name": "allBNB",
          "type": "bool"
        },
        {
          "internalType": "uint256",
          "name": "amount",
          "type": "uint256"
        }
      ],
      "name": "withdrawBNB",
      "outputs": [],
      "stateMutability": "nonpayable",
      "type": "function"
    },
    {
      "stateMutability": "payable",
      "type": "receive"
    }
  ],
  "bytecode": "0x60a06040523073ffffffffffffffffffffffffffffffffffffffff1660809073ffffffffffffffffffffffffffffffffffffffff1660601b81525034801561004657600080fd5b5060805160601c6155916200008260003960008181610a1901528181610aa801528181610cf201528181610d810152610e3101526155916000f3fe6080604052600436106102135760003560e01c80638129fc1c11610118578063ac8a584a116100a0578063c70188ea1161006f578063c70188ea14610794578063deaa59df146107ab578063f2fde38b146107d4578063fd80729d146107fd578063fde41e291461082657610268565b8063ac8a584a146106fb578063b332639a14610724578063b3ab15fb14610740578063c3f909d41461076957610268565b80638ea98117116100e75780638ea98117146105fa578063943ab22d14610623578063a168fa8914610660578063a3ced7b9146106a5578063aaf10f42146106d057610268565b80638129fc1c146105765780638456cb591461058d5780638abdf5aa146105a45780638da5cb5b146105cf57610268565b806352d1902d1161019b5780636d70f7ae1161016a5780636d70f7ae1461049157806370bdf26e146104ce578063715018a61461050b57806371977fe01461052257806373ba7f701461054d57610268565b806352d1902d146103e9578063548acb76146104145780635c975abb1461043d5780635cdf76f81461046857610268565b80633659cfe6116101e25780633659cfe6146103275780633aff6851146103505780633f4ba83a146103795780634459ccbc146103905780634f1ef286146103cd57610268565b80630fd4e4b61461026d5780631017507d146102965780631154e3b8146102c15780631fe543e3146102fe57610268565b36610268573373ffffffffffffffffffffffffffffffffffffffff167f344d9d9b1c237ca7e367c0536bc9744a50eb5d6976b76f09a09cb3e7e871df5d3460405161025e91906148be565b60405180910390a2005b600080fd5b34801561027957600080fd5b50610294600480360381019061028f9190613bb9565b610851565b005b3480156102a257600080fd5b506102ab610908565b6040516102b891906148be565b60405180910390f35b3480156102cd57600080fd5b506102e860048036038101906102e39190613be6565b61090f565b6040516102f591906148be565b60405180910390f35b34801561030a57600080fd5b5061032560048036038101906103209190613c40565b610953565b005b34801561033357600080fd5b5061034e600480360381019061034991906139cd565b610a17565b005b34801561035c57600080fd5b5061037760048036038101906103729190613be6565b610ba0565b005b34801561038557600080fd5b5061038e610bb3565b005b34801561039c57600080fd5b506103b760048036038101906103b291906139cd565b610bc5565b6040516103c49190614414565b60405180910390f35b6103e760048036038101906103e29190613a7a565b610cf0565b005b3480156103f557600080fd5b506103fe610e2d565b60405161040b91906144bc565b60405180910390f35b34801561042057600080fd5b5061043b60048036038101906104369190613a27565b610ee6565b005b34801561044957600080fd5b5061045261109c565b60405161045f9190614414565b60405180910390f35b34801561047457600080fd5b5061048f600480360381019061048a9190613be6565b6110b4565b005b34801561049d57600080fd5b506104b860048036038101906104b391906139cd565b6110c7565b6040516104c59190614414565b60405180910390f35b3480156104da57600080fd5b506104f560048036038101906104f091906139cd565b61111d565b60405161050291906148be565b60405180910390f35b34801561051757600080fd5b50610520611166565b005b34801561052e57600080fd5b5061053761117a565b6040516105449190614385565b60405180910390f35b34801561055957600080fd5b50610574600480360381019061056f9190613ad6565b6111a4565b005b34801561058257600080fd5b5061058b6111f4565b005b34801561059957600080fd5b506105a2611342565b005b3480156105b057600080fd5b506105b9611354565b6040516105c691906148be565b60405180910390f35b3480156105db57600080fd5b506105e461135b565b6040516105f19190614385565b60405180910390f35b34801561060657600080fd5b50610621600480360381019061061c91906139cd565b611385565b005b34801561062f57600080fd5b5061064a60048036038101906106459190613be6565b611496565b6040516106579190614887565b60405180910390f35b34801561066c57600080fd5b5061068760048036038101906106829190613be6565b6115ef565b60405161069c9998979695949392919061442f565b60405180910390f35b3480156106b157600080fd5b506106ba611677565b6040516106c79190614414565b60405180910390f35b3480156106dc57600080fd5b506106e5611742565b6040516106f29190614385565b60405180910390f35b34801561070757600080fd5b50610722600480360381019061071d91906139cd565b611751565b005b61073e60048036038101906107399190613c9c565b6117b4565b005b34801561074c57600080fd5b50610767600480360381019061076291906139cd565b611ac0565b005b34801561077557600080fd5b5061077e611b23565b60405161078b91906148a3565b60405180910390f35b3480156107a057600080fd5b506107a9611bdf565b005b3480156107b757600080fd5b506107d260048036038101906107cd91906139fa565b612059565b005b3480156107e057600080fd5b506107fb60048036038101906107f691906139cd565b6120a6565b005b34801561080957600080fd5b50610824600480360381019061081f9190613b16565b61212a565b005b34801561083257600080fd5b5061083b612156565b60405161084891906143f2565b60405180910390f35b6108596121af565b8060d060008201518160000160006101000a81548167ffffffffffffffff021916908367ffffffffffffffff1602179055506020820151816001015560408201518160020160006101000a81548163ffffffff021916908363ffffffff16021790555060608201518160020160046101000a81548161ffff021916908361ffff16021790555060808201518160020160066101000a81548161ffff021916908361ffff16021790555090505050565b6101385481565b60006127106101375461013b848154811061092d5761092c614dd7565b5b90600052602060002001546109429190614b37565b61094c9190614b06565b9050919050565b606660009054906101000a900473ffffffffffffffffffffffffffffffffffffffff1673ffffffffffffffffffffffffffffffffffffffff163373ffffffffffffffffffffffffffffffffffffffff1614610a095733606660009054906101000a900473ffffffffffffffffffffffffffffffffffffffff166040517f1cf993f4000000000000000000000000000000000000000000000000000000008152600401610a009291906143a0565b60405180910390fd5b610a13828261222d565b5050565b7f000000000000000000000000000000000000000000000000000000000000000073ffffffffffffffffffffffffffffffffffffffff163073ffffffffffffffffffffffffffffffffffffffff161415610aa6576040517f08c379a0000000000000000000000000000000000000000000000000000000008152600401610a9d90614607565b60405180910390fd5b7f000000000000000000000000000000000000000000000000000000000000000073ffffffffffffffffffffffffffffffffffffffff16610ae561253b565b73ffffffffffffffffffffffffffffffffffffffff1614610b3b576040517f08c379a0000000000000000000000000000000000000000000000000000000008152600401610b3290614627565b60405180910390fd5b610b4481612592565b610b9d81600067ffffffffffffffff811115610b6357610b62614e06565b5b6040519080825280601f01601f191660200182016040528015610b955781602001600182028036833780820191505090505b50600061259d565b50565b610ba86121af565b806101388190555050565b610bbb6121af565b610bc361271a565b565b60008060cd60008473ffffffffffffffffffffffffffffffffffffffff1673ffffffffffffffffffffffffffffffffffffffff1681526020019081526020016000205414158015610c7c57506000151560cc600060cd60008673ffffffffffffffffffffffffffffffffffffffff1673ffffffffffffffffffffffffffffffffffffffff16815260200190815260200160002054815260200190815260200160002060000160009054906101000a900460ff161515145b8015610ce95750603c60cc600060cd60008673ffffffffffffffffffffffffffffffffffffffff1673ffffffffffffffffffffffffffffffffffffffff1681526020019081526020016000205481526020019081526020016000206005015442610ce69190614b91565b10155b9050919050565b7f000000000000000000000000000000000000000000000000000000000000000073ffffffffffffffffffffffffffffffffffffffff163073ffffffffffffffffffffffffffffffffffffffff161415610d7f576040517f08c379a0000000000000000000000000000000000000000000000000000000008152600401610d7690614607565b60405180910390fd5b7f000000000000000000000000000000000000000000000000000000000000000073ffffffffffffffffffffffffffffffffffffffff16610dbe61253b565b73ffffffffffffffffffffffffffffffffffffffff1614610e14576040517f08c379a0000000000000000000000000000000000000000000000000000000008152600401610e0b90614627565b60405180910390fd5b610e1d82612592565b610e298282600161259d565b5050565b60007f000000000000000000000000000000000000000000000000000000000000000073ffffffffffffffffffffffffffffffffffffffff163073ffffffffffffffffffffffffffffffffffffffff1614610ebd576040517f08c379a0000000000000000000000000000000000000000000000000000000008152600401610eb490614647565b60405180910390fd5b7f360894a13ba1a3210667c828492db98dca3e2076cc3735a920a3ca505d382bbc60001b905090565b610eee6121af565b8115610fa65760008373ffffffffffffffffffffffffffffffffffffffff1647604051610f1a90614370565b60006040518083038185875af1925050503d8060008114610f57576040519150601f19603f3d011682016040523d82523d6000602084013e610f5c565b606091505b5050905080610fa0576040517f08c379a0000000000000000000000000000000000000000000000000000000008152600401610f9790614827565b60405180910390fd5b50611097565b47811115610fe9576040517f08c379a0000000000000000000000000000000000000000000000000000000008152600401610fe090614707565b60405180910390fd5b60008373ffffffffffffffffffffffffffffffffffffffff168260405161100f90614370565b60006040518083038185875af1925050503d806000811461104c576040519150601f19603f3d011682016040523d82523d6000602084013e611051565b606091505b5050905080611095576040517f08c379a000000000000000000000000000000000000000000000000000000000815260040161108c90614827565b60405180910390fd5b505b505050565b600061010560009054906101000a900460ff16905090565b6110bc6121af565b806101378190555050565b6000606560008373ffffffffffffffffffffffffffffffffffffffff1673ffffffffffffffffffffffffffffffffffffffff16815260200190815260200160002060009054906101000a900460ff169050919050565b600060cd60008373ffffffffffffffffffffffffffffffffffffffff1673ffffffffffffffffffffffffffffffffffffffff168152602001908152602001600020549050919050565b61116e6121af565b611178600061277e565b565b6000606660009054906101000a900473ffffffffffffffffffffffffffffffffffffffff16905090565b6111ac6121af565b8060cd60008473ffffffffffffffffffffffffffffffffffffffff1673ffffffffffffffffffffffffffffffffffffffff168152602001908152602001600020819055505050565b60008060019054906101000a900460ff161590508080156112255750600160008054906101000a900460ff1660ff16105b80611252575061123430612844565b1580156112515750600160008054906101000a900460ff1660ff16145b5b611291576040517f08c379a0000000000000000000000000000000000000000000000000000000008152600401611288906146a7565b60405180910390fd5b60016000806101000a81548160ff021916908360ff16021790555080156112ce576001600060016101000a81548160ff0219169083151502179055505b6112d6612867565b6112de6129b5565b6112e6612a06565b801561133f5760008060016101000a81548160ff0219169083151502179055507f7f26b83ff96e1f2b6a682f133852f6798a09c465da95921460cefb38474024986001604051611336919061452a565b60405180910390a15b50565b61134a6121af565b611352612a06565b565b6101375481565b6000603360009054906101000a900473ffffffffffffffffffffffffffffffffffffffff16905090565b606560003373ffffffffffffffffffffffffffffffffffffffff1673ffffffffffffffffffffffffffffffffffffffff16815260200190815260200160002060009054906101000a900460ff16611411576040517f08c379a0000000000000000000000000000000000000000000000000000000008152600401611408906146c7565b60405180910390fd5b80606660006101000a81548173ffffffffffffffffffffffffffffffffffffffff021916908373ffffffffffffffffffffffffffffffffffffffff1602179055508060cf60006101000a81548173ffffffffffffffffffffffffffffffffffffffff021916908373ffffffffffffffffffffffffffffffffffffffff16021790555050565b61149e613632565b60cc600083815260200190815260200160002060000160019054906101000a900460ff16611501576040517f08c379a00000000000000000000000000000000000000000000000000000000081526004016114f890614567565b60405180910390fd5b60cc6000838152602001908152602001600020604051806101200160405290816000820160009054906101000a900460ff161515151581526020016000820160019054906101000a900460ff161515151581526020016001820154815260200160028201548152602001600382015481526020016004820154815260200160058201548152602001600682015481526020016007820160009054906101000a900473ffffffffffffffffffffffffffffffffffffffff1673ffffffffffffffffffffffffffffffffffffffff1673ffffffffffffffffffffffffffffffffffffffff16815250509050919050565b60cc6020528060005260406000206000915090508060000160009054906101000a900460ff16908060000160019054906101000a900460ff16908060010154908060020154908060030154908060040154908060050154908060060154908060070160009054906101000a900473ffffffffffffffffffffffffffffffffffffffff16905089565b600060cf60009054906101000a900473ffffffffffffffffffffffffffffffffffffffff1673ffffffffffffffffffffffffffffffffffffffff1663e82ad7d460d060000160009054906101000a900467ffffffffffffffff166040518263ffffffff1660e01b81526004016116ed91906149a8565b60206040518083038186803b15801561170557600080fd5b505afa158015611719573d6000803e3d6000fd5b505050506040513d601f19601f8201168201806040525081019061173d9190613b5f565b905090565b600061174c61253b565b905090565b6117596121af565b6000606560008373ffffffffffffffffffffffffffffffffffffffff1673ffffffffffffffffffffffffffffffffffffffff16815260200190815260200160002060006101000a81548160ff02191690831515021790555050565b6117bc612a6a565b8061013a548110611802576040517f08c379a00000000000000000000000000000000000000000000000000000000081526004016117f990614787565b60405180910390fd5b33600060cd60008373ffffffffffffffffffffffffffffffffffffffff1673ffffffffffffffffffffffffffffffffffffffff1681526020019081526020016000205414806118b757506001151560cc600060cd60008573ffffffffffffffffffffffffffffffffffffffff1673ffffffffffffffffffffffffffffffffffffffff16815260200190815260200160002054815260200190815260200160002060000160009054906101000a900460ff161515145b6118f6576040517f08c379a00000000000000000000000000000000000000000000000000000000081526004016118ed906145a7565b60405180910390fd5b6118fe612ab4565b60028410611941576040517f08c379a000000000000000000000000000000000000000000000000000000000815260040161193890614807565b60405180910390fd5b61013c60009054906101000a900473ffffffffffffffffffffffffffffffffffffffff1673ffffffffffffffffffffffffffffffffffffffff163161013b848154811061199157611990614dd7565b5b9060005260206000200154610139546119aa9190614ab0565b11156119eb576040517f08c379a00000000000000000000000000000000000000000000000000000000081526004016119e290614767565b60405180910390fd5b600061013b8481548110611a0257611a01614dd7565b5b9060005260206000200154905060006127106101375483611a239190614b37565b611a2d9190614b06565b905034610138548284611a409190614ab0565b611a4a9190614ab0565b1115611a8b576040517f08c379a0000000000000000000000000000000000000000000000000000000008152600401611a82906147e7565b60405180910390fd5b816101396000828254611a9e9190614ab0565b92505081905550611ab0338784612b04565b5050611aba612e24565b50505050565b611ac86121af565b6001606560008373ffffffffffffffffffffffffffffffffffffffff1673ffffffffffffffffffffffffffffffffffffffff16815260200190815260200160002060006101000a81548160ff02191690831515021790555050565b611b2b613698565b60d06040518060a00160405290816000820160009054906101000a900467ffffffffffffffff1667ffffffffffffffff1667ffffffffffffffff168152602001600182015481526020016002820160009054906101000a900463ffffffff1663ffffffff1663ffffffff1681526020016002820160049054906101000a900461ffff1661ffff1661ffff1681526020016002820160069054906101000a900461ffff1661ffff1661ffff1681525050905090565b611be7612a6a565b6000151560cc600060cd60003373ffffffffffffffffffffffffffffffffffffffff1673ffffffffffffffffffffffffffffffffffffffff16815260200190815260200160002054815260200190815260200160002060000160009054906101000a900460ff16151514611c90576040517f08c379a0000000000000000000000000000000000000000000000000000000008152600401611c87906147a7565b60405180910390fd5b603c60cc600060cd60003373ffffffffffffffffffffffffffffffffffffffff1673ffffffffffffffffffffffffffffffffffffffff1681526020019081526020016000205481526020019081526020016000206005015442611cf39190614b91565b1015611d34576040517f08c379a0000000000000000000000000000000000000000000000000000000008152600401611d2b906145e7565b60405180910390fd5b600160cc600060cd60003373ffffffffffffffffffffffffffffffffffffffff1673ffffffffffffffffffffffffffffffffffffffff16815260200190815260200160002054815260200190815260200160002060000160006101000a81548160ff02191690831515021790555060006127106101375460cc600060cd60003373ffffffffffffffffffffffffffffffffffffffff1673ffffffffffffffffffffffffffffffffffffffff16815260200190815260200160002054815260200190815260200160002060040154611e0b9190614b37565b611e159190614b06565b90506000610138548260cc600060cd60003373ffffffffffffffffffffffffffffffffffffffff1673ffffffffffffffffffffffffffffffffffffffff16815260200190815260200160002054815260200190815260200160002060040154611e7e9190614ab0565b611e889190614ab0565b905061013c60009054906101000a900473ffffffffffffffffffffffffffffffffffffffff1673ffffffffffffffffffffffffffffffffffffffff166381e18c1033836040518363ffffffff1660e01b8152600401611ee89291906143c9565b600060405180830381600087803b158015611f0257600080fd5b505af1158015611f16573d6000803e3d6000fd5b505050503373ffffffffffffffffffffffffffffffffffffffff167fd1303054c698dcd81f1e4d5accada6b96047630a63ac9eaa37f7724b50f1e46260cc600060cd60003373ffffffffffffffffffffffffffffffffffffffff1673ffffffffffffffffffffffffffffffffffffffff1681526020019081526020016000205481526020019081526020016000206001015460cd60003373ffffffffffffffffffffffffffffffffffffffff1673ffffffffffffffffffffffffffffffffffffffff1681526020019081526020016000205460cc600060cd60003373ffffffffffffffffffffffffffffffffffffffff1673ffffffffffffffffffffffffffffffffffffffff1681526020019081526020016000205481526020019081526020016000206004015460405161204d939291906148d9565b60405180910390a25050565b6120616121af565b8061013c60006101000a81548173ffffffffffffffffffffffffffffffffffffffff021916908373ffffffffffffffffffffffffffffffffffffffff16021790555050565b6120ae6121af565b600073ffffffffffffffffffffffffffffffffffffffff168173ffffffffffffffffffffffffffffffffffffffff16141561211e576040517f08c379a0000000000000000000000000000000000000000000000000000000008152600401612115906145c7565b60405180910390fd5b6121278161277e565b50565b6121326121af565b8061013b90805190602001906121499291906136e2565b50805161013a8190555050565b606061013b8054806020026020016040519081016040528092919081815260200182805480156121a557602002820191906000526020600020905b815481526020019060010190808311612191575b5050505050905090565b6121b7612e2e565b73ffffffffffffffffffffffffffffffffffffffff166121d561135b565b73ffffffffffffffffffffffffffffffffffffffff161461222b576040517f08c379a000000000000000000000000000000000000000000000000000000000815260040161222290614747565b60405180910390fd5b565b6000151560cc600084815260200190815260200160002060000160009054906101000a900460ff16151514612297576040517f08c379a000000000000000000000000000000000000000000000000000000000815260040161228e906147a7565b60405180910390fd5b600160cc600084815260200190815260200160002060000160006101000a81548160ff021916908315150217905550806000815181106122da576122d9614dd7565b5b602002602001015160cc6000848152602001908152602001600020600301819055504260cc60008481526020019081526020016000206006018190555060cc60008381526020019081526020016000206004015461013960008282546123409190614b91565b92505081905550600061238c60cc600085815260200190815260200160002060020154600260cc6000878152602001908152602001600020600301546123869190614d48565b14612e36565b905060008111156124805761013c60009054906101000a900473ffffffffffffffffffffffffffffffffffffffff1673ffffffffffffffffffffffffffffffffffffffff16630dcdb45e60cc600086815260200190815260200160002060070160009054906101000a900473ffffffffffffffffffffffffffffffffffffffff16600260cc6000888152602001908152602001600020600401546124309190614b37565b6040518363ffffffff1660e01b815260040161244d9291906143c9565b600060405180830381600087803b15801561246757600080fd5b505af115801561247b573d6000803e3d6000fd5b505050505b60cc600084815260200190815260200160002060070160009054906101000a900473ffffffffffffffffffffffffffffffffffffffff1673ffffffffffffffffffffffffffffffffffffffff167fbbc788ca8b6dac149c1197ef285361e8c3bac22fa1ae5eb6bf7a893191b088ad60cc60008681526020019081526020016000206001015460cc600087815260200190815260200160002060030154844260405161252e9493929190614910565b60405180910390a2505050565b60006125697f360894a13ba1a3210667c828492db98dca3e2076cc3735a920a3ca505d382bbc60001b612e40565b60000160009054906101000a900473ffffffffffffffffffffffffffffffffffffffff16905090565b61259a6121af565b50565b6125c97f4910fdfa16fed3260ed0e7147f7cc6da11a60208b5b9406d12a635614ffd914360001b612e4a565b60000160009054906101000a900460ff16156125ed576125e883612e54565b612715565b8273ffffffffffffffffffffffffffffffffffffffff166352d1902d6040518163ffffffff1660e01b815260040160206040518083038186803b15801561263357600080fd5b505afa92505050801561266457506040513d601f19601f820116820180604052508101906126619190613b8c565b60015b6126a3576040517f08c379a000000000000000000000000000000000000000000000000000000000815260040161269a906146e7565b60405180910390fd5b7f360894a13ba1a3210667c828492db98dca3e2076cc3735a920a3ca505d382bbc60001b8114612708576040517f08c379a00000000000000000000000000000000000000000000000000000000081526004016126ff90614687565b60405180910390fd5b50612714838383612f0d565b5b505050565b612722612f39565b600061010560006101000a81548160ff0219169083151502179055507f5db9ee0a495bf2e6ff9c91a7834c1ba4fdd244a5e8aa4e537bd38aeae4b073aa612767612e2e565b6040516127749190614385565b60405180910390a1565b6000603360009054906101000a900473ffffffffffffffffffffffffffffffffffffffff16905081603360006101000a81548173ffffffffffffffffffffffffffffffffffffffff021916908373ffffffffffffffffffffffffffffffffffffffff1602179055508173ffffffffffffffffffffffffffffffffffffffff168173ffffffffffffffffffffffffffffffffffffffff167f8be0079c531659141344cd1fd0a4f28419497f9722a3daafe3b4186f6b6457e060405160405180910390a35050565b6000808273ffffffffffffffffffffffffffffffffffffffff163b119050919050565b60008060019054906101000a900460ff161590508080156128985750600160008054906101000a900460ff1660ff16105b806128c557506128a730612844565b1580156128c45750600160008054906101000a900460ff1660ff16145b5b612904576040517f08c379a00000000000000000000000000000000000000000000000000000000081526004016128fb906146a7565b60405180910390fd5b60016000806101000a81548160ff021916908360ff1602179055508015612941576001600060016101000a81548160ff0219169083151502179055505b612949612f82565b6129516129b5565b6129596130c0565b80156129b25760008060016101000a81548160ff0219169083151502179055507f7f26b83ff96e1f2b6a682f133852f6798a09c465da95921460cefb384740249860016040516129a9919061452a565b60405180910390a15b50565b600060019054906101000a900460ff16612a04576040517f08c379a00000000000000000000000000000000000000000000000000000000081526004016129fb90614847565b60405180910390fd5b565b612a0e612a6a565b600161010560006101000a81548160ff0219169083151502179055507f62e78cea01bee320cd4e420270b5ea74000d11b0c9f74754ebdbfc544b05a258612a53612e2e565b604051612a609190614385565b60405180910390a1565b612a7261109c565b15612ab2576040517f08c379a0000000000000000000000000000000000000000000000000000000008152600401612aa990614667565b60405180910390fd5b565b600260d3541415612afa576040517f08c379a0000000000000000000000000000000000000000000000000000000008152600401612af190614867565b60405180910390fd5b600260d381905550565b600060cf60009054906101000a900473ffffffffffffffffffffffffffffffffffffffff1673ffffffffffffffffffffffffffffffffffffffff16635d3b1d3060d06001015460d060000160009054906101000a900467ffffffffffffffff1660d060020160069054906101000a900461ffff1660d060020160009054906101000a900463ffffffff1660d060020160049054906101000a900461ffff166040518663ffffffff1660e01b8152600401612bc29594939291906144d7565b602060405180830381600087803b158015612bdc57600080fd5b505af1158015612bf0573d6000803e3d6000fd5b505050506040513d601f19601f82011682018060405250810190612c149190613c13565b905060cb6000815480929190612c2990614cff565b919050555060405180610120016040528060001515815260200160011515815260200160cb54815260200184815260200160638152602001838152602001428152602001600081526020018573ffffffffffffffffffffffffffffffffffffffff1681525060cc600083815260200190815260200160002060008201518160000160006101000a81548160ff02191690831515021790555060208201518160000160016101000a81548160ff02191690831515021790555060408201518160010155606082015181600201556080820151816003015560a0820151816004015560c0820151816005015560e082015181600601556101008201518160070160006101000a81548173ffffffffffffffffffffffffffffffffffffffff021916908373ffffffffffffffffffffffffffffffffffffffff1602179055509050508060cd60008673ffffffffffffffffffffffffffffffffffffffff1673ffffffffffffffffffffffffffffffffffffffff168152602001908152602001600020819055508060ce600060cb548152602001908152602001600020819055503373ffffffffffffffffffffffffffffffffffffffff167f6a6302a1fc373c9b73133751962744406d58f0ee670be395591cee8f7e8d9aa160cb5483858742604051612e16959493929190614955565b60405180910390a250505050565b600160d381905550565b600033905090565b6000819050919050565b6000819050919050565b6000819050919050565b612e5d81612844565b612e9c576040517f08c379a0000000000000000000000000000000000000000000000000000000008152600401612e9390614727565b60405180910390fd5b80612ec97f360894a13ba1a3210667c828492db98dca3e2076cc3735a920a3ca505d382bbc60001b612e40565b60000160006101000a81548173ffffffffffffffffffffffffffffffffffffffff021916908373ffffffffffffffffffffffffffffffffffffffff16021790555050565b612f168361323d565b600082511180612f235750805b15612f3457612f32838361328c565b505b505050565b612f4161109c565b612f80576040517f08c379a0000000000000000000000000000000000000000000000000000000008152600401612f7790614587565b60405180910390fd5b565b60008060019054906101000a900460ff16159050808015612fb35750600160008054906101000a900460ff1660ff16105b80612fe05750612fc230612844565b158015612fdf5750600160008054906101000a900460ff1660ff16145b5b61301f576040517f08c379a0000000000000000000000000000000000000000000000000000000008152600401613016906146a7565b60405180910390fd5b60016000806101000a81548160ff021916908360ff160217905550801561305c576001600060016101000a81548160ff0219169083151502179055505b613064613370565b80156130bd5760008060016101000a81548160ff0219169083151502179055507f7f26b83ff96e1f2b6a682f133852f6798a09c465da95921460cefb384740249860016040516130b4919061452a565b60405180910390a15b50565b73a2d23627bc0314f4cbd08ff54ecb89bb45685053606660006101000a81548173ffffffffffffffffffffffffffffffffffffffff021916908373ffffffffffffffffffffffffffffffffffffffff160217905550606660009054906101000a900473ffffffffffffffffffffffffffffffffffffffff1660cf60006101000a81548173ffffffffffffffffffffffffffffffffffffffff021916908373ffffffffffffffffffffffffffffffffffffffff160217905550609e60d060000160006101000a81548167ffffffffffffffff021916908367ffffffffffffffff1602179055507f617abc3f53ae11766071d04ada1c7b0fbd49833b9542e9e91da4d3191c70cc8060001b60d060010181905550620186a060d060020160006101000a81548163ffffffff021916908363ffffffff160217905550600360d060020160066101000a81548161ffff021916908361ffff160217905550600160d060020160046101000a81548161ffff021916908361ffff160217905550565b61324681612e54565b8073ffffffffffffffffffffffffffffffffffffffff167fbc7cd75a20ee27fd9adebab32041f755214dbc6bffa90cc0225b39da2e5c2d3b60405160405180910390a250565b606061329783612844565b6132d6576040517f08c379a00000000000000000000000000000000000000000000000000000000081526004016132cd906147c7565b60405180910390fd5b6000808473ffffffffffffffffffffffffffffffffffffffff16846040516132fe9190614359565b600060405180830381855af49150503d8060008114613339576040519150601f19603f3d011682016040523d82523d6000602084013e61333e565b606091505b5091509150613366828260405180606001604052806027815260200161553560279139613506565b9250505092915050565b60008060019054906101000a900460ff161590508080156133a15750600160008054906101000a900460ff1660ff16105b806133ce57506133b030612844565b1580156133cd5750600160008054906101000a900460ff1660ff16145b5b61340d576040517f08c379a0000000000000000000000000000000000000000000000000000000008152600401613404906146a7565b60405180910390fd5b60016000806101000a81548160ff021916908360ff160217905550801561344a576001600060016101000a81548160ff0219169083151502179055505b613452613528565b6001606560003373ffffffffffffffffffffffffffffffffffffffff1673ffffffffffffffffffffffffffffffffffffffff16815260200190815260200160002060006101000a81548160ff02191690831515021790555080156135035760008060016101000a81548160ff0219169083151502179055507f7f26b83ff96e1f2b6a682f133852f6798a09c465da95921460cefb384740249860016040516134fa919061452a565b60405180910390a15b50565b6060831561351657829050613521565b6135208383613581565b5b9392505050565b600060019054906101000a900460ff16613577576040517f08c379a000000000000000000000000000000000000000000000000000000000815260040161356e90614847565b60405180910390fd5b61357f6135d1565b565b6000825111156135945781518083602001fd5b806040517f08c379a00000000000000000000000000000000000000000000000000000000081526004016135c89190614545565b60405180910390fd5b600060019054906101000a900460ff16613620576040517f08c379a000000000000000000000000000000000000000000000000000000000815260040161361790614847565b60405180910390fd5b61363061362b612e2e565b61277e565b565b604051806101200160405280600015158152602001600015158152602001600081526020016000815260200160008152602001600081526020016000815260200160008152602001600073ffffffffffffffffffffffffffffffffffffffff1681525090565b6040518060a00160405280600067ffffffffffffffff16815260200160008019168152602001600063ffffffff168152602001600061ffff168152602001600061ffff1681525090565b82805482825590600052602060002090810192821561371e579160200282015b8281111561371d578251825591602001919060010190613702565b5b50905061372b919061372f565b5090565b5b80821115613748576000816000905550600101613730565b5090565b600061375f61375a846149e8565b6149c3565b9050808382526020820190508285602086028201111561378257613781614e3f565b5b60005b858110156137b257816137988882613979565b845260208401935060208301925050600181019050613785565b5050509392505050565b60006137cf6137ca84614a14565b6149c3565b9050828152602081018484840111156137eb576137ea614e44565b5b6137f6848285614c8c565b509392505050565b60008135905061380d8161547c565b92915050565b60008135905061382281615493565b92915050565b600082601f83011261383d5761383c614e35565b5b813561384d84826020860161374c565b91505092915050565b600081359050613865816154aa565b92915050565b60008151905061387a816154aa565b92915050565b60008135905061388f816154c1565b92915050565b6000815190506138a4816154c1565b92915050565b600082601f8301126138bf576138be614e35565b5b81356138cf8482602086016137bc565b91505092915050565b600060a082840312156138ee576138ed614e3a565b5b6138f860a06149c3565b90506000613908848285016139b8565b600083015250602061391c84828501613880565b6020830152506040613930848285016139a3565b604083015250606061394484828501613964565b606083015250608061395884828501613964565b60808301525092915050565b600081359050613973816154d8565b92915050565b600081359050613988816154ef565b92915050565b60008151905061399d816154ef565b92915050565b6000813590506139b281615506565b92915050565b6000813590506139c78161551d565b92915050565b6000602082840312156139e3576139e2614e4e565b5b60006139f1848285016137fe565b91505092915050565b600060208284031215613a1057613a0f614e4e565b5b6000613a1e84828501613813565b91505092915050565b600080600060608486031215613a4057613a3f614e4e565b5b6000613a4e868287016137fe565b9350506020613a5f86828701613856565b9250506040613a7086828701613979565b9150509250925092565b60008060408385031215613a9157613a90614e4e565b5b6000613a9f858286016137fe565b925050602083013567ffffffffffffffff811115613ac057613abf614e49565b5b613acc858286016138aa565b9150509250929050565b60008060408385031215613aed57613aec614e4e565b5b6000613afb858286016137fe565b9250506020613b0c85828601613979565b9150509250929050565b600060208284031215613b2c57613b2b614e4e565b5b600082013567ffffffffffffffff811115613b4a57613b49614e49565b5b613b5684828501613828565b91505092915050565b600060208284031215613b7557613b74614e4e565b5b6000613b838482850161386b565b91505092915050565b600060208284031215613ba257613ba1614e4e565b5b6000613bb084828501613895565b91505092915050565b600060a08284031215613bcf57613bce614e4e565b5b6000613bdd848285016138d8565b91505092915050565b600060208284031215613bfc57613bfb614e4e565b5b6000613c0a84828501613979565b91505092915050565b600060208284031215613c2957613c28614e4e565b5b6000613c378482850161398e565b91505092915050565b60008060408385031215613c5757613c56614e4e565b5b6000613c6585828601613979565b925050602083013567ffffffffffffffff811115613c8657613c85614e49565b5b613c9285828601613828565b9150509250929050565b60008060408385031215613cb357613cb2614e4e565b5b6000613cc185828601613979565b9250506020613cd285828601613979565b9150509250929050565b6000613ce883836142ff565b60208301905092915050565b613cfd81614bc5565b82525050565b613d0c81614bc5565b82525050565b6000613d1d82614a55565b613d278185614a83565b9350613d3283614a45565b8060005b83811015613d63578151613d4a8882613cdc565b9750613d5583614a76565b925050600181019050613d36565b5085935050505092915050565b613d7981614be9565b82525050565b613d8881614be9565b82525050565b613d9781614bf5565b82525050565b613da681614bf5565b82525050565b6000613db782614a60565b613dc18185614a94565b9350613dd1818560208601614c9b565b80840191505092915050565b613de681614c68565b82525050565b6000613df782614a6b565b613e018185614a9f565b9350613e11818560208601614c9b565b613e1a81614e53565b840191505092915050565b6000613e32601183614a9f565b9150613e3d82614e64565b602082019050919050565b6000613e55601483614a9f565b9150613e6082614e8d565b602082019050919050565b6000613e78602e83614a9f565b9150613e8382614eb6565b604082019050919050565b6000613e9b602683614a9f565b9150613ea682614f05565b604082019050919050565b6000613ebe602983614a9f565b9150613ec982614f54565b604082019050919050565b6000613ee1602c83614a9f565b9150613eec82614fa3565b604082019050919050565b6000613f04602c83614a9f565b9150613f0f82614ff2565b604082019050919050565b6000613f27603883614a9f565b9150613f3282615041565b604082019050919050565b6000613f4a601083614a9f565b9150613f5582615090565b602082019050919050565b6000613f6d602983614a9f565b9150613f78826150b9565b604082019050919050565b6000613f90602e83614a9f565b9150613f9b82615108565b604082019050919050565b6000613fb3601b83614a9f565b9150613fbe82615157565b602082019050919050565b6000613fd6602e83614a9f565b9150613fe182615180565b604082019050919050565b6000613ff9601c83614a9f565b9150614004826151cf565b602082019050919050565b600061401c602d83614a9f565b9150614027826151f8565b604082019050919050565b600061403f602083614a9f565b915061404a82615247565b602082019050919050565b6000614062602783614a9f565b915061406d82615270565b604082019050919050565b6000614085601283614a9f565b9150614090826152bf565b602082019050919050565b60006140a8601183614a9f565b91506140b3826152e8565b602082019050919050565b60006140cb602683614a9f565b91506140d682615311565b604082019050919050565b60006140ee600083614a94565b91506140f982615360565b600082019050919050565b6000614111601883614a9f565b915061411c82615363565b602082019050919050565b6000614134601783614a9f565b915061413f8261538c565b602082019050919050565b6000614157602383614a9f565b9150614162826153b5565b604082019050919050565b600061417a602b83614a9f565b915061418582615404565b604082019050919050565b600061419d601f83614a9f565b91506141a882615453565b602082019050919050565b610120820160008201516141ca6000850182613d70565b5060208201516141dd6020850182613d70565b5060408201516141f060408501826142ff565b50606082015161420360608501826142ff565b50608082015161421660808501826142ff565b5060a082015161422960a08501826142ff565b5060c082015161423c60c08501826142ff565b5060e082015161424f60e08501826142ff565b50610100820151614264610100850182613cf4565b50505050565b60a082016000820151614280600085018261433b565b5060208201516142936020850182613d8e565b5060408201516142a6604085018261431d565b5060608201516142b960608501826142d2565b5060808201516142cc60808501826142d2565b50505050565b6142db81614bff565b82525050565b6142ea81614bff565b82525050565b6142f981614c7a565b82525050565b61430881614c2d565b82525050565b61431781614c2d565b82525050565b61432681614c37565b82525050565b61433581614c37565b82525050565b61434481614c47565b82525050565b61435381614c47565b82525050565b60006143658284613dac565b915081905092915050565b600061437b826140e1565b9150819050919050565b600060208201905061439a6000830184613d03565b92915050565b60006040820190506143b56000830185613d03565b6143c26020830184613d03565b9392505050565b60006040820190506143de6000830185613d03565b6143eb602083018461430e565b9392505050565b6000602082019050818103600083015261440c8184613d12565b905092915050565b60006020820190506144296000830184613d7f565b92915050565b600061012082019050614445600083018c613d7f565b614452602083018b613d7f565b61445f604083018a61430e565b61446c606083018961430e565b614479608083018861430e565b61448660a083018761430e565b61449360c083018661430e565b6144a060e083018561430e565b6144ae610100830184613d03565b9a9950505050505050505050565b60006020820190506144d16000830184613d9d565b92915050565b600060a0820190506144ec6000830188613d9d565b6144f9602083018761434a565b61450660408301866142e1565b614513606083018561432c565b61452060808301846142f0565b9695505050505050565b600060208201905061453f6000830184613ddd565b92915050565b6000602082019050818103600083015261455f8184613dec565b905092915050565b6000602082019050818103600083015261458081613e25565b9050919050565b600060208201905081810360008301526145a081613e48565b9050919050565b600060208201905081810360008301526145c081613e6b565b9050919050565b600060208201905081810360008301526145e081613e8e565b9050919050565b6000602082019050818103600083015261460081613eb1565b9050919050565b6000602082019050818103600083015261462081613ed4565b9050919050565b6000602082019050818103600083015261464081613ef7565b9050919050565b6000602082019050818103600083015261466081613f1a565b9050919050565b6000602082019050818103600083015261468081613f3d565b9050919050565b600060208201905081810360008301526146a081613f60565b9050919050565b600060208201905081810360008301526146c081613f83565b9050919050565b600060208201905081810360008301526146e081613fa6565b9050919050565b6000602082019050818103600083015261470081613fc9565b9050919050565b6000602082019050818103600083015261472081613fec565b9050919050565b600060208201905081810360008301526147408161400f565b9050919050565b6000602082019050818103600083015261476081614032565b9050919050565b6000602082019050818103600083015261478081614055565b9050919050565b600060208201905081810360008301526147a081614078565b9050919050565b600060208201905081810360008301526147c08161409b565b9050919050565b600060208201905081810360008301526147e0816140be565b9050919050565b6000602082019050818103600083015261480081614104565b9050919050565b6000602082019050818103600083015261482081614127565b9050919050565b600060208201905081810360008301526148408161414a565b9050919050565b600060208201905081810360008301526148608161416d565b9050919050565b6000602082019050818103600083015261488081614190565b9050919050565b60006101208201905061489d60008301846141b3565b92915050565b600060a0820190506148b8600083018461426a565b92915050565b60006020820190506148d3600083018461430e565b92915050565b60006060820190506148ee600083018661430e565b6148fb602083018561430e565b614908604083018461430e565b949350505050565b6000608082019050614925600083018761430e565b614932602083018661430e565b61493f604083018561430e565b61494c606083018461430e565b95945050505050565b600060a08201905061496a600083018861430e565b614977602083018761430e565b614984604083018661430e565b614991606083018561430e565b61499e608083018461430e565b9695505050505050565b60006020820190506149bd600083018461434a565b92915050565b60006149cd6149de565b90506149d98282614cce565b919050565b6000604051905090565b600067ffffffffffffffff821115614a0357614a02614e06565b5b602082029050602081019050919050565b600067ffffffffffffffff821115614a2f57614a2e614e06565b5b614a3882614e53565b9050602081019050919050565b6000819050602082019050919050565b600081519050919050565b600081519050919050565b600081519050919050565b6000602082019050919050565b600082825260208201905092915050565b600081905092915050565b600082825260208201905092915050565b6000614abb82614c2d565b9150614ac683614c2d565b9250827fffffffffffffffffffffffffffffffffffffffffffffffffffffffffffffffff03821115614afb57614afa614d79565b5b828201905092915050565b6000614b1182614c2d565b9150614b1c83614c2d565b925082614b2c57614b2b614da8565b5b828204905092915050565b6000614b4282614c2d565b9150614b4d83614c2d565b9250817fffffffffffffffffffffffffffffffffffffffffffffffffffffffffffffffff0483118215151615614b8657614b85614d79565b5b828202905092915050565b6000614b9c82614c2d565b9150614ba783614c2d565b925082821015614bba57614bb9614d79565b5b828203905092915050565b6000614bd082614c0d565b9050919050565b6000614be282614c0d565b9050919050565b60008115159050919050565b6000819050919050565b600061ffff82169050919050565b600073ffffffffffffffffffffffffffffffffffffffff82169050919050565b6000819050919050565b600063ffffffff82169050919050565b600067ffffffffffffffff82169050919050565b600060ff82169050919050565b6000614c7382614c5b565b9050919050565b6000614c8582614bff565b9050919050565b82818337600083830152505050565b60005b83811015614cb9578082015181840152602081019050614c9e565b83811115614cc8576000848401525b50505050565b614cd782614e53565b810181811067ffffffffffffffff82111715614cf657614cf5614e06565b5b80604052505050565b6000614d0a82614c2d565b91507fffffffffffffffffffffffffffffffffffffffffffffffffffffffffffffffff821415614d3d57614d3c614d79565b5b600182019050919050565b6000614d5382614c2d565b9150614d5e83614c2d565b925082614d6e57614d6d614da8565b5b828206905092915050565b7f4e487b7100000000000000000000000000000000000000000000000000000000600052601160045260246000fd5b7f4e487b7100000000000000000000000000000000000000000000000000000000600052601260045260246000fd5b7f4e487b7100000000000000000000000000000000000000000000000000000000600052603260045260246000fd5b7f4e487b7100000000000000000000000000000000000000000000000000000000600052604160045260246000fd5b600080fd5b600080fd5b600080fd5b600080fd5b600080fd5b600080fd5b6000601f19601f8301169050919050565b7f72657175657374206e6f7420666f756e64000000000000000000000000000000600082015250565b7f5061757361626c653a206e6f7420706175736564000000000000000000000000600082015250565b7f706c65617365207761697420756e74696c207468652063757272656e7420666c60008201527f69702069732066696e6973686564000000000000000000000000000000000000602082015250565b7f4f776e61626c653a206e6577206f776e657220697320746865207a65726f206160008201527f6464726573730000000000000000000000000000000000000000000000000000602082015250565b7f706c656173652077616974203630207365636f6e647320616674657220666c6960008201527f7020726571756573740000000000000000000000000000000000000000000000602082015250565b7f46756e6374696f6e206d7573742062652063616c6c6564207468726f7567682060008201527f64656c656761746563616c6c0000000000000000000000000000000000000000602082015250565b7f46756e6374696f6e206d7573742062652063616c6c6564207468726f7567682060008201527f6163746976652070726f78790000000000000000000000000000000000000000602082015250565b7f555550535570677261646561626c653a206d757374206e6f742062652063616c60008201527f6c6564207468726f7567682064656c656761746563616c6c0000000000000000602082015250565b7f5061757361626c653a2070617573656400000000000000000000000000000000600082015250565b7f45524331393637557067726164653a20756e737570706f727465642070726f7860008201527f6961626c65555549440000000000000000000000000000000000000000000000602082015250565b7f496e697469616c697a61626c653a20636f6e747261637420697320616c72656160008201527f647920696e697469616c697a6564000000000000000000000000000000000000602082015250565b7f63616c6c6572206973206e6f7420746865206f70657261746f72730000000000600082015250565b7f45524331393637557067726164653a206e657720696d706c656d656e7461746960008201527f6f6e206973206e6f742055555053000000000000000000000000000000000000602082015250565b7f636c61696d20616d6f756e7420657863656564732062616c616e636500000000600082015250565b7f455243313936373a206e657720696d706c656d656e746174696f6e206973206e60008201527f6f74206120636f6e747261637400000000000000000000000000000000000000602082015250565b7f4f776e61626c653a2063616c6c6572206973206e6f7420746865206f776e6572600082015250565b7f6d6f6e657920696e207468652062616e6b206973206e6f7420656e6f7567682060008201527f746f20666c697000000000000000000000000000000000000000000000000000602082015250565b7f496e76616c69642062657420616d6f756e740000000000000000000000000000600082015250565b7f616c72656164792066756c66696c6c6564000000000000000000000000000000600082015250565b7f416464726573733a2064656c65676174652063616c6c20746f206e6f6e2d636f60008201527f6e74726163740000000000000000000000000000000000000000000000000000602082015250565b50565b7f6e6f7420656e6f756768206d6f6e657920746f20666c69700000000000000000600082015250565b7f696e76616c696420686561642f7461696c20696e707574000000000000000000600082015250565b7f4661696c656420746f2073656e6420424e422066726f6d2044656f646457616c60008201527f6c65740000000000000000000000000000000000000000000000000000000000602082015250565b7f496e697469616c697a61626c653a20636f6e7472616374206973206e6f74206960008201527f6e697469616c697a696e67000000000000000000000000000000000000000000602082015250565b7f5265656e7472616e637947756172643a207265656e7472616e742063616c6c00600082015250565b61548581614bc5565b811461549057600080fd5b50565b61549c81614bd7565b81146154a757600080fd5b50565b6154b381614be9565b81146154be57600080fd5b50565b6154ca81614bf5565b81146154d557600080fd5b50565b6154e181614bff565b81146154ec57600080fd5b50565b6154f881614c2d565b811461550357600080fd5b50565b61550f81614c37565b811461551a57600080fd5b50565b61552681614c47565b811461553157600080fd5b5056fe416464726573733a206c6f772d6c6576656c2064656c65676174652063616c6c206661696c6564a264697066735822122022ce6aad8233416d29fe37fd714c8926540a59a000b57b746e9e7c9546e0d04f64736f6c63430008070033",
  "linkReferences": {},
  "deployedLinkReferences": {}
}