{
  "_format": "hh-sol-artifact-1",
  "contractName": "Deodd",
  "sourceName": "contracts/Deodd.sol",
  "abi": [
    {
      "inputs": [
        {
          "internalType": "address",
          "name": "have",
          "type": "address"
        },
        {
          "internalType": "address",
          "name": "want",
          "type": "address"
        }
      ],
      "name": "OnlyCoordinatorCanFulfill",
      "type": "error"
    },
    {
      "anonymous": false,
      "inputs": [
        {
          "indexed": false,
          "internalType": "address",
          "name": "previousAdmin",
          "type": "address"
        },
        {
          "indexed": false,
          "internalType": "address",
          "name": "newAdmin",
          "type": "address"
        }
      ],
      "name": "AdminChanged",
      "type": "event"
    },
    {
      "anonymous": false,
      "inputs": [
        {
          "indexed": true,
          "internalType": "address",
          "name": "beacon",
          "type": "address"
        }
      ],
      "name": "BeaconUpgraded",
      "type": "event"
    },
    {
      "anonymous": false,
      "inputs": [
        {
          "indexed": false,
          "internalType": "uint256",
          "name": "fId",
          "type": "uint256"
        },
        {
          "indexed": false,
          "internalType": "uint256",
          "name": "randomValue",
          "type": "uint256"
        },
        {
          "indexed": false,
          "internalType": "uint256",
          "name": "flipResult",
          "type": "uint256"
        },
        {
          "indexed": false,
          "internalType": "uint256",
          "name": "timestamp",
          "type": "uint256"
        }
      ],
      "name": "FlipResult",
      "type": "event"
    },
    {
      "anonymous": false,
      "inputs": [
        {
          "indexed": false,
          "internalType": "uint8",
          "name": "version",
          "type": "uint8"
        }
      ],
      "name": "Initialized",
      "type": "event"
    },
    {
      "anonymous": false,
      "inputs": [
        {
          "indexed": true,
          "internalType": "address",
          "name": "previousOwner",
          "type": "address"
        },
        {
          "indexed": true,
          "internalType": "address",
          "name": "newOwner",
          "type": "address"
        }
      ],
      "name": "OwnershipTransferred",
      "type": "event"
    },
    {
      "anonymous": false,
      "inputs": [
        {
          "indexed": true,
          "internalType": "address",
          "name": "from",
          "type": "address"
        },
        {
          "indexed": false,
          "internalType": "uint256",
          "name": "amount",
          "type": "uint256"
        }
      ],
      "name": "ReceiveBNB",
      "type": "event"
    },
    {
      "anonymous": false,
      "inputs": [
        {
          "indexed": true,
          "internalType": "address",
          "name": "user",
          "type": "address"
        },
        {
          "indexed": false,
          "internalType": "uint256",
          "name": "requestId",
          "type": "uint256"
        }
      ],
      "name": "RequestSent",
      "type": "event"
    },
    {
      "anonymous": false,
      "inputs": [
        {
          "indexed": true,
          "internalType": "address",
          "name": "user",
          "type": "address"
        },
        {
          "indexed": false,
          "internalType": "uint256",
          "name": "flipId",
          "type": "uint256"
        },
        {
          "indexed": false,
          "internalType": "uint256",
          "name": "requestId",
          "type": "uint256"
        },
        {
          "indexed": false,
          "internalType": "uint256",
          "name": "amount",
          "type": "uint256"
        }
      ],
      "name": "RollbackFlip",
      "type": "event"
    },
    {
      "anonymous": false,
      "inputs": [
        {
          "indexed": true,
          "internalType": "address",
          "name": "user",
          "type": "address"
        },
        {
          "indexed": false,
          "internalType": "uint256",
          "name": "flipId",
          "type": "uint256"
        },
        {
          "indexed": false,
          "internalType": "uint256",
          "name": "requestId",
          "type": "uint256"
        },
        {
          "indexed": false,
          "internalType": "uint256",
          "name": "amount",
          "type": "uint256"
        }
      ],
      "name": "RollbackUnfulfilled",
      "type": "event"
    },
    {
      "anonymous": false,
      "inputs": [
        {
          "indexed": true,
          "internalType": "address",
          "name": "implementation",
          "type": "address"
        }
      ],
      "name": "Upgraded",
      "type": "event"
    },
    {
      "anonymous": false,
      "inputs": [
        {
          "indexed": true,
          "internalType": "address",
          "name": "user",
          "type": "address"
        },
        {
          "indexed": false,
          "internalType": "uint256",
          "name": "fId",
          "type": "uint256"
        },
        {
          "indexed": false,
          "internalType": "uint256",
          "name": "requestId",
          "type": "uint256"
        },
        {
          "indexed": false,
          "internalType": "uint256",
          "name": "amount",
          "type": "uint256"
        },
        {
          "indexed": false,
          "internalType": "uint256",
          "name": "flipChoice",
          "type": "uint256"
        },
        {
          "indexed": false,
          "internalType": "uint256",
          "name": "requestedAt",
          "type": "uint256"
        }
      ],
      "name": "UserFlip",
      "type": "event"
    },
    {
      "inputs": [
        {
          "internalType": "uint256",
          "name": "bId",
          "type": "uint256"
        }
      ],
      "name": "calcServiceFee",
      "outputs": [
        {
          "internalType": "uint256",
          "name": "",
          "type": "uint256"
        }
      ],
      "stateMutability": "view",
      "type": "function"
    },
    {
      "inputs": [
        {
          "internalType": "uint256",
          "name": "flipChoice",
          "type": "uint256"
        },
        {
          "internalType": "uint256",
          "name": "bId",
          "type": "uint256"
        }
      ],
      "name": "flipTheCoin",
      "outputs": [],
      "stateMutability": "payable",
      "type": "function"
    },
    {
      "inputs": [],
      "name": "getBetAmount",
      "outputs": [
        {
          "internalType": "uint256[]",
          "name": "",
          "type": "uint256[]"
        }
      ],
      "stateMutability": "view",
      "type": "function"
    },
    {
      "inputs": [],
      "name": "getConfig",
      "outputs": [
        {
          "components": [
            {
              "internalType": "uint64",
              "name": "s_subscriptionId",
              "type": "uint64"
            },
            {
              "internalType": "bytes32",
              "name": "keyHash",
              "type": "bytes32"
            },
            {
              "internalType": "uint32",
              "name": "callbackGasLimit",
              "type": "uint32"
            },
            {
              "internalType": "uint16",
              "name": "numWords",
              "type": "uint16"
            },
            {
              "internalType": "uint16",
              "name": "requestConfirmations",
              "type": "uint16"
            }
          ],
          "internalType": "struct DeoddFlipCoin.VRFConfig",
          "name": "",
          "type": "tuple"
        }
      ],
      "stateMutability": "view",
      "type": "function"
    },
    {
      "inputs": [],
      "name": "getCoordinator",
      "outputs": [
        {
          "internalType": "address",
          "name": "",
          "type": "address"
        }
      ],
      "stateMutability": "view",
      "type": "function"
    },
    {
      "inputs": [
        {
          "internalType": "uint256",
          "name": "_requestId",
          "type": "uint256"
        }
      ],
      "name": "getFlipCoin",
      "outputs": [
        {
          "components": [
            {
              "internalType": "bool",
              "name": "fulfilled",
              "type": "bool"
            },
            {
              "internalType": "bool",
              "name": "exists",
              "type": "bool"
            },
            {
              "internalType": "uint256",
              "name": "fId",
              "type": "uint256"
            },
            {
              "internalType": "uint256",
              "name": "flipChoice",
              "type": "uint256"
            },
            {
              "internalType": "uint256",
              "name": "randomValue",
              "type": "uint256"
            },
            {
              "internalType": "uint256",
              "name": "amount",
              "type": "uint256"
            },
            {
              "internalType": "uint256",
              "name": "requestedAt",
              "type": "uint256"
            },
            {
              "internalType": "uint256",
              "name": "fulfilledAt",
              "type": "uint256"
            },
            {
              "internalType": "address",
              "name": "user",
              "type": "address"
            }
          ],
          "internalType": "struct DeoddFlipCoin.FlipCoin",
          "name": "",
          "type": "tuple"
        }
      ],
      "stateMutability": "view",
      "type": "function"
    },
    {
      "inputs": [],
      "name": "getImplementation",
      "outputs": [
        {
          "internalType": "address",
          "name": "",
          "type": "address"
        }
      ],
      "stateMutability": "view",
      "type": "function"
    },
    {
      "inputs": [],
      "name": "initialize",
      "outputs": [],
      "stateMutability": "nonpayable",
      "type": "function"
    },
    {
      "inputs": [
        {
          "internalType": "address",
          "name": "operator",
          "type": "address"
        }
      ],
      "name": "isOperator",
      "outputs": [
        {
          "internalType": "bool",
          "name": "",
          "type": "bool"
        }
      ],
      "stateMutability": "view",
      "type": "function"
    },
    {
      "inputs": [],
      "name": "owner",
      "outputs": [
        {
          "internalType": "address",
          "name": "",
          "type": "address"
        }
      ],
      "stateMutability": "view",
      "type": "function"
    },
    {
      "inputs": [],
      "name": "pendingRequestExists",
      "outputs": [
        {
          "internalType": "bool",
          "name": "",
          "type": "bool"
        }
      ],
      "stateMutability": "view",
      "type": "function"
    },
    {
      "inputs": [],
      "name": "proxiableUUID",
      "outputs": [
        {
          "internalType": "bytes32",
          "name": "",
          "type": "bytes32"
        }
      ],
      "stateMutability": "view",
      "type": "function"
    },
    {
      "inputs": [
        {
          "internalType": "uint256",
          "name": "requestId",
          "type": "uint256"
        },
        {
          "internalType": "uint256[]",
          "name": "randomWords",
          "type": "uint256[]"
        }
      ],
      "name": "rawFulfillRandomWords",
      "outputs": [],
      "stateMutability": "nonpayable",
      "type": "function"
    },
    {
      "inputs": [
        {
          "internalType": "address",
          "name": "operator",
          "type": "address"
        }
      ],
      "name": "removeOperator",
      "outputs": [],
      "stateMutability": "nonpayable",
      "type": "function"
    },
    {
      "inputs": [],
      "name": "renounceOwnership",
      "outputs": [],
      "stateMutability": "nonpayable",
      "type": "function"
    },
    {
      "inputs": [],
      "name": "rollbackUnfulfilled",
      "outputs": [],
      "stateMutability": "nonpayable",
      "type": "function"
    },
    {
      "inputs": [
        {
          "internalType": "uint256",
          "name": "",
          "type": "uint256"
        }
      ],
      "name": "s_requests",
      "outputs": [
        {
          "internalType": "bool",
          "name": "fulfilled",
          "type": "bool"
        },
        {
          "internalType": "bool",
          "name": "exists",
          "type": "bool"
        },
        {
          "internalType": "uint256",
          "name": "fId",
          "type": "uint256"
        },
        {
          "internalType": "uint256",
          "name": "flipChoice",
          "type": "uint256"
        },
        {
          "internalType": "uint256",
          "name": "randomValue",
          "type": "uint256"
        },
        {
          "internalType": "uint256",
          "name": "amount",
          "type": "uint256"
        },
        {
          "internalType": "uint256",
          "name": "requestedAt",
          "type": "uint256"
        },
        {
          "internalType": "uint256",
          "name": "fulfilledAt",
          "type": "uint256"
        },
        {
          "internalType": "address",
          "name": "user",
          "type": "address"
        }
      ],
      "stateMutability": "view",
      "type": "function"
    },
    {
      "inputs": [],
      "name": "serviceFee",
      "outputs": [
        {
          "internalType": "uint256",
          "name": "",
          "type": "uint256"
        }
      ],
      "stateMutability": "view",
      "type": "function"
    },
    {
      "inputs": [
        {
          "internalType": "uint256[]",
          "name": "_betAmount",
          "type": "uint256[]"
        }
      ],
      "name": "setBetAmount",
      "outputs": [],
      "stateMutability": "nonpayable",
      "type": "function"
    },
    {
      "inputs": [
        {
          "components": [
            {
              "internalType": "uint64",
              "name": "s_subscriptionId",
              "type": "uint64"
            },
            {
              "internalType": "bytes32",
              "name": "keyHash",
              "type": "bytes32"
            },
            {
              "internalType": "uint32",
              "name": "callbackGasLimit",
              "type": "uint32"
            },
            {
              "internalType": "uint16",
              "name": "numWords",
              "type": "uint16"
            },
            {
              "internalType": "uint16",
              "name": "requestConfirmations",
              "type": "uint16"
            }
          ],
          "internalType": "struct DeoddFlipCoin.VRFConfig",
          "name": "cfg",
          "type": "tuple"
        }
      ],
      "name": "setConfig",
      "outputs": [],
      "stateMutability": "nonpayable",
      "type": "function"
    },
    {
      "inputs": [
        {
          "internalType": "address",
          "name": "_vrfCoordinator",
          "type": "address"
        }
      ],
      "name": "setCoordinator",
      "outputs": [],
      "stateMutability": "nonpayable",
      "type": "function"
    },
    {
      "inputs": [
        {
          "internalType": "address",
          "name": "user",
          "type": "address"
        },
        {
          "internalType": "uint256",
          "name": "requestId",
          "type": "uint256"
        }
      ],
      "name": "setLastRequestId",
      "outputs": [],
      "stateMutability": "nonpayable",
      "type": "function"
    },
    {
      "inputs": [
        {
          "internalType": "address",
          "name": "operator",
          "type": "address"
        }
      ],
      "name": "setOperator",
      "outputs": [],
      "stateMutability": "nonpayable",
      "type": "function"
    },
    {
      "inputs": [
        {
          "internalType": "uint256",
          "name": "sf",
          "type": "uint256"
        }
      ],
      "name": "setServiceFee",
      "outputs": [],
      "stateMutability": "nonpayable",
      "type": "function"
    },
    {
      "inputs": [
        {
          "internalType": "uint256",
          "name": "_vrfFee",
          "type": "uint256"
        }
      ],
      "name": "setVRFee",
      "outputs": [],
      "stateMutability": "nonpayable",
      "type": "function"
    },
    {
      "inputs": [
        {
          "internalType": "address payable",
          "name": "wallet",
          "type": "address"
        }
      ],
      "name": "setWallet",
      "outputs": [],
      "stateMutability": "nonpayable",
      "type": "function"
    },
    {
      "inputs": [
        {
          "internalType": "address",
          "name": "newOwner",
          "type": "address"
        }
      ],
      "name": "transferOwnership",
      "outputs": [],
      "stateMutability": "nonpayable",
      "type": "function"
    },
    {
      "inputs": [
        {
          "internalType": "address",
          "name": "newImplementation",
          "type": "address"
        }
      ],
      "name": "upgradeTo",
      "outputs": [],
      "stateMutability": "nonpayable",
      "type": "function"
    },
    {
      "inputs": [
        {
          "internalType": "address",
          "name": "newImplementation",
          "type": "address"
        },
        {
          "internalType": "bytes",
          "name": "data",
          "type": "bytes"
        }
      ],
      "name": "upgradeToAndCall",
      "outputs": [],
      "stateMutability": "payable",
      "type": "function"
    },
    {
      "inputs": [],
      "name": "vrfFee",
      "outputs": [
        {
          "internalType": "uint256",
          "name": "",
          "type": "uint256"
        }
      ],
      "stateMutability": "view",
      "type": "function"
    },
    {
      "inputs": [
        {
          "internalType": "address",
          "name": "to",
          "type": "address"
        },
        {
          "internalType": "bool",
          "name": "allBNB",
          "type": "bool"
        },
        {
          "internalType": "uint256",
          "name": "amount",
          "type": "uint256"
        }
      ],
      "name": "withdrawBNB",
      "outputs": [],
      "stateMutability": "nonpayable",
      "type": "function"
    },
    {
      "stateMutability": "payable",
      "type": "receive"
    }
  ],
  "bytecode": "0x60a06040523073ffffffffffffffffffffffffffffffffffffffff1660809073ffffffffffffffffffffffffffffffffffffffff1660601b81525034801561004657600080fd5b5060805160601c614faa6100816000396000818161090f0152818161099e01528181610aab01528181610b3a0152610bea0152614faa6000f3fe6080604052600436106101dc5760003560e01c80638abdf5aa11610102578063b332639a11610095578063deaa59df11610064578063deaa59df146106a1578063f2fde38b146106ca578063fd80729d146106f3578063fde41e291461071c57610231565b8063b332639a1461061a578063b3ab15fb14610636578063c3f909d41461065f578063c70188ea1461068a57610231565b8063a168fa89116100d1578063a168fa8914610556578063a3ced7b91461059b578063aaf10f42146105c6578063ac8a584a146105f157610231565b80638abdf5aa1461049a5780638da5cb5b146104c55780638ea98117146104f0578063943ab22d1461051957610231565b806352d1902d1161017a578063715018a611610149578063715018a61461041857806371977fe01461042f57806373ba7f701461045a5780638129fc1c1461048357610231565b806352d1902d1461035e578063548acb76146103895780635cdf76f8146103b25780636d70f7ae146103db57610231565b80631fe543e3116101b65780631fe543e3146102c75780633659cfe6146102f05780633aff6851146103195780634f1ef2861461034257610231565b80630fd4e4b6146102365780631017507d1461025f5780631154e3b81461028a57610231565b36610231573373ffffffffffffffffffffffffffffffffffffffff167f344d9d9b1c237ca7e367c0536bc9744a50eb5d6976b76f09a09cb3e7e871df5d346040516102279190614329565b60405180910390a2005b600080fd5b34801561024257600080fd5b5061025d600480360381019061025891906136aa565b610747565b005b34801561026b57600080fd5b506102746107fe565b6040516102819190614329565b60405180910390f35b34801561029657600080fd5b506102b160048036038101906102ac91906136d7565b610805565b6040516102be9190614329565b60405180910390f35b3480156102d357600080fd5b506102ee60048036038101906102e99190613731565b610849565b005b3480156102fc57600080fd5b50610317600480360381019061031291906134be565b61090d565b005b34801561032557600080fd5b50610340600480360381019061033b91906136d7565b610a96565b005b61035c6004803603810190610357919061356b565b610aa9565b005b34801561036a57600080fd5b50610373610be6565b6040516103809190613f67565b60405180910390f35b34801561039557600080fd5b506103b060048036038101906103ab9190613518565b610c9f565b005b3480156103be57600080fd5b506103d960048036038101906103d491906136d7565b610e55565b005b3480156103e757600080fd5b5061040260048036038101906103fd91906134be565b610e68565b60405161040f9190613ebf565b60405180910390f35b34801561042457600080fd5b5061042d610ebe565b005b34801561043b57600080fd5b50610444610ed2565b6040516104519190613e30565b60405180910390f35b34801561046657600080fd5b50610481600480360381019061047c91906135c7565b610efc565b005b34801561048f57600080fd5b50610498610f4c565b005b3480156104a657600080fd5b506104af611092565b6040516104bc9190614329565b60405180910390f35b3480156104d157600080fd5b506104da611099565b6040516104e79190613e30565b60405180910390f35b3480156104fc57600080fd5b50610517600480360381019061051291906134be565b6110c3565b005b34801561052557600080fd5b50610540600480360381019061053b91906136d7565b6111d4565b60405161054d91906142f2565b60405180910390f35b34801561056257600080fd5b5061057d600480360381019061057891906136d7565b61132d565b60405161059299989796959493929190613eda565b60405180910390f35b3480156105a757600080fd5b506105b06113b5565b6040516105bd9190613ebf565b60405180910390f35b3480156105d257600080fd5b506105db611480565b6040516105e89190613e30565b60405180910390f35b3480156105fd57600080fd5b50610618600480360381019061061391906134be565b61148f565b005b610634600480360381019061062f919061378d565b6114f2565b005b34801561064257600080fd5b5061065d600480360381019061065891906134be565b6117f6565b005b34801561066b57600080fd5b50610674611859565b604051610681919061430e565b60405180910390f35b34801561069657600080fd5b5061069f611915565b005b3480156106ad57600080fd5b506106c860048036038101906106c391906134eb565b611cf2565b005b3480156106d657600080fd5b506106f160048036038101906106ec91906134be565b611d3f565b005b3480156106ff57600080fd5b5061071a60048036038101906107159190613607565b611dc3565b005b34801561072857600080fd5b50610731611def565b60405161073e9190613e9d565b60405180910390f35b61074f611e48565b8060d060008201518160000160006101000a81548167ffffffffffffffff021916908367ffffffffffffffff1602179055506020820151816001015560408201518160020160006101000a81548163ffffffff021916908363ffffffff16021790555060608201518160020160046101000a81548161ffff021916908361ffff16021790555060808201518160020160066101000a81548161ffff021916908361ffff16021790555090505050565b6101065481565b600061271061010554610109848154811061082357610822614842565b5b906000526020600020015461083891906145a2565b6108429190614571565b9050919050565b606660009054906101000a900473ffffffffffffffffffffffffffffffffffffffff1673ffffffffffffffffffffffffffffffffffffffff163373ffffffffffffffffffffffffffffffffffffffff16146108ff5733606660009054906101000a900473ffffffffffffffffffffffffffffffffffffffff166040517f1cf993f40000000000000000000000000000000000000000000000000000000081526004016108f6929190613e4b565b60405180910390fd5b6109098282611ec6565b5050565b7f000000000000000000000000000000000000000000000000000000000000000073ffffffffffffffffffffffffffffffffffffffff163073ffffffffffffffffffffffffffffffffffffffff16141561099c576040517f08c379a000000000000000000000000000000000000000000000000000000000815260040161099390614072565b60405180910390fd5b7f000000000000000000000000000000000000000000000000000000000000000073ffffffffffffffffffffffffffffffffffffffff166109db612187565b73ffffffffffffffffffffffffffffffffffffffff1614610a31576040517f08c379a0000000000000000000000000000000000000000000000000000000008152600401610a2890614092565b60405180910390fd5b610a3a816121de565b610a9381600067ffffffffffffffff811115610a5957610a58614871565b5b6040519080825280601f01601f191660200182016040528015610a8b5781602001600182028036833780820191505090505b5060006121e9565b50565b610a9e611e48565b806101068190555050565b7f000000000000000000000000000000000000000000000000000000000000000073ffffffffffffffffffffffffffffffffffffffff163073ffffffffffffffffffffffffffffffffffffffff161415610b38576040517f08c379a0000000000000000000000000000000000000000000000000000000008152600401610b2f90614072565b60405180910390fd5b7f000000000000000000000000000000000000000000000000000000000000000073ffffffffffffffffffffffffffffffffffffffff16610b77612187565b73ffffffffffffffffffffffffffffffffffffffff1614610bcd576040517f08c379a0000000000000000000000000000000000000000000000000000000008152600401610bc490614092565b60405180910390fd5b610bd6826121de565b610be2828260016121e9565b5050565b60007f000000000000000000000000000000000000000000000000000000000000000073ffffffffffffffffffffffffffffffffffffffff163073ffffffffffffffffffffffffffffffffffffffff1614610c76576040517f08c379a0000000000000000000000000000000000000000000000000000000008152600401610c6d906140b2565b60405180910390fd5b7f360894a13ba1a3210667c828492db98dca3e2076cc3735a920a3ca505d382bbc60001b905090565b610ca7611e48565b8115610d5f5760008373ffffffffffffffffffffffffffffffffffffffff1647604051610cd390613e1b565b60006040518083038185875af1925050503d8060008114610d10576040519150601f19603f3d011682016040523d82523d6000602084013e610d15565b606091505b5050905080610d59576040517f08c379a0000000000000000000000000000000000000000000000000000000008152600401610d5090614272565b60405180910390fd5b50610e50565b47811115610da2576040517f08c379a0000000000000000000000000000000000000000000000000000000008152600401610d9990614152565b60405180910390fd5b60008373ffffffffffffffffffffffffffffffffffffffff1682604051610dc890613e1b565b60006040518083038185875af1925050503d8060008114610e05576040519150601f19603f3d011682016040523d82523d6000602084013e610e0a565b606091505b5050905080610e4e576040517f08c379a0000000000000000000000000000000000000000000000000000000008152600401610e4590614272565b60405180910390fd5b505b505050565b610e5d611e48565b806101058190555050565b6000606560008373ffffffffffffffffffffffffffffffffffffffff1673ffffffffffffffffffffffffffffffffffffffff16815260200190815260200160002060009054906101000a900460ff169050919050565b610ec6611e48565b610ed06000612366565b565b6000606660009054906101000a900473ffffffffffffffffffffffffffffffffffffffff16905090565b610f04611e48565b8060cd60008473ffffffffffffffffffffffffffffffffffffffff1673ffffffffffffffffffffffffffffffffffffffff168152602001908152602001600020819055505050565b60008060019054906101000a900460ff16159050808015610f7d5750600160008054906101000a900460ff1660ff16105b80610faa5750610f8c3061242c565b158015610fa95750600160008054906101000a900460ff1660ff16145b5b610fe9576040517f08c379a0000000000000000000000000000000000000000000000000000000008152600401610fe0906140f2565b60405180910390fd5b60016000806101000a81548160ff021916908360ff1602179055508015611026576001600060016101000a81548160ff0219169083151502179055505b61102e61244f565b61103661259d565b801561108f5760008060016101000a81548160ff0219169083151502179055507f7f26b83ff96e1f2b6a682f133852f6798a09c465da95921460cefb384740249860016040516110869190613fd5565b60405180910390a15b50565b6101055481565b6000603360009054906101000a900473ffffffffffffffffffffffffffffffffffffffff16905090565b606560003373ffffffffffffffffffffffffffffffffffffffff1673ffffffffffffffffffffffffffffffffffffffff16815260200190815260200160002060009054906101000a900460ff1661114f576040517f08c379a000000000000000000000000000000000000000000000000000000000815260040161114690614112565b60405180910390fd5b80606660006101000a81548173ffffffffffffffffffffffffffffffffffffffff021916908373ffffffffffffffffffffffffffffffffffffffff1602179055508060cf60006101000a81548173ffffffffffffffffffffffffffffffffffffffff021916908373ffffffffffffffffffffffffffffffffffffffff16021790555050565b6111dc613123565b60cc600083815260200190815260200160002060000160019054906101000a900460ff1661123f576040517f08c379a000000000000000000000000000000000000000000000000000000000815260040161123690614012565b60405180910390fd5b60cc6000838152602001908152602001600020604051806101200160405290816000820160009054906101000a900460ff161515151581526020016000820160019054906101000a900460ff161515151581526020016001820154815260200160028201548152602001600382015481526020016004820154815260200160058201548152602001600682015481526020016007820160009054906101000a900473ffffffffffffffffffffffffffffffffffffffff1673ffffffffffffffffffffffffffffffffffffffff1673ffffffffffffffffffffffffffffffffffffffff16815250509050919050565b60cc6020528060005260406000206000915090508060000160009054906101000a900460ff16908060000160019054906101000a900460ff16908060010154908060020154908060030154908060040154908060050154908060060154908060070160009054906101000a900473ffffffffffffffffffffffffffffffffffffffff16905089565b600060cf60009054906101000a900473ffffffffffffffffffffffffffffffffffffffff1673ffffffffffffffffffffffffffffffffffffffff1663e82ad7d460d060000160009054906101000a900467ffffffffffffffff166040518263ffffffff1660e01b815260040161142b9190614413565b60206040518083038186803b15801561144357600080fd5b505afa158015611457573d6000803e3d6000fd5b505050506040513d601f19601f8201168201806040525081019061147b9190613650565b905090565b600061148a612187565b905090565b611497611e48565b6000606560008373ffffffffffffffffffffffffffffffffffffffff1673ffffffffffffffffffffffffffffffffffffffff16815260200190815260200160002060006101000a81548160ff02191690831515021790555050565b80610108548110611538576040517f08c379a000000000000000000000000000000000000000000000000000000000815260040161152f906141d2565b60405180910390fd5b33600060cd60008373ffffffffffffffffffffffffffffffffffffffff1673ffffffffffffffffffffffffffffffffffffffff1681526020019081526020016000205414806115ed57506001151560cc600060cd60008573ffffffffffffffffffffffffffffffffffffffff1673ffffffffffffffffffffffffffffffffffffffff16815260200190815260200160002054815260200190815260200160002060000160009054906101000a900460ff161515145b61162c576040517f08c379a000000000000000000000000000000000000000000000000000000000815260040161162390614032565b60405180910390fd5b6116346125ee565b60028410611677576040517f08c379a000000000000000000000000000000000000000000000000000000000815260040161166e90614252565b60405180910390fd5b61010a60009054906101000a900473ffffffffffffffffffffffffffffffffffffffff1673ffffffffffffffffffffffffffffffffffffffff163161010984815481106116c7576116c6614842565b5b9060005260206000200154610107546116e0919061451b565b1115611721576040517f08c379a0000000000000000000000000000000000000000000000000000000008152600401611718906141b2565b60405180910390fd5b6000610109848154811061173857611737614842565b5b906000526020600020015490506000612710610105548361175991906145a2565b6117639190614571565b905034610106548284611776919061451b565b611780919061451b565b11156117c1576040517f08c379a00000000000000000000000000000000000000000000000000000000081526004016117b890614232565b60405180910390fd5b8161010760008282546117d4919061451b565b925050819055506117e633878461263e565b50506117f061295e565b50505050565b6117fe611e48565b6001606560008373ffffffffffffffffffffffffffffffffffffffff1673ffffffffffffffffffffffffffffffffffffffff16815260200190815260200160002060006101000a81548160ff02191690831515021790555050565b611861613189565b60d06040518060a00160405290816000820160009054906101000a900467ffffffffffffffff1667ffffffffffffffff1667ffffffffffffffff168152602001600182015481526020016002820160009054906101000a900463ffffffff1663ffffffff1663ffffffff1681526020016002820160049054906101000a900461ffff1661ffff1661ffff1681526020016002820160069054906101000a900461ffff1661ffff1661ffff1681525050905090565b6000151560cc600060cd60003373ffffffffffffffffffffffffffffffffffffffff1673ffffffffffffffffffffffffffffffffffffffff16815260200190815260200160002054815260200190815260200160002060000160009054906101000a900460ff161515146119be576040517f08c379a00000000000000000000000000000000000000000000000000000000081526004016119b5906141f2565b60405180910390fd5b61012c60cc600060cd60003373ffffffffffffffffffffffffffffffffffffffff1673ffffffffffffffffffffffffffffffffffffffff1681526020019081526020016000205481526020019081526020016000206005015442611a2291906145fc565b11611a62576040517f08c379a0000000000000000000000000000000000000000000000000000000008152600401611a59906142b2565b60405180910390fd5b600160cc600060cd60003373ffffffffffffffffffffffffffffffffffffffff1673ffffffffffffffffffffffffffffffffffffffff16815260200190815260200160002054815260200190815260200160002060000160006101000a81548160ff02191690831515021790555061010a60009054906101000a900473ffffffffffffffffffffffffffffffffffffffff1673ffffffffffffffffffffffffffffffffffffffff166381e18c103360cc600060cd60003373ffffffffffffffffffffffffffffffffffffffff1673ffffffffffffffffffffffffffffffffffffffff168152602001908152602001600020548152602001908152602001600020600401546040518363ffffffff1660e01b8152600401611b83929190613e74565b600060405180830381600087803b158015611b9d57600080fd5b505af1158015611bb1573d6000803e3d6000fd5b505050503373ffffffffffffffffffffffffffffffffffffffff167fd1303054c698dcd81f1e4d5accada6b96047630a63ac9eaa37f7724b50f1e46260cc600060cd60003373ffffffffffffffffffffffffffffffffffffffff1673ffffffffffffffffffffffffffffffffffffffff1681526020019081526020016000205481526020019081526020016000206001015460cd60003373ffffffffffffffffffffffffffffffffffffffff1673ffffffffffffffffffffffffffffffffffffffff1681526020019081526020016000205460cc600060cd60003373ffffffffffffffffffffffffffffffffffffffff1673ffffffffffffffffffffffffffffffffffffffff16815260200190815260200160002054815260200190815260200160002060040154604051611ce893929190614344565b60405180910390a2565b611cfa611e48565b8061010a60006101000a81548173ffffffffffffffffffffffffffffffffffffffff021916908373ffffffffffffffffffffffffffffffffffffffff16021790555050565b611d47611e48565b600073ffffffffffffffffffffffffffffffffffffffff168173ffffffffffffffffffffffffffffffffffffffff161415611db7576040517f08c379a0000000000000000000000000000000000000000000000000000000008152600401611dae90614052565b60405180910390fd5b611dc081612366565b50565b611dcb611e48565b806101099080519060200190611de29291906131d3565b5080516101088190555050565b6060610109805480602002602001604051908101604052809291908181526020018280548015611e3e57602002820191906000526020600020905b815481526020019060010190808311611e2a575b5050505050905090565b611e50612968565b73ffffffffffffffffffffffffffffffffffffffff16611e6e611099565b73ffffffffffffffffffffffffffffffffffffffff1614611ec4576040517f08c379a0000000000000000000000000000000000000000000000000000000008152600401611ebb90614192565b60405180910390fd5b565b6000151560cc600084815260200190815260200160002060000160009054906101000a900460ff16151514611f30576040517f08c379a0000000000000000000000000000000000000000000000000000000008152600401611f27906141f2565b60405180910390fd5b600160cc600084815260200190815260200160002060000160006101000a81548160ff02191690831515021790555080600081518110611f7357611f72614842565b5b602002602001015160cc6000848152602001908152602001600020600301819055504260cc60008481526020019081526020016000206006018190555060cc6000838152602001908152602001600020600401546101076000828254611fd991906145fc565b92505081905550600061202560cc600085815260200190815260200160002060020154600260cc60008781526020019081526020016000206003015461201f91906147b3565b14612970565b905060008111156121195761010a60009054906101000a900473ffffffffffffffffffffffffffffffffffffffff1673ffffffffffffffffffffffffffffffffffffffff16630dcdb45e60cc600086815260200190815260200160002060070160009054906101000a900473ffffffffffffffffffffffffffffffffffffffff16600260cc6000888152602001908152602001600020600401546120c991906145a2565b6040518363ffffffff1660e01b81526004016120e6929190613e74565b600060405180830381600087803b15801561210057600080fd5b505af1158015612114573d6000803e3d6000fd5b505050505b7fe454a3fee4904e839fdeeb5fc65267ff8dfa7ed5c9c795bfffc943de50e0cb7160cc60008581526020019081526020016000206001015460cc600086815260200190815260200160002060030154834260405161217a949392919061437b565b60405180910390a1505050565b60006121b57f360894a13ba1a3210667c828492db98dca3e2076cc3735a920a3ca505d382bbc60001b61297a565b60000160009054906101000a900473ffffffffffffffffffffffffffffffffffffffff16905090565b6121e6611e48565b50565b6122157f4910fdfa16fed3260ed0e7147f7cc6da11a60208b5b9406d12a635614ffd914360001b612984565b60000160009054906101000a900460ff1615612239576122348361298e565b612361565b8273ffffffffffffffffffffffffffffffffffffffff166352d1902d6040518163ffffffff1660e01b815260040160206040518083038186803b15801561227f57600080fd5b505afa9250505080156122b057506040513d601f19601f820116820180604052508101906122ad919061367d565b60015b6122ef576040517f08c379a00000000000000000000000000000000000000000000000000000000081526004016122e690614132565b60405180910390fd5b7f360894a13ba1a3210667c828492db98dca3e2076cc3735a920a3ca505d382bbc60001b8114612354576040517f08c379a000000000000000000000000000000000000000000000000000000000815260040161234b906140d2565b60405180910390fd5b50612360838383612a47565b5b505050565b6000603360009054906101000a900473ffffffffffffffffffffffffffffffffffffffff16905081603360006101000a81548173ffffffffffffffffffffffffffffffffffffffff021916908373ffffffffffffffffffffffffffffffffffffffff1602179055508173ffffffffffffffffffffffffffffffffffffffff168173ffffffffffffffffffffffffffffffffffffffff167f8be0079c531659141344cd1fd0a4f28419497f9722a3daafe3b4186f6b6457e060405160405180910390a35050565b6000808273ffffffffffffffffffffffffffffffffffffffff163b119050919050565b60008060019054906101000a900460ff161590508080156124805750600160008054906101000a900460ff1660ff16105b806124ad575061248f3061242c565b1580156124ac5750600160008054906101000a900460ff1660ff16145b5b6124ec576040517f08c379a00000000000000000000000000000000000000000000000000000000081526004016124e3906140f2565b60405180910390fd5b60016000806101000a81548160ff021916908360ff1602179055508015612529576001600060016101000a81548160ff0219169083151502179055505b612531612a73565b61253961259d565b612541612bb1565b801561259a5760008060016101000a81548160ff0219169083151502179055507f7f26b83ff96e1f2b6a682f133852f6798a09c465da95921460cefb384740249860016040516125919190613fd5565b60405180910390a15b50565b600060019054906101000a900460ff166125ec576040517f08c379a00000000000000000000000000000000000000000000000000000000081526004016125e390614292565b60405180910390fd5b565b600260d3541415612634576040517f08c379a000000000000000000000000000000000000000000000000000000000815260040161262b906142d2565b60405180910390fd5b600260d381905550565b600060cf60009054906101000a900473ffffffffffffffffffffffffffffffffffffffff1673ffffffffffffffffffffffffffffffffffffffff16635d3b1d3060d06001015460d060000160009054906101000a900467ffffffffffffffff1660d060020160069054906101000a900461ffff1660d060020160009054906101000a900463ffffffff1660d060020160049054906101000a900461ffff166040518663ffffffff1660e01b81526004016126fc959493929190613f82565b602060405180830381600087803b15801561271657600080fd5b505af115801561272a573d6000803e3d6000fd5b505050506040513d601f19601f8201168201806040525081019061274e9190613704565b905060cb60008154809291906127639061476a565b919050555060405180610120016040528060001515815260200160011515815260200160cb54815260200184815260200160638152602001838152602001428152602001600081526020018573ffffffffffffffffffffffffffffffffffffffff1681525060cc600083815260200190815260200160002060008201518160000160006101000a81548160ff02191690831515021790555060208201518160000160016101000a81548160ff02191690831515021790555060408201518160010155606082015181600201556080820151816003015560a0820151816004015560c0820151816005015560e082015181600601556101008201518160070160006101000a81548173ffffffffffffffffffffffffffffffffffffffff021916908373ffffffffffffffffffffffffffffffffffffffff1602179055509050508060cd60008673ffffffffffffffffffffffffffffffffffffffff1673ffffffffffffffffffffffffffffffffffffffff168152602001908152602001600020819055508060ce600060cb548152602001908152602001600020819055503373ffffffffffffffffffffffffffffffffffffffff167fe55c93a5b5a3b3124aed3ba1fe9e9c3eab06d54d4ef813cc700625d2c2aee0d860cb54838587426040516129509594939291906143c0565b60405180910390a250505050565b600160d381905550565b600033905090565b6000819050919050565b6000819050919050565b6000819050919050565b6129978161242c565b6129d6576040517f08c379a00000000000000000000000000000000000000000000000000000000081526004016129cd90614172565b60405180910390fd5b80612a037f360894a13ba1a3210667c828492db98dca3e2076cc3735a920a3ca505d382bbc60001b61297a565b60000160006101000a81548173ffffffffffffffffffffffffffffffffffffffff021916908373ffffffffffffffffffffffffffffffffffffffff16021790555050565b612a5083612d2e565b600082511180612a5d5750805b15612a6e57612a6c8383612d7d565b505b505050565b60008060019054906101000a900460ff16159050808015612aa45750600160008054906101000a900460ff1660ff16105b80612ad15750612ab33061242c565b158015612ad05750600160008054906101000a900460ff1660ff16145b5b612b10576040517f08c379a0000000000000000000000000000000000000000000000000000000008152600401612b07906140f2565b60405180910390fd5b60016000806101000a81548160ff021916908360ff1602179055508015612b4d576001600060016101000a81548160ff0219169083151502179055505b612b55612e61565b8015612bae5760008060016101000a81548160ff0219169083151502179055507f7f26b83ff96e1f2b6a682f133852f6798a09c465da95921460cefb38474024986001604051612ba59190613fd5565b60405180910390a15b50565b73a2d23627bc0314f4cbd08ff54ecb89bb45685053606660006101000a81548173ffffffffffffffffffffffffffffffffffffffff021916908373ffffffffffffffffffffffffffffffffffffffff160217905550606660009054906101000a900473ffffffffffffffffffffffffffffffffffffffff1660cf60006101000a81548173ffffffffffffffffffffffffffffffffffffffff021916908373ffffffffffffffffffffffffffffffffffffffff160217905550609e60d060000160006101000a81548167ffffffffffffffff021916908367ffffffffffffffff1602179055507f617abc3f53ae11766071d04ada1c7b0fbd49833b9542e9e91da4d3191c70cc8060001b60d060010181905550620186a060d060020160006101000a81548163ffffffff021916908363ffffffff160217905550600360d060020160066101000a81548161ffff021916908361ffff160217905550600160d060020160046101000a81548161ffff021916908361ffff160217905550565b612d378161298e565b8073ffffffffffffffffffffffffffffffffffffffff167fbc7cd75a20ee27fd9adebab32041f755214dbc6bffa90cc0225b39da2e5c2d3b60405160405180910390a250565b6060612d888361242c565b612dc7576040517f08c379a0000000000000000000000000000000000000000000000000000000008152600401612dbe90614212565b60405180910390fd5b6000808473ffffffffffffffffffffffffffffffffffffffff1684604051612def9190613e04565b600060405180830381855af49150503d8060008114612e2a576040519150601f19603f3d011682016040523d82523d6000602084013e612e2f565b606091505b5091509150612e578282604051806060016040528060278152602001614f4e60279139612ff7565b9250505092915050565b60008060019054906101000a900460ff16159050808015612e925750600160008054906101000a900460ff1660ff16105b80612ebf5750612ea13061242c565b158015612ebe5750600160008054906101000a900460ff1660ff16145b5b612efe576040517f08c379a0000000000000000000000000000000000000000000000000000000008152600401612ef5906140f2565b60405180910390fd5b60016000806101000a81548160ff021916908360ff1602179055508015612f3b576001600060016101000a81548160ff0219169083151502179055505b612f43613019565b6001606560003373ffffffffffffffffffffffffffffffffffffffff1673ffffffffffffffffffffffffffffffffffffffff16815260200190815260200160002060006101000a81548160ff0219169083151502179055508015612ff45760008060016101000a81548160ff0219169083151502179055507f7f26b83ff96e1f2b6a682f133852f6798a09c465da95921460cefb38474024986001604051612feb9190613fd5565b60405180910390a15b50565b6060831561300757829050613012565b6130118383613072565b5b9392505050565b600060019054906101000a900460ff16613068576040517f08c379a000000000000000000000000000000000000000000000000000000000815260040161305f90614292565b60405180910390fd5b6130706130c2565b565b6000825111156130855781518083602001fd5b806040517f08c379a00000000000000000000000000000000000000000000000000000000081526004016130b99190613ff0565b60405180910390fd5b600060019054906101000a900460ff16613111576040517f08c379a000000000000000000000000000000000000000000000000000000000815260040161310890614292565b60405180910390fd5b61312161311c612968565b612366565b565b604051806101200160405280600015158152602001600015158152602001600081526020016000815260200160008152602001600081526020016000815260200160008152602001600073ffffffffffffffffffffffffffffffffffffffff1681525090565b6040518060a00160405280600067ffffffffffffffff16815260200160008019168152602001600063ffffffff168152602001600061ffff168152602001600061ffff1681525090565b82805482825590600052602060002090810192821561320f579160200282015b8281111561320e5782518255916020019190600101906131f3565b5b50905061321c9190613220565b5090565b5b80821115613239576000816000905550600101613221565b5090565b600061325061324b84614453565b61442e565b90508083825260208201905082856020860282011115613273576132726148aa565b5b60005b858110156132a35781613289888261346a565b845260208401935060208301925050600181019050613276565b5050509392505050565b60006132c06132bb8461447f565b61442e565b9050828152602081018484840111156132dc576132db6148af565b5b6132e78482856146f7565b509392505050565b6000813590506132fe81614e95565b92915050565b60008135905061331381614eac565b92915050565b600082601f83011261332e5761332d6148a0565b5b813561333e84826020860161323d565b91505092915050565b60008135905061335681614ec3565b92915050565b60008151905061336b81614ec3565b92915050565b60008135905061338081614eda565b92915050565b60008151905061339581614eda565b92915050565b600082601f8301126133b0576133af6148a0565b5b81356133c08482602086016132ad565b91505092915050565b600060a082840312156133df576133de6148a5565b5b6133e960a061442e565b905060006133f9848285016134a9565b600083015250602061340d84828501613371565b602083015250604061342184828501613494565b604083015250606061343584828501613455565b606083015250608061344984828501613455565b60808301525092915050565b60008135905061346481614ef1565b92915050565b60008135905061347981614f08565b92915050565b60008151905061348e81614f08565b92915050565b6000813590506134a381614f1f565b92915050565b6000813590506134b881614f36565b92915050565b6000602082840312156134d4576134d36148b9565b5b60006134e2848285016132ef565b91505092915050565b600060208284031215613501576135006148b9565b5b600061350f84828501613304565b91505092915050565b600080600060608486031215613531576135306148b9565b5b600061353f868287016132ef565b935050602061355086828701613347565b92505060406135618682870161346a565b9150509250925092565b60008060408385031215613582576135816148b9565b5b6000613590858286016132ef565b925050602083013567ffffffffffffffff8111156135b1576135b06148b4565b5b6135bd8582860161339b565b9150509250929050565b600080604083850312156135de576135dd6148b9565b5b60006135ec858286016132ef565b92505060206135fd8582860161346a565b9150509250929050565b60006020828403121561361d5761361c6148b9565b5b600082013567ffffffffffffffff81111561363b5761363a6148b4565b5b61364784828501613319565b91505092915050565b600060208284031215613666576136656148b9565b5b60006136748482850161335c565b91505092915050565b600060208284031215613693576136926148b9565b5b60006136a184828501613386565b91505092915050565b600060a082840312156136c0576136bf6148b9565b5b60006136ce848285016133c9565b91505092915050565b6000602082840312156136ed576136ec6148b9565b5b60006136fb8482850161346a565b91505092915050565b60006020828403121561371a576137196148b9565b5b60006137288482850161347f565b91505092915050565b60008060408385031215613748576137476148b9565b5b60006137568582860161346a565b925050602083013567ffffffffffffffff811115613777576137766148b4565b5b61378385828601613319565b9150509250929050565b600080604083850312156137a4576137a36148b9565b5b60006137b28582860161346a565b92505060206137c38582860161346a565b9150509250929050565b60006137d98383613daa565b60208301905092915050565b6137ee81614630565b82525050565b6137fd81614630565b82525050565b600061380e826144c0565b61381881856144ee565b9350613823836144b0565b8060005b8381101561385457815161383b88826137cd565b9750613846836144e1565b925050600181019050613827565b5085935050505092915050565b61386a81614654565b82525050565b61387981614654565b82525050565b61388881614660565b82525050565b61389781614660565b82525050565b60006138a8826144cb565b6138b281856144ff565b93506138c2818560208601614706565b80840191505092915050565b6138d7816146d3565b82525050565b60006138e8826144d6565b6138f2818561450a565b9350613902818560208601614706565b61390b816148be565b840191505092915050565b600061392360118361450a565b915061392e826148cf565b602082019050919050565b6000613946602e8361450a565b9150613951826148f8565b604082019050919050565b600061396960268361450a565b915061397482614947565b604082019050919050565b600061398c602c8361450a565b915061399782614996565b604082019050919050565b60006139af602c8361450a565b91506139ba826149e5565b604082019050919050565b60006139d260388361450a565b91506139dd82614a34565b604082019050919050565b60006139f560298361450a565b9150613a0082614a83565b604082019050919050565b6000613a18602e8361450a565b9150613a2382614ad2565b604082019050919050565b6000613a3b601b8361450a565b9150613a4682614b21565b602082019050919050565b6000613a5e602e8361450a565b9150613a6982614b4a565b604082019050919050565b6000613a81601c8361450a565b9150613a8c82614b99565b602082019050919050565b6000613aa4602d8361450a565b9150613aaf82614bc2565b604082019050919050565b6000613ac760208361450a565b9150613ad282614c11565b602082019050919050565b6000613aea60278361450a565b9150613af582614c3a565b604082019050919050565b6000613b0d60128361450a565b9150613b1882614c89565b602082019050919050565b6000613b3060118361450a565b9150613b3b82614cb2565b602082019050919050565b6000613b5360268361450a565b9150613b5e82614cdb565b604082019050919050565b6000613b766000836144ff565b9150613b8182614d2a565b600082019050919050565b6000613b9960188361450a565b9150613ba482614d2d565b602082019050919050565b6000613bbc60178361450a565b9150613bc782614d56565b602082019050919050565b6000613bdf60238361450a565b9150613bea82614d7f565b604082019050919050565b6000613c02602b8361450a565b9150613c0d82614dce565b604082019050919050565b6000613c2560238361450a565b9150613c3082614e1d565b604082019050919050565b6000613c48601f8361450a565b9150613c5382614e6c565b602082019050919050565b61012082016000820151613c756000850182613861565b506020820151613c886020850182613861565b506040820151613c9b6040850182613daa565b506060820151613cae6060850182613daa565b506080820151613cc16080850182613daa565b5060a0820151613cd460a0850182613daa565b5060c0820151613ce760c0850182613daa565b5060e0820151613cfa60e0850182613daa565b50610100820151613d0f6101008501826137e5565b50505050565b60a082016000820151613d2b6000850182613de6565b506020820151613d3e602085018261387f565b506040820151613d516040850182613dc8565b506060820151613d646060850182613d7d565b506080820151613d776080850182613d7d565b50505050565b613d868161466a565b82525050565b613d958161466a565b82525050565b613da4816146e5565b82525050565b613db381614698565b82525050565b613dc281614698565b82525050565b613dd1816146a2565b82525050565b613de0816146a2565b82525050565b613def816146b2565b82525050565b613dfe816146b2565b82525050565b6000613e10828461389d565b915081905092915050565b6000613e2682613b69565b9150819050919050565b6000602082019050613e4560008301846137f4565b92915050565b6000604082019050613e6060008301856137f4565b613e6d60208301846137f4565b9392505050565b6000604082019050613e8960008301856137f4565b613e966020830184613db9565b9392505050565b60006020820190508181036000830152613eb78184613803565b905092915050565b6000602082019050613ed46000830184613870565b92915050565b600061012082019050613ef0600083018c613870565b613efd602083018b613870565b613f0a604083018a613db9565b613f176060830189613db9565b613f246080830188613db9565b613f3160a0830187613db9565b613f3e60c0830186613db9565b613f4b60e0830185613db9565b613f596101008301846137f4565b9a9950505050505050505050565b6000602082019050613f7c600083018461388e565b92915050565b600060a082019050613f97600083018861388e565b613fa46020830187613df5565b613fb16040830186613d8c565b613fbe6060830185613dd7565b613fcb6080830184613d9b565b9695505050505050565b6000602082019050613fea60008301846138ce565b92915050565b6000602082019050818103600083015261400a81846138dd565b905092915050565b6000602082019050818103600083015261402b81613916565b9050919050565b6000602082019050818103600083015261404b81613939565b9050919050565b6000602082019050818103600083015261406b8161395c565b9050919050565b6000602082019050818103600083015261408b8161397f565b9050919050565b600060208201905081810360008301526140ab816139a2565b9050919050565b600060208201905081810360008301526140cb816139c5565b9050919050565b600060208201905081810360008301526140eb816139e8565b9050919050565b6000602082019050818103600083015261410b81613a0b565b9050919050565b6000602082019050818103600083015261412b81613a2e565b9050919050565b6000602082019050818103600083015261414b81613a51565b9050919050565b6000602082019050818103600083015261416b81613a74565b9050919050565b6000602082019050818103600083015261418b81613a97565b9050919050565b600060208201905081810360008301526141ab81613aba565b9050919050565b600060208201905081810360008301526141cb81613add565b9050919050565b600060208201905081810360008301526141eb81613b00565b9050919050565b6000602082019050818103600083015261420b81613b23565b9050919050565b6000602082019050818103600083015261422b81613b46565b9050919050565b6000602082019050818103600083015261424b81613b8c565b9050919050565b6000602082019050818103600083015261426b81613baf565b9050919050565b6000602082019050818103600083015261428b81613bd2565b9050919050565b600060208201905081810360008301526142ab81613bf5565b9050919050565b600060208201905081810360008301526142cb81613c18565b9050919050565b600060208201905081810360008301526142eb81613c3b565b9050919050565b6000610120820190506143086000830184613c5e565b92915050565b600060a0820190506143236000830184613d15565b92915050565b600060208201905061433e6000830184613db9565b92915050565b60006060820190506143596000830186613db9565b6143666020830185613db9565b6143736040830184613db9565b949350505050565b60006080820190506143906000830187613db9565b61439d6020830186613db9565b6143aa6040830185613db9565b6143b76060830184613db9565b95945050505050565b600060a0820190506143d56000830188613db9565b6143e26020830187613db9565b6143ef6040830186613db9565b6143fc6060830185613db9565b6144096080830184613db9565b9695505050505050565b60006020820190506144286000830184613df5565b92915050565b6000614438614449565b90506144448282614739565b919050565b6000604051905090565b600067ffffffffffffffff82111561446e5761446d614871565b5b602082029050602081019050919050565b600067ffffffffffffffff82111561449a57614499614871565b5b6144a3826148be565b9050602081019050919050565b6000819050602082019050919050565b600081519050919050565b600081519050919050565b600081519050919050565b6000602082019050919050565b600082825260208201905092915050565b600081905092915050565b600082825260208201905092915050565b600061452682614698565b915061453183614698565b9250827fffffffffffffffffffffffffffffffffffffffffffffffffffffffffffffffff03821115614566576145656147e4565b5b828201905092915050565b600061457c82614698565b915061458783614698565b92508261459757614596614813565b5b828204905092915050565b60006145ad82614698565b91506145b883614698565b9250817fffffffffffffffffffffffffffffffffffffffffffffffffffffffffffffffff04831182151516156145f1576145f06147e4565b5b828202905092915050565b600061460782614698565b915061461283614698565b925082821015614625576146246147e4565b5b828203905092915050565b600061463b82614678565b9050919050565b600061464d82614678565b9050919050565b60008115159050919050565b6000819050919050565b600061ffff82169050919050565b600073ffffffffffffffffffffffffffffffffffffffff82169050919050565b6000819050919050565b600063ffffffff82169050919050565b600067ffffffffffffffff82169050919050565b600060ff82169050919050565b60006146de826146c6565b9050919050565b60006146f08261466a565b9050919050565b82818337600083830152505050565b60005b83811015614724578082015181840152602081019050614709565b83811115614733576000848401525b50505050565b614742826148be565b810181811067ffffffffffffffff8211171561476157614760614871565b5b80604052505050565b600061477582614698565b91507fffffffffffffffffffffffffffffffffffffffffffffffffffffffffffffffff8214156147a8576147a76147e4565b5b600182019050919050565b60006147be82614698565b91506147c983614698565b9250826147d9576147d8614813565b5b828206905092915050565b7f4e487b7100000000000000000000000000000000000000000000000000000000600052601160045260246000fd5b7f4e487b7100000000000000000000000000000000000000000000000000000000600052601260045260246000fd5b7f4e487b7100000000000000000000000000000000000000000000000000000000600052603260045260246000fd5b7f4e487b7100000000000000000000000000000000000000000000000000000000600052604160045260246000fd5b600080fd5b600080fd5b600080fd5b600080fd5b600080fd5b600080fd5b6000601f19601f8301169050919050565b7f72657175657374206e6f7420666f756e64000000000000000000000000000000600082015250565b7f706c65617365207761697420756e74696c207468652063757272656e7420666c60008201527f69702069732066696e6973686564000000000000000000000000000000000000602082015250565b7f4f776e61626c653a206e6577206f776e657220697320746865207a65726f206160008201527f6464726573730000000000000000000000000000000000000000000000000000602082015250565b7f46756e6374696f6e206d7573742062652063616c6c6564207468726f7567682060008201527f64656c656761746563616c6c0000000000000000000000000000000000000000602082015250565b7f46756e6374696f6e206d7573742062652063616c6c6564207468726f7567682060008201527f6163746976652070726f78790000000000000000000000000000000000000000602082015250565b7f555550535570677261646561626c653a206d757374206e6f742062652063616c60008201527f6c6564207468726f7567682064656c656761746563616c6c0000000000000000602082015250565b7f45524331393637557067726164653a20756e737570706f727465642070726f7860008201527f6961626c65555549440000000000000000000000000000000000000000000000602082015250565b7f496e697469616c697a61626c653a20636f6e747261637420697320616c72656160008201527f647920696e697469616c697a6564000000000000000000000000000000000000602082015250565b7f63616c6c6572206973206e6f7420746865206f70657261746f72730000000000600082015250565b7f45524331393637557067726164653a206e657720696d706c656d656e7461746960008201527f6f6e206973206e6f742055555053000000000000000000000000000000000000602082015250565b7f636c61696d20616d6f756e7420657863656564732062616c616e636500000000600082015250565b7f455243313936373a206e657720696d706c656d656e746174696f6e206973206e60008201527f6f74206120636f6e747261637400000000000000000000000000000000000000602082015250565b7f4f776e61626c653a2063616c6c6572206973206e6f7420746865206f776e6572600082015250565b7f6d6f6e657920696e207468652062616e6b206973206e6f7420656e6f7567682060008201527f746f20666c697000000000000000000000000000000000000000000000000000602082015250565b7f496e76616c69642062657420616d6f756e740000000000000000000000000000600082015250565b7f616c72656164792066756c66696c6c6564000000000000000000000000000000600082015250565b7f416464726573733a2064656c65676174652063616c6c20746f206e6f6e2d636f60008201527f6e74726163740000000000000000000000000000000000000000000000000000602082015250565b50565b7f6e6f7420656e6f756768206d6f6e657920746f20666c69700000000000000000600082015250565b7f696e76616c696420686561642f7461696c20696e707574000000000000000000600082015250565b7f4661696c656420746f2073656e6420424e422066726f6d2044656f646457616c60008201527f6c65740000000000000000000000000000000000000000000000000000000000602082015250565b7f496e697469616c697a61626c653a20636f6e7472616374206973206e6f74206960008201527f6e697469616c697a696e67000000000000000000000000000000000000000000602082015250565b7f706c65617365207761697420356d696e20616674657220666c6970207265717560008201527f6573740000000000000000000000000000000000000000000000000000000000602082015250565b7f5265656e7472616e637947756172643a207265656e7472616e742063616c6c00600082015250565b614e9e81614630565b8114614ea957600080fd5b50565b614eb581614642565b8114614ec057600080fd5b50565b614ecc81614654565b8114614ed757600080fd5b50565b614ee381614660565b8114614eee57600080fd5b50565b614efa8161466a565b8114614f0557600080fd5b50565b614f1181614698565b8114614f1c57600080fd5b50565b614f28816146a2565b8114614f3357600080fd5b50565b614f3f816146b2565b8114614f4a57600080fd5b5056fe416464726573733a206c6f772d6c6576656c2064656c65676174652063616c6c206661696c6564a264697066735822122041e9b15bd4b659f612c9057d8bb473fe89100f00195144a294635ef995dbb09a64736f6c63430008070033",
  "linkReferences": {},
  "deployedLinkReferences": {}
}