{
  "_format": "hh-sol-artifact-1",
  "contractName": "Deodd",
  "sourceName": "contracts/Deodd.sol",
  "abi": [
    {
      "inputs": [
        {
          "internalType": "address",
          "name": "have",
          "type": "address"
        },
        {
          "internalType": "address",
          "name": "want",
          "type": "address"
        }
      ],
      "name": "OnlyCoordinatorCanFulfill",
      "type": "error"
    },
    {
      "anonymous": false,
      "inputs": [
        {
          "indexed": false,
          "internalType": "address",
          "name": "previousAdmin",
          "type": "address"
        },
        {
          "indexed": false,
          "internalType": "address",
          "name": "newAdmin",
          "type": "address"
        }
      ],
      "name": "AdminChanged",
      "type": "event"
    },
    {
      "anonymous": false,
      "inputs": [
        {
          "indexed": true,
          "internalType": "address",
          "name": "beacon",
          "type": "address"
        }
      ],
      "name": "BeaconUpgraded",
      "type": "event"
    },
    {
      "anonymous": false,
      "inputs": [
        {
          "indexed": true,
          "internalType": "address",
          "name": "wallet",
          "type": "address"
        },
        {
          "indexed": false,
          "internalType": "uint256",
          "name": "fId",
          "type": "uint256"
        },
        {
          "indexed": false,
          "internalType": "uint256",
          "name": "requestId",
          "type": "uint256"
        },
        {
          "indexed": false,
          "internalType": "uint256",
          "name": "amount",
          "type": "uint256"
        },
        {
          "indexed": false,
          "internalType": "uint256",
          "name": "flipChoice",
          "type": "uint256"
        },
        {
          "indexed": false,
          "internalType": "uint256",
          "name": "requestedAt",
          "type": "uint256"
        }
      ],
      "name": "Flip",
      "type": "event"
    },
    {
      "anonymous": false,
      "inputs": [
        {
          "indexed": true,
          "internalType": "address",
          "name": "wallet",
          "type": "address"
        },
        {
          "indexed": false,
          "internalType": "uint256",
          "name": "fId",
          "type": "uint256"
        },
        {
          "indexed": false,
          "internalType": "uint256",
          "name": "randomValue",
          "type": "uint256"
        },
        {
          "indexed": false,
          "internalType": "uint256",
          "name": "flipResult",
          "type": "uint256"
        },
        {
          "indexed": false,
          "internalType": "uint256",
          "name": "streakLength",
          "type": "uint256"
        },
        {
          "indexed": false,
          "internalType": "uint256",
          "name": "timestamp",
          "type": "uint256"
        }
      ],
      "name": "FlipResult",
      "type": "event"
    },
    {
      "anonymous": false,
      "inputs": [
        {
          "indexed": false,
          "internalType": "uint8",
          "name": "version",
          "type": "uint8"
        }
      ],
      "name": "Initialized",
      "type": "event"
    },
    {
      "anonymous": false,
      "inputs": [
        {
          "indexed": true,
          "internalType": "address",
          "name": "previousOwner",
          "type": "address"
        },
        {
          "indexed": true,
          "internalType": "address",
          "name": "newOwner",
          "type": "address"
        }
      ],
      "name": "OwnershipTransferred",
      "type": "event"
    },
    {
      "anonymous": false,
      "inputs": [
        {
          "indexed": false,
          "internalType": "address",
          "name": "account",
          "type": "address"
        }
      ],
      "name": "Paused",
      "type": "event"
    },
    {
      "anonymous": false,
      "inputs": [
        {
          "indexed": true,
          "internalType": "address",
          "name": "from",
          "type": "address"
        },
        {
          "indexed": false,
          "internalType": "uint256",
          "name": "amount",
          "type": "uint256"
        }
      ],
      "name": "ReceiveBNB",
      "type": "event"
    },
    {
      "anonymous": false,
      "inputs": [
        {
          "indexed": true,
          "internalType": "address",
          "name": "wallet",
          "type": "address"
        },
        {
          "indexed": false,
          "internalType": "uint256",
          "name": "requestId",
          "type": "uint256"
        }
      ],
      "name": "RequestSent",
      "type": "event"
    },
    {
      "anonymous": false,
      "inputs": [
        {
          "indexed": true,
          "internalType": "address",
          "name": "wallet",
          "type": "address"
        },
        {
          "indexed": false,
          "internalType": "uint256",
          "name": "flipId",
          "type": "uint256"
        },
        {
          "indexed": false,
          "internalType": "uint256",
          "name": "requestId",
          "type": "uint256"
        },
        {
          "indexed": false,
          "internalType": "uint256",
          "name": "amount",
          "type": "uint256"
        }
      ],
      "name": "RollbackFlip",
      "type": "event"
    },
    {
      "anonymous": false,
      "inputs": [
        {
          "indexed": true,
          "internalType": "address",
          "name": "wallet",
          "type": "address"
        },
        {
          "indexed": false,
          "internalType": "uint256",
          "name": "flipId",
          "type": "uint256"
        },
        {
          "indexed": false,
          "internalType": "uint256",
          "name": "requestId",
          "type": "uint256"
        },
        {
          "indexed": false,
          "internalType": "uint256",
          "name": "amount",
          "type": "uint256"
        }
      ],
      "name": "RollbackUnfulfilled",
      "type": "event"
    },
    {
      "anonymous": false,
      "inputs": [
        {
          "indexed": false,
          "internalType": "address",
          "name": "account",
          "type": "address"
        }
      ],
      "name": "Unpaused",
      "type": "event"
    },
    {
      "anonymous": false,
      "inputs": [
        {
          "indexed": true,
          "internalType": "address",
          "name": "implementation",
          "type": "address"
        }
      ],
      "name": "Upgraded",
      "type": "event"
    },
    {
      "inputs": [
        {
          "internalType": "uint256",
          "name": "bId",
          "type": "uint256"
        }
      ],
      "name": "calcServiceFee",
      "outputs": [
        {
          "internalType": "uint256",
          "name": "",
          "type": "uint256"
        }
      ],
      "stateMutability": "view",
      "type": "function"
    },
    {
      "inputs": [
        {
          "internalType": "uint256",
          "name": "flipChoice",
          "type": "uint256"
        },
        {
          "internalType": "uint256",
          "name": "bId",
          "type": "uint256"
        }
      ],
      "name": "flipTheCoin",
      "outputs": [],
      "stateMutability": "payable",
      "type": "function"
    },
    {
      "inputs": [],
      "name": "fromLastFulfilled",
      "outputs": [
        {
          "internalType": "uint256",
          "name": "",
          "type": "uint256"
        }
      ],
      "stateMutability": "view",
      "type": "function"
    },
    {
      "inputs": [],
      "name": "getBetAmount",
      "outputs": [
        {
          "internalType": "uint256[]",
          "name": "",
          "type": "uint256[]"
        }
      ],
      "stateMutability": "view",
      "type": "function"
    },
    {
      "inputs": [],
      "name": "getConfig",
      "outputs": [
        {
          "components": [
            {
              "internalType": "uint64",
              "name": "s_subscriptionId",
              "type": "uint64"
            },
            {
              "internalType": "bytes32",
              "name": "keyHash",
              "type": "bytes32"
            },
            {
              "internalType": "uint32",
              "name": "callbackGasLimit",
              "type": "uint32"
            },
            {
              "internalType": "uint16",
              "name": "numWords",
              "type": "uint16"
            },
            {
              "internalType": "uint16",
              "name": "requestConfirmations",
              "type": "uint16"
            }
          ],
          "internalType": "struct DeoddFlipCoin.VRFConfig",
          "name": "",
          "type": "tuple"
        }
      ],
      "stateMutability": "view",
      "type": "function"
    },
    {
      "inputs": [],
      "name": "getCoordinator",
      "outputs": [
        {
          "internalType": "address",
          "name": "",
          "type": "address"
        }
      ],
      "stateMutability": "view",
      "type": "function"
    },
    {
      "inputs": [
        {
          "internalType": "uint256",
          "name": "_requestId",
          "type": "uint256"
        }
      ],
      "name": "getFlipCoin",
      "outputs": [
        {
          "components": [
            {
              "internalType": "bool",
              "name": "fulfilled",
              "type": "bool"
            },
            {
              "internalType": "bool",
              "name": "exists",
              "type": "bool"
            },
            {
              "internalType": "uint256",
              "name": "fId",
              "type": "uint256"
            },
            {
              "internalType": "uint256",
              "name": "flipChoice",
              "type": "uint256"
            },
            {
              "internalType": "uint256",
              "name": "randomValue",
              "type": "uint256"
            },
            {
              "internalType": "uint256",
              "name": "amount",
              "type": "uint256"
            },
            {
              "internalType": "uint256",
              "name": "requestedAt",
              "type": "uint256"
            },
            {
              "internalType": "uint256",
              "name": "fulfilledAt",
              "type": "uint256"
            },
            {
              "internalType": "address",
              "name": "player",
              "type": "address"
            }
          ],
          "internalType": "struct DeoddFlipCoin.FlipCoin",
          "name": "",
          "type": "tuple"
        }
      ],
      "stateMutability": "view",
      "type": "function"
    },
    {
      "inputs": [],
      "name": "getImplementation",
      "outputs": [
        {
          "internalType": "address",
          "name": "",
          "type": "address"
        }
      ],
      "stateMutability": "view",
      "type": "function"
    },
    {
      "inputs": [
        {
          "internalType": "address",
          "name": "wallet",
          "type": "address"
        }
      ],
      "name": "getLastRequestId",
      "outputs": [
        {
          "internalType": "uint256",
          "name": "",
          "type": "uint256"
        }
      ],
      "stateMutability": "view",
      "type": "function"
    },
    {
      "inputs": [],
      "name": "getPendingAmount",
      "outputs": [
        {
          "internalType": "uint256",
          "name": "",
          "type": "uint256"
        }
      ],
      "stateMutability": "view",
      "type": "function"
    },
    {
      "inputs": [],
      "name": "initialize",
      "outputs": [],
      "stateMutability": "nonpayable",
      "type": "function"
    },
    {
      "inputs": [
        {
          "internalType": "address",
          "name": "operator",
          "type": "address"
        }
      ],
      "name": "isOperator",
      "outputs": [
        {
          "internalType": "bool",
          "name": "",
          "type": "bool"
        }
      ],
      "stateMutability": "view",
      "type": "function"
    },
    {
      "inputs": [],
      "name": "lastFulfilledAt",
      "outputs": [
        {
          "internalType": "uint256",
          "name": "",
          "type": "uint256"
        }
      ],
      "stateMutability": "view",
      "type": "function"
    },
    {
      "inputs": [],
      "name": "owner",
      "outputs": [
        {
          "internalType": "address",
          "name": "",
          "type": "address"
        }
      ],
      "stateMutability": "view",
      "type": "function"
    },
    {
      "inputs": [],
      "name": "pause",
      "outputs": [],
      "stateMutability": "nonpayable",
      "type": "function"
    },
    {
      "inputs": [],
      "name": "paused",
      "outputs": [
        {
          "internalType": "bool",
          "name": "",
          "type": "bool"
        }
      ],
      "stateMutability": "view",
      "type": "function"
    },
    {
      "inputs": [
        {
          "internalType": "address",
          "name": "wallet",
          "type": "address"
        }
      ],
      "name": "pendingRequestExists",
      "outputs": [
        {
          "internalType": "bool",
          "name": "",
          "type": "bool"
        }
      ],
      "stateMutability": "view",
      "type": "function"
    },
    {
      "inputs": [],
      "name": "pendingRequestExists",
      "outputs": [
        {
          "internalType": "bool",
          "name": "",
          "type": "bool"
        }
      ],
      "stateMutability": "view",
      "type": "function"
    },
    {
      "inputs": [
        {
          "internalType": "address",
          "name": "wallet",
          "type": "address"
        }
      ],
      "name": "potentialPendingRequest",
      "outputs": [
        {
          "internalType": "bool",
          "name": "",
          "type": "bool"
        }
      ],
      "stateMutability": "view",
      "type": "function"
    },
    {
      "inputs": [],
      "name": "proxiableUUID",
      "outputs": [
        {
          "internalType": "bytes32",
          "name": "",
          "type": "bytes32"
        }
      ],
      "stateMutability": "view",
      "type": "function"
    },
    {
      "inputs": [
        {
          "internalType": "uint256",
          "name": "requestId",
          "type": "uint256"
        },
        {
          "internalType": "uint256[]",
          "name": "randomWords",
          "type": "uint256[]"
        }
      ],
      "name": "rawFulfillRandomWords",
      "outputs": [],
      "stateMutability": "nonpayable",
      "type": "function"
    },
    {
      "inputs": [
        {
          "internalType": "address",
          "name": "wallet",
          "type": "address"
        }
      ],
      "name": "readyForTheNextFlip",
      "outputs": [
        {
          "internalType": "bool",
          "name": "",
          "type": "bool"
        }
      ],
      "stateMutability": "view",
      "type": "function"
    },
    {
      "inputs": [
        {
          "internalType": "address",
          "name": "operator",
          "type": "address"
        }
      ],
      "name": "removeOperator",
      "outputs": [],
      "stateMutability": "nonpayable",
      "type": "function"
    },
    {
      "inputs": [],
      "name": "renounceOwnership",
      "outputs": [],
      "stateMutability": "nonpayable",
      "type": "function"
    },
    {
      "inputs": [],
      "name": "rollbackUnfulfilled",
      "outputs": [],
      "stateMutability": "nonpayable",
      "type": "function"
    },
    {
      "inputs": [
        {
          "internalType": "uint256",
          "name": "",
          "type": "uint256"
        }
      ],
      "name": "s_requests",
      "outputs": [
        {
          "internalType": "bool",
          "name": "fulfilled",
          "type": "bool"
        },
        {
          "internalType": "bool",
          "name": "exists",
          "type": "bool"
        },
        {
          "internalType": "uint256",
          "name": "fId",
          "type": "uint256"
        },
        {
          "internalType": "uint256",
          "name": "flipChoice",
          "type": "uint256"
        },
        {
          "internalType": "uint256",
          "name": "randomValue",
          "type": "uint256"
        },
        {
          "internalType": "uint256",
          "name": "amount",
          "type": "uint256"
        },
        {
          "internalType": "uint256",
          "name": "requestedAt",
          "type": "uint256"
        },
        {
          "internalType": "uint256",
          "name": "fulfilledAt",
          "type": "uint256"
        },
        {
          "internalType": "address",
          "name": "player",
          "type": "address"
        }
      ],
      "stateMutability": "view",
      "type": "function"
    },
    {
      "inputs": [],
      "name": "serviceFee",
      "outputs": [
        {
          "internalType": "uint256",
          "name": "",
          "type": "uint256"
        }
      ],
      "stateMutability": "view",
      "type": "function"
    },
    {
      "inputs": [
        {
          "internalType": "uint256[]",
          "name": "_betAmount",
          "type": "uint256[]"
        }
      ],
      "name": "setBetAmount",
      "outputs": [],
      "stateMutability": "nonpayable",
      "type": "function"
    },
    {
      "inputs": [
        {
          "components": [
            {
              "internalType": "uint64",
              "name": "s_subscriptionId",
              "type": "uint64"
            },
            {
              "internalType": "bytes32",
              "name": "keyHash",
              "type": "bytes32"
            },
            {
              "internalType": "uint32",
              "name": "callbackGasLimit",
              "type": "uint32"
            },
            {
              "internalType": "uint16",
              "name": "numWords",
              "type": "uint16"
            },
            {
              "internalType": "uint16",
              "name": "requestConfirmations",
              "type": "uint16"
            }
          ],
          "internalType": "struct DeoddFlipCoin.VRFConfig",
          "name": "cfg",
          "type": "tuple"
        }
      ],
      "name": "setConfig",
      "outputs": [],
      "stateMutability": "nonpayable",
      "type": "function"
    },
    {
      "inputs": [
        {
          "internalType": "address",
          "name": "_vrfCoordinator",
          "type": "address"
        }
      ],
      "name": "setCoordinator",
      "outputs": [],
      "stateMutability": "nonpayable",
      "type": "function"
    },
    {
      "inputs": [
        {
          "internalType": "address",
          "name": "wallet",
          "type": "address"
        },
        {
          "internalType": "uint256",
          "name": "requestId",
          "type": "uint256"
        }
      ],
      "name": "setLastRequestId",
      "outputs": [],
      "stateMutability": "nonpayable",
      "type": "function"
    },
    {
      "inputs": [
        {
          "internalType": "address",
          "name": "operator",
          "type": "address"
        }
      ],
      "name": "setOperator",
      "outputs": [],
      "stateMutability": "nonpayable",
      "type": "function"
    },
    {
      "inputs": [
        {
          "internalType": "uint256",
          "name": "sf",
          "type": "uint256"
        }
      ],
      "name": "setServiceFee",
      "outputs": [],
      "stateMutability": "nonpayable",
      "type": "function"
    },
    {
      "inputs": [
        {
          "internalType": "uint256",
          "name": "_vrfFee",
          "type": "uint256"
        }
      ],
      "name": "setVRFee",
      "outputs": [],
      "stateMutability": "nonpayable",
      "type": "function"
    },
    {
      "inputs": [
        {
          "internalType": "address payable",
          "name": "wallet",
          "type": "address"
        }
      ],
      "name": "setWallet",
      "outputs": [],
      "stateMutability": "nonpayable",
      "type": "function"
    },
    {
      "inputs": [
        {
          "internalType": "uint256",
          "name": "amount",
          "type": "uint256"
        }
      ],
      "name": "substractPendingAmount",
      "outputs": [],
      "stateMutability": "nonpayable",
      "type": "function"
    },
    {
      "inputs": [
        {
          "internalType": "address",
          "name": "newOwner",
          "type": "address"
        }
      ],
      "name": "transferOwnership",
      "outputs": [],
      "stateMutability": "nonpayable",
      "type": "function"
    },
    {
      "inputs": [],
      "name": "unpause",
      "outputs": [],
      "stateMutability": "nonpayable",
      "type": "function"
    },
    {
      "inputs": [
        {
          "internalType": "address",
          "name": "newImplementation",
          "type": "address"
        }
      ],
      "name": "upgradeTo",
      "outputs": [],
      "stateMutability": "nonpayable",
      "type": "function"
    },
    {
      "inputs": [
        {
          "internalType": "address",
          "name": "newImplementation",
          "type": "address"
        },
        {
          "internalType": "bytes",
          "name": "data",
          "type": "bytes"
        }
      ],
      "name": "upgradeToAndCall",
      "outputs": [],
      "stateMutability": "payable",
      "type": "function"
    },
    {
      "inputs": [],
      "name": "vrfFee",
      "outputs": [
        {
          "internalType": "uint256",
          "name": "",
          "type": "uint256"
        }
      ],
      "stateMutability": "view",
      "type": "function"
    },
    {
      "inputs": [
        {
          "internalType": "address",
          "name": "to",
          "type": "address"
        },
        {
          "internalType": "bool",
          "name": "allBNB",
          "type": "bool"
        },
        {
          "internalType": "uint256",
          "name": "amount",
          "type": "uint256"
        }
      ],
      "name": "withdrawBNB",
      "outputs": [],
      "stateMutability": "nonpayable",
      "type": "function"
    },
    {
      "stateMutability": "payable",
      "type": "receive"
    }
  ],
  "bytecode": "0x60a06040523073ffffffffffffffffffffffffffffffffffffffff1660809073ffffffffffffffffffffffffffffffffffffffff1660601b81525034801561004657600080fd5b5060805160601c615aee6200008260003960008181610b7f01528181610c0e01528181610f1401528181610fa301526110530152615aee6000f3fe6080604052600436106102555760003560e01c80638abdf5aa11610139578063b3ab15fb116100b6578063deaa59df1161007a578063deaa59df146108bd578063e81ab3ff146108e6578063f2fde38b14610911578063fd80729d1461093a578063fde0c2ee14610963578063fde41e291461098c576102aa565b8063b3ab15fb146107fc578063c3f909d414610825578063c70188ea14610850578063d0d7ce7114610867578063da812ad014610892576102aa565b8063a168fa89116100fd578063a168fa891461071c578063a3ced7b914610761578063aaf10f421461078c578063ac8a584a146107b7578063b332639a146107e0576102aa565b80638abdf5aa146106235780638da5cb5b1461064e5780638ea9811714610679578063940af6b6146106a2578063943ab22d146106df576102aa565b806352d1902d116101d257806370bdf26e1161019657806370bdf26e1461054d578063715018a61461058a57806371977fe0146105a157806373ba7f70146105cc5780638129fc1c146105f55780638456cb591461060c576102aa565b806352d1902d14610468578063548acb76146104935780635c975abb146104bc5780635cdf76f8146104e75780636d70f7ae14610510576102aa565b80633aff6851116102195780633aff6851146103925780633f4ba83a146103bb5780634459ccbc146103d25780634d0f82951461040f5780634f1ef2861461044c576102aa565b80630fd4e4b6146102af5780631017507d146102d85780631154e3b8146103035780631fe543e3146103405780633659cfe614610369576102aa565b366102aa573373ffffffffffffffffffffffffffffffffffffffff167f344d9d9b1c237ca7e367c0536bc9744a50eb5d6976b76f09a09cb3e7e871df5d346040516102a09190614e60565b60405180910390a2005b600080fd5b3480156102bb57600080fd5b506102d660048036038101906102d1919061415b565b6109b7565b005b3480156102e457600080fd5b506102ed610a6e565b6040516102fa9190614e60565b60405180910390f35b34801561030f57600080fd5b5061032a60048036038101906103259190614188565b610a75565b6040516103379190614e60565b60405180910390f35b34801561034c57600080fd5b50610367600480360381019061036291906141e2565b610ab9565b005b34801561037557600080fd5b50610390600480360381019061038b9190613f6f565b610b7d565b005b34801561039e57600080fd5b506103b960048036038101906103b49190614188565b610d06565b005b3480156103c757600080fd5b506103d0610d19565b005b3480156103de57600080fd5b506103f960048036038101906103f49190613f6f565b610d2b565b60405161040691906149b6565b60405180910390f35b34801561041b57600080fd5b5061043660048036038101906104319190613f6f565b610e56565b60405161044391906149b6565b60405180910390f35b6104666004803603810190610461919061401c565b610f12565b005b34801561047457600080fd5b5061047d61104f565b60405161048a9190614a5e565b60405180910390f35b34801561049f57600080fd5b506104ba60048036038101906104b59190613fc9565b611108565b005b3480156104c857600080fd5b506104d16112be565b6040516104de91906149b6565b60405180910390f35b3480156104f357600080fd5b5061050e60048036038101906105099190614188565b6112d6565b005b34801561051c57600080fd5b5061053760048036038101906105329190613f6f565b6112e9565b60405161054491906149b6565b60405180910390f35b34801561055957600080fd5b50610574600480360381019061056f9190613f6f565b61133f565b6040516105819190614e60565b60405180910390f35b34801561059657600080fd5b5061059f611388565b005b3480156105ad57600080fd5b506105b661139c565b6040516105c39190614927565b60405180910390f35b3480156105d857600080fd5b506105f360048036038101906105ee9190614078565b6113c6565b005b34801561060157600080fd5b5061060a611416565b005b34801561061857600080fd5b50610621611564565b005b34801561062f57600080fd5b50610638611576565b6040516106459190614e60565b60405180910390f35b34801561065a57600080fd5b5061066361157d565b6040516106709190614927565b60405180910390f35b34801561068557600080fd5b506106a0600480360381019061069b9190613f6f565b6115a7565b005b3480156106ae57600080fd5b506106c960048036038101906106c49190613f6f565b6116b8565b6040516106d691906149b6565b60405180910390f35b3480156106eb57600080fd5b5061070660048036038101906107019190614188565b6117e3565b6040516107139190614e29565b60405180910390f35b34801561072857600080fd5b50610743600480360381019061073e9190614188565b61193c565b604051610758999897969594939291906149d1565b60405180910390f35b34801561076d57600080fd5b506107766119c4565b60405161078391906149b6565b60405180910390f35b34801561079857600080fd5b506107a1611a8f565b6040516107ae9190614927565b60405180910390f35b3480156107c357600080fd5b506107de60048036038101906107d99190613f6f565b611a9e565b005b6107fa60048036038101906107f5919061423e565b611b01565b005b34801561080857600080fd5b50610823600480360381019061081e9190613f6f565b611e0d565b005b34801561083157600080fd5b5061083a611e70565b6040516108479190614e45565b60405180910390f35b34801561085c57600080fd5b50610865611f2c565b005b34801561087357600080fd5b5061087c612415565b6040516108899190614e60565b60405180910390f35b34801561089e57600080fd5b506108a761242b565b6040516108b49190614e60565b60405180910390f35b3480156108c957600080fd5b506108e460048036038101906108df9190613f9c565b612436565b005b3480156108f257600080fd5b506108fb612483565b6040516109089190614e60565b60405180910390f35b34801561091d57600080fd5b5061093860048036038101906109339190613f6f565b612496565b005b34801561094657600080fd5b50610961600480360381019061095c91906140b8565b61251a565b005b34801561096f57600080fd5b5061098a60048036038101906109859190614188565b612546565b005b34801561099857600080fd5b506109a161256b565b6040516109ae9190614994565b60405180910390f35b6109bf6125c4565b8060d060008201518160000160006101000a81548167ffffffffffffffff021916908367ffffffffffffffff1602179055506020820151816001015560408201518160020160006101000a81548163ffffffff021916908363ffffffff16021790555060608201518160020160046101000a81548161ffff021916908361ffff16021790555060808201518160020160066101000a81548161ffff021916908361ffff16021790555090505050565b6101385481565b60006127106101375461013b8481548110610a9357610a92615334565b5b9060005260206000200154610aa89190615094565b610ab29190615063565b9050919050565b606660009054906101000a900473ffffffffffffffffffffffffffffffffffffffff1673ffffffffffffffffffffffffffffffffffffffff163373ffffffffffffffffffffffffffffffffffffffff1614610b6f5733606660009054906101000a900473ffffffffffffffffffffffffffffffffffffffff166040517f1cf993f4000000000000000000000000000000000000000000000000000000008152600401610b66929190614942565b60405180910390fd5b610b798282612642565b5050565b7f000000000000000000000000000000000000000000000000000000000000000073ffffffffffffffffffffffffffffffffffffffff163073ffffffffffffffffffffffffffffffffffffffff161415610c0c576040517f08c379a0000000000000000000000000000000000000000000000000000000008152600401610c0390614ba9565b60405180910390fd5b7f000000000000000000000000000000000000000000000000000000000000000073ffffffffffffffffffffffffffffffffffffffff16610c4b612add565b73ffffffffffffffffffffffffffffffffffffffff1614610ca1576040517f08c379a0000000000000000000000000000000000000000000000000000000008152600401610c9890614bc9565b60405180910390fd5b610caa81612b34565b610d0381600067ffffffffffffffff811115610cc957610cc8615363565b5b6040519080825280601f01601f191660200182016040528015610cfb5781602001600182028036833780820191505090505b506000612b3f565b50565b610d0e6125c4565b806101388190555050565b610d216125c4565b610d29612cbc565b565b60008060cd60008473ffffffffffffffffffffffffffffffffffffffff1673ffffffffffffffffffffffffffffffffffffffff1681526020019081526020016000205414158015610de257506000151560cc600060cd60008673ffffffffffffffffffffffffffffffffffffffff1673ffffffffffffffffffffffffffffffffffffffff16815260200190815260200160002054815260200190815260200160002060000160009054906101000a900460ff161515145b8015610e4f5750603c60cc600060cd60008673ffffffffffffffffffffffffffffffffffffffff1673ffffffffffffffffffffffffffffffffffffffff1681526020019081526020016000205481526020019081526020016000206005015442610e4c91906150ee565b10155b9050919050565b60008060cd60008473ffffffffffffffffffffffffffffffffffffffff1673ffffffffffffffffffffffffffffffffffffffff168152602001908152602001600020541480610f0b57506001151560cc600060cd60008673ffffffffffffffffffffffffffffffffffffffff1673ffffffffffffffffffffffffffffffffffffffff16815260200190815260200160002054815260200190815260200160002060000160009054906101000a900460ff161515145b9050919050565b7f000000000000000000000000000000000000000000000000000000000000000073ffffffffffffffffffffffffffffffffffffffff163073ffffffffffffffffffffffffffffffffffffffff161415610fa1576040517f08c379a0000000000000000000000000000000000000000000000000000000008152600401610f9890614ba9565b60405180910390fd5b7f000000000000000000000000000000000000000000000000000000000000000073ffffffffffffffffffffffffffffffffffffffff16610fe0612add565b73ffffffffffffffffffffffffffffffffffffffff1614611036576040517f08c379a000000000000000000000000000000000000000000000000000000000815260040161102d90614bc9565b60405180910390fd5b61103f82612b34565b61104b82826001612b3f565b5050565b60007f000000000000000000000000000000000000000000000000000000000000000073ffffffffffffffffffffffffffffffffffffffff163073ffffffffffffffffffffffffffffffffffffffff16146110df576040517f08c379a00000000000000000000000000000000000000000000000000000000081526004016110d690614be9565b60405180910390fd5b7f360894a13ba1a3210667c828492db98dca3e2076cc3735a920a3ca505d382bbc60001b905090565b6111106125c4565b81156111c85760008373ffffffffffffffffffffffffffffffffffffffff164760405161113c90614912565b60006040518083038185875af1925050503d8060008114611179576040519150601f19603f3d011682016040523d82523d6000602084013e61117e565b606091505b50509050806111c2576040517f08c379a00000000000000000000000000000000000000000000000000000000081526004016111b990614dc9565b60405180910390fd5b506112b9565b4781111561120b576040517f08c379a000000000000000000000000000000000000000000000000000000000815260040161120290614ca9565b60405180910390fd5b60008373ffffffffffffffffffffffffffffffffffffffff168260405161123190614912565b60006040518083038185875af1925050503d806000811461126e576040519150601f19603f3d011682016040523d82523d6000602084013e611273565b606091505b50509050806112b7576040517f08c379a00000000000000000000000000000000000000000000000000000000081526004016112ae90614dc9565b60405180910390fd5b505b505050565b600061010560009054906101000a900460ff16905090565b6112de6125c4565b806101378190555050565b6000606560008373ffffffffffffffffffffffffffffffffffffffff1673ffffffffffffffffffffffffffffffffffffffff16815260200190815260200160002060009054906101000a900460ff169050919050565b600060cd60008373ffffffffffffffffffffffffffffffffffffffff1673ffffffffffffffffffffffffffffffffffffffff168152602001908152602001600020549050919050565b6113906125c4565b61139a6000612d20565b565b6000606660009054906101000a900473ffffffffffffffffffffffffffffffffffffffff16905090565b6113ce6125c4565b8060cd60008473ffffffffffffffffffffffffffffffffffffffff1673ffffffffffffffffffffffffffffffffffffffff168152602001908152602001600020819055505050565b60008060019054906101000a900460ff161590508080156114475750600160008054906101000a900460ff1660ff16105b80611474575061145630612de6565b1580156114735750600160008054906101000a900460ff1660ff16145b5b6114b3576040517f08c379a00000000000000000000000000000000000000000000000000000000081526004016114aa90614c49565b60405180910390fd5b60016000806101000a81548160ff021916908360ff16021790555080156114f0576001600060016101000a81548160ff0219169083151502179055505b6114f8612e09565b611500612f57565b611508612fa8565b80156115615760008060016101000a81548160ff0219169083151502179055507f7f26b83ff96e1f2b6a682f133852f6798a09c465da95921460cefb384740249860016040516115589190614acc565b60405180910390a15b50565b61156c6125c4565b611574612fa8565b565b6101375481565b6000603360009054906101000a900473ffffffffffffffffffffffffffffffffffffffff16905090565b606560003373ffffffffffffffffffffffffffffffffffffffff1673ffffffffffffffffffffffffffffffffffffffff16815260200190815260200160002060009054906101000a900460ff16611633576040517f08c379a000000000000000000000000000000000000000000000000000000000815260040161162a90614c69565b60405180910390fd5b80606660006101000a81548173ffffffffffffffffffffffffffffffffffffffff021916908373ffffffffffffffffffffffffffffffffffffffff1602179055508060cf60006101000a81548173ffffffffffffffffffffffffffffffffffffffff021916908373ffffffffffffffffffffffffffffffffffffffff16021790555050565b60008060cd60008473ffffffffffffffffffffffffffffffffffffffff1673ffffffffffffffffffffffffffffffffffffffff168152602001908152602001600020541415801561176f57506000151560cc600060cd60008673ffffffffffffffffffffffffffffffffffffffff1673ffffffffffffffffffffffffffffffffffffffff16815260200190815260200160002054815260200190815260200160002060000160009054906101000a900460ff161515145b80156117dc5750601460cc600060cd60008673ffffffffffffffffffffffffffffffffffffffff1673ffffffffffffffffffffffffffffffffffffffff16815260200190815260200160002054815260200190815260200160002060050154426117d991906150ee565b10155b9050919050565b6117eb613bd4565b60cc600083815260200190815260200160002060000160019054906101000a900460ff1661184e576040517f08c379a000000000000000000000000000000000000000000000000000000000815260040161184590614b09565b60405180910390fd5b60cc6000838152602001908152602001600020604051806101200160405290816000820160009054906101000a900460ff161515151581526020016000820160019054906101000a900460ff161515151581526020016001820154815260200160028201548152602001600382015481526020016004820154815260200160058201548152602001600682015481526020016007820160009054906101000a900473ffffffffffffffffffffffffffffffffffffffff1673ffffffffffffffffffffffffffffffffffffffff1673ffffffffffffffffffffffffffffffffffffffff16815250509050919050565b60cc6020528060005260406000206000915090508060000160009054906101000a900460ff16908060000160019054906101000a900460ff16908060010154908060020154908060030154908060040154908060050154908060060154908060070160009054906101000a900473ffffffffffffffffffffffffffffffffffffffff16905089565b600060cf60009054906101000a900473ffffffffffffffffffffffffffffffffffffffff1673ffffffffffffffffffffffffffffffffffffffff1663e82ad7d460d060000160009054906101000a900467ffffffffffffffff166040518263ffffffff1660e01b8152600401611a3a9190614f05565b60206040518083038186803b158015611a5257600080fd5b505afa158015611a66573d6000803e3d6000fd5b505050506040513d601f19601f82011682018060405250810190611a8a9190614101565b905090565b6000611a99612add565b905090565b611aa66125c4565b6000606560008373ffffffffffffffffffffffffffffffffffffffff1673ffffffffffffffffffffffffffffffffffffffff16815260200190815260200160002060006101000a81548160ff02191690831515021790555050565b611b0961300c565b8061013a548110611b4f576040517f08c379a0000000000000000000000000000000000000000000000000000000008152600401611b4690614d29565b60405180910390fd5b33600060cd60008373ffffffffffffffffffffffffffffffffffffffff1673ffffffffffffffffffffffffffffffffffffffff168152602001908152602001600020541480611c0457506001151560cc600060cd60008573ffffffffffffffffffffffffffffffffffffffff1673ffffffffffffffffffffffffffffffffffffffff16815260200190815260200160002054815260200190815260200160002060000160009054906101000a900460ff161515145b611c43576040517f08c379a0000000000000000000000000000000000000000000000000000000008152600401611c3a90614b49565b60405180910390fd5b611c4b613056565b60028410611c8e576040517f08c379a0000000000000000000000000000000000000000000000000000000008152600401611c8590614da9565b60405180910390fd5b61013c60009054906101000a900473ffffffffffffffffffffffffffffffffffffffff1673ffffffffffffffffffffffffffffffffffffffff163161013b8481548110611cde57611cdd615334565b5b906000526020600020015461013954611cf7919061500d565b1115611d38576040517f08c379a0000000000000000000000000000000000000000000000000000000008152600401611d2f90614d09565b60405180910390fd5b600061013b8481548110611d4f57611d4e615334565b5b9060005260206000200154905060006127106101375483611d709190615094565b611d7a9190615063565b905034610138548284611d8d919061500d565b611d97919061500d565b1115611dd8576040517f08c379a0000000000000000000000000000000000000000000000000000000008152600401611dcf90614d89565b60405180910390fd5b816101396000828254611deb919061500d565b92505081905550611dfd3387846130a6565b5050611e076133c6565b50505050565b611e156125c4565b6001606560008373ffffffffffffffffffffffffffffffffffffffff1673ffffffffffffffffffffffffffffffffffffffff16815260200190815260200160002060006101000a81548160ff02191690831515021790555050565b611e78613c3a565b60d06040518060a00160405290816000820160009054906101000a900467ffffffffffffffff1667ffffffffffffffff1667ffffffffffffffff168152602001600182015481526020016002820160009054906101000a900463ffffffff1663ffffffff1663ffffffff1681526020016002820160049054906101000a900461ffff1661ffff1661ffff1681526020016002820160069054906101000a900461ffff1661ffff1661ffff1681525050905090565b611f3461300c565b6000151560cc600060cd60003373ffffffffffffffffffffffffffffffffffffffff1673ffffffffffffffffffffffffffffffffffffffff16815260200190815260200160002054815260200190815260200160002060000160009054906101000a900460ff16151514611fdd576040517f08c379a0000000000000000000000000000000000000000000000000000000008152600401611fd490614d49565b60405180910390fd5b603c60cc600060cd60003373ffffffffffffffffffffffffffffffffffffffff1673ffffffffffffffffffffffffffffffffffffffff168152602001908152602001600020548152602001908152602001600020600501544261204091906150ee565b1015612081576040517f08c379a000000000000000000000000000000000000000000000000000000000815260040161207890614b89565b60405180910390fd5b600160cc600060cd60003373ffffffffffffffffffffffffffffffffffffffff1673ffffffffffffffffffffffffffffffffffffffff16815260200190815260200160002054815260200190815260200160002060000160006101000a81548160ff02191690831515021790555060006127106101375460cc600060cd60003373ffffffffffffffffffffffffffffffffffffffff1673ffffffffffffffffffffffffffffffffffffffff168152602001908152602001600020548152602001908152602001600020600401546121589190615094565b6121629190615063565b90506000610138548260cc600060cd60003373ffffffffffffffffffffffffffffffffffffffff1673ffffffffffffffffffffffffffffffffffffffff168152602001908152602001600020548152602001908152602001600020600401546121cb919061500d565b6121d5919061500d565b905060cc600060cd60003373ffffffffffffffffffffffffffffffffffffffff1673ffffffffffffffffffffffffffffffffffffffff16815260200190815260200160002054815260200190815260200160002060040154610139600082825461223f91906150ee565b9250508190555061013c60009054906101000a900473ffffffffffffffffffffffffffffffffffffffff1673ffffffffffffffffffffffffffffffffffffffff166381e18c1033836040518363ffffffff1660e01b81526004016122a492919061496b565b600060405180830381600087803b1580156122be57600080fd5b505af11580156122d2573d6000803e3d6000fd5b505050503373ffffffffffffffffffffffffffffffffffffffff167fd1303054c698dcd81f1e4d5accada6b96047630a63ac9eaa37f7724b50f1e46260cc600060cd60003373ffffffffffffffffffffffffffffffffffffffff1673ffffffffffffffffffffffffffffffffffffffff1681526020019081526020016000205481526020019081526020016000206001015460cd60003373ffffffffffffffffffffffffffffffffffffffff1673ffffffffffffffffffffffffffffffffffffffff1681526020019081526020016000205460cc600060cd60003373ffffffffffffffffffffffffffffffffffffffff1673ffffffffffffffffffffffffffffffffffffffff1681526020019081526020016000205481526020019081526020016000206004015460405161240993929190614e7b565b60405180910390a25050565b600061013d544261242691906150ee565b905090565b600061013d54905090565b61243e6125c4565b8061013c60006101000a81548173ffffffffffffffffffffffffffffffffffffffff021916908373ffffffffffffffffffffffffffffffffffffffff16021790555050565b600061248d6125c4565b61013954905090565b61249e6125c4565b600073ffffffffffffffffffffffffffffffffffffffff168173ffffffffffffffffffffffffffffffffffffffff16141561250e576040517f08c379a000000000000000000000000000000000000000000000000000000000815260040161250590614b69565b60405180910390fd5b61251781612d20565b50565b6125226125c4565b8061013b9080519060200190612539929190613c84565b50805161013a8190555050565b61254e6125c4565b80610139600082825461256191906150ee565b9250508190555050565b606061013b8054806020026020016040519081016040528092919081815260200182805480156125ba57602002820191906000526020600020905b8154815260200190600101908083116125a6575b5050505050905090565b6125cc6133d0565b73ffffffffffffffffffffffffffffffffffffffff166125ea61157d565b73ffffffffffffffffffffffffffffffffffffffff1614612640576040517f08c379a000000000000000000000000000000000000000000000000000000000815260040161263790614ce9565b60405180910390fd5b565b6000151560cc600084815260200190815260200160002060000160009054906101000a900460ff161515146126ac576040517f08c379a00000000000000000000000000000000000000000000000000000000081526004016126a390614d49565b60405180910390fd5b600160cc600084815260200190815260200160002060000160006101000a81548160ff021916908315150217905550806000815181106126ef576126ee615334565b5b602002602001015160cc6000848152602001908152602001600020600301819055504260cc6000848152602001908152602001600020600601819055504261013d8190555060cc600083815260200190815260200160002060040154610139600082825461275d91906150ee565b9250508190555060006127a960cc600085815260200190815260200160002060020154600260cc6000878152602001908152602001600020600301546127a391906152a5565b146133d8565b9050600081111561292d5761013c60009054906101000a900473ffffffffffffffffffffffffffffffffffffffff1673ffffffffffffffffffffffffffffffffffffffff16630dcdb45e60cc600086815260200190815260200160002060070160009054906101000a900473ffffffffffffffffffffffffffffffffffffffff16600260cc60008881526020019081526020016000206004015461284d9190615094565b6040518363ffffffff1660e01b815260040161286a92919061496b565b600060405180830381600087803b15801561288457600080fd5b505af1158015612898573d6000803e3d6000fd5b5050505061013e600060cc600086815260200190815260200160002060070160009054906101000a900473ffffffffffffffffffffffffffffffffffffffff1673ffffffffffffffffffffffffffffffffffffffff1673ffffffffffffffffffffffffffffffffffffffff16815260200190815260200160002060008154809291906129239061525c565b91905055506129aa565b600061013e600060cc600087815260200190815260200160002060070160009054906101000a900473ffffffffffffffffffffffffffffffffffffffff1673ffffffffffffffffffffffffffffffffffffffff1673ffffffffffffffffffffffffffffffffffffffff168152602001908152602001600020819055505b60cc600084815260200190815260200160002060070160009054906101000a900473ffffffffffffffffffffffffffffffffffffffff1673ffffffffffffffffffffffffffffffffffffffff167fadfb9bb2250abcd1401948cc3517b07df144a5eeadebf5be39d1420a10d1825860cc60008681526020019081526020016000206001015460cc6000878152602001908152602001600020600301548461013e600060cc60008b815260200190815260200160002060070160009054906101000a900473ffffffffffffffffffffffffffffffffffffffff1673ffffffffffffffffffffffffffffffffffffffff1673ffffffffffffffffffffffffffffffffffffffff1681526020019081526020016000205442604051612ad0959493929190614eb2565b60405180910390a2505050565b6000612b0b7f360894a13ba1a3210667c828492db98dca3e2076cc3735a920a3ca505d382bbc60001b6133e2565b60000160009054906101000a900473ffffffffffffffffffffffffffffffffffffffff16905090565b612b3c6125c4565b50565b612b6b7f4910fdfa16fed3260ed0e7147f7cc6da11a60208b5b9406d12a635614ffd914360001b6133ec565b60000160009054906101000a900460ff1615612b8f57612b8a836133f6565b612cb7565b8273ffffffffffffffffffffffffffffffffffffffff166352d1902d6040518163ffffffff1660e01b815260040160206040518083038186803b158015612bd557600080fd5b505afa925050508015612c0657506040513d601f19601f82011682018060405250810190612c03919061412e565b60015b612c45576040517f08c379a0000000000000000000000000000000000000000000000000000000008152600401612c3c90614c89565b60405180910390fd5b7f360894a13ba1a3210667c828492db98dca3e2076cc3735a920a3ca505d382bbc60001b8114612caa576040517f08c379a0000000000000000000000000000000000000000000000000000000008152600401612ca190614c29565b60405180910390fd5b50612cb68383836134af565b5b505050565b612cc46134db565b600061010560006101000a81548160ff0219169083151502179055507f5db9ee0a495bf2e6ff9c91a7834c1ba4fdd244a5e8aa4e537bd38aeae4b073aa612d096133d0565b604051612d169190614927565b60405180910390a1565b6000603360009054906101000a900473ffffffffffffffffffffffffffffffffffffffff16905081603360006101000a81548173ffffffffffffffffffffffffffffffffffffffff021916908373ffffffffffffffffffffffffffffffffffffffff1602179055508173ffffffffffffffffffffffffffffffffffffffff168173ffffffffffffffffffffffffffffffffffffffff167f8be0079c531659141344cd1fd0a4f28419497f9722a3daafe3b4186f6b6457e060405160405180910390a35050565b6000808273ffffffffffffffffffffffffffffffffffffffff163b119050919050565b60008060019054906101000a900460ff16159050808015612e3a5750600160008054906101000a900460ff1660ff16105b80612e675750612e4930612de6565b158015612e665750600160008054906101000a900460ff1660ff16145b5b612ea6576040517f08c379a0000000000000000000000000000000000000000000000000000000008152600401612e9d90614c49565b60405180910390fd5b60016000806101000a81548160ff021916908360ff1602179055508015612ee3576001600060016101000a81548160ff0219169083151502179055505b612eeb613524565b612ef3612f57565b612efb613662565b8015612f545760008060016101000a81548160ff0219169083151502179055507f7f26b83ff96e1f2b6a682f133852f6798a09c465da95921460cefb38474024986001604051612f4b9190614acc565b60405180910390a15b50565b600060019054906101000a900460ff16612fa6576040517f08c379a0000000000000000000000000000000000000000000000000000000008152600401612f9d90614de9565b60405180910390fd5b565b612fb061300c565b600161010560006101000a81548160ff0219169083151502179055507f62e78cea01bee320cd4e420270b5ea74000d11b0c9f74754ebdbfc544b05a258612ff56133d0565b6040516130029190614927565b60405180910390a1565b6130146112be565b15613054576040517f08c379a000000000000000000000000000000000000000000000000000000000815260040161304b90614c09565b60405180910390fd5b565b600260d354141561309c576040517f08c379a000000000000000000000000000000000000000000000000000000000815260040161309390614e09565b60405180910390fd5b600260d381905550565b600060cf60009054906101000a900473ffffffffffffffffffffffffffffffffffffffff1673ffffffffffffffffffffffffffffffffffffffff16635d3b1d3060d06001015460d060000160009054906101000a900467ffffffffffffffff1660d060020160069054906101000a900461ffff1660d060020160009054906101000a900463ffffffff1660d060020160049054906101000a900461ffff166040518663ffffffff1660e01b8152600401613164959493929190614a79565b602060405180830381600087803b15801561317e57600080fd5b505af1158015613192573d6000803e3d6000fd5b505050506040513d601f19601f820116820180604052508101906131b691906141b5565b905060cb60008154809291906131cb9061525c565b919050555060405180610120016040528060001515815260200160011515815260200160cb54815260200184815260200160638152602001838152602001428152602001600081526020018573ffffffffffffffffffffffffffffffffffffffff1681525060cc600083815260200190815260200160002060008201518160000160006101000a81548160ff02191690831515021790555060208201518160000160016101000a81548160ff02191690831515021790555060408201518160010155606082015181600201556080820151816003015560a0820151816004015560c0820151816005015560e082015181600601556101008201518160070160006101000a81548173ffffffffffffffffffffffffffffffffffffffff021916908373ffffffffffffffffffffffffffffffffffffffff1602179055509050508060cd60008673ffffffffffffffffffffffffffffffffffffffff1673ffffffffffffffffffffffffffffffffffffffff168152602001908152602001600020819055508060ce600060cb548152602001908152602001600020819055503373ffffffffffffffffffffffffffffffffffffffff167f6a6302a1fc373c9b73133751962744406d58f0ee670be395591cee8f7e8d9aa160cb54838587426040516133b8959493929190614eb2565b60405180910390a250505050565b600160d381905550565b600033905090565b6000819050919050565b6000819050919050565b6000819050919050565b6133ff81612de6565b61343e576040517f08c379a000000000000000000000000000000000000000000000000000000000815260040161343590614cc9565b60405180910390fd5b8061346b7f360894a13ba1a3210667c828492db98dca3e2076cc3735a920a3ca505d382bbc60001b6133e2565b60000160006101000a81548173ffffffffffffffffffffffffffffffffffffffff021916908373ffffffffffffffffffffffffffffffffffffffff16021790555050565b6134b8836137df565b6000825111806134c55750805b156134d6576134d4838361382e565b505b505050565b6134e36112be565b613522576040517f08c379a000000000000000000000000000000000000000000000000000000000815260040161351990614b29565b60405180910390fd5b565b60008060019054906101000a900460ff161590508080156135555750600160008054906101000a900460ff1660ff16105b80613582575061356430612de6565b1580156135815750600160008054906101000a900460ff1660ff16145b5b6135c1576040517f08c379a00000000000000000000000000000000000000000000000000000000081526004016135b890614c49565b60405180910390fd5b60016000806101000a81548160ff021916908360ff16021790555080156135fe576001600060016101000a81548160ff0219169083151502179055505b613606613912565b801561365f5760008060016101000a81548160ff0219169083151502179055507f7f26b83ff96e1f2b6a682f133852f6798a09c465da95921460cefb384740249860016040516136569190614acc565b60405180910390a15b50565b73a2d23627bc0314f4cbd08ff54ecb89bb45685053606660006101000a81548173ffffffffffffffffffffffffffffffffffffffff021916908373ffffffffffffffffffffffffffffffffffffffff160217905550606660009054906101000a900473ffffffffffffffffffffffffffffffffffffffff1660cf60006101000a81548173ffffffffffffffffffffffffffffffffffffffff021916908373ffffffffffffffffffffffffffffffffffffffff16021790555060b460d060000160006101000a81548167ffffffffffffffff021916908367ffffffffffffffff1602179055507f617abc3f53ae11766071d04ada1c7b0fbd49833b9542e9e91da4d3191c70cc8060001b60d060010181905550620493e060d060020160006101000a81548163ffffffff021916908363ffffffff160217905550600360d060020160066101000a81548161ffff021916908361ffff160217905550600160d060020160046101000a81548161ffff021916908361ffff160217905550565b6137e8816133f6565b8073ffffffffffffffffffffffffffffffffffffffff167fbc7cd75a20ee27fd9adebab32041f755214dbc6bffa90cc0225b39da2e5c2d3b60405160405180910390a250565b606061383983612de6565b613878576040517f08c379a000000000000000000000000000000000000000000000000000000000815260040161386f90614d69565b60405180910390fd5b6000808473ffffffffffffffffffffffffffffffffffffffff16846040516138a091906148fb565b600060405180830381855af49150503d80600081146138db576040519150601f19603f3d011682016040523d82523d6000602084013e6138e0565b606091505b50915091506139088282604051806060016040528060278152602001615a9260279139613aa8565b9250505092915050565b60008060019054906101000a900460ff161590508080156139435750600160008054906101000a900460ff1660ff16105b80613970575061395230612de6565b15801561396f5750600160008054906101000a900460ff1660ff16145b5b6139af576040517f08c379a00000000000000000000000000000000000000000000000000000000081526004016139a690614c49565b60405180910390fd5b60016000806101000a81548160ff021916908360ff16021790555080156139ec576001600060016101000a81548160ff0219169083151502179055505b6139f4613aca565b6001606560003373ffffffffffffffffffffffffffffffffffffffff1673ffffffffffffffffffffffffffffffffffffffff16815260200190815260200160002060006101000a81548160ff0219169083151502179055508015613aa55760008060016101000a81548160ff0219169083151502179055507f7f26b83ff96e1f2b6a682f133852f6798a09c465da95921460cefb38474024986001604051613a9c9190614acc565b60405180910390a15b50565b60608315613ab857829050613ac3565b613ac28383613b23565b5b9392505050565b600060019054906101000a900460ff16613b19576040517f08c379a0000000000000000000000000000000000000000000000000000000008152600401613b1090614de9565b60405180910390fd5b613b21613b73565b565b600082511115613b365781518083602001fd5b806040517f08c379a0000000000000000000000000000000000000000000000000000000008152600401613b6a9190614ae7565b60405180910390fd5b600060019054906101000a900460ff16613bc2576040517f08c379a0000000000000000000000000000000000000000000000000000000008152600401613bb990614de9565b60405180910390fd5b613bd2613bcd6133d0565b612d20565b565b604051806101200160405280600015158152602001600015158152602001600081526020016000815260200160008152602001600081526020016000815260200160008152602001600073ffffffffffffffffffffffffffffffffffffffff1681525090565b6040518060a00160405280600067ffffffffffffffff16815260200160008019168152602001600063ffffffff168152602001600061ffff168152602001600061ffff1681525090565b828054828255906000526020600020908101928215613cc0579160200282015b82811115613cbf578251825591602001919060010190613ca4565b5b509050613ccd9190613cd1565b5090565b5b80821115613cea576000816000905550600101613cd2565b5090565b6000613d01613cfc84614f45565b614f20565b90508083825260208201905082856020860282011115613d2457613d2361539c565b5b60005b85811015613d545781613d3a8882613f1b565b845260208401935060208301925050600181019050613d27565b5050509392505050565b6000613d71613d6c84614f71565b614f20565b905082815260208101848484011115613d8d57613d8c6153a1565b5b613d988482856151e9565b509392505050565b600081359050613daf816159d9565b92915050565b600081359050613dc4816159f0565b92915050565b600082601f830112613ddf57613dde615392565b5b8135613def848260208601613cee565b91505092915050565b600081359050613e0781615a07565b92915050565b600081519050613e1c81615a07565b92915050565b600081359050613e3181615a1e565b92915050565b600081519050613e4681615a1e565b92915050565b600082601f830112613e6157613e60615392565b5b8135613e71848260208601613d5e565b91505092915050565b600060a08284031215613e9057613e8f615397565b5b613e9a60a0614f20565b90506000613eaa84828501613f5a565b6000830152506020613ebe84828501613e22565b6020830152506040613ed284828501613f45565b6040830152506060613ee684828501613f06565b6060830152506080613efa84828501613f06565b60808301525092915050565b600081359050613f1581615a35565b92915050565b600081359050613f2a81615a4c565b92915050565b600081519050613f3f81615a4c565b92915050565b600081359050613f5481615a63565b92915050565b600081359050613f6981615a7a565b92915050565b600060208284031215613f8557613f846153ab565b5b6000613f9384828501613da0565b91505092915050565b600060208284031215613fb257613fb16153ab565b5b6000613fc084828501613db5565b91505092915050565b600080600060608486031215613fe257613fe16153ab565b5b6000613ff086828701613da0565b935050602061400186828701613df8565b925050604061401286828701613f1b565b9150509250925092565b60008060408385031215614033576140326153ab565b5b600061404185828601613da0565b925050602083013567ffffffffffffffff811115614062576140616153a6565b5b61406e85828601613e4c565b9150509250929050565b6000806040838503121561408f5761408e6153ab565b5b600061409d85828601613da0565b92505060206140ae85828601613f1b565b9150509250929050565b6000602082840312156140ce576140cd6153ab565b5b600082013567ffffffffffffffff8111156140ec576140eb6153a6565b5b6140f884828501613dca565b91505092915050565b600060208284031215614117576141166153ab565b5b600061412584828501613e0d565b91505092915050565b600060208284031215614144576141436153ab565b5b600061415284828501613e37565b91505092915050565b600060a08284031215614171576141706153ab565b5b600061417f84828501613e7a565b91505092915050565b60006020828403121561419e5761419d6153ab565b5b60006141ac84828501613f1b565b91505092915050565b6000602082840312156141cb576141ca6153ab565b5b60006141d984828501613f30565b91505092915050565b600080604083850312156141f9576141f86153ab565b5b600061420785828601613f1b565b925050602083013567ffffffffffffffff811115614228576142276153a6565b5b61423485828601613dca565b9150509250929050565b60008060408385031215614255576142546153ab565b5b600061426385828601613f1b565b925050602061427485828601613f1b565b9150509250929050565b600061428a83836148a1565b60208301905092915050565b61429f81615122565b82525050565b6142ae81615122565b82525050565b60006142bf82614fb2565b6142c98185614fe0565b93506142d483614fa2565b8060005b838110156143055781516142ec888261427e565b97506142f783614fd3565b9250506001810190506142d8565b5085935050505092915050565b61431b81615146565b82525050565b61432a81615146565b82525050565b61433981615152565b82525050565b61434881615152565b82525050565b600061435982614fbd565b6143638185614ff1565b93506143738185602086016151f8565b80840191505092915050565b614388816151c5565b82525050565b600061439982614fc8565b6143a38185614ffc565b93506143b38185602086016151f8565b6143bc816153b0565b840191505092915050565b60006143d4601183614ffc565b91506143df826153c1565b602082019050919050565b60006143f7601483614ffc565b9150614402826153ea565b602082019050919050565b600061441a602e83614ffc565b915061442582615413565b604082019050919050565b600061443d602683614ffc565b915061444882615462565b604082019050919050565b6000614460602983614ffc565b915061446b826154b1565b604082019050919050565b6000614483602c83614ffc565b915061448e82615500565b604082019050919050565b60006144a6602c83614ffc565b91506144b18261554f565b604082019050919050565b60006144c9603883614ffc565b91506144d48261559e565b604082019050919050565b60006144ec601083614ffc565b91506144f7826155ed565b602082019050919050565b600061450f602983614ffc565b915061451a82615616565b604082019050919050565b6000614532602e83614ffc565b915061453d82615665565b604082019050919050565b6000614555601b83614ffc565b9150614560826156b4565b602082019050919050565b6000614578602e83614ffc565b9150614583826156dd565b604082019050919050565b600061459b601c83614ffc565b91506145a68261572c565b602082019050919050565b60006145be602d83614ffc565b91506145c982615755565b604082019050919050565b60006145e1602083614ffc565b91506145ec826157a4565b602082019050919050565b6000614604602783614ffc565b915061460f826157cd565b604082019050919050565b6000614627601283614ffc565b91506146328261581c565b602082019050919050565b600061464a601183614ffc565b915061465582615845565b602082019050919050565b600061466d602683614ffc565b91506146788261586e565b604082019050919050565b6000614690600083614ff1565b915061469b826158bd565b600082019050919050565b60006146b3601883614ffc565b91506146be826158c0565b602082019050919050565b60006146d6601783614ffc565b91506146e1826158e9565b602082019050919050565b60006146f9602383614ffc565b915061470482615912565b604082019050919050565b600061471c602b83614ffc565b915061472782615961565b604082019050919050565b600061473f601f83614ffc565b915061474a826159b0565b602082019050919050565b6101208201600082015161476c6000850182614312565b50602082015161477f6020850182614312565b50604082015161479260408501826148a1565b5060608201516147a560608501826148a1565b5060808201516147b860808501826148a1565b5060a08201516147cb60a08501826148a1565b5060c08201516147de60c08501826148a1565b5060e08201516147f160e08501826148a1565b50610100820151614806610100850182614296565b50505050565b60a08201600082015161482260008501826148dd565b5060208201516148356020850182614330565b50604082015161484860408501826148bf565b50606082015161485b6060850182614874565b50608082015161486e6080850182614874565b50505050565b61487d8161515c565b82525050565b61488c8161515c565b82525050565b61489b816151d7565b82525050565b6148aa8161518a565b82525050565b6148b98161518a565b82525050565b6148c881615194565b82525050565b6148d781615194565b82525050565b6148e6816151a4565b82525050565b6148f5816151a4565b82525050565b6000614907828461434e565b915081905092915050565b600061491d82614683565b9150819050919050565b600060208201905061493c60008301846142a5565b92915050565b600060408201905061495760008301856142a5565b61496460208301846142a5565b9392505050565b600060408201905061498060008301856142a5565b61498d60208301846148b0565b9392505050565b600060208201905081810360008301526149ae81846142b4565b905092915050565b60006020820190506149cb6000830184614321565b92915050565b6000610120820190506149e7600083018c614321565b6149f4602083018b614321565b614a01604083018a6148b0565b614a0e60608301896148b0565b614a1b60808301886148b0565b614a2860a08301876148b0565b614a3560c08301866148b0565b614a4260e08301856148b0565b614a506101008301846142a5565b9a9950505050505050505050565b6000602082019050614a73600083018461433f565b92915050565b600060a082019050614a8e600083018861433f565b614a9b60208301876148ec565b614aa86040830186614883565b614ab560608301856148ce565b614ac26080830184614892565b9695505050505050565b6000602082019050614ae1600083018461437f565b92915050565b60006020820190508181036000830152614b01818461438e565b905092915050565b60006020820190508181036000830152614b22816143c7565b9050919050565b60006020820190508181036000830152614b42816143ea565b9050919050565b60006020820190508181036000830152614b628161440d565b9050919050565b60006020820190508181036000830152614b8281614430565b9050919050565b60006020820190508181036000830152614ba281614453565b9050919050565b60006020820190508181036000830152614bc281614476565b9050919050565b60006020820190508181036000830152614be281614499565b9050919050565b60006020820190508181036000830152614c02816144bc565b9050919050565b60006020820190508181036000830152614c22816144df565b9050919050565b60006020820190508181036000830152614c4281614502565b9050919050565b60006020820190508181036000830152614c6281614525565b9050919050565b60006020820190508181036000830152614c8281614548565b9050919050565b60006020820190508181036000830152614ca28161456b565b9050919050565b60006020820190508181036000830152614cc28161458e565b9050919050565b60006020820190508181036000830152614ce2816145b1565b9050919050565b60006020820190508181036000830152614d02816145d4565b9050919050565b60006020820190508181036000830152614d22816145f7565b9050919050565b60006020820190508181036000830152614d428161461a565b9050919050565b60006020820190508181036000830152614d628161463d565b9050919050565b60006020820190508181036000830152614d8281614660565b9050919050565b60006020820190508181036000830152614da2816146a6565b9050919050565b60006020820190508181036000830152614dc2816146c9565b9050919050565b60006020820190508181036000830152614de2816146ec565b9050919050565b60006020820190508181036000830152614e028161470f565b9050919050565b60006020820190508181036000830152614e2281614732565b9050919050565b600061012082019050614e3f6000830184614755565b92915050565b600060a082019050614e5a600083018461480c565b92915050565b6000602082019050614e7560008301846148b0565b92915050565b6000606082019050614e9060008301866148b0565b614e9d60208301856148b0565b614eaa60408301846148b0565b949350505050565b600060a082019050614ec760008301886148b0565b614ed460208301876148b0565b614ee160408301866148b0565b614eee60608301856148b0565b614efb60808301846148b0565b9695505050505050565b6000602082019050614f1a60008301846148ec565b92915050565b6000614f2a614f3b565b9050614f36828261522b565b919050565b6000604051905090565b600067ffffffffffffffff821115614f6057614f5f615363565b5b602082029050602081019050919050565b600067ffffffffffffffff821115614f8c57614f8b615363565b5b614f95826153b0565b9050602081019050919050565b6000819050602082019050919050565b600081519050919050565b600081519050919050565b600081519050919050565b6000602082019050919050565b600082825260208201905092915050565b600081905092915050565b600082825260208201905092915050565b60006150188261518a565b91506150238361518a565b9250827fffffffffffffffffffffffffffffffffffffffffffffffffffffffffffffffff03821115615058576150576152d6565b5b828201905092915050565b600061506e8261518a565b91506150798361518a565b92508261508957615088615305565b5b828204905092915050565b600061509f8261518a565b91506150aa8361518a565b9250817fffffffffffffffffffffffffffffffffffffffffffffffffffffffffffffffff04831182151516156150e3576150e26152d6565b5b828202905092915050565b60006150f98261518a565b91506151048361518a565b925082821015615117576151166152d6565b5b828203905092915050565b600061512d8261516a565b9050919050565b600061513f8261516a565b9050919050565b60008115159050919050565b6000819050919050565b600061ffff82169050919050565b600073ffffffffffffffffffffffffffffffffffffffff82169050919050565b6000819050919050565b600063ffffffff82169050919050565b600067ffffffffffffffff82169050919050565b600060ff82169050919050565b60006151d0826151b8565b9050919050565b60006151e28261515c565b9050919050565b82818337600083830152505050565b60005b838110156152165780820151818401526020810190506151fb565b83811115615225576000848401525b50505050565b615234826153b0565b810181811067ffffffffffffffff8211171561525357615252615363565b5b80604052505050565b60006152678261518a565b91507fffffffffffffffffffffffffffffffffffffffffffffffffffffffffffffffff82141561529a576152996152d6565b5b600182019050919050565b60006152b08261518a565b91506152bb8361518a565b9250826152cb576152ca615305565b5b828206905092915050565b7f4e487b7100000000000000000000000000000000000000000000000000000000600052601160045260246000fd5b7f4e487b7100000000000000000000000000000000000000000000000000000000600052601260045260246000fd5b7f4e487b7100000000000000000000000000000000000000000000000000000000600052603260045260246000fd5b7f4e487b7100000000000000000000000000000000000000000000000000000000600052604160045260246000fd5b600080fd5b600080fd5b600080fd5b600080fd5b600080fd5b600080fd5b6000601f19601f8301169050919050565b7f72657175657374206e6f7420666f756e64000000000000000000000000000000600082015250565b7f5061757361626c653a206e6f7420706175736564000000000000000000000000600082015250565b7f706c65617365207761697420756e74696c207468652063757272656e7420666c60008201527f69702069732066696e6973686564000000000000000000000000000000000000602082015250565b7f4f776e61626c653a206e6577206f776e657220697320746865207a65726f206160008201527f6464726573730000000000000000000000000000000000000000000000000000602082015250565b7f706c656173652077616974203630207365636f6e647320616674657220666c6960008201527f7020726571756573740000000000000000000000000000000000000000000000602082015250565b7f46756e6374696f6e206d7573742062652063616c6c6564207468726f7567682060008201527f64656c656761746563616c6c0000000000000000000000000000000000000000602082015250565b7f46756e6374696f6e206d7573742062652063616c6c6564207468726f7567682060008201527f6163746976652070726f78790000000000000000000000000000000000000000602082015250565b7f555550535570677261646561626c653a206d757374206e6f742062652063616c60008201527f6c6564207468726f7567682064656c656761746563616c6c0000000000000000602082015250565b7f5061757361626c653a2070617573656400000000000000000000000000000000600082015250565b7f45524331393637557067726164653a20756e737570706f727465642070726f7860008201527f6961626c65555549440000000000000000000000000000000000000000000000602082015250565b7f496e697469616c697a61626c653a20636f6e747261637420697320616c72656160008201527f647920696e697469616c697a6564000000000000000000000000000000000000602082015250565b7f63616c6c6572206973206e6f7420746865206f70657261746f72730000000000600082015250565b7f45524331393637557067726164653a206e657720696d706c656d656e7461746960008201527f6f6e206973206e6f742055555053000000000000000000000000000000000000602082015250565b7f636c61696d20616d6f756e7420657863656564732062616c616e636500000000600082015250565b7f455243313936373a206e657720696d706c656d656e746174696f6e206973206e60008201527f6f74206120636f6e747261637400000000000000000000000000000000000000602082015250565b7f4f776e61626c653a2063616c6c6572206973206e6f7420746865206f776e6572600082015250565b7f6d6f6e657920696e207468652062616e6b206973206e6f7420656e6f7567682060008201527f746f20666c697000000000000000000000000000000000000000000000000000602082015250565b7f496e76616c69642062657420616d6f756e740000000000000000000000000000600082015250565b7f616c72656164792066756c66696c6c6564000000000000000000000000000000600082015250565b7f416464726573733a2064656c65676174652063616c6c20746f206e6f6e2d636f60008201527f6e74726163740000000000000000000000000000000000000000000000000000602082015250565b50565b7f6e6f7420656e6f756768206d6f6e657920746f20666c69700000000000000000600082015250565b7f696e76616c696420686561642f7461696c20696e707574000000000000000000600082015250565b7f4661696c656420746f2073656e6420424e422066726f6d2044656f646457616c60008201527f6c65740000000000000000000000000000000000000000000000000000000000602082015250565b7f496e697469616c697a61626c653a20636f6e7472616374206973206e6f74206960008201527f6e697469616c697a696e67000000000000000000000000000000000000000000602082015250565b7f5265656e7472616e637947756172643a207265656e7472616e742063616c6c00600082015250565b6159e281615122565b81146159ed57600080fd5b50565b6159f981615134565b8114615a0457600080fd5b50565b615a1081615146565b8114615a1b57600080fd5b50565b615a2781615152565b8114615a3257600080fd5b50565b615a3e8161515c565b8114615a4957600080fd5b50565b615a558161518a565b8114615a6057600080fd5b50565b615a6c81615194565b8114615a7757600080fd5b50565b615a83816151a4565b8114615a8e57600080fd5b5056fe416464726573733a206c6f772d6c6576656c2064656c65676174652063616c6c206661696c6564a26469706673582212202de472a1f7d9fe17798fd987ea4a9c7c6f8a4ec5bc9ad1658d84d95aa35e6cc564736f6c63430008070033",
  "linkReferences": {},
  "deployedLinkReferences": {}
}