{
  "_format": "hh-sol-artifact-1",
  "contractName": "FeeManager",
  "sourceName": "contracts/FeeManager.sol",
  "abi": [
    {
      "anonymous": false,
      "inputs": [
        {
          "indexed": false,
          "internalType": "address",
          "name": "previousAdmin",
          "type": "address"
        },
        {
          "indexed": false,
          "internalType": "address",
          "name": "newAdmin",
          "type": "address"
        }
      ],
      "name": "AdminChanged",
      "type": "event"
    },
    {
      "anonymous": false,
      "inputs": [
        {
          "indexed": true,
          "internalType": "address",
          "name": "beacon",
          "type": "address"
        }
      ],
      "name": "BeaconUpgraded",
      "type": "event"
    },
    {
      "anonymous": false,
      "inputs": [
        {
          "indexed": true,
          "internalType": "address",
          "name": "from",
          "type": "address"
        },
        {
          "indexed": false,
          "internalType": "uint256",
          "name": "amount",
          "type": "uint256"
        }
      ],
      "name": "FeeManagerReceiveBNB",
      "type": "event"
    },
    {
      "anonymous": false,
      "inputs": [
        {
          "indexed": false,
          "internalType": "uint8",
          "name": "version",
          "type": "uint8"
        }
      ],
      "name": "Initialized",
      "type": "event"
    },
    {
      "anonymous": false,
      "inputs": [
        {
          "indexed": true,
          "internalType": "address",
          "name": "previousOwner",
          "type": "address"
        },
        {
          "indexed": true,
          "internalType": "address",
          "name": "newOwner",
          "type": "address"
        }
      ],
      "name": "OwnershipTransferred",
      "type": "event"
    },
    {
      "anonymous": false,
      "inputs": [
        {
          "indexed": true,
          "internalType": "address",
          "name": "implementation",
          "type": "address"
        }
      ],
      "name": "Upgraded",
      "type": "event"
    },
    {
      "inputs": [
        {
          "internalType": "uint256",
          "name": "betAmount",
          "type": "uint256"
        }
      ],
      "name": "calcTotalFee",
      "outputs": [
        {
          "internalType": "uint256",
          "name": "",
          "type": "uint256"
        }
      ],
      "stateMutability": "view",
      "type": "function"
    },
    {
      "inputs": [],
      "name": "checkInNFTBoostRateTime",
      "outputs": [
        {
          "internalType": "uint256",
          "name": "",
          "type": "uint256"
        }
      ],
      "stateMutability": "view",
      "type": "function"
    },
    {
      "inputs": [],
      "name": "checkInTosspointBoostRateTime",
      "outputs": [
        {
          "internalType": "uint256",
          "name": "",
          "type": "uint256"
        }
      ],
      "stateMutability": "view",
      "type": "function"
    },
    {
      "inputs": [
        {
          "internalType": "uint256",
          "name": "betAmount",
          "type": "uint256"
        }
      ],
      "name": "feeToPools",
      "outputs": [],
      "stateMutability": "nonpayable",
      "type": "function"
    },
    {
      "inputs": [],
      "name": "getImplementation",
      "outputs": [
        {
          "internalType": "address",
          "name": "",
          "type": "address"
        }
      ],
      "stateMutability": "view",
      "type": "function"
    },
    {
      "inputs": [
        {
          "internalType": "address",
          "name": "player",
          "type": "address"
        },
        {
          "internalType": "uint256",
          "name": "bId",
          "type": "uint256"
        },
        {
          "internalType": "uint256",
          "name": "inBoostRate",
          "type": "uint256"
        },
        {
          "internalType": "uint256",
          "name": "rn1",
          "type": "uint256"
        },
        {
          "internalType": "uint256",
          "name": "rn2",
          "type": "uint256"
        }
      ],
      "name": "getNFT",
      "outputs": [
        {
          "internalType": "uint256",
          "name": "",
          "type": "uint256"
        },
        {
          "internalType": "uint256",
          "name": "",
          "type": "uint256"
        }
      ],
      "stateMutability": "nonpayable",
      "type": "function"
    },
    {
      "inputs": [
        {
          "internalType": "address",
          "name": "player",
          "type": "address"
        },
        {
          "internalType": "uint256",
          "name": "bId",
          "type": "uint256"
        },
        {
          "internalType": "uint256",
          "name": "inBoostRate",
          "type": "uint256"
        },
        {
          "internalType": "uint256",
          "name": "rn",
          "type": "uint256"
        }
      ],
      "name": "getTossPoint",
      "outputs": [
        {
          "internalType": "uint256",
          "name": "",
          "type": "uint256"
        },
        {
          "internalType": "uint256",
          "name": "",
          "type": "uint256"
        }
      ],
      "stateMutability": "nonpayable",
      "type": "function"
    },
    {
      "inputs": [],
      "name": "getTotalFee",
      "outputs": [
        {
          "internalType": "uint256",
          "name": "",
          "type": "uint256"
        }
      ],
      "stateMutability": "view",
      "type": "function"
    },
    {
      "inputs": [],
      "name": "initialize",
      "outputs": [],
      "stateMutability": "nonpayable",
      "type": "function"
    },
    {
      "inputs": [
        {
          "internalType": "address",
          "name": "operator",
          "type": "address"
        }
      ],
      "name": "isOperator",
      "outputs": [
        {
          "internalType": "bool",
          "name": "",
          "type": "bool"
        }
      ],
      "stateMutability": "view",
      "type": "function"
    },
    {
      "inputs": [],
      "name": "owner",
      "outputs": [
        {
          "internalType": "address",
          "name": "",
          "type": "address"
        }
      ],
      "stateMutability": "view",
      "type": "function"
    },
    {
      "inputs": [],
      "name": "proxiableUUID",
      "outputs": [
        {
          "internalType": "bytes32",
          "name": "",
          "type": "bytes32"
        }
      ],
      "stateMutability": "view",
      "type": "function"
    },
    {
      "inputs": [
        {
          "internalType": "address",
          "name": "operator",
          "type": "address"
        }
      ],
      "name": "removeOperator",
      "outputs": [],
      "stateMutability": "nonpayable",
      "type": "function"
    },
    {
      "inputs": [],
      "name": "renounceOwnership",
      "outputs": [],
      "stateMutability": "nonpayable",
      "type": "function"
    },
    {
      "inputs": [
        {
          "internalType": "address",
          "name": "_jp",
          "type": "address"
        }
      ],
      "name": "setJackpot",
      "outputs": [],
      "stateMutability": "nonpayable",
      "type": "function"
    },
    {
      "inputs": [
        {
          "internalType": "address",
          "name": "_holder",
          "type": "address"
        }
      ],
      "name": "setNFTHolder",
      "outputs": [],
      "stateMutability": "nonpayable",
      "type": "function"
    },
    {
      "inputs": [
        {
          "internalType": "address",
          "name": "operator",
          "type": "address"
        }
      ],
      "name": "setOperator",
      "outputs": [],
      "stateMutability": "nonpayable",
      "type": "function"
    },
    {
      "inputs": [],
      "name": "start",
      "outputs": [],
      "stateMutability": "nonpayable",
      "type": "function"
    },
    {
      "inputs": [
        {
          "internalType": "address",
          "name": "newOwner",
          "type": "address"
        }
      ],
      "name": "transferOwnership",
      "outputs": [],
      "stateMutability": "nonpayable",
      "type": "function"
    },
    {
      "inputs": [
        {
          "internalType": "uint256",
          "name": "_fee",
          "type": "uint256"
        }
      ],
      "name": "updateJackpotFee",
      "outputs": [],
      "stateMutability": "nonpayable",
      "type": "function"
    },
    {
      "inputs": [
        {
          "internalType": "uint256",
          "name": "_fee",
          "type": "uint256"
        }
      ],
      "name": "updateNFTHolderFee",
      "outputs": [],
      "stateMutability": "nonpayable",
      "type": "function"
    },
    {
      "inputs": [
        {
          "internalType": "address",
          "name": "newImplementation",
          "type": "address"
        }
      ],
      "name": "upgradeTo",
      "outputs": [],
      "stateMutability": "nonpayable",
      "type": "function"
    },
    {
      "inputs": [
        {
          "internalType": "address",
          "name": "newImplementation",
          "type": "address"
        },
        {
          "internalType": "bytes",
          "name": "data",
          "type": "bytes"
        }
      ],
      "name": "upgradeToAndCall",
      "outputs": [],
      "stateMutability": "payable",
      "type": "function"
    },
    {
      "stateMutability": "payable",
      "type": "receive"
    }
  ],
  "bytecode": "0x60a06040523073ffffffffffffffffffffffffffffffffffffffff1660809073ffffffffffffffffffffffffffffffffffffffff1660601b81525034801561004657600080fd5b5060805160601c6131b861008160003960008181610661015281816106f001528181610a8901528181610b180152610bc801526131b86000f3fe6080604052600436106101445760003560e01c806380790c8a116100b6578063be9a65551161006f578063be9a655514610470578063c7c9fcaa14610487578063e13fd73b146104b0578063e8834762146104d9578063f298efdf14610516578063f2fde38b1461053f57610199565b806380790c8a146103865780638129fc1c146103b15780638da5cb5b146103c8578063aaf10f42146103f3578063ac8a584a1461041e578063b3ab15fb1461044757610199565b806352d1902d1161010857806352d1902d1461028857806359e2eb48146102b35780636d70f7ae146102de578063715018a61461031b5780637ae316d0146103325780637e95385c1461035d57610199565b80631cd5e98f1461019e5780633659cfe6146101c75780633c201bbe146101f05780633c53ca291461022e5780634f1ef2861461026c57610199565b36610199573373ffffffffffffffffffffffffffffffffffffffff167f1b63e01fb97fce2f95ffd413b39de00c8f5957cbf1dda3d75ccb1d638646f82c3460405161018f9190612a19565b60405180910390a2005b600080fd5b3480156101aa57600080fd5b506101c560048036038101906101c091906123e3565b610568565b005b3480156101d357600080fd5b506101ee60048036038101906101e9919061224b565b61065f565b005b3480156101fc57600080fd5b506102176004803603810190610212919061233b565b6107e8565b604051610225929190612a34565b60405180910390f35b34801561023a57600080fd5b50610255600480360381019061025091906122d4565b610939565b604051610263929190612a34565b60405180910390f35b61028660048036038101906102819190612278565b610a87565b005b34801561029457600080fd5b5061029d610bc4565b6040516102aa9190612801565b60405180910390f35b3480156102bf57600080fd5b506102c8610c7d565b6040516102d59190612a19565b60405180910390f35b3480156102ea57600080fd5b506103056004803603810190610300919061224b565b610d24565b60405161031291906127e6565b60405180910390f35b34801561032757600080fd5b50610330610d7a565b005b34801561033e57600080fd5b50610347610d8e565b6040516103549190612a19565b60405180910390f35b34801561036957600080fd5b50610384600480360381019061037f919061224b565b610d98565b005b34801561039257600080fd5b5061039b610dec565b6040516103a89190612a19565b60405180910390f35b3480156103bd57600080fd5b506103c6610e93565b005b3480156103d457600080fd5b506103dd610fd1565b6040516103ea9190612733565b60405180910390f35b3480156103ff57600080fd5b50610408610ffb565b6040516104159190612733565b60405180910390f35b34801561042a57600080fd5b506104456004803603810190610440919061224b565b61100a565b005b34801561045357600080fd5b5061046e6004803603810190610469919061224b565b61106d565b005b34801561047c57600080fd5b506104856110d0565b005b34801561049357600080fd5b506104ae60048036038101906104a991906123e3565b611386565b005b3480156104bc57600080fd5b506104d760048036038101906104d2919061224b565b61152f565b005b3480156104e557600080fd5b5061050060048036038101906104fb91906123e3565b611583565b60405161050d9190612a19565b60405180910390f35b34801561052257600080fd5b5061053d600480360381019061053891906123e3565b6115a8565b005b34801561054b57600080fd5b506105666004803603810190610561919061224b565b61169f565b005b610570611723565b600073ffffffffffffffffffffffffffffffffffffffff1660cd60009054906101000a900473ffffffffffffffffffffffffffffffffffffffff1673ffffffffffffffffffffffffffffffffffffffff161461065c5760cd60009054906101000a900473ffffffffffffffffffffffffffffffffffffffff1673ffffffffffffffffffffffffffffffffffffffff1663a1215f13826040518263ffffffff1660e01b81526004016106219190612a19565b600060405180830381600087803b15801561063b57600080fd5b505af115801561064f573d6000803e3d6000fd5b5050505061065b6117a1565b5b50565b7f000000000000000000000000000000000000000000000000000000000000000073ffffffffffffffffffffffffffffffffffffffff163073ffffffffffffffffffffffffffffffffffffffff1614156106ee576040517f08c379a00000000000000000000000000000000000000000000000000000000081526004016106e590612879565b60405180910390fd5b7f000000000000000000000000000000000000000000000000000000000000000073ffffffffffffffffffffffffffffffffffffffff1661072d6119c9565b73ffffffffffffffffffffffffffffffffffffffff1614610783576040517f08c379a000000000000000000000000000000000000000000000000000000000815260040161077a90612899565b60405180910390fd5b61078c81611a20565b6107e581600067ffffffffffffffff8111156107ab576107aa612d08565b5b6040519080825280601f01601f1916602001820160405280156107dd5781602001600182028036833780820191505090505b506000611a2b565b50565b60008060c960003373ffffffffffffffffffffffffffffffffffffffff1673ffffffffffffffffffffffffffffffffffffffff16815260200190815260200160002060009054906101000a900460ff16610877576040517f08c379a000000000000000000000000000000000000000000000000000000000815260040161086e90612959565b60405180910390fd5b60cd60009054906101000a900473ffffffffffffffffffffffffffffffffffffffff1673ffffffffffffffffffffffffffffffffffffffff16633c201bbe88888888886040518663ffffffff1660e01b81526004016108da959493929190612793565b6040805180830381600087803b1580156108f357600080fd5b505af1158015610907573d6000803e3d6000fd5b505050506040513d601f19601f8201168201806040525081019061092b919061243d565b915091509550959350505050565b60008060c960003373ffffffffffffffffffffffffffffffffffffffff1673ffffffffffffffffffffffffffffffffffffffff16815260200190815260200160002060009054906101000a900460ff166109c8576040517f08c379a00000000000000000000000000000000000000000000000000000000081526004016109bf90612959565b60405180910390fd5b60cc60009054906101000a900473ffffffffffffffffffffffffffffffffffffffff1673ffffffffffffffffffffffffffffffffffffffff16633c53ca29878787876040518563ffffffff1660e01b8152600401610a29949392919061274e565b6040805180830381600087803b158015610a4257600080fd5b505af1158015610a56573d6000803e3d6000fd5b505050506040513d601f19601f82011682018060405250810190610a7a919061243d565b9150915094509492505050565b7f000000000000000000000000000000000000000000000000000000000000000073ffffffffffffffffffffffffffffffffffffffff163073ffffffffffffffffffffffffffffffffffffffff161415610b16576040517f08c379a0000000000000000000000000000000000000000000000000000000008152600401610b0d90612879565b60405180910390fd5b7f000000000000000000000000000000000000000000000000000000000000000073ffffffffffffffffffffffffffffffffffffffff16610b556119c9565b73ffffffffffffffffffffffffffffffffffffffff1614610bab576040517f08c379a0000000000000000000000000000000000000000000000000000000008152600401610ba290612899565b60405180910390fd5b610bb482611a20565b610bc082826001611a2b565b5050565b60007f000000000000000000000000000000000000000000000000000000000000000073ffffffffffffffffffffffffffffffffffffffff163073ffffffffffffffffffffffffffffffffffffffff1614610c54576040517f08c379a0000000000000000000000000000000000000000000000000000000008152600401610c4b906128d9565b60405180910390fd5b7f360894a13ba1a3210667c828492db98dca3e2076cc3735a920a3ca505d382bbc60001b905090565b600060cc60009054906101000a900473ffffffffffffffffffffffffffffffffffffffff1673ffffffffffffffffffffffffffffffffffffffff16638d68b8416040518163ffffffff1660e01b815260040160206040518083038186803b158015610ce757600080fd5b505afa158015610cfb573d6000803e3d6000fd5b505050506040513d601f19601f82011682018060405250810190610d1f9190612410565b905090565b600060c960008373ffffffffffffffffffffffffffffffffffffffff1673ffffffffffffffffffffffffffffffffffffffff16815260200190815260200160002060009054906101000a900460ff169050919050565b610d82611723565b610d8c6000611ba8565b565b600060cb54905090565b610da0611723565b8060cc60006101000a81548173ffffffffffffffffffffffffffffffffffffffff021916908373ffffffffffffffffffffffffffffffffffffffff160217905550610de96117a1565b50565b600060cd60009054906101000a900473ffffffffffffffffffffffffffffffffffffffff1673ffffffffffffffffffffffffffffffffffffffff16638d68b8416040518163ffffffff1660e01b815260040160206040518083038186803b158015610e5657600080fd5b505afa158015610e6a573d6000803e3d6000fd5b505050506040513d601f19601f82011682018060405250810190610e8e9190612410565b905090565b60008060019054906101000a900460ff16159050808015610ec45750600160008054906101000a900460ff1660ff16105b80610ef15750610ed330611c6e565b158015610ef05750600160008054906101000a900460ff1660ff16145b5b610f30576040517f08c379a0000000000000000000000000000000000000000000000000000000008152600401610f2790612939565b60405180910390fd5b60016000806101000a81548160ff021916908360ff1602179055508015610f6d576001600060016101000a81548160ff0219169083151502179055505b610f75611c91565b8015610fce5760008060016101000a81548160ff0219169083151502179055507f7f26b83ff96e1f2b6a682f133852f6798a09c465da95921460cefb38474024986001604051610fc5919061281c565b60405180910390a15b50565b6000609760009054906101000a900473ffffffffffffffffffffffffffffffffffffffff16905090565b60006110056119c9565b905090565b611012611723565b600060c960008373ffffffffffffffffffffffffffffffffffffffff1673ffffffffffffffffffffffffffffffffffffffff16815260200190815260200160002060006101000a81548160ff02191690831515021790555050565b611075611723565b600160c960008373ffffffffffffffffffffffffffffffffffffffff1673ffffffffffffffffffffffffffffffffffffffff16815260200190815260200160002060006101000a81548160ff02191690831515021790555050565b60c960003373ffffffffffffffffffffffffffffffffffffffff1673ffffffffffffffffffffffffffffffffffffffff16815260200190815260200160002060009054906101000a900460ff1661115c576040517f08c379a000000000000000000000000000000000000000000000000000000000815260040161115390612959565b60405180910390fd5b600073ffffffffffffffffffffffffffffffffffffffff1660cc60009054906101000a900473ffffffffffffffffffffffffffffffffffffffff1673ffffffffffffffffffffffffffffffffffffffff1614156111ee576040517f08c379a00000000000000000000000000000000000000000000000000000000081526004016111e5906128f9565b60405180910390fd5b600073ffffffffffffffffffffffffffffffffffffffff1660cd60009054906101000a900473ffffffffffffffffffffffffffffffffffffffff1673ffffffffffffffffffffffffffffffffffffffff161415611280576040517f08c379a0000000000000000000000000000000000000000000000000000000008152600401611277906128b9565b60405180910390fd5b60cc60009054906101000a900473ffffffffffffffffffffffffffffffffffffffff1673ffffffffffffffffffffffffffffffffffffffff1663be9a65556040518163ffffffff1660e01b8152600401600060405180830381600087803b1580156112ea57600080fd5b505af11580156112fe573d6000803e3d6000fd5b5050505060cd60009054906101000a900473ffffffffffffffffffffffffffffffffffffffff1673ffffffffffffffffffffffffffffffffffffffff1663be9a65556040518163ffffffff1660e01b8152600401600060405180830381600087803b15801561136c57600080fd5b505af1158015611380573d6000803e3d6000fd5b50505050565b60c960003373ffffffffffffffffffffffffffffffffffffffff1673ffffffffffffffffffffffffffffffffffffffff16815260200190815260200160002060009054906101000a900460ff16611412576040517f08c379a000000000000000000000000000000000000000000000000000000000815260040161140990612959565b60405180910390fd5b60cc60009054906101000a900473ffffffffffffffffffffffffffffffffffffffff1673ffffffffffffffffffffffffffffffffffffffff16635f7619a4826040518263ffffffff1660e01b815260040161146d9190612a19565b600060405180830381600087803b15801561148757600080fd5b505af115801561149b573d6000803e3d6000fd5b5050505060cd60009054906101000a900473ffffffffffffffffffffffffffffffffffffffff1673ffffffffffffffffffffffffffffffffffffffff16635f7619a4826040518263ffffffff1660e01b81526004016114fa9190612a19565b600060405180830381600087803b15801561151457600080fd5b505af1158015611528573d6000803e3d6000fd5b5050505050565b611537611723565b8060cd60006101000a81548173ffffffffffffffffffffffffffffffffffffffff021916908373ffffffffffffffffffffffffffffffffffffffff1602179055506115806117a1565b50565b6000620186a060cb54836115979190612b6c565b6115a19190612b3b565b9050919050565b6115b0611723565b600073ffffffffffffffffffffffffffffffffffffffff1660cc60009054906101000a900473ffffffffffffffffffffffffffffffffffffffff1673ffffffffffffffffffffffffffffffffffffffff161461169c5760cc60009054906101000a900473ffffffffffffffffffffffffffffffffffffffff1673ffffffffffffffffffffffffffffffffffffffff1663a1215f13826040518263ffffffff1660e01b81526004016116619190612a19565b600060405180830381600087803b15801561167b57600080fd5b505af115801561168f573d6000803e3d6000fd5b5050505061169b6117a1565b5b50565b6116a7611723565b600073ffffffffffffffffffffffffffffffffffffffff168173ffffffffffffffffffffffffffffffffffffffff161415611717576040517f08c379a000000000000000000000000000000000000000000000000000000000815260040161170e90612859565b60405180910390fd5b61172081611ba8565b50565b61172b611e27565b73ffffffffffffffffffffffffffffffffffffffff16611749610fd1565b73ffffffffffffffffffffffffffffffffffffffff161461179f576040517f08c379a0000000000000000000000000000000000000000000000000000000008152600401611796906129b9565b60405180910390fd5b565b600060cb81905550600073ffffffffffffffffffffffffffffffffffffffff1660cc60009054906101000a900473ffffffffffffffffffffffffffffffffffffffff1673ffffffffffffffffffffffffffffffffffffffff16146118b85760cc60009054906101000a900473ffffffffffffffffffffffffffffffffffffffff1673ffffffffffffffffffffffffffffffffffffffff16637512aaa16040518163ffffffff1660e01b815260040160206040518083038186803b15801561186757600080fd5b505afa15801561187b573d6000803e3d6000fd5b505050506040513d601f19601f8201168201806040525081019061189f9190612410565b60cb60008282546118b09190612ae5565b925050819055505b600073ffffffffffffffffffffffffffffffffffffffff1660cd60009054906101000a900473ffffffffffffffffffffffffffffffffffffffff1673ffffffffffffffffffffffffffffffffffffffff16146119c75760cd60009054906101000a900473ffffffffffffffffffffffffffffffffffffffff1673ffffffffffffffffffffffffffffffffffffffff16637512aaa16040518163ffffffff1660e01b815260040160206040518083038186803b15801561197657600080fd5b505afa15801561198a573d6000803e3d6000fd5b505050506040513d601f19601f820116820180604052508101906119ae9190612410565b60cb60008282546119bf9190612ae5565b925050819055505b565b60006119f77f360894a13ba1a3210667c828492db98dca3e2076cc3735a920a3ca505d382bbc60001b611e2f565b60000160009054906101000a900473ffffffffffffffffffffffffffffffffffffffff16905090565b611a28611723565b50565b611a577f4910fdfa16fed3260ed0e7147f7cc6da11a60208b5b9406d12a635614ffd914360001b611e39565b60000160009054906101000a900460ff1615611a7b57611a7683611e43565b611ba3565b8273ffffffffffffffffffffffffffffffffffffffff166352d1902d6040518163ffffffff1660e01b815260040160206040518083038186803b158015611ac157600080fd5b505afa925050508015611af257506040513d601f19601f82011682018060405250810190611aef91906123b6565b60015b611b31576040517f08c379a0000000000000000000000000000000000000000000000000000000008152600401611b2890612979565b60405180910390fd5b7f360894a13ba1a3210667c828492db98dca3e2076cc3735a920a3ca505d382bbc60001b8114611b96576040517f08c379a0000000000000000000000000000000000000000000000000000000008152600401611b8d90612919565b60405180910390fd5b50611ba2838383611efc565b5b505050565b6000609760009054906101000a900473ffffffffffffffffffffffffffffffffffffffff16905081609760006101000a81548173ffffffffffffffffffffffffffffffffffffffff021916908373ffffffffffffffffffffffffffffffffffffffff1602179055508173ffffffffffffffffffffffffffffffffffffffff168173ffffffffffffffffffffffffffffffffffffffff167f8be0079c531659141344cd1fd0a4f28419497f9722a3daafe3b4186f6b6457e060405160405180910390a35050565b6000808273ffffffffffffffffffffffffffffffffffffffff163b119050919050565b60008060019054906101000a900460ff16159050808015611cc25750600160008054906101000a900460ff1660ff16105b80611cef5750611cd130611c6e565b158015611cee5750600160008054906101000a900460ff1660ff16145b5b611d2e576040517f08c379a0000000000000000000000000000000000000000000000000000000008152600401611d2590612939565b60405180910390fd5b60016000806101000a81548160ff021916908360ff1602179055508015611d6b576001600060016101000a81548160ff0219169083151502179055505b611d73611f28565b600160c960003373ffffffffffffffffffffffffffffffffffffffff1673ffffffffffffffffffffffffffffffffffffffff16815260200190815260200160002060006101000a81548160ff0219169083151502179055508015611e245760008060016101000a81548160ff0219169083151502179055507f7f26b83ff96e1f2b6a682f133852f6798a09c465da95921460cefb38474024986001604051611e1b919061281c565b60405180910390a15b50565b600033905090565b6000819050919050565b6000819050919050565b611e4c81611c6e565b611e8b576040517f08c379a0000000000000000000000000000000000000000000000000000000008152600401611e8290612999565b60405180910390fd5b80611eb87f360894a13ba1a3210667c828492db98dca3e2076cc3735a920a3ca505d382bbc60001b611e2f565b60000160006101000a81548173ffffffffffffffffffffffffffffffffffffffff021916908373ffffffffffffffffffffffffffffffffffffffff16021790555050565b611f0583611f81565b600082511180611f125750805b15611f2357611f218383611fd0565b505b505050565b600060019054906101000a900460ff16611f77576040517f08c379a0000000000000000000000000000000000000000000000000000000008152600401611f6e906129f9565b60405180910390fd5b611f7f6120b4565b565b611f8a81611e43565b8073ffffffffffffffffffffffffffffffffffffffff167fbc7cd75a20ee27fd9adebab32041f755214dbc6bffa90cc0225b39da2e5c2d3b60405160405180910390a250565b6060611fdb83611c6e565b61201a576040517f08c379a0000000000000000000000000000000000000000000000000000000008152600401612011906129d9565b60405180910390fd5b6000808473ffffffffffffffffffffffffffffffffffffffff1684604051612042919061271c565b600060405180830381855af49150503d806000811461207d576040519150601f19603f3d011682016040523d82523d6000602084013e612082565b606091505b50915091506120aa828260405180606001604052806027815260200161315c60279139612115565b9250505092915050565b600060019054906101000a900460ff16612103576040517f08c379a00000000000000000000000000000000000000000000000000000000081526004016120fa906129f9565b60405180910390fd5b61211361210e611e27565b611ba8565b565b6060831561212557829050612130565b61212f8383612137565b5b9392505050565b60008251111561214a5781518083602001fd5b806040517f08c379a000000000000000000000000000000000000000000000000000000000815260040161217e9190612837565b60405180910390fd5b600061219a61219584612a82565b612a5d565b9050828152602081018484840111156121b6576121b5612d3c565b5b6121c1848285612c37565b509392505050565b6000813590506121d881613116565b92915050565b6000815190506121ed8161312d565b92915050565b600082601f83011261220857612207612d37565b5b8135612218848260208601612187565b91505092915050565b60008135905061223081613144565b92915050565b60008151905061224581613144565b92915050565b60006020828403121561226157612260612d46565b5b600061226f848285016121c9565b91505092915050565b6000806040838503121561228f5761228e612d46565b5b600061229d858286016121c9565b925050602083013567ffffffffffffffff8111156122be576122bd612d41565b5b6122ca858286016121f3565b9150509250929050565b600080600080608085870312156122ee576122ed612d46565b5b60006122fc878288016121c9565b945050602061230d87828801612221565b935050604061231e87828801612221565b925050606061232f87828801612221565b91505092959194509250565b600080600080600060a0868803121561235757612356612d46565b5b6000612365888289016121c9565b955050602061237688828901612221565b945050604061238788828901612221565b935050606061239888828901612221565b92505060806123a988828901612221565b9150509295509295909350565b6000602082840312156123cc576123cb612d46565b5b60006123da848285016121de565b91505092915050565b6000602082840312156123f9576123f8612d46565b5b600061240784828501612221565b91505092915050565b60006020828403121561242657612425612d46565b5b600061243484828501612236565b91505092915050565b6000806040838503121561245457612453612d46565b5b600061246285828601612236565b925050602061247385828601612236565b9150509250929050565b61248681612bc6565b82525050565b61249581612bd8565b82525050565b6124a481612be4565b82525050565b60006124b582612ab3565b6124bf8185612ac9565b93506124cf818560208601612c46565b80840191505092915050565b6124e481612c25565b82525050565b60006124f582612abe565b6124ff8185612ad4565b935061250f818560208601612c46565b61251881612d4b565b840191505092915050565b6000612530602683612ad4565b915061253b82612d5c565b604082019050919050565b6000612553602c83612ad4565b915061255e82612dab565b604082019050919050565b6000612576602c83612ad4565b915061258182612dfa565b604082019050919050565b6000612599601583612ad4565b91506125a482612e49565b602082019050919050565b60006125bc603883612ad4565b91506125c782612e72565b604082019050919050565b60006125df601383612ad4565b91506125ea82612ec1565b602082019050919050565b6000612602602983612ad4565b915061260d82612eea565b604082019050919050565b6000612625602e83612ad4565b915061263082612f39565b604082019050919050565b6000612648601b83612ad4565b915061265382612f88565b602082019050919050565b600061266b602e83612ad4565b915061267682612fb1565b604082019050919050565b600061268e602d83612ad4565b915061269982613000565b604082019050919050565b60006126b1602083612ad4565b91506126bc8261304f565b602082019050919050565b60006126d4602683612ad4565b91506126df82613078565b604082019050919050565b60006126f7602b83612ad4565b9150612702826130c7565b604082019050919050565b61271681612c0e565b82525050565b600061272882846124aa565b915081905092915050565b6000602082019050612748600083018461247d565b92915050565b6000608082019050612763600083018761247d565b612770602083018661270d565b61277d604083018561270d565b61278a606083018461270d565b95945050505050565b600060a0820190506127a8600083018861247d565b6127b5602083018761270d565b6127c2604083018661270d565b6127cf606083018561270d565b6127dc608083018461270d565b9695505050505050565b60006020820190506127fb600083018461248c565b92915050565b6000602082019050612816600083018461249b565b92915050565b600060208201905061283160008301846124db565b92915050565b6000602082019050818103600083015261285181846124ea565b905092915050565b6000602082019050818103600083015261287281612523565b9050919050565b6000602082019050818103600083015261289281612546565b9050919050565b600060208201905081810360008301526128b281612569565b9050919050565b600060208201905081810360008301526128d28161258c565b9050919050565b600060208201905081810360008301526128f2816125af565b9050919050565b60006020820190508181036000830152612912816125d2565b9050919050565b60006020820190508181036000830152612932816125f5565b9050919050565b6000602082019050818103600083015261295281612618565b9050919050565b600060208201905081810360008301526129728161263b565b9050919050565b600060208201905081810360008301526129928161265e565b9050919050565b600060208201905081810360008301526129b281612681565b9050919050565b600060208201905081810360008301526129d2816126a4565b9050919050565b600060208201905081810360008301526129f2816126c7565b9050919050565b60006020820190508181036000830152612a12816126ea565b9050919050565b6000602082019050612a2e600083018461270d565b92915050565b6000604082019050612a49600083018561270d565b612a56602083018461270d565b9392505050565b6000612a67612a78565b9050612a738282612c79565b919050565b6000604051905090565b600067ffffffffffffffff821115612a9d57612a9c612d08565b5b612aa682612d4b565b9050602081019050919050565b600081519050919050565b600081519050919050565b600081905092915050565b600082825260208201905092915050565b6000612af082612c0e565b9150612afb83612c0e565b9250827fffffffffffffffffffffffffffffffffffffffffffffffffffffffffffffffff03821115612b3057612b2f612caa565b5b828201905092915050565b6000612b4682612c0e565b9150612b5183612c0e565b925082612b6157612b60612cd9565b5b828204905092915050565b6000612b7782612c0e565b9150612b8283612c0e565b9250817fffffffffffffffffffffffffffffffffffffffffffffffffffffffffffffffff0483118215151615612bbb57612bba612caa565b5b828202905092915050565b6000612bd182612bee565b9050919050565b60008115159050919050565b6000819050919050565b600073ffffffffffffffffffffffffffffffffffffffff82169050919050565b6000819050919050565b600060ff82169050919050565b6000612c3082612c18565b9050919050565b82818337600083830152505050565b60005b83811015612c64578082015181840152602081019050612c49565b83811115612c73576000848401525b50505050565b612c8282612d4b565b810181811067ffffffffffffffff82111715612ca157612ca0612d08565b5b80604052505050565b7f4e487b7100000000000000000000000000000000000000000000000000000000600052601160045260246000fd5b7f4e487b7100000000000000000000000000000000000000000000000000000000600052601260045260246000fd5b7f4e487b7100000000000000000000000000000000000000000000000000000000600052604160045260246000fd5b600080fd5b600080fd5b600080fd5b600080fd5b6000601f19601f8301169050919050565b7f4f776e61626c653a206e6577206f776e657220697320746865207a65726f206160008201527f6464726573730000000000000000000000000000000000000000000000000000602082015250565b7f46756e6374696f6e206d7573742062652063616c6c6564207468726f7567682060008201527f64656c656761746563616c6c0000000000000000000000000000000000000000602082015250565b7f46756e6374696f6e206d7573742062652063616c6c6564207468726f7567682060008201527f6163746976652070726f78790000000000000000000000000000000000000000602082015250565b7f6e6674686f6c646572206d757374206265207365740000000000000000000000600082015250565b7f555550535570677261646561626c653a206d757374206e6f742062652063616c60008201527f6c6564207468726f7567682064656c656761746563616c6c0000000000000000602082015250565b7f6a61636b706f74206d7573742062652073657400000000000000000000000000600082015250565b7f45524331393637557067726164653a20756e737570706f727465642070726f7860008201527f6961626c65555549440000000000000000000000000000000000000000000000602082015250565b7f496e697469616c697a61626c653a20636f6e747261637420697320616c72656160008201527f647920696e697469616c697a6564000000000000000000000000000000000000602082015250565b7f63616c6c6572206973206e6f7420746865206f70657261746f72730000000000600082015250565b7f45524331393637557067726164653a206e657720696d706c656d656e7461746960008201527f6f6e206973206e6f742055555053000000000000000000000000000000000000602082015250565b7f455243313936373a206e657720696d706c656d656e746174696f6e206973206e60008201527f6f74206120636f6e747261637400000000000000000000000000000000000000602082015250565b7f4f776e61626c653a2063616c6c6572206973206e6f7420746865206f776e6572600082015250565b7f416464726573733a2064656c65676174652063616c6c20746f206e6f6e2d636f60008201527f6e74726163740000000000000000000000000000000000000000000000000000602082015250565b7f496e697469616c697a61626c653a20636f6e7472616374206973206e6f74206960008201527f6e697469616c697a696e67000000000000000000000000000000000000000000602082015250565b61311f81612bc6565b811461312a57600080fd5b50565b61313681612be4565b811461314157600080fd5b50565b61314d81612c0e565b811461315857600080fd5b5056fe416464726573733a206c6f772d6c6576656c2064656c65676174652063616c6c206661696c6564a2646970667358221220729c581ea69f6022f51dfaab867021c09560d032369f92201b9cebd445d45f5864736f6c63430008070033",
  "linkReferences": {},
  "deployedLinkReferences": {}
}