{
  "_format": "hh-sol-artifact-1",
  "contractName": "JackpotPool",
  "sourceName": "contracts/JackpotPool.sol",
  "abi": [
    {
      "anonymous": false,
      "inputs": [
        {
          "indexed": false,
          "internalType": "address",
          "name": "previousAdmin",
          "type": "address"
        },
        {
          "indexed": false,
          "internalType": "address",
          "name": "newAdmin",
          "type": "address"
        }
      ],
      "name": "AdminChanged",
      "type": "event"
    },
    {
      "anonymous": false,
      "inputs": [
        {
          "indexed": true,
          "internalType": "address",
          "name": "beacon",
          "type": "address"
        }
      ],
      "name": "BeaconUpgraded",
      "type": "event"
    },
    {
      "anonymous": false,
      "inputs": [
        {
          "indexed": true,
          "internalType": "address",
          "name": "wallet",
          "type": "address"
        },
        {
          "indexed": false,
          "internalType": "uint256",
          "name": "seasonId",
          "type": "uint256"
        },
        {
          "indexed": false,
          "internalType": "uint256",
          "name": "tpoint",
          "type": "uint256"
        },
        {
          "indexed": false,
          "internalType": "uint256",
          "name": "reward",
          "type": "uint256"
        }
      ],
      "name": "EarnTossPoint",
      "type": "event"
    },
    {
      "anonymous": false,
      "inputs": [
        {
          "indexed": false,
          "internalType": "uint8",
          "name": "version",
          "type": "uint8"
        }
      ],
      "name": "Initialized",
      "type": "event"
    },
    {
      "anonymous": false,
      "inputs": [
        {
          "indexed": true,
          "internalType": "address",
          "name": "previousOwner",
          "type": "address"
        },
        {
          "indexed": true,
          "internalType": "address",
          "name": "newOwner",
          "type": "address"
        }
      ],
      "name": "OwnershipTransferred",
      "type": "event"
    },
    {
      "anonymous": false,
      "inputs": [
        {
          "indexed": true,
          "internalType": "address",
          "name": "implementation",
          "type": "address"
        }
      ],
      "name": "Upgraded",
      "type": "event"
    },
    {
      "inputs": [
        {
          "internalType": "address",
          "name": "wallet",
          "type": "address"
        }
      ],
      "name": "currentTossPointOf",
      "outputs": [
        {
          "internalType": "uint256",
          "name": "",
          "type": "uint256"
        }
      ],
      "stateMutability": "view",
      "type": "function"
    },
    {
      "inputs": [],
      "name": "getCurrentPercentageFee",
      "outputs": [
        {
          "internalType": "uint256",
          "name": "",
          "type": "uint256"
        }
      ],
      "stateMutability": "view",
      "type": "function"
    },
    {
      "inputs": [],
      "name": "getCurrentSeason",
      "outputs": [
        {
          "internalType": "uint256",
          "name": "",
          "type": "uint256"
        }
      ],
      "stateMutability": "view",
      "type": "function"
    },
    {
      "inputs": [],
      "name": "getImplementation",
      "outputs": [
        {
          "internalType": "address",
          "name": "",
          "type": "address"
        }
      ],
      "stateMutability": "view",
      "type": "function"
    },
    {
      "inputs": [],
      "name": "getMoneyInJackpot",
      "outputs": [
        {
          "internalType": "uint256",
          "name": "",
          "type": "uint256"
        }
      ],
      "stateMutability": "view",
      "type": "function"
    },
    {
      "inputs": [
        {
          "internalType": "uint256",
          "name": "sId",
          "type": "uint256"
        }
      ],
      "name": "getPercentageFee",
      "outputs": [
        {
          "internalType": "uint256",
          "name": "",
          "type": "uint256"
        }
      ],
      "stateMutability": "view",
      "type": "function"
    },
    {
      "inputs": [],
      "name": "getPoolName",
      "outputs": [
        {
          "internalType": "string",
          "name": "",
          "type": "string"
        }
      ],
      "stateMutability": "view",
      "type": "function"
    },
    {
      "inputs": [
        {
          "internalType": "address",
          "name": "player",
          "type": "address"
        },
        {
          "internalType": "uint256",
          "name": "bId",
          "type": "uint256"
        },
        {
          "internalType": "uint256",
          "name": "inBoostRate",
          "type": "uint256"
        },
        {
          "internalType": "uint256",
          "name": "rn",
          "type": "uint256"
        }
      ],
      "name": "getTossPoint",
      "outputs": [
        {
          "internalType": "uint256",
          "name": "",
          "type": "uint256"
        },
        {
          "internalType": "uint256",
          "name": "",
          "type": "uint256"
        }
      ],
      "stateMutability": "nonpayable",
      "type": "function"
    },
    {
      "inputs": [],
      "name": "inBoostRateTime",
      "outputs": [
        {
          "internalType": "uint256",
          "name": "",
          "type": "uint256"
        }
      ],
      "stateMutability": "view",
      "type": "function"
    },
    {
      "inputs": [],
      "name": "initialize",
      "outputs": [],
      "stateMutability": "nonpayable",
      "type": "function"
    },
    {
      "inputs": [
        {
          "internalType": "address",
          "name": "operator",
          "type": "address"
        }
      ],
      "name": "isOperator",
      "outputs": [
        {
          "internalType": "bool",
          "name": "",
          "type": "bool"
        }
      ],
      "stateMutability": "view",
      "type": "function"
    },
    {
      "inputs": [],
      "name": "owner",
      "outputs": [
        {
          "internalType": "address",
          "name": "",
          "type": "address"
        }
      ],
      "stateMutability": "view",
      "type": "function"
    },
    {
      "inputs": [],
      "name": "proxiableUUID",
      "outputs": [
        {
          "internalType": "bytes32",
          "name": "",
          "type": "bytes32"
        }
      ],
      "stateMutability": "view",
      "type": "function"
    },
    {
      "inputs": [
        {
          "internalType": "address",
          "name": "operator",
          "type": "address"
        }
      ],
      "name": "removeOperator",
      "outputs": [],
      "stateMutability": "nonpayable",
      "type": "function"
    },
    {
      "inputs": [],
      "name": "renounceOwnership",
      "outputs": [],
      "stateMutability": "nonpayable",
      "type": "function"
    },
    {
      "inputs": [
        {
          "internalType": "uint256[]",
          "name": "normalRate",
          "type": "uint256[]"
        },
        {
          "internalType": "uint256[]",
          "name": "boostRate",
          "type": "uint256[]"
        },
        {
          "internalType": "uint256[]",
          "name": "tpEarn",
          "type": "uint256[]"
        }
      ],
      "name": "setDropChances",
      "outputs": [],
      "stateMutability": "nonpayable",
      "type": "function"
    },
    {
      "inputs": [
        {
          "internalType": "uint256",
          "name": "st",
          "type": "uint256"
        },
        {
          "internalType": "uint256",
          "name": "et",
          "type": "uint256"
        }
      ],
      "name": "setGoldenTime",
      "outputs": [],
      "stateMutability": "nonpayable",
      "type": "function"
    },
    {
      "inputs": [
        {
          "internalType": "uint256",
          "name": "point",
          "type": "uint256"
        }
      ],
      "name": "setJackpotPoint",
      "outputs": [],
      "stateMutability": "nonpayable",
      "type": "function"
    },
    {
      "inputs": [
        {
          "internalType": "address",
          "name": "operator",
          "type": "address"
        }
      ],
      "name": "setOperator",
      "outputs": [],
      "stateMutability": "nonpayable",
      "type": "function"
    },
    {
      "inputs": [
        {
          "internalType": "uint256",
          "name": "fee",
          "type": "uint256"
        }
      ],
      "name": "setPercentageFee",
      "outputs": [],
      "stateMutability": "nonpayable",
      "type": "function"
    },
    {
      "inputs": [],
      "name": "start",
      "outputs": [],
      "stateMutability": "nonpayable",
      "type": "function"
    },
    {
      "inputs": [
        {
          "internalType": "uint256",
          "name": "amount",
          "type": "uint256"
        }
      ],
      "name": "takeFee",
      "outputs": [],
      "stateMutability": "nonpayable",
      "type": "function"
    },
    {
      "inputs": [
        {
          "internalType": "address",
          "name": "wallet",
          "type": "address"
        },
        {
          "internalType": "uint256",
          "name": "sId",
          "type": "uint256"
        }
      ],
      "name": "tossPointOf",
      "outputs": [
        {
          "internalType": "uint256",
          "name": "",
          "type": "uint256"
        }
      ],
      "stateMutability": "view",
      "type": "function"
    },
    {
      "inputs": [
        {
          "internalType": "address",
          "name": "newOwner",
          "type": "address"
        }
      ],
      "name": "transferOwnership",
      "outputs": [],
      "stateMutability": "nonpayable",
      "type": "function"
    },
    {
      "inputs": [
        {
          "internalType": "address",
          "name": "newImplementation",
          "type": "address"
        }
      ],
      "name": "upgradeTo",
      "outputs": [],
      "stateMutability": "nonpayable",
      "type": "function"
    },
    {
      "inputs": [
        {
          "internalType": "address",
          "name": "newImplementation",
          "type": "address"
        },
        {
          "internalType": "bytes",
          "name": "data",
          "type": "bytes"
        }
      ],
      "name": "upgradeToAndCall",
      "outputs": [],
      "stateMutability": "payable",
      "type": "function"
    }
  ],
  "bytecode": "0x60a06040523073ffffffffffffffffffffffffffffffffffffffff1660809073ffffffffffffffffffffffffffffffffffffffff1660601b81525034801561004657600080fd5b5060805160601c613089610081600039600081816106840152818161071301528181610a3c01528181610acb0152610b7b01526130896000f3fe6080604052600436106101815760003560e01c8063a1215f13116100d1578063be9a65551161008a578063de8c22ed11610064578063de8c22ed1461053c578063e4e39e0814610567578063f2fde38b14610590578063fa5ee32b146105b957610181565b8063be9a6555146104cf578063d2993983146104e6578063d3b30b751461051157610181565b8063a1215f13146103c3578063aaf10f42146103ec578063ac8a584a14610417578063b3ab15fb14610440578063b558f86714610469578063ba6b2d0b146104a657610181565b80636d70f7ae1161013e5780638129fc1c116101185780638129fc1c146103195780638d68b841146103305780638da5cb5b1461035b57806391197f981461038657610181565b80636d70f7ae1461029a578063715018a6146102d75780637512aaa1146102ee57610181565b8063141cc7c2146101865780633659cfe6146101c35780633c53ca29146101ec5780634f1ef2861461022a57806352d1902d146102465780635f7619a414610271575b600080fd5b34801561019257600080fd5b506101ad60048036038101906101a89190612058565b6105e2565b6040516101ba9190612744565b60405180910390f35b3480156101cf57600080fd5b506101ea60048036038101906101e59190611fcf565b610682565b005b3480156101f857600080fd5b50610213600480360381019061020e9190612098565b61080b565b60405161022192919061275f565b60405180910390f35b610244600480360381019061023f9190611ffc565b610a3a565b005b34801561025257600080fd5b5061025b610b77565b604051610268919061252c565b60405180910390f35b34801561027d57600080fd5b50610298600480360381019061029391906121d3565b610c30565b005b3480156102a657600080fd5b506102c160048036038101906102bc9190611fcf565b610d19565b6040516102ce9190612511565b60405180910390f35b3480156102e357600080fd5b506102ec610d6f565b005b3480156102fa57600080fd5b50610303610d83565b6040516103109190612744565b60405180910390f35b34801561032557600080fd5b5061032e610da0565b005b34801561033c57600080fd5b50610345610f2a565b6040516103529190612744565b60405180910390f35b34801561036757600080fd5b50610370610f6a565b60405161037d91906124f6565b60405180910390f35b34801561039257600080fd5b506103ad60048036038101906103a89190611fcf565b610f94565b6040516103ba9190612744565b60405180910390f35b3480156103cf57600080fd5b506103ea60048036038101906103e591906121d3565b610ff0565b005b3480156103f857600080fd5b50610401611086565b60405161040e91906124f6565b60405180910390f35b34801561042357600080fd5b5061043e60048036038101906104399190611fcf565b611095565b005b34801561044c57600080fd5b5061046760048036038101906104629190611fcf565b6110f8565b005b34801561047557600080fd5b50610490600480360381019061048b91906121d3565b61115b565b60405161049d9190612744565b60405180910390f35b3480156104b257600080fd5b506104cd60048036038101906104c89190612200565b6111bd565b005b3480156104db57600080fd5b506104e46111d7565b005b3480156104f257600080fd5b506104fb6112c8565b6040516105089190612562565b60405180910390f35b34801561051d57600080fd5b5061052661135a565b6040516105339190612744565b60405180910390f35b34801561054857600080fd5b50610551611364565b60405161055e9190612744565b60405180910390f35b34801561057357600080fd5b5061058e600480360381019061058991906121d3565b611381565b005b34801561059c57600080fd5b506105b760048036038101906105b29190611fcf565b611393565b005b3480156105c557600080fd5b506105e060048036038101906105db91906120ff565b611417565b005b600060cb54821115610629576040517f08c379a000000000000000000000000000000000000000000000000000000000815260040161062090612724565b60405180910390fd5b60d4600083815260200190815260200160002060008473ffffffffffffffffffffffffffffffffffffffff1673ffffffffffffffffffffffffffffffffffffffff16815260200190815260200160002054905092915050565b7f000000000000000000000000000000000000000000000000000000000000000073ffffffffffffffffffffffffffffffffffffffff163073ffffffffffffffffffffffffffffffffffffffff161415610711576040517f08c379a0000000000000000000000000000000000000000000000000000000008152600401610708906125a4565b60405180910390fd5b7f000000000000000000000000000000000000000000000000000000000000000073ffffffffffffffffffffffffffffffffffffffff1661075061148c565b73ffffffffffffffffffffffffffffffffffffffff16146107a6576040517f08c379a000000000000000000000000000000000000000000000000000000000815260040161079d906125c4565b60405180910390fd5b6107af816114e3565b61080881600067ffffffffffffffff8111156107ce576107cd612bd4565b5b6040519080825280601f01601f1916602001820160405280156108005781602001600182028036833780820191505090505b5060006114ee565b50565b600080606560003373ffffffffffffffffffffffffffffffffffffffff1673ffffffffffffffffffffffffffffffffffffffff16815260200190815260200160002060009054906101000a900460ff1661089a576040517f08c379a000000000000000000000000000000000000000000000000000000000815260040161089190612644565b60405180910390fd5b600080600060cb5490506000612710876108b49190612ae7565b905060d5600089815260200190815260200160002089815481106108db576108da612ba5565b5b90600052602060002001548110156109d55760d6898154811061090157610900612ba5565b5b906000526020600020015492508260d4600060cb54815260200190815260200160002060008c73ffffffffffffffffffffffffffffffffffffffff1673ffffffffffffffffffffffffffffffffffffffff16815260200190815260200160002060008282546109709190612873565b925050819055506109d260d4600060cb54815260200190815260200160002060008c73ffffffffffffffffffffffffffffffffffffffff1673ffffffffffffffffffffffffffffffffffffffff1681526020019081526020016000205461166b565b93505b8973ffffffffffffffffffffffffffffffffffffffff167f4e0a07bedab120fc0ebbfc08613bae0666b97bac57109a734c4afb9cfa5465be838587604051610a1f93929190612788565b60405180910390a28284955095505050505094509492505050565b7f000000000000000000000000000000000000000000000000000000000000000073ffffffffffffffffffffffffffffffffffffffff163073ffffffffffffffffffffffffffffffffffffffff161415610ac9576040517f08c379a0000000000000000000000000000000000000000000000000000000008152600401610ac0906125a4565b60405180910390fd5b7f000000000000000000000000000000000000000000000000000000000000000073ffffffffffffffffffffffffffffffffffffffff16610b0861148c565b73ffffffffffffffffffffffffffffffffffffffff1614610b5e576040517f08c379a0000000000000000000000000000000000000000000000000000000008152600401610b55906125c4565b60405180910390fd5b610b67826114e3565b610b73828260016114ee565b5050565b60007f000000000000000000000000000000000000000000000000000000000000000073ffffffffffffffffffffffffffffffffffffffff163073ffffffffffffffffffffffffffffffffffffffff1614610c07576040517f08c379a0000000000000000000000000000000000000000000000000000000008152600401610bfe906125e4565b60405180910390fd5b7f360894a13ba1a3210667c828492db98dca3e2076cc3735a920a3ca505d382bbc60001b905090565b606560003373ffffffffffffffffffffffffffffffffffffffff1673ffffffffffffffffffffffffffffffffffffffff16815260200190815260200160002060009054906101000a900460ff16610cbc576040517f08c379a0000000000000000000000000000000000000000000000000000000008152600401610cb390612644565b60405180910390fd5b620186a060d2600060cb5481526020019081526020016000205482610ce191906128fa565b610ceb91906128c9565b60d1600060cb5481526020019081526020016000206000828254610d0f9190612873565b9250508190555050565b6000606560008373ffffffffffffffffffffffffffffffffffffffff1673ffffffffffffffffffffffffffffffffffffffff16815260200190815260200160002060009054906101000a900460ff169050919050565b610d77611735565b610d8160006117b3565b565b600060d2600060cb54815260200190815260200160002054905090565b60008060019054906101000a900460ff16159050808015610dd15750600160008054906101000a900460ff1660ff16105b80610dfe5750610de030611879565b158015610dfd5750600160008054906101000a900460ff1660ff16145b5b610e3d576040517f08c379a0000000000000000000000000000000000000000000000000000000008152600401610e3490612624565b60405180910390fd5b60016000806101000a81548160ff021916908360ff1602179055508015610e7a576001600060016101000a81548160ff0219169083151502179055505b610e8261189c565b6040518060400160405280600781526020017f4a61636b706f740000000000000000000000000000000000000000000000000081525060ca9080519060200190610ecd929190611d92565b508015610f275760008060016101000a81548160ff0219169083151502179055507f7f26b83ff96e1f2b6a682f133852f6798a09c465da95921460cefb38474024986001604051610f1e9190612547565b60405180910390a15b50565b6000806201518042610f3c9190612ae7565b905060cf548110158015610f52575060d0548111155b15610f61576001915050610f67565b60009150505b90565b6000603360009054906101000a900473ffffffffffffffffffffffffffffffffffffffff16905090565b600060d4600060cb54815260200190815260200160002060008373ffffffffffffffffffffffffffffffffffffffff1673ffffffffffffffffffffffffffffffffffffffff168152602001908152602001600020549050919050565b606560003373ffffffffffffffffffffffffffffffffffffffff1673ffffffffffffffffffffffffffffffffffffffff16815260200190815260200160002060009054906101000a900460ff1661107c576040517f08c379a000000000000000000000000000000000000000000000000000000000815260040161107390612644565b60405180910390fd5b8060cc8190555050565b600061109061148c565b905090565b61109d611735565b6000606560008373ffffffffffffffffffffffffffffffffffffffff1673ffffffffffffffffffffffffffffffffffffffff16815260200190815260200160002060006101000a81548160ff02191690831515021790555050565b611100611735565b6001606560008373ffffffffffffffffffffffffffffffffffffffff1673ffffffffffffffffffffffffffffffffffffffff16815260200190815260200160002060006101000a81548160ff02191690831515021790555050565b600060cb548211156111a2576040517f08c379a0000000000000000000000000000000000000000000000000000000008152600401611199906126e4565b60405180910390fd5b60d26000838152602001908152602001600020549050919050565b6111c5611735565b8160cf819055508060d0819055505050565b606560003373ffffffffffffffffffffffffffffffffffffffff1673ffffffffffffffffffffffffffffffffffffffff16815260200190815260200160002060009054906101000a900460ff16611263576040517f08c379a000000000000000000000000000000000000000000000000000000000815260040161125a90612644565b60405180910390fd5b600060cb5414801561128a5750600060d3600060cb54815260200190815260200160002054145b156112c6574260d3600060cb5481526020019081526020016000208190555060cc5460d2600060cb548152602001908152602001600020819055505b565b606060ca80546112d790612a3b565b80601f016020809104026020016040519081016040528092919081815260200182805461130390612a3b565b80156113505780601f1061132557610100808354040283529160200191611350565b820191906000526020600020905b81548152906001019060200180831161133357829003601f168201915b5050505050905090565b600060cb54905090565b600060d1600060cb54815260200190815260200160002054905090565b611389611735565b8060ce8190555050565b61139b611735565b600073ffffffffffffffffffffffffffffffffffffffff168173ffffffffffffffffffffffffffffffffffffffff16141561140b576040517f08c379a000000000000000000000000000000000000000000000000000000000815260040161140290612584565b60405180910390fd5b611414816117b3565b50565b61141f611735565b8260d560008081526020019081526020016000209080519060200190611446929190611e18565b508160d5600060018152602001908152602001600020908051906020019061146f929190611e18565b508060d69080519060200190611486929190611e18565b50505050565b60006114ba7f360894a13ba1a3210667c828492db98dca3e2076cc3735a920a3ca505d382bbc60001b611a32565b60000160009054906101000a900473ffffffffffffffffffffffffffffffffffffffff16905090565b6114eb611735565b50565b61151a7f4910fdfa16fed3260ed0e7147f7cc6da11a60208b5b9406d12a635614ffd914360001b611a3c565b60000160009054906101000a900460ff161561153e5761153983611a46565b611666565b8273ffffffffffffffffffffffffffffffffffffffff166352d1902d6040518163ffffffff1660e01b815260040160206040518083038186803b15801561158457600080fd5b505afa9250505080156115b557506040513d601f19601f820116820180604052508101906115b291906121a6565b60015b6115f4576040517f08c379a00000000000000000000000000000000000000000000000000000000081526004016115eb90612664565b60405180910390fd5b7f360894a13ba1a3210667c828492db98dca3e2076cc3735a920a3ca505d382bbc60001b8114611659576040517f08c379a000000000000000000000000000000000000000000000000000000000815260040161165090612604565b60405180910390fd5b50611665838383611aff565b5b505050565b600060ce54821061172b57600060d1600060cb5481526020019081526020016000205490506000606460cd54836116a291906128fa565b6116ac91906128c9565b905060cb60008154809291906116c190612a9e565b919050555080826116d29190612954565b60d1600060cb5481526020019081526020016000208190555060cc5460d2600060cb548152602001908152602001600020819055504260d3600060cb548152602001908152602001600020819055508092505050611730565b600090505b919050565b61173d611b2b565b73ffffffffffffffffffffffffffffffffffffffff1661175b610f6a565b73ffffffffffffffffffffffffffffffffffffffff16146117b1576040517f08c379a00000000000000000000000000000000000000000000000000000000081526004016117a8906126a4565b60405180910390fd5b565b6000603360009054906101000a900473ffffffffffffffffffffffffffffffffffffffff16905081603360006101000a81548173ffffffffffffffffffffffffffffffffffffffff021916908373ffffffffffffffffffffffffffffffffffffffff1602179055508173ffffffffffffffffffffffffffffffffffffffff168173ffffffffffffffffffffffffffffffffffffffff167f8be0079c531659141344cd1fd0a4f28419497f9722a3daafe3b4186f6b6457e060405160405180910390a35050565b6000808273ffffffffffffffffffffffffffffffffffffffff163b119050919050565b60008060019054906101000a900460ff161590508080156118cd5750600160008054906101000a900460ff1660ff16105b806118fa57506118dc30611879565b1580156118f95750600160008054906101000a900460ff1660ff16145b5b611939576040517f08c379a000000000000000000000000000000000000000000000000000000000815260040161193090612624565b60405180910390fd5b60016000806101000a81548160ff021916908360ff1602179055508015611976576001600060016101000a81548160ff0219169083151502179055505b61197e611b33565b6001606560003373ffffffffffffffffffffffffffffffffffffffff1673ffffffffffffffffffffffffffffffffffffffff16815260200190815260200160002060006101000a81548160ff0219169083151502179055508015611a2f5760008060016101000a81548160ff0219169083151502179055507f7f26b83ff96e1f2b6a682f133852f6798a09c465da95921460cefb38474024986001604051611a269190612547565b60405180910390a15b50565b6000819050919050565b6000819050919050565b611a4f81611879565b611a8e576040517f08c379a0000000000000000000000000000000000000000000000000000000008152600401611a8590612684565b60405180910390fd5b80611abb7f360894a13ba1a3210667c828492db98dca3e2076cc3735a920a3ca505d382bbc60001b611a32565b60000160006101000a81548173ffffffffffffffffffffffffffffffffffffffff021916908373ffffffffffffffffffffffffffffffffffffffff16021790555050565b611b0883611b8c565b600082511180611b155750805b15611b2657611b248383611bdb565b505b505050565b600033905090565b600060019054906101000a900460ff16611b82576040517f08c379a0000000000000000000000000000000000000000000000000000000008152600401611b7990612704565b60405180910390fd5b611b8a611cbf565b565b611b9581611a46565b8073ffffffffffffffffffffffffffffffffffffffff167fbc7cd75a20ee27fd9adebab32041f755214dbc6bffa90cc0225b39da2e5c2d3b60405160405180910390a250565b6060611be683611879565b611c25576040517f08c379a0000000000000000000000000000000000000000000000000000000008152600401611c1c906126c4565b60405180910390fd5b6000808473ffffffffffffffffffffffffffffffffffffffff1684604051611c4d91906124df565b600060405180830381855af49150503d8060008114611c88576040519150601f19603f3d011682016040523d82523d6000602084013e611c8d565b606091505b5091509150611cb5828260405180606001604052806027815260200161302d60279139611d20565b9250505092915050565b600060019054906101000a900460ff16611d0e576040517f08c379a0000000000000000000000000000000000000000000000000000000008152600401611d0590612704565b60405180910390fd5b611d1e611d19611b2b565b6117b3565b565b60608315611d3057829050611d3b565b611d3a8383611d42565b5b9392505050565b600082511115611d555781518083602001fd5b806040517f08c379a0000000000000000000000000000000000000000000000000000000008152600401611d899190612562565b60405180910390fd5b828054611d9e90612a3b565b90600052602060002090601f016020900481019282611dc05760008555611e07565b82601f10611dd957805160ff1916838001178555611e07565b82800160010185558215611e07579182015b82811115611e06578251825591602001919060010190611deb565b5b509050611e149190611e65565b5090565b828054828255906000526020600020908101928215611e54579160200282015b82811115611e53578251825591602001919060010190611e38565b5b509050611e619190611e65565b5090565b5b80821115611e7e576000816000905550600101611e66565b5090565b6000611e95611e90846127e4565b6127bf565b90508083825260208201905082856020860282011115611eb857611eb7612c08565b5b60005b85811015611ee85781611ece8882611fba565b845260208401935060208301925050600181019050611ebb565b5050509392505050565b6000611f05611f0084612810565b6127bf565b905082815260208101848484011115611f2157611f20612c0d565b5b611f2c8482856129f9565b509392505050565b600081359050611f4381612fe7565b92915050565b600082601f830112611f5e57611f5d612c03565b5b8135611f6e848260208601611e82565b91505092915050565b600081519050611f8681612ffe565b92915050565b600082601f830112611fa157611fa0612c03565b5b8135611fb1848260208601611ef2565b91505092915050565b600081359050611fc981613015565b92915050565b600060208284031215611fe557611fe4612c17565b5b6000611ff384828501611f34565b91505092915050565b6000806040838503121561201357612012612c17565b5b600061202185828601611f34565b925050602083013567ffffffffffffffff81111561204257612041612c12565b5b61204e85828601611f8c565b9150509250929050565b6000806040838503121561206f5761206e612c17565b5b600061207d85828601611f34565b925050602061208e85828601611fba565b9150509250929050565b600080600080608085870312156120b2576120b1612c17565b5b60006120c087828801611f34565b94505060206120d187828801611fba565b93505060406120e287828801611fba565b92505060606120f387828801611fba565b91505092959194509250565b60008060006060848603121561211857612117612c17565b5b600084013567ffffffffffffffff81111561213657612135612c12565b5b61214286828701611f49565b935050602084013567ffffffffffffffff81111561216357612162612c12565b5b61216f86828701611f49565b925050604084013567ffffffffffffffff8111156121905761218f612c12565b5b61219c86828701611f49565b9150509250925092565b6000602082840312156121bc576121bb612c17565b5b60006121ca84828501611f77565b91505092915050565b6000602082840312156121e9576121e8612c17565b5b60006121f784828501611fba565b91505092915050565b6000806040838503121561221757612216612c17565b5b600061222585828601611fba565b925050602061223685828601611fba565b9150509250929050565b61224981612988565b82525050565b6122588161299a565b82525050565b612267816129a6565b82525050565b600061227882612841565b6122828185612857565b9350612292818560208601612a08565b80840191505092915050565b6122a7816129e7565b82525050565b60006122b88261284c565b6122c28185612862565b93506122d2818560208601612a08565b6122db81612c1c565b840191505092915050565b60006122f3602683612862565b91506122fe82612c2d565b604082019050919050565b6000612316602c83612862565b915061232182612c7c565b604082019050919050565b6000612339602c83612862565b915061234482612ccb565b604082019050919050565b600061235c603883612862565b915061236782612d1a565b604082019050919050565b600061237f602983612862565b915061238a82612d69565b604082019050919050565b60006123a2602e83612862565b91506123ad82612db8565b604082019050919050565b60006123c5601b83612862565b91506123d082612e07565b602082019050919050565b60006123e8602e83612862565b91506123f382612e30565b604082019050919050565b600061240b602d83612862565b915061241682612e7f565b604082019050919050565b600061242e602083612862565b915061243982612ece565b602082019050919050565b6000612451602683612862565b915061245c82612ef7565b604082019050919050565b6000612474601083612862565b915061247f82612f46565b602082019050919050565b6000612497602b83612862565b91506124a282612f6f565b604082019050919050565b60006124ba601083612862565b91506124c582612fbe565b602082019050919050565b6124d9816129d0565b82525050565b60006124eb828461226d565b915081905092915050565b600060208201905061250b6000830184612240565b92915050565b6000602082019050612526600083018461224f565b92915050565b6000602082019050612541600083018461225e565b92915050565b600060208201905061255c600083018461229e565b92915050565b6000602082019050818103600083015261257c81846122ad565b905092915050565b6000602082019050818103600083015261259d816122e6565b9050919050565b600060208201905081810360008301526125bd81612309565b9050919050565b600060208201905081810360008301526125dd8161232c565b9050919050565b600060208201905081810360008301526125fd8161234f565b9050919050565b6000602082019050818103600083015261261d81612372565b9050919050565b6000602082019050818103600083015261263d81612395565b9050919050565b6000602082019050818103600083015261265d816123b8565b9050919050565b6000602082019050818103600083015261267d816123db565b9050919050565b6000602082019050818103600083015261269d816123fe565b9050919050565b600060208201905081810360008301526126bd81612421565b9050919050565b600060208201905081810360008301526126dd81612444565b9050919050565b600060208201905081810360008301526126fd81612467565b9050919050565b6000602082019050818103600083015261271d8161248a565b9050919050565b6000602082019050818103600083015261273d816124ad565b9050919050565b600060208201905061275960008301846124d0565b92915050565b600060408201905061277460008301856124d0565b61278160208301846124d0565b9392505050565b600060608201905061279d60008301866124d0565b6127aa60208301856124d0565b6127b760408301846124d0565b949350505050565b60006127c96127da565b90506127d58282612a6d565b919050565b6000604051905090565b600067ffffffffffffffff8211156127ff576127fe612bd4565b5b602082029050602081019050919050565b600067ffffffffffffffff82111561282b5761282a612bd4565b5b61283482612c1c565b9050602081019050919050565b600081519050919050565b600081519050919050565b600081905092915050565b600082825260208201905092915050565b600061287e826129d0565b9150612889836129d0565b9250827fffffffffffffffffffffffffffffffffffffffffffffffffffffffffffffffff038211156128be576128bd612b18565b5b828201905092915050565b60006128d4826129d0565b91506128df836129d0565b9250826128ef576128ee612b47565b5b828204905092915050565b6000612905826129d0565b9150612910836129d0565b9250817fffffffffffffffffffffffffffffffffffffffffffffffffffffffffffffffff048311821515161561294957612948612b18565b5b828202905092915050565b600061295f826129d0565b915061296a836129d0565b92508282101561297d5761297c612b18565b5b828203905092915050565b6000612993826129b0565b9050919050565b60008115159050919050565b6000819050919050565b600073ffffffffffffffffffffffffffffffffffffffff82169050919050565b6000819050919050565b600060ff82169050919050565b60006129f2826129da565b9050919050565b82818337600083830152505050565b60005b83811015612a26578082015181840152602081019050612a0b565b83811115612a35576000848401525b50505050565b60006002820490506001821680612a5357607f821691505b60208210811415612a6757612a66612b76565b5b50919050565b612a7682612c1c565b810181811067ffffffffffffffff82111715612a9557612a94612bd4565b5b80604052505050565b6000612aa9826129d0565b91507fffffffffffffffffffffffffffffffffffffffffffffffffffffffffffffffff821415612adc57612adb612b18565b5b600182019050919050565b6000612af2826129d0565b9150612afd836129d0565b925082612b0d57612b0c612b47565b5b828206905092915050565b7f4e487b7100000000000000000000000000000000000000000000000000000000600052601160045260246000fd5b7f4e487b7100000000000000000000000000000000000000000000000000000000600052601260045260246000fd5b7f4e487b7100000000000000000000000000000000000000000000000000000000600052602260045260246000fd5b7f4e487b7100000000000000000000000000000000000000000000000000000000600052603260045260246000fd5b7f4e487b7100000000000000000000000000000000000000000000000000000000600052604160045260246000fd5b600080fd5b600080fd5b600080fd5b600080fd5b600080fd5b6000601f19601f8301169050919050565b7f4f776e61626c653a206e6577206f776e657220697320746865207a65726f206160008201527f6464726573730000000000000000000000000000000000000000000000000000602082015250565b7f46756e6374696f6e206d7573742062652063616c6c6564207468726f7567682060008201527f64656c656761746563616c6c0000000000000000000000000000000000000000602082015250565b7f46756e6374696f6e206d7573742062652063616c6c6564207468726f7567682060008201527f6163746976652070726f78790000000000000000000000000000000000000000602082015250565b7f555550535570677261646561626c653a206d757374206e6f742062652063616c60008201527f6c6564207468726f7567682064656c656761746563616c6c0000000000000000602082015250565b7f45524331393637557067726164653a20756e737570706f727465642070726f7860008201527f6961626c65555549440000000000000000000000000000000000000000000000602082015250565b7f496e697469616c697a61626c653a20636f6e747261637420697320616c72656160008201527f647920696e697469616c697a6564000000000000000000000000000000000000602082015250565b7f63616c6c6572206973206e6f7420746865206f70657261746f72730000000000600082015250565b7f45524331393637557067726164653a206e657720696d706c656d656e7461746960008201527f6f6e206973206e6f742055555053000000000000000000000000000000000000602082015250565b7f455243313936373a206e657720696d706c656d656e746174696f6e206973206e60008201527f6f74206120636f6e747261637400000000000000000000000000000000000000602082015250565b7f4f776e61626c653a2063616c6c6572206973206e6f7420746865206f776e6572600082015250565b7f416464726573733a2064656c65676174652063616c6c20746f206e6f6e2d636f60008201527f6e74726163740000000000000000000000000000000000000000000000000000602082015250565b7f696e76616c696420736561736f6e496400000000000000000000000000000000600082015250565b7f496e697469616c697a61626c653a20636f6e7472616374206973206e6f74206960008201527f6e697469616c697a696e67000000000000000000000000000000000000000000602082015250565b7f496e76616c696420736561736f6e496400000000000000000000000000000000600082015250565b612ff081612988565b8114612ffb57600080fd5b50565b613007816129a6565b811461301257600080fd5b50565b61301e816129d0565b811461302957600080fd5b5056fe416464726573733a206c6f772d6c6576656c2064656c65676174652063616c6c206661696c6564a2646970667358221220f7ffeda7efce22aee21aa348b4931b1d946f3675bbeb5a2c9c2266ffefe7dfbb64736f6c63430008070033",
  "linkReferences": {},
  "deployedLinkReferences": {}
}