{
  "_format": "hh-sol-artifact-1",
  "contractName": "LCNS",
  "sourceName": "contracts/LCNS.sol",
  "abi": [
    {
      "anonymous": false,
      "inputs": [
        {
          "indexed": false,
          "internalType": "address",
          "name": "previousAdmin",
          "type": "address"
        },
        {
          "indexed": false,
          "internalType": "address",
          "name": "newAdmin",
          "type": "address"
        }
      ],
      "name": "AdminChanged",
      "type": "event"
    },
    {
      "anonymous": false,
      "inputs": [
        {
          "indexed": true,
          "internalType": "address",
          "name": "beacon",
          "type": "address"
        }
      ],
      "name": "BeaconUpgraded",
      "type": "event"
    },
    {
      "anonymous": false,
      "inputs": [
        {
          "indexed": false,
          "internalType": "uint8",
          "name": "version",
          "type": "uint8"
        }
      ],
      "name": "Initialized",
      "type": "event"
    },
    {
      "anonymous": false,
      "inputs": [
        {
          "indexed": true,
          "internalType": "address",
          "name": "previousOwner",
          "type": "address"
        },
        {
          "indexed": true,
          "internalType": "address",
          "name": "newOwner",
          "type": "address"
        }
      ],
      "name": "OwnershipTransferred",
      "type": "event"
    },
    {
      "anonymous": false,
      "inputs": [
        {
          "indexed": true,
          "internalType": "address",
          "name": "wallet",
          "type": "address"
        },
        {
          "indexed": false,
          "internalType": "string",
          "name": "userName",
          "type": "string"
        },
        {
          "indexed": false,
          "internalType": "uint256",
          "name": "avatarId",
          "type": "uint256"
        }
      ],
      "name": "RegisterName",
      "type": "event"
    },
    {
      "anonymous": false,
      "inputs": [
        {
          "indexed": true,
          "internalType": "address",
          "name": "implementation",
          "type": "address"
        }
      ],
      "name": "Upgraded",
      "type": "event"
    },
    {
      "inputs": [],
      "name": "getImplementation",
      "outputs": [
        {
          "internalType": "address",
          "name": "",
          "type": "address"
        }
      ],
      "stateMutability": "view",
      "type": "function"
    },
    {
      "inputs": [
        {
          "internalType": "address",
          "name": "wallet",
          "type": "address"
        }
      ],
      "name": "getUserInfo",
      "outputs": [
        {
          "internalType": "string",
          "name": "",
          "type": "string"
        },
        {
          "internalType": "uint256",
          "name": "",
          "type": "uint256"
        }
      ],
      "stateMutability": "view",
      "type": "function"
    },
    {
      "inputs": [],
      "name": "initialize",
      "outputs": [],
      "stateMutability": "nonpayable",
      "type": "function"
    },
    {
      "inputs": [],
      "name": "owner",
      "outputs": [
        {
          "internalType": "address",
          "name": "",
          "type": "address"
        }
      ],
      "stateMutability": "view",
      "type": "function"
    },
    {
      "inputs": [],
      "name": "proxiableUUID",
      "outputs": [
        {
          "internalType": "bytes32",
          "name": "",
          "type": "bytes32"
        }
      ],
      "stateMutability": "view",
      "type": "function"
    },
    {
      "inputs": [
        {
          "internalType": "string",
          "name": "userName",
          "type": "string"
        },
        {
          "internalType": "uint256",
          "name": "avatarId",
          "type": "uint256"
        }
      ],
      "name": "registerName",
      "outputs": [],
      "stateMutability": "nonpayable",
      "type": "function"
    },
    {
      "inputs": [],
      "name": "renounceOwnership",
      "outputs": [],
      "stateMutability": "nonpayable",
      "type": "function"
    },
    {
      "inputs": [
        {
          "internalType": "address",
          "name": "newOwner",
          "type": "address"
        }
      ],
      "name": "transferOwnership",
      "outputs": [],
      "stateMutability": "nonpayable",
      "type": "function"
    },
    {
      "inputs": [
        {
          "internalType": "address",
          "name": "newImplementation",
          "type": "address"
        }
      ],
      "name": "upgradeTo",
      "outputs": [],
      "stateMutability": "nonpayable",
      "type": "function"
    },
    {
      "inputs": [
        {
          "internalType": "address",
          "name": "newImplementation",
          "type": "address"
        },
        {
          "internalType": "bytes",
          "name": "data",
          "type": "bytes"
        }
      ],
      "name": "upgradeToAndCall",
      "outputs": [],
      "stateMutability": "payable",
      "type": "function"
    }
  ],
  "bytecode": "0x60a06040523073ffffffffffffffffffffffffffffffffffffffff1660809073ffffffffffffffffffffffffffffffffffffffff1660601b81525034801561004657600080fd5b5060805160601c611ddc6100816000396000818161021c015281816102ab015281816103a50152818161043401526104e40152611ddc6000f3fe6080604052600436106100915760003560e01c80638129fc1c116100595780638129fc1c1461015b5780638da5cb5b14610172578063aaf10f421461019d578063f1ba4db8146101c8578063f2fde38b146101f157610091565b80633659cfe6146100965780634f1ef286146100bf57806352d1902d146100db5780636386c1c714610106578063715018a614610144575b600080fd5b3480156100a257600080fd5b506100bd60048036038101906100b89190611262565b61021a565b005b6100d960048036038101906100d4919061128f565b6103a3565b005b3480156100e757600080fd5b506100f06104e0565b6040516100fd91906115cd565b60405180910390f35b34801561011257600080fd5b5061012d60048036038101906101289190611262565b610599565b60405161013b929190611625565b60405180910390f35b34801561015057600080fd5b506101596106b1565b005b34801561016757600080fd5b506101706106c5565b005b34801561017e57600080fd5b5061018761080b565b60405161019491906115b2565b60405180910390f35b3480156101a957600080fd5b506101b2610835565b6040516101bf91906115b2565b60405180910390f35b3480156101d457600080fd5b506101ef60048036038101906101ea9190611318565b610844565b005b3480156101fd57600080fd5b5061021860048036038101906102139190611262565b610930565b005b7f000000000000000000000000000000000000000000000000000000000000000073ffffffffffffffffffffffffffffffffffffffff163073ffffffffffffffffffffffffffffffffffffffff1614156102a9576040517f08c379a00000000000000000000000000000000000000000000000000000000081526004016102a090611675565b60405180910390fd5b7f000000000000000000000000000000000000000000000000000000000000000073ffffffffffffffffffffffffffffffffffffffff166102e86109b4565b73ffffffffffffffffffffffffffffffffffffffff161461033e576040517f08c379a000000000000000000000000000000000000000000000000000000000815260040161033590611695565b60405180910390fd5b61034781610a0b565b6103a081600067ffffffffffffffff811115610366576103656119a7565b5b6040519080825280601f01601f1916602001820160405280156103985781602001600182028036833780820191505090505b506000610a16565b50565b7f000000000000000000000000000000000000000000000000000000000000000073ffffffffffffffffffffffffffffffffffffffff163073ffffffffffffffffffffffffffffffffffffffff161415610432576040517f08c379a000000000000000000000000000000000000000000000000000000000815260040161042990611675565b60405180910390fd5b7f000000000000000000000000000000000000000000000000000000000000000073ffffffffffffffffffffffffffffffffffffffff166104716109b4565b73ffffffffffffffffffffffffffffffffffffffff16146104c7576040517f08c379a00000000000000000000000000000000000000000000000000000000081526004016104be90611695565b60405180910390fd5b6104d082610a0b565b6104dc82826001610a16565b5050565b60007f000000000000000000000000000000000000000000000000000000000000000073ffffffffffffffffffffffffffffffffffffffff163073ffffffffffffffffffffffffffffffffffffffff1614610570576040517f08c379a0000000000000000000000000000000000000000000000000000000008152600401610567906116b5565b60405180910390fd5b7f360894a13ba1a3210667c828492db98dca3e2076cc3735a920a3ca505d382bbc60001b905090565b6060600060c960008473ffffffffffffffffffffffffffffffffffffffff1673ffffffffffffffffffffffffffffffffffffffff16815260200190815260200160002060ca60008573ffffffffffffffffffffffffffffffffffffffff1673ffffffffffffffffffffffffffffffffffffffff1681526020019081526020016000205481805461062890611915565b80601f016020809104026020016040519081016040528092919081815260200182805461065490611915565b80156106a15780601f10610676576101008083540402835291602001916106a1565b820191906000526020600020905b81548152906001019060200180831161068457829003601f168201915b5050505050915091509150915091565b6106b9610b93565b6106c36000610c11565b565b60008060019054906101000a900460ff161590508080156106f65750600160008054906101000a900460ff1660ff16105b80610723575061070530610cd7565b1580156107225750600160008054906101000a900460ff1660ff16145b5b610762576040517f08c379a0000000000000000000000000000000000000000000000000000000008152600401610759906116f5565b60405180910390fd5b60016000806101000a81548160ff021916908360ff160217905550801561079f576001600060016101000a81548160ff0219169083151502179055505b6107a7610cfa565b6107af610d53565b80156108085760008060016101000a81548160ff0219169083151502179055507f7f26b83ff96e1f2b6a682f133852f6798a09c465da95921460cefb384740249860016040516107ff91906115e8565b60405180910390a15b50565b6000603360009054906101000a900473ffffffffffffffffffffffffffffffffffffffff16905090565b600061083f6109b4565b905090565b8160c960003373ffffffffffffffffffffffffffffffffffffffff1673ffffffffffffffffffffffffffffffffffffffff16815260200190815260200160002090805190602001906108979291906110a0565b508060ca60003373ffffffffffffffffffffffffffffffffffffffff1673ffffffffffffffffffffffffffffffffffffffff168152602001908152602001600020819055503373ffffffffffffffffffffffffffffffffffffffff167f72325d5a4fe517c216c58c2ab2004b0831c4795ab177fad24dd786b382f1f6d88383604051610924929190611625565b60405180910390a25050565b610938610b93565b600073ffffffffffffffffffffffffffffffffffffffff168173ffffffffffffffffffffffffffffffffffffffff1614156109a8576040517f08c379a000000000000000000000000000000000000000000000000000000000815260040161099f90611655565b60405180910390fd5b6109b181610c11565b50565b60006109e27f360894a13ba1a3210667c828492db98dca3e2076cc3735a920a3ca505d382bbc60001b610da4565b60000160009054906101000a900473ffffffffffffffffffffffffffffffffffffffff16905090565b610a13610b93565b50565b610a427f4910fdfa16fed3260ed0e7147f7cc6da11a60208b5b9406d12a635614ffd914360001b610dae565b60000160009054906101000a900460ff1615610a6657610a6183610db8565b610b8e565b8273ffffffffffffffffffffffffffffffffffffffff166352d1902d6040518163ffffffff1660e01b815260040160206040518083038186803b158015610aac57600080fd5b505afa925050508015610add57506040513d601f19601f82011682018060405250810190610ada91906112eb565b60015b610b1c576040517f08c379a0000000000000000000000000000000000000000000000000000000008152600401610b1390611715565b60405180910390fd5b7f360894a13ba1a3210667c828492db98dca3e2076cc3735a920a3ca505d382bbc60001b8114610b81576040517f08c379a0000000000000000000000000000000000000000000000000000000008152600401610b78906116d5565b60405180910390fd5b50610b8d838383610e71565b5b505050565b610b9b610e9d565b73ffffffffffffffffffffffffffffffffffffffff16610bb961080b565b73ffffffffffffffffffffffffffffffffffffffff1614610c0f576040517f08c379a0000000000000000000000000000000000000000000000000000000008152600401610c0690611755565b60405180910390fd5b565b6000603360009054906101000a900473ffffffffffffffffffffffffffffffffffffffff16905081603360006101000a81548173ffffffffffffffffffffffffffffffffffffffff021916908373ffffffffffffffffffffffffffffffffffffffff1602179055508173ffffffffffffffffffffffffffffffffffffffff168173ffffffffffffffffffffffffffffffffffffffff167f8be0079c531659141344cd1fd0a4f28419497f9722a3daafe3b4186f6b6457e060405160405180910390a35050565b6000808273ffffffffffffffffffffffffffffffffffffffff163b119050919050565b600060019054906101000a900460ff16610d49576040517f08c379a0000000000000000000000000000000000000000000000000000000008152600401610d4090611795565b60405180910390fd5b610d51610ea5565b565b600060019054906101000a900460ff16610da2576040517f08c379a0000000000000000000000000000000000000000000000000000000008152600401610d9990611795565b60405180910390fd5b565b6000819050919050565b6000819050919050565b610dc181610cd7565b610e00576040517f08c379a0000000000000000000000000000000000000000000000000000000008152600401610df790611735565b60405180910390fd5b80610e2d7f360894a13ba1a3210667c828492db98dca3e2076cc3735a920a3ca505d382bbc60001b610da4565b60000160006101000a81548173ffffffffffffffffffffffffffffffffffffffff021916908373ffffffffffffffffffffffffffffffffffffffff16021790555050565b610e7a83610f06565b600082511180610e875750805b15610e9857610e968383610f55565b505b505050565b600033905090565b600060019054906101000a900460ff16610ef4576040517f08c379a0000000000000000000000000000000000000000000000000000000008152600401610eeb90611795565b60405180910390fd5b610f04610eff610e9d565b610c11565b565b610f0f81610db8565b8073ffffffffffffffffffffffffffffffffffffffff167fbc7cd75a20ee27fd9adebab32041f755214dbc6bffa90cc0225b39da2e5c2d3b60405160405180910390a250565b6060610f6083610cd7565b610f9f576040517f08c379a0000000000000000000000000000000000000000000000000000000008152600401610f9690611775565b60405180910390fd5b6000808473ffffffffffffffffffffffffffffffffffffffff1684604051610fc7919061159b565b600060405180830381855af49150503d8060008114611002576040519150601f19603f3d011682016040523d82523d6000602084013e611007565b606091505b509150915061102f8282604051806060016040528060278152602001611d8060279139611039565b9250505092915050565b6060831561104957829050611099565b60008351111561105c5782518084602001fd5b816040517f08c379a00000000000000000000000000000000000000000000000000000000081526004016110909190611603565b60405180910390fd5b9392505050565b8280546110ac90611915565b90600052602060002090601f0160209004810192826110ce5760008555611115565b82601f106110e757805160ff1916838001178555611115565b82800160010185558215611115579182015b828111156111145782518255916020019190600101906110f9565b5b5090506111229190611126565b5090565b5b8082111561113f576000816000905550600101611127565b5090565b6000611156611151846117da565b6117b5565b905082815260208101848484011115611172576111716119db565b5b61117d8482856118d3565b509392505050565b60006111986111938461180b565b6117b5565b9050828152602081018484840111156111b4576111b36119db565b5b6111bf8482856118d3565b509392505050565b6000813590506111d681611d3a565b92915050565b6000815190506111eb81611d51565b92915050565b600082601f830112611206576112056119d6565b5b8135611216848260208601611143565b91505092915050565b600082601f830112611234576112336119d6565b5b8135611244848260208601611185565b91505092915050565b60008135905061125c81611d68565b92915050565b600060208284031215611278576112776119e5565b5b6000611286848285016111c7565b91505092915050565b600080604083850312156112a6576112a56119e5565b5b60006112b4858286016111c7565b925050602083013567ffffffffffffffff8111156112d5576112d46119e0565b5b6112e1858286016111f1565b9150509250929050565b600060208284031215611301576113006119e5565b5b600061130f848285016111dc565b91505092915050565b6000806040838503121561132f5761132e6119e5565b5b600083013567ffffffffffffffff81111561134d5761134c6119e0565b5b6113598582860161121f565b925050602061136a8582860161124d565b9150509250929050565b61137d8161186e565b82525050565b61138c81611880565b82525050565b600061139d8261183c565b6113a78185611852565b93506113b78185602086016118e2565b80840191505092915050565b6113cc816118c1565b82525050565b60006113dd82611847565b6113e7818561185d565b93506113f78185602086016118e2565b611400816119ea565b840191505092915050565b600061141860268361185d565b9150611423826119fb565b604082019050919050565b600061143b602c8361185d565b915061144682611a4a565b604082019050919050565b600061145e602c8361185d565b915061146982611a99565b604082019050919050565b600061148160388361185d565b915061148c82611ae8565b604082019050919050565b60006114a460298361185d565b91506114af82611b37565b604082019050919050565b60006114c7602e8361185d565b91506114d282611b86565b604082019050919050565b60006114ea602e8361185d565b91506114f582611bd5565b604082019050919050565b600061150d602d8361185d565b915061151882611c24565b604082019050919050565b600061153060208361185d565b915061153b82611c73565b602082019050919050565b600061155360268361185d565b915061155e82611c9c565b604082019050919050565b6000611576602b8361185d565b915061158182611ceb565b604082019050919050565b611595816118aa565b82525050565b60006115a78284611392565b915081905092915050565b60006020820190506115c76000830184611374565b92915050565b60006020820190506115e26000830184611383565b92915050565b60006020820190506115fd60008301846113c3565b92915050565b6000602082019050818103600083015261161d81846113d2565b905092915050565b6000604082019050818103600083015261163f81856113d2565b905061164e602083018461158c565b9392505050565b6000602082019050818103600083015261166e8161140b565b9050919050565b6000602082019050818103600083015261168e8161142e565b9050919050565b600060208201905081810360008301526116ae81611451565b9050919050565b600060208201905081810360008301526116ce81611474565b9050919050565b600060208201905081810360008301526116ee81611497565b9050919050565b6000602082019050818103600083015261170e816114ba565b9050919050565b6000602082019050818103600083015261172e816114dd565b9050919050565b6000602082019050818103600083015261174e81611500565b9050919050565b6000602082019050818103600083015261176e81611523565b9050919050565b6000602082019050818103600083015261178e81611546565b9050919050565b600060208201905081810360008301526117ae81611569565b9050919050565b60006117bf6117d0565b90506117cb8282611947565b919050565b6000604051905090565b600067ffffffffffffffff8211156117f5576117f46119a7565b5b6117fe826119ea565b9050602081019050919050565b600067ffffffffffffffff821115611826576118256119a7565b5b61182f826119ea565b9050602081019050919050565b600081519050919050565b600081519050919050565b600081905092915050565b600082825260208201905092915050565b60006118798261188a565b9050919050565b6000819050919050565b600073ffffffffffffffffffffffffffffffffffffffff82169050919050565b6000819050919050565b600060ff82169050919050565b60006118cc826118b4565b9050919050565b82818337600083830152505050565b60005b838110156119005780820151818401526020810190506118e5565b8381111561190f576000848401525b50505050565b6000600282049050600182168061192d57607f821691505b6020821081141561194157611940611978565b5b50919050565b611950826119ea565b810181811067ffffffffffffffff8211171561196f5761196e6119a7565b5b80604052505050565b7f4e487b7100000000000000000000000000000000000000000000000000000000600052602260045260246000fd5b7f4e487b7100000000000000000000000000000000000000000000000000000000600052604160045260246000fd5b600080fd5b600080fd5b600080fd5b600080fd5b6000601f19601f8301169050919050565b7f4f776e61626c653a206e6577206f776e657220697320746865207a65726f206160008201527f6464726573730000000000000000000000000000000000000000000000000000602082015250565b7f46756e6374696f6e206d7573742062652063616c6c6564207468726f7567682060008201527f64656c656761746563616c6c0000000000000000000000000000000000000000602082015250565b7f46756e6374696f6e206d7573742062652063616c6c6564207468726f7567682060008201527f6163746976652070726f78790000000000000000000000000000000000000000602082015250565b7f555550535570677261646561626c653a206d757374206e6f742062652063616c60008201527f6c6564207468726f7567682064656c656761746563616c6c0000000000000000602082015250565b7f45524331393637557067726164653a20756e737570706f727465642070726f7860008201527f6961626c65555549440000000000000000000000000000000000000000000000602082015250565b7f496e697469616c697a61626c653a20636f6e747261637420697320616c72656160008201527f647920696e697469616c697a6564000000000000000000000000000000000000602082015250565b7f45524331393637557067726164653a206e657720696d706c656d656e7461746960008201527f6f6e206973206e6f742055555053000000000000000000000000000000000000602082015250565b7f455243313936373a206e657720696d706c656d656e746174696f6e206973206e60008201527f6f74206120636f6e747261637400000000000000000000000000000000000000602082015250565b7f4f776e61626c653a2063616c6c6572206973206e6f7420746865206f776e6572600082015250565b7f416464726573733a2064656c65676174652063616c6c20746f206e6f6e2d636f60008201527f6e74726163740000000000000000000000000000000000000000000000000000602082015250565b7f496e697469616c697a61626c653a20636f6e7472616374206973206e6f74206960008201527f6e697469616c697a696e67000000000000000000000000000000000000000000602082015250565b611d438161186e565b8114611d4e57600080fd5b50565b611d5a81611880565b8114611d6557600080fd5b50565b611d71816118aa565b8114611d7c57600080fd5b5056fe416464726573733a206c6f772d6c6576656c2064656c65676174652063616c6c206661696c6564a26469706673582212204e7fe19c7174fe1bef53a254aab70d2152402c822410de7a809726c3d41a521764736f6c63430008070033",
  "linkReferences": {},
  "deployedLinkReferences": {}
}