{
  "_format": "hh-sol-artifact-1",
  "contractName": "NFTHolder",
  "sourceName": "contracts/NFTHolder.sol",
  "abi": [
    {
      "anonymous": false,
      "inputs": [
        {
          "indexed": false,
          "internalType": "address",
          "name": "previousAdmin",
          "type": "address"
        },
        {
          "indexed": false,
          "internalType": "address",
          "name": "newAdmin",
          "type": "address"
        }
      ],
      "name": "AdminChanged",
      "type": "event"
    },
    {
      "anonymous": false,
      "inputs": [
        {
          "indexed": true,
          "internalType": "address",
          "name": "beacon",
          "type": "address"
        }
      ],
      "name": "BeaconUpgraded",
      "type": "event"
    },
    {
      "anonymous": false,
      "inputs": [
        {
          "indexed": false,
          "internalType": "uint8",
          "name": "version",
          "type": "uint8"
        }
      ],
      "name": "Initialized",
      "type": "event"
    },
    {
      "anonymous": false,
      "inputs": [
        {
          "indexed": true,
          "internalType": "address",
          "name": "previousOwner",
          "type": "address"
        },
        {
          "indexed": true,
          "internalType": "address",
          "name": "newOwner",
          "type": "address"
        }
      ],
      "name": "OwnershipTransferred",
      "type": "event"
    },
    {
      "anonymous": false,
      "inputs": [
        {
          "indexed": false,
          "internalType": "address",
          "name": "account",
          "type": "address"
        }
      ],
      "name": "Paused",
      "type": "event"
    },
    {
      "anonymous": false,
      "inputs": [
        {
          "indexed": true,
          "internalType": "address",
          "name": "sender",
          "type": "address"
        },
        {
          "indexed": true,
          "internalType": "address",
          "name": "wallet",
          "type": "address"
        },
        {
          "indexed": false,
          "internalType": "uint256",
          "name": "stakeId",
          "type": "uint256"
        },
        {
          "indexed": false,
          "internalType": "uint256",
          "name": "tokenId",
          "type": "uint256"
        },
        {
          "indexed": false,
          "internalType": "uint256",
          "name": "timestamp",
          "type": "uint256"
        }
      ],
      "name": "Stake",
      "type": "event"
    },
    {
      "anonymous": false,
      "inputs": [
        {
          "indexed": false,
          "internalType": "address",
          "name": "account",
          "type": "address"
        }
      ],
      "name": "Unpaused",
      "type": "event"
    },
    {
      "anonymous": false,
      "inputs": [
        {
          "indexed": false,
          "internalType": "uint256",
          "name": "stakeId",
          "type": "uint256"
        },
        {
          "indexed": false,
          "internalType": "uint256",
          "name": "timestamp",
          "type": "uint256"
        }
      ],
      "name": "Unstake",
      "type": "event"
    },
    {
      "anonymous": false,
      "inputs": [
        {
          "indexed": true,
          "internalType": "address",
          "name": "implementation",
          "type": "address"
        }
      ],
      "name": "Upgraded",
      "type": "event"
    },
    {
      "inputs": [],
      "name": "getImplementation",
      "outputs": [
        {
          "internalType": "address",
          "name": "",
          "type": "address"
        }
      ],
      "stateMutability": "view",
      "type": "function"
    },
    {
      "inputs": [],
      "name": "getItem",
      "outputs": [
        {
          "internalType": "address",
          "name": "",
          "type": "address"
        }
      ],
      "stateMutability": "view",
      "type": "function"
    },
    {
      "inputs": [
        {
          "internalType": "uint256",
          "name": "sId",
          "type": "uint256"
        }
      ],
      "name": "getStakeInfo",
      "outputs": [
        {
          "components": [
            {
              "internalType": "uint256",
              "name": "sId",
              "type": "uint256"
            },
            {
              "internalType": "uint256",
              "name": "tokenId",
              "type": "uint256"
            },
            {
              "internalType": "uint256",
              "name": "stakeAt",
              "type": "uint256"
            },
            {
              "internalType": "uint256",
              "name": "unstakeAt",
              "type": "uint256"
            },
            {
              "internalType": "address",
              "name": "wallet",
              "type": "address"
            }
          ],
          "internalType": "struct NFTHolder.StakeInfo",
          "name": "",
          "type": "tuple"
        }
      ],
      "stateMutability": "view",
      "type": "function"
    },
    {
      "inputs": [],
      "name": "initialize",
      "outputs": [],
      "stateMutability": "nonpayable",
      "type": "function"
    },
    {
      "inputs": [
        {
          "internalType": "address",
          "name": "operator",
          "type": "address"
        }
      ],
      "name": "isOperator",
      "outputs": [
        {
          "internalType": "bool",
          "name": "",
          "type": "bool"
        }
      ],
      "stateMutability": "view",
      "type": "function"
    },
    {
      "inputs": [
        {
          "internalType": "address",
          "name": "",
          "type": "address"
        },
        {
          "internalType": "address",
          "name": "",
          "type": "address"
        },
        {
          "internalType": "uint256",
          "name": "",
          "type": "uint256"
        },
        {
          "internalType": "bytes",
          "name": "",
          "type": "bytes"
        }
      ],
      "name": "onERC721Received",
      "outputs": [
        {
          "internalType": "bytes4",
          "name": "",
          "type": "bytes4"
        }
      ],
      "stateMutability": "nonpayable",
      "type": "function"
    },
    {
      "inputs": [],
      "name": "owner",
      "outputs": [
        {
          "internalType": "address",
          "name": "",
          "type": "address"
        }
      ],
      "stateMutability": "view",
      "type": "function"
    },
    {
      "inputs": [],
      "name": "pause",
      "outputs": [],
      "stateMutability": "nonpayable",
      "type": "function"
    },
    {
      "inputs": [],
      "name": "paused",
      "outputs": [
        {
          "internalType": "bool",
          "name": "",
          "type": "bool"
        }
      ],
      "stateMutability": "view",
      "type": "function"
    },
    {
      "inputs": [],
      "name": "proxiableUUID",
      "outputs": [
        {
          "internalType": "bytes32",
          "name": "",
          "type": "bytes32"
        }
      ],
      "stateMutability": "view",
      "type": "function"
    },
    {
      "inputs": [
        {
          "internalType": "address",
          "name": "operator",
          "type": "address"
        }
      ],
      "name": "removeOperator",
      "outputs": [],
      "stateMutability": "nonpayable",
      "type": "function"
    },
    {
      "inputs": [],
      "name": "renounceOwnership",
      "outputs": [],
      "stateMutability": "nonpayable",
      "type": "function"
    },
    {
      "inputs": [
        {
          "internalType": "address",
          "name": "_nft",
          "type": "address"
        }
      ],
      "name": "setNftItem",
      "outputs": [],
      "stateMutability": "nonpayable",
      "type": "function"
    },
    {
      "inputs": [
        {
          "internalType": "address",
          "name": "operator",
          "type": "address"
        }
      ],
      "name": "setOperator",
      "outputs": [],
      "stateMutability": "nonpayable",
      "type": "function"
    },
    {
      "inputs": [
        {
          "internalType": "address",
          "name": "wallet",
          "type": "address"
        },
        {
          "internalType": "uint256",
          "name": "tokenId",
          "type": "uint256"
        }
      ],
      "name": "stakeFor",
      "outputs": [],
      "stateMutability": "nonpayable",
      "type": "function"
    },
    {
      "inputs": [
        {
          "internalType": "uint256",
          "name": "tokenId",
          "type": "uint256"
        }
      ],
      "name": "stakeNFT",
      "outputs": [],
      "stateMutability": "nonpayable",
      "type": "function"
    },
    {
      "inputs": [
        {
          "internalType": "address",
          "name": "newOwner",
          "type": "address"
        }
      ],
      "name": "transferOwnership",
      "outputs": [],
      "stateMutability": "nonpayable",
      "type": "function"
    },
    {
      "inputs": [],
      "name": "unpause",
      "outputs": [],
      "stateMutability": "nonpayable",
      "type": "function"
    },
    {
      "inputs": [
        {
          "internalType": "uint256",
          "name": "tokenId",
          "type": "uint256"
        }
      ],
      "name": "unstakeNFT",
      "outputs": [],
      "stateMutability": "nonpayable",
      "type": "function"
    },
    {
      "inputs": [
        {
          "internalType": "address",
          "name": "newImplementation",
          "type": "address"
        }
      ],
      "name": "upgradeTo",
      "outputs": [],
      "stateMutability": "nonpayable",
      "type": "function"
    },
    {
      "inputs": [
        {
          "internalType": "address",
          "name": "newImplementation",
          "type": "address"
        },
        {
          "internalType": "bytes",
          "name": "data",
          "type": "bytes"
        }
      ],
      "name": "upgradeToAndCall",
      "outputs": [],
      "stateMutability": "payable",
      "type": "function"
    }
  ],
  "bytecode": "0x60a06040523073ffffffffffffffffffffffffffffffffffffffff1660809073ffffffffffffffffffffffffffffffffffffffff1660601b81525034801561004657600080fd5b5060805160601c61301d6100816000396000818161085a015281816108e9015281816109f501528181610a840152610b34015261301d6000f3fe60806040526004361061012a5760003560e01c8063715018a6116100ab578063ac8a584a1161006f578063ac8a584a14610385578063b3ab15fb146103ae578063b752af8c146103d7578063c1dfa0bb14610400578063c412eaba14610429578063f2fde38b146104545761012a565b8063715018a6146102ea5780638129fc1c146103015780638456cb59146103185780638da5cb5b1461032f578063aaf10f421461035a5761012a565b80634f1ef286116100f25780634f1ef2861461021257806352d1902d1461022e5780635c975abb146102595780636d70f7ae146102845780636eb604e0146102c15761012a565b8063098134821461012f578063150b7a021461016c5780632ee40908146101a95780633659cfe6146101d25780633f4ba83a146101fb575b600080fd5b34801561013b57600080fd5b5061015660048036038101906101519190612137565b61047d565b6040516101639190612841565b60405180910390f35b34801561017857600080fd5b50610193600480360381019061018e9190611feb565b610529565b6040516101a091906125c9565b60405180910390f35b3480156101b557600080fd5b506101d060048036038101906101cb91906120ca565b61053d565b005b3480156101de57600080fd5b506101f960048036038101906101f49190611fbe565b610858565b005b34801561020757600080fd5b506102106109e1565b005b61022c6004803603810190610227919061206e565b6109f3565b005b34801561023a57600080fd5b50610243610b30565b60405161025091906125ae565b60405180910390f35b34801561026557600080fd5b5061026e610be9565b60405161027b9190612593565b60405180910390f35b34801561029057600080fd5b506102ab60048036038101906102a69190611fbe565b610c00565b6040516102b89190612593565b60405180910390f35b3480156102cd57600080fd5b506102e860048036038101906102e39190612137565b610c57565b005b3480156102f657600080fd5b506102ff610ee6565b005b34801561030d57600080fd5b50610316610efa565b005b34801561032457600080fd5b5061032d611048565b005b34801561033b57600080fd5b5061034461105a565b6040516103519190612518565b60405180910390f35b34801561036657600080fd5b5061036f611084565b60405161037c9190612518565b60405180910390f35b34801561039157600080fd5b506103ac60048036038101906103a79190611fbe565b611093565b005b3480156103ba57600080fd5b506103d560048036038101906103d09190611fbe565b6110f7565b005b3480156103e357600080fd5b506103fe60048036038101906103f99190611fbe565b61115b565b005b34801561040c57600080fd5b5061042760048036038101906104229190612137565b6111a8565b005b34801561043557600080fd5b5061043e611434565b60405161044b9190612518565b60405180910390f35b34801561046057600080fd5b5061047b60048036038101906104769190611fbe565b61145f565b005b610485611eca565b61013160008381526020019081526020016000206040518060a0016040529081600082015481526020016001820154815260200160028201548152602001600382015481526020016004820160009054906101000a900473ffffffffffffffffffffffffffffffffffffffff1673ffffffffffffffffffffffffffffffffffffffff1673ffffffffffffffffffffffffffffffffffffffff16815250509050919050565b600063150b7a0260e01b9050949350505050565b61012d60003373ffffffffffffffffffffffffffffffffffffffff1673ffffffffffffffffffffffffffffffffffffffff16815260200190815260200160002060009054906101000a900460ff166105ca576040517f08c379a00000000000000000000000000000000000000000000000000000000081526004016105c190612721565b60405180910390fd5b8060006101306000838152602001908152602001600020541480610619575060006101316000610130600085815260200190815260200160002054815260200190815260200160002060030154115b610658576040517f08c379a000000000000000000000000000000000000000000000000000000000815260040161064f906127a1565b60405180910390fd5b61012e60009054906101000a900473ffffffffffffffffffffffffffffffffffffffff1673ffffffffffffffffffffffffffffffffffffffff166340c10f1984846040518363ffffffff1660e01b81526004016106b692919061256a565b600060405180830381600087803b1580156106d057600080fd5b505af11580156106e4573d6000803e3d6000fd5b5050505061012f60008154809291906106fc90612a54565b919050555061012f546101306000848152602001908152602001600020819055506040518060a0016040528061012f548152602001838152602001428152602001600081526020018473ffffffffffffffffffffffffffffffffffffffff16815250610131600061012f5481526020019081526020016000206000820151816000015560208201518160010155604082015181600201556060820151816003015560808201518160040160006101000a81548173ffffffffffffffffffffffffffffffffffffffff021916908373ffffffffffffffffffffffffffffffffffffffff1602179055509050508273ffffffffffffffffffffffffffffffffffffffff163373ffffffffffffffffffffffffffffffffffffffff167f4b22ccaaeb4846ec98072623a51a9070bf1f01c75ac1f8119035f373df852a0c61012f54854260405161084b93929190612885565b60405180910390a3505050565b7f000000000000000000000000000000000000000000000000000000000000000073ffffffffffffffffffffffffffffffffffffffff163073ffffffffffffffffffffffffffffffffffffffff1614156108e7576040517f08c379a00000000000000000000000000000000000000000000000000000000081526004016108de90612661565b60405180910390fd5b7f000000000000000000000000000000000000000000000000000000000000000073ffffffffffffffffffffffffffffffffffffffff166109266114e3565b73ffffffffffffffffffffffffffffffffffffffff161461097c576040517f08c379a000000000000000000000000000000000000000000000000000000000815260040161097390612681565b60405180910390fd5b6109858161153a565b6109de81600067ffffffffffffffff8111156109a4576109a3612acc565b5b6040519080825280601f01601f1916602001820160405280156109d65781602001600182028036833780820191505090505b506000611545565b50565b6109e96116c2565b6109f1611740565b565b7f000000000000000000000000000000000000000000000000000000000000000073ffffffffffffffffffffffffffffffffffffffff163073ffffffffffffffffffffffffffffffffffffffff161415610a82576040517f08c379a0000000000000000000000000000000000000000000000000000000008152600401610a7990612661565b60405180910390fd5b7f000000000000000000000000000000000000000000000000000000000000000073ffffffffffffffffffffffffffffffffffffffff16610ac16114e3565b73ffffffffffffffffffffffffffffffffffffffff1614610b17576040517f08c379a0000000000000000000000000000000000000000000000000000000008152600401610b0e90612681565b60405180910390fd5b610b208261153a565b610b2c82826001611545565b5050565b60007f000000000000000000000000000000000000000000000000000000000000000073ffffffffffffffffffffffffffffffffffffffff163073ffffffffffffffffffffffffffffffffffffffff1614610bc0576040517f08c379a0000000000000000000000000000000000000000000000000000000008152600401610bb7906126a1565b60405180910390fd5b7f360894a13ba1a3210667c828492db98dca3e2076cc3735a920a3ca505d382bbc60001b905090565b600060c960009054906101000a900460ff16905090565b600061012d60008373ffffffffffffffffffffffffffffffffffffffff1673ffffffffffffffffffffffffffffffffffffffff16815260200190815260200160002060009054906101000a900460ff169050919050565b8060006101306000838152602001908152602001600020541480610ca6575060006101316000610130600085815260200190815260200160002054815260200190815260200160002060030154115b610ce5576040517f08c379a0000000000000000000000000000000000000000000000000000000008152600401610cdc906127a1565b60405180910390fd5b61012e60009054906101000a900473ffffffffffffffffffffffffffffffffffffffff1673ffffffffffffffffffffffffffffffffffffffff166342842e0e3330856040518463ffffffff1660e01b8152600401610d4593929190612533565b600060405180830381600087803b158015610d5f57600080fd5b505af1158015610d73573d6000803e3d6000fd5b5050505061012f6000815480929190610d8b90612a54565b919050555061012f546101306000848152602001908152602001600020819055506040518060a0016040528061012f548152602001838152602001428152602001600081526020013373ffffffffffffffffffffffffffffffffffffffff16815250610131600061012f5481526020019081526020016000206000820151816000015560208201518160010155604082015181600201556060820151816003015560808201518160040160006101000a81548173ffffffffffffffffffffffffffffffffffffffff021916908373ffffffffffffffffffffffffffffffffffffffff1602179055509050503373ffffffffffffffffffffffffffffffffffffffff163373ffffffffffffffffffffffffffffffffffffffff167f4b22ccaaeb4846ec98072623a51a9070bf1f01c75ac1f8119035f373df852a0c61012f548542604051610eda93929190612885565b60405180910390a35050565b610eee6116c2565b610ef860006117a3565b565b60008060019054906101000a900460ff16159050808015610f2b5750600160008054906101000a900460ff1660ff16105b80610f585750610f3a30611869565b158015610f575750600160008054906101000a900460ff1660ff16145b5b610f97576040517f08c379a0000000000000000000000000000000000000000000000000000000008152600401610f8e90612701565b60405180910390fd5b60016000806101000a81548160ff021916908360ff1602179055508015610fd4576001600060016101000a81548160ff0219169083151502179055505b610fdc61188c565b610fe4611a23565b610fec611a74565b80156110455760008060016101000a81548160ff0219169083151502179055507f7f26b83ff96e1f2b6a682f133852f6798a09c465da95921460cefb3847402498600160405161103c91906125e4565b60405180910390a15b50565b6110506116c2565b611058611a74565b565b600060fb60009054906101000a900473ffffffffffffffffffffffffffffffffffffffff16905090565b600061108e6114e3565b905090565b61109b6116c2565b600061012d60008373ffffffffffffffffffffffffffffffffffffffff1673ffffffffffffffffffffffffffffffffffffffff16815260200190815260200160002060006101000a81548160ff02191690831515021790555050565b6110ff6116c2565b600161012d60008373ffffffffffffffffffffffffffffffffffffffff1673ffffffffffffffffffffffffffffffffffffffff16815260200190815260200160002060006101000a81548160ff02191690831515021790555050565b6111636116c2565b8061012e60006101000a81548173ffffffffffffffffffffffffffffffffffffffff021916908373ffffffffffffffffffffffffffffffffffffffff16021790555050565b806000610131600061013060008581526020019081526020016000205481526020019081526020016000206003015414611217576040517f08c379a000000000000000000000000000000000000000000000000000000000815260040161120e90612821565b60405180910390fd5b3373ffffffffffffffffffffffffffffffffffffffff166101316000610130600085815260200190815260200160002054815260200190815260200160002060040160009054906101000a900473ffffffffffffffffffffffffffffffffffffffff1673ffffffffffffffffffffffffffffffffffffffff16146112d0576040517f08c379a00000000000000000000000000000000000000000000000000000000081526004016112c790612801565b60405180910390fd5b60006101316000610130600086815260200190815260200160002054815260200190815260200160002060040160009054906101000a900473ffffffffffffffffffffffffffffffffffffffff16905061012e60009054906101000a900473ffffffffffffffffffffffffffffffffffffffff1673ffffffffffffffffffffffffffffffffffffffff166342842e0e3083866040518463ffffffff1660e01b815260040161138093929190612533565b600060405180830381600087803b15801561139a57600080fd5b505af11580156113ae573d6000803e3d6000fd5b505050504261013160006101306000878152602001908152602001600020548152602001908152602001600020600301819055507f9045c2ac9b2026de8075f2701bbdde882cd5e830b3b1ead9a15b22f2b5b937426101306000858152602001908152602001600020544260405161142792919061285c565b60405180910390a1505050565b600061012e60009054906101000a900473ffffffffffffffffffffffffffffffffffffffff16905090565b6114676116c2565b600073ffffffffffffffffffffffffffffffffffffffff168173ffffffffffffffffffffffffffffffffffffffff1614156114d7576040517f08c379a00000000000000000000000000000000000000000000000000000000081526004016114ce90612641565b60405180910390fd5b6114e0816117a3565b50565b60006115117f360894a13ba1a3210667c828492db98dca3e2076cc3735a920a3ca505d382bbc60001b611ad7565b60000160009054906101000a900473ffffffffffffffffffffffffffffffffffffffff16905090565b6115426116c2565b50565b6115717f4910fdfa16fed3260ed0e7147f7cc6da11a60208b5b9406d12a635614ffd914360001b611ae1565b60000160009054906101000a900460ff16156115955761159083611aeb565b6116bd565b8273ffffffffffffffffffffffffffffffffffffffff166352d1902d6040518163ffffffff1660e01b815260040160206040518083038186803b1580156115db57600080fd5b505afa92505050801561160c57506040513d601f19601f82011682018060405250810190611609919061210a565b60015b61164b576040517f08c379a000000000000000000000000000000000000000000000000000000000815260040161164290612741565b60405180910390fd5b7f360894a13ba1a3210667c828492db98dca3e2076cc3735a920a3ca505d382bbc60001b81146116b0576040517f08c379a00000000000000000000000000000000000000000000000000000000081526004016116a7906126e1565b60405180910390fd5b506116bc838383611ba4565b5b505050565b6116ca611bd0565b73ffffffffffffffffffffffffffffffffffffffff166116e861105a565b73ffffffffffffffffffffffffffffffffffffffff161461173e576040517f08c379a000000000000000000000000000000000000000000000000000000000815260040161173590612781565b60405180910390fd5b565b611748611bd8565b600060c960006101000a81548160ff0219169083151502179055507f5db9ee0a495bf2e6ff9c91a7834c1ba4fdd244a5e8aa4e537bd38aeae4b073aa61178c611bd0565b6040516117999190612518565b60405180910390a1565b600060fb60009054906101000a900473ffffffffffffffffffffffffffffffffffffffff1690508160fb60006101000a81548173ffffffffffffffffffffffffffffffffffffffff021916908373ffffffffffffffffffffffffffffffffffffffff1602179055508173ffffffffffffffffffffffffffffffffffffffff168173ffffffffffffffffffffffffffffffffffffffff167f8be0079c531659141344cd1fd0a4f28419497f9722a3daafe3b4186f6b6457e060405160405180910390a35050565b6000808273ffffffffffffffffffffffffffffffffffffffff163b119050919050565b60008060019054906101000a900460ff161590508080156118bd5750600160008054906101000a900460ff1660ff16105b806118ea57506118cc30611869565b1580156118e95750600160008054906101000a900460ff1660ff16145b5b611929576040517f08c379a000000000000000000000000000000000000000000000000000000000815260040161192090612701565b60405180910390fd5b60016000806101000a81548160ff021916908360ff1602179055508015611966576001600060016101000a81548160ff0219169083151502179055505b61196e611c21565b600161012d60003373ffffffffffffffffffffffffffffffffffffffff1673ffffffffffffffffffffffffffffffffffffffff16815260200190815260200160002060006101000a81548160ff0219169083151502179055508015611a205760008060016101000a81548160ff0219169083151502179055507f7f26b83ff96e1f2b6a682f133852f6798a09c465da95921460cefb38474024986001604051611a1791906125e4565b60405180910390a15b50565b600060019054906101000a900460ff16611a72576040517f08c379a0000000000000000000000000000000000000000000000000000000008152600401611a69906127e1565b60405180910390fd5b565b611a7c611c7a565b600160c960006101000a81548160ff0219169083151502179055507f62e78cea01bee320cd4e420270b5ea74000d11b0c9f74754ebdbfc544b05a258611ac0611bd0565b604051611acd9190612518565b60405180910390a1565b6000819050919050565b6000819050919050565b611af481611869565b611b33576040517f08c379a0000000000000000000000000000000000000000000000000000000008152600401611b2a90612761565b60405180910390fd5b80611b607f360894a13ba1a3210667c828492db98dca3e2076cc3735a920a3ca505d382bbc60001b611ad7565b60000160006101000a81548173ffffffffffffffffffffffffffffffffffffffff021916908373ffffffffffffffffffffffffffffffffffffffff16021790555050565b611bad83611cc4565b600082511180611bba5750805b15611bcb57611bc98383611d13565b505b505050565b600033905090565b611be0610be9565b611c1f576040517f08c379a0000000000000000000000000000000000000000000000000000000008152600401611c1690612621565b60405180910390fd5b565b600060019054906101000a900460ff16611c70576040517f08c379a0000000000000000000000000000000000000000000000000000000008152600401611c67906127e1565b60405180910390fd5b611c78611df7565b565b611c82610be9565b15611cc2576040517f08c379a0000000000000000000000000000000000000000000000000000000008152600401611cb9906126c1565b60405180910390fd5b565b611ccd81611aeb565b8073ffffffffffffffffffffffffffffffffffffffff167fbc7cd75a20ee27fd9adebab32041f755214dbc6bffa90cc0225b39da2e5c2d3b60405160405180910390a250565b6060611d1e83611869565b611d5d576040517f08c379a0000000000000000000000000000000000000000000000000000000008152600401611d54906127c1565b60405180910390fd5b6000808473ffffffffffffffffffffffffffffffffffffffff1684604051611d859190612501565b600060405180830381855af49150503d8060008114611dc0576040519150601f19603f3d011682016040523d82523d6000602084013e611dc5565b606091505b5091509150611ded8282604051806060016040528060278152602001612fc160279139611e58565b9250505092915050565b600060019054906101000a900460ff16611e46576040517f08c379a0000000000000000000000000000000000000000000000000000000008152600401611e3d906127e1565b60405180910390fd5b611e56611e51611bd0565b6117a3565b565b60608315611e6857829050611e73565b611e728383611e7a565b5b9392505050565b600082511115611e8d5781518083602001fd5b806040517f08c379a0000000000000000000000000000000000000000000000000000000008152600401611ec191906125ff565b60405180910390fd5b6040518060a0016040528060008152602001600081526020016000815260200160008152602001600073ffffffffffffffffffffffffffffffffffffffff1681525090565b6000611f22611f1d846128e1565b6128bc565b905082815260208101848484011115611f3e57611f3d612b00565b5b611f498482856129e1565b509392505050565b600081359050611f6081612f7b565b92915050565b600081519050611f7581612f92565b92915050565b600082601f830112611f9057611f8f612afb565b5b8135611fa0848260208601611f0f565b91505092915050565b600081359050611fb881612fa9565b92915050565b600060208284031215611fd457611fd3612b0a565b5b6000611fe284828501611f51565b91505092915050565b6000806000806080858703121561200557612004612b0a565b5b600061201387828801611f51565b945050602061202487828801611f51565b935050604061203587828801611fa9565b925050606085013567ffffffffffffffff81111561205657612055612b05565b5b61206287828801611f7b565b91505092959194509250565b6000806040838503121561208557612084612b0a565b5b600061209385828601611f51565b925050602083013567ffffffffffffffff8111156120b4576120b3612b05565b5b6120c085828601611f7b565b9150509250929050565b600080604083850312156120e1576120e0612b0a565b5b60006120ef85828601611f51565b925050602061210085828601611fa9565b9150509250929050565b6000602082840312156121205761211f612b0a565b5b600061212e84828501611f66565b91505092915050565b60006020828403121561214d5761214c612b0a565b5b600061215b84828501611fa9565b91505092915050565b61216d81612944565b82525050565b61217c81612944565b82525050565b61218b81612956565b82525050565b61219a81612962565b82525050565b6121a98161296c565b82525050565b60006121ba82612912565b6121c48185612928565b93506121d48185602086016129f0565b80840191505092915050565b6121e9816129cf565b82525050565b60006121fa8261291d565b6122048185612933565b93506122148185602086016129f0565b61221d81612b0f565b840191505092915050565b6000612235601483612933565b915061224082612b20565b602082019050919050565b6000612258602683612933565b915061226382612b49565b604082019050919050565b600061227b602c83612933565b915061228682612b98565b604082019050919050565b600061229e602c83612933565b91506122a982612be7565b604082019050919050565b60006122c1603883612933565b91506122cc82612c36565b604082019050919050565b60006122e4601083612933565b91506122ef82612c85565b602082019050919050565b6000612307602983612933565b915061231282612cae565b604082019050919050565b600061232a602e83612933565b915061233582612cfd565b604082019050919050565b600061234d601b83612933565b915061235882612d4c565b602082019050919050565b6000612370602e83612933565b915061237b82612d75565b604082019050919050565b6000612393602d83612933565b915061239e82612dc4565b604082019050919050565b60006123b6602083612933565b91506123c182612e13565b602082019050919050565b60006123d9601583612933565b91506123e482612e3c565b602082019050919050565b60006123fc602683612933565b915061240782612e65565b604082019050919050565b600061241f602b83612933565b915061242a82612eb4565b604082019050919050565b6000612442602483612933565b915061244d82612f03565b604082019050919050565b6000612465601183612933565b915061247082612f52565b602082019050919050565b60a08201600082015161249160008501826124e3565b5060208201516124a460208501826124e3565b5060408201516124b760408501826124e3565b5060608201516124ca60608501826124e3565b5060808201516124dd6080850182612164565b50505050565b6124ec816129b8565b82525050565b6124fb816129b8565b82525050565b600061250d82846121af565b915081905092915050565b600060208201905061252d6000830184612173565b92915050565b60006060820190506125486000830186612173565b6125556020830185612173565b61256260408301846124f2565b949350505050565b600060408201905061257f6000830185612173565b61258c60208301846124f2565b9392505050565b60006020820190506125a86000830184612182565b92915050565b60006020820190506125c36000830184612191565b92915050565b60006020820190506125de60008301846121a0565b92915050565b60006020820190506125f960008301846121e0565b92915050565b6000602082019050818103600083015261261981846121ef565b905092915050565b6000602082019050818103600083015261263a81612228565b9050919050565b6000602082019050818103600083015261265a8161224b565b9050919050565b6000602082019050818103600083015261267a8161226e565b9050919050565b6000602082019050818103600083015261269a81612291565b9050919050565b600060208201905081810360008301526126ba816122b4565b9050919050565b600060208201905081810360008301526126da816122d7565b9050919050565b600060208201905081810360008301526126fa816122fa565b9050919050565b6000602082019050818103600083015261271a8161231d565b9050919050565b6000602082019050818103600083015261273a81612340565b9050919050565b6000602082019050818103600083015261275a81612363565b9050919050565b6000602082019050818103600083015261277a81612386565b9050919050565b6000602082019050818103600083015261279a816123a9565b9050919050565b600060208201905081810360008301526127ba816123cc565b9050919050565b600060208201905081810360008301526127da816123ef565b9050919050565b600060208201905081810360008301526127fa81612412565b9050919050565b6000602082019050818103600083015261281a81612435565b9050919050565b6000602082019050818103600083015261283a81612458565b9050919050565b600060a082019050612856600083018461247b565b92915050565b600060408201905061287160008301856124f2565b61287e60208301846124f2565b9392505050565b600060608201905061289a60008301866124f2565b6128a760208301856124f2565b6128b460408301846124f2565b949350505050565b60006128c66128d7565b90506128d28282612a23565b919050565b6000604051905090565b600067ffffffffffffffff8211156128fc576128fb612acc565b5b61290582612b0f565b9050602081019050919050565b600081519050919050565b600081519050919050565b600081905092915050565b600082825260208201905092915050565b600061294f82612998565b9050919050565b60008115159050919050565b6000819050919050565b60007fffffffff0000000000000000000000000000000000000000000000000000000082169050919050565b600073ffffffffffffffffffffffffffffffffffffffff82169050919050565b6000819050919050565b600060ff82169050919050565b60006129da826129c2565b9050919050565b82818337600083830152505050565b60005b83811015612a0e5780820151818401526020810190506129f3565b83811115612a1d576000848401525b50505050565b612a2c82612b0f565b810181811067ffffffffffffffff82111715612a4b57612a4a612acc565b5b80604052505050565b6000612a5f826129b8565b91507fffffffffffffffffffffffffffffffffffffffffffffffffffffffffffffffff821415612a9257612a91612a9d565b5b600182019050919050565b7f4e487b7100000000000000000000000000000000000000000000000000000000600052601160045260246000fd5b7f4e487b7100000000000000000000000000000000000000000000000000000000600052604160045260246000fd5b600080fd5b600080fd5b600080fd5b600080fd5b6000601f19601f8301169050919050565b7f5061757361626c653a206e6f7420706175736564000000000000000000000000600082015250565b7f4f776e61626c653a206e6577206f776e657220697320746865207a65726f206160008201527f6464726573730000000000000000000000000000000000000000000000000000602082015250565b7f46756e6374696f6e206d7573742062652063616c6c6564207468726f7567682060008201527f64656c656761746563616c6c0000000000000000000000000000000000000000602082015250565b7f46756e6374696f6e206d7573742062652063616c6c6564207468726f7567682060008201527f6163746976652070726f78790000000000000000000000000000000000000000602082015250565b7f555550535570677261646561626c653a206d757374206e6f742062652063616c60008201527f6c6564207468726f7567682064656c656761746563616c6c0000000000000000602082015250565b7f5061757361626c653a2070617573656400000000000000000000000000000000600082015250565b7f45524331393637557067726164653a20756e737570706f727465642070726f7860008201527f6961626c65555549440000000000000000000000000000000000000000000000602082015250565b7f496e697469616c697a61626c653a20636f6e747261637420697320616c72656160008201527f647920696e697469616c697a6564000000000000000000000000000000000000602082015250565b7f63616c6c6572206973206e6f7420746865206f70657261746f72730000000000600082015250565b7f45524331393637557067726164653a206e657720696d706c656d656e7461746960008201527f6f6e206973206e6f742055555053000000000000000000000000000000000000602082015250565b7f455243313936373a206e657720696d706c656d656e746174696f6e206973206e60008201527f6f74206120636f6e747261637400000000000000000000000000000000000000602082015250565b7f4f776e61626c653a2063616c6c6572206973206e6f7420746865206f776e6572600082015250565b7f546f6b656e20616c726561647920696e20706f6f6c0000000000000000000000600082015250565b7f416464726573733a2064656c65676174652063616c6c20746f206e6f6e2d636f60008201527f6e74726163740000000000000000000000000000000000000000000000000000602082015250565b7f496e697469616c697a61626c653a20636f6e7472616374206973206e6f74206960008201527f6e697469616c697a696e67000000000000000000000000000000000000000000602082015250565b7f556e7374616b652063616c6c6572206973206e6f74206f776e6572206f66207460008201527f6f6b656e00000000000000000000000000000000000000000000000000000000602082015250565b7f546f6b656e206e6f7420696e20706f6f6c000000000000000000000000000000600082015250565b612f8481612944565b8114612f8f57600080fd5b50565b612f9b81612962565b8114612fa657600080fd5b50565b612fb2816129b8565b8114612fbd57600080fd5b5056fe416464726573733a206c6f772d6c6576656c2064656c65676174652063616c6c206661696c6564a2646970667358221220198415f60d80752835eaba24959cdc36e9dace475f237a64549630ccb0ede40264736f6c63430008070033",
  "linkReferences": {},
  "deployedLinkReferences": {}
}