{
  "_format": "hh-sol-artifact-1",
  "contractName": "NFTHolderPool",
  "sourceName": "contracts/NFTHolderPool.sol",
  "abi": [
    {
      "anonymous": false,
      "inputs": [
        {
          "indexed": false,
          "internalType": "address",
          "name": "previousAdmin",
          "type": "address"
        },
        {
          "indexed": false,
          "internalType": "address",
          "name": "newAdmin",
          "type": "address"
        }
      ],
      "name": "AdminChanged",
      "type": "event"
    },
    {
      "anonymous": false,
      "inputs": [
        {
          "indexed": true,
          "internalType": "address",
          "name": "beacon",
          "type": "address"
        }
      ],
      "name": "BeaconUpgraded",
      "type": "event"
    },
    {
      "anonymous": false,
      "inputs": [
        {
          "indexed": false,
          "internalType": "uint8",
          "name": "version",
          "type": "uint8"
        }
      ],
      "name": "Initialized",
      "type": "event"
    },
    {
      "anonymous": false,
      "inputs": [
        {
          "indexed": true,
          "internalType": "address",
          "name": "previousOwner",
          "type": "address"
        },
        {
          "indexed": true,
          "internalType": "address",
          "name": "newOwner",
          "type": "address"
        }
      ],
      "name": "OwnershipTransferred",
      "type": "event"
    },
    {
      "anonymous": false,
      "inputs": [
        {
          "indexed": true,
          "internalType": "address",
          "name": "implementation",
          "type": "address"
        }
      ],
      "name": "Upgraded",
      "type": "event"
    },
    {
      "inputs": [],
      "name": "getCurrentAmount",
      "outputs": [
        {
          "internalType": "uint256",
          "name": "",
          "type": "uint256"
        }
      ],
      "stateMutability": "view",
      "type": "function"
    },
    {
      "inputs": [],
      "name": "getCurrentPercentageFee",
      "outputs": [
        {
          "internalType": "uint256",
          "name": "",
          "type": "uint256"
        }
      ],
      "stateMutability": "view",
      "type": "function"
    },
    {
      "inputs": [],
      "name": "getCurrentSeasonId",
      "outputs": [
        {
          "internalType": "uint256",
          "name": "",
          "type": "uint256"
        }
      ],
      "stateMutability": "view",
      "type": "function"
    },
    {
      "inputs": [],
      "name": "getImplementation",
      "outputs": [
        {
          "internalType": "address",
          "name": "",
          "type": "address"
        }
      ],
      "stateMutability": "view",
      "type": "function"
    },
    {
      "inputs": [
        {
          "internalType": "address",
          "name": "player",
          "type": "address"
        },
        {
          "internalType": "uint256",
          "name": "bId",
          "type": "uint256"
        },
        {
          "internalType": "uint256",
          "name": "inBoostRate",
          "type": "uint256"
        },
        {
          "internalType": "uint256",
          "name": "rn1",
          "type": "uint256"
        },
        {
          "internalType": "uint256",
          "name": "rn2",
          "type": "uint256"
        }
      ],
      "name": "getNFT",
      "outputs": [
        {
          "internalType": "uint256",
          "name": "",
          "type": "uint256"
        },
        {
          "internalType": "uint256",
          "name": "",
          "type": "uint256"
        }
      ],
      "stateMutability": "nonpayable",
      "type": "function"
    },
    {
      "inputs": [
        {
          "internalType": "uint256",
          "name": "sId",
          "type": "uint256"
        }
      ],
      "name": "getPercentageFee",
      "outputs": [
        {
          "internalType": "uint256",
          "name": "",
          "type": "uint256"
        }
      ],
      "stateMutability": "view",
      "type": "function"
    },
    {
      "inputs": [],
      "name": "getPoolName",
      "outputs": [
        {
          "internalType": "string",
          "name": "",
          "type": "string"
        }
      ],
      "stateMutability": "view",
      "type": "function"
    },
    {
      "inputs": [],
      "name": "inBoostRateTime",
      "outputs": [
        {
          "internalType": "uint256",
          "name": "",
          "type": "uint256"
        }
      ],
      "stateMutability": "view",
      "type": "function"
    },
    {
      "inputs": [],
      "name": "initialize",
      "outputs": [],
      "stateMutability": "nonpayable",
      "type": "function"
    },
    {
      "inputs": [
        {
          "internalType": "address",
          "name": "operator",
          "type": "address"
        }
      ],
      "name": "isOperator",
      "outputs": [
        {
          "internalType": "bool",
          "name": "",
          "type": "bool"
        }
      ],
      "stateMutability": "view",
      "type": "function"
    },
    {
      "inputs": [],
      "name": "owner",
      "outputs": [
        {
          "internalType": "address",
          "name": "",
          "type": "address"
        }
      ],
      "stateMutability": "view",
      "type": "function"
    },
    {
      "inputs": [],
      "name": "proxiableUUID",
      "outputs": [
        {
          "internalType": "bytes32",
          "name": "",
          "type": "bytes32"
        }
      ],
      "stateMutability": "view",
      "type": "function"
    },
    {
      "inputs": [
        {
          "internalType": "address",
          "name": "operator",
          "type": "address"
        }
      ],
      "name": "removeOperator",
      "outputs": [],
      "stateMutability": "nonpayable",
      "type": "function"
    },
    {
      "inputs": [],
      "name": "renounceOwnership",
      "outputs": [],
      "stateMutability": "nonpayable",
      "type": "function"
    },
    {
      "inputs": [
        {
          "internalType": "uint256",
          "name": "st",
          "type": "uint256"
        },
        {
          "internalType": "uint256",
          "name": "et",
          "type": "uint256"
        }
      ],
      "name": "setGoldenTime",
      "outputs": [],
      "stateMutability": "nonpayable",
      "type": "function"
    },
    {
      "inputs": [
        {
          "internalType": "address",
          "name": "_nft",
          "type": "address"
        }
      ],
      "name": "setNFTContract",
      "outputs": [],
      "stateMutability": "nonpayable",
      "type": "function"
    },
    {
      "inputs": [
        {
          "internalType": "uint256[]",
          "name": "normalRate",
          "type": "uint256[]"
        },
        {
          "internalType": "uint256[]",
          "name": "boostRate",
          "type": "uint256[]"
        }
      ],
      "name": "setNFTDropChances",
      "outputs": [],
      "stateMutability": "nonpayable",
      "type": "function"
    },
    {
      "inputs": [
        {
          "internalType": "address",
          "name": "operator",
          "type": "address"
        }
      ],
      "name": "setOperator",
      "outputs": [],
      "stateMutability": "nonpayable",
      "type": "function"
    },
    {
      "inputs": [
        {
          "internalType": "uint256",
          "name": "fee",
          "type": "uint256"
        }
      ],
      "name": "setPercentageFee",
      "outputs": [],
      "stateMutability": "nonpayable",
      "type": "function"
    },
    {
      "inputs": [],
      "name": "start",
      "outputs": [],
      "stateMutability": "nonpayable",
      "type": "function"
    },
    {
      "inputs": [
        {
          "internalType": "uint256",
          "name": "amount",
          "type": "uint256"
        }
      ],
      "name": "takeFee",
      "outputs": [],
      "stateMutability": "nonpayable",
      "type": "function"
    },
    {
      "inputs": [
        {
          "internalType": "address",
          "name": "newOwner",
          "type": "address"
        }
      ],
      "name": "transferOwnership",
      "outputs": [],
      "stateMutability": "nonpayable",
      "type": "function"
    },
    {
      "inputs": [
        {
          "internalType": "address",
          "name": "newImplementation",
          "type": "address"
        }
      ],
      "name": "upgradeTo",
      "outputs": [],
      "stateMutability": "nonpayable",
      "type": "function"
    },
    {
      "inputs": [
        {
          "internalType": "address",
          "name": "newImplementation",
          "type": "address"
        },
        {
          "internalType": "bytes",
          "name": "data",
          "type": "bytes"
        }
      ],
      "name": "upgradeToAndCall",
      "outputs": [],
      "stateMutability": "payable",
      "type": "function"
    }
  ],
  "bytecode": "0x60a06040523073ffffffffffffffffffffffffffffffffffffffff1660809073ffffffffffffffffffffffffffffffffffffffff1660601b81525034801561004657600080fd5b5060805160601c612f61610081600039600081816105910152818161062001528181610b1301528181610ba20152610c520152612f616000f3fe60806040526004361061014b5760003560e01c80638d68b841116100b6578063b3ab15fb1161006f578063b3ab15fb14610438578063b558f86714610461578063ba6b2d0b1461049e578063be9a6555146104c7578063d2993983146104de578063f2fde38b146105095761014b565b80638d68b8411461033c5780638da5cb5b14610367578063a1215f1314610392578063a7ccabdf146103bb578063aaf10f42146103e4578063ac8a584a1461040f5761014b565b80635e75a6c3116101085780635e75a6c3146102525780635f7619a41461027d5780636d70f7ae146102a6578063715018a6146102e35780637512aaa1146102fa5780638129fc1c146103255761014b565b806305086f7a146101505780633659cfe61461017957806338ba3a17146101a25780633c201bbe146101cd5780634f1ef2861461020b57806352d1902d14610227575b600080fd5b34801561015c57600080fd5b5061017760048036038101906101729190611f66565b610532565b005b34801561018557600080fd5b506101a0600480360381019061019b9190611e62565b61058f565b005b3480156101ae57600080fd5b506101b7610718565b6040516101c49190612651565b60405180910390f35b3480156101d957600080fd5b506101f460048036038101906101ef9190611eeb565b610738565b60405161020292919061266c565b60405180910390f35b61022560048036038101906102209190611e8f565b610b11565b005b34801561023357600080fd5b5061023c610c4e565b6040516102499190612439565b60405180910390f35b34801561025e57600080fd5b50610267610d07565b6040516102749190612651565b60405180910390f35b34801561028957600080fd5b506102a4600480360381019061029f919061200b565b610d11565b005b3480156102b257600080fd5b506102cd60048036038101906102c89190611e62565b610e6f565b6040516102da919061241e565b60405180910390f35b3480156102ef57600080fd5b506102f8610ec5565b005b34801561030657600080fd5b5061030f610ed9565b60405161031c9190612651565b60405180910390f35b34801561033157600080fd5b5061033a610ef6565b005b34801561034857600080fd5b50610351611034565b60405161035e9190612651565b60405180910390f35b34801561037357600080fd5b5061037c611074565b6040516103899190612388565b60405180910390f35b34801561039e57600080fd5b506103b960048036038101906103b4919061200b565b61109e565b005b3480156103c757600080fd5b506103e260048036038101906103dd9190611e62565b6110b0565b005b3480156103f057600080fd5b506103f96110fc565b6040516104069190612388565b60405180910390f35b34801561041b57600080fd5b5061043660048036038101906104319190611e62565b61110b565b005b34801561044457600080fd5b5061045f600480360381019061045a9190611e62565b61116e565b005b34801561046d57600080fd5b506104886004803603810190610483919061200b565b6111d1565b6040516104959190612651565b60405180910390f35b3480156104aa57600080fd5b506104c560048036038101906104c09190612065565b611233565b005b3480156104d357600080fd5b506104dc61124d565b005b3480156104ea57600080fd5b506104f3611344565b604051610500919061246f565b60405180910390f35b34801561051557600080fd5b50610530600480360381019061052b9190611e62565b6113d6565b005b61053a61145a565b8160d160008081526020019081526020016000209080519060200190610561929190611c96565b508060d1600060018152602001908152602001600020908051906020019061058a929190611c96565b505050565b7f000000000000000000000000000000000000000000000000000000000000000073ffffffffffffffffffffffffffffffffffffffff163073ffffffffffffffffffffffffffffffffffffffff16141561061e576040517f08c379a0000000000000000000000000000000000000000000000000000000008152600401610615906124b1565b60405180910390fd5b7f000000000000000000000000000000000000000000000000000000000000000073ffffffffffffffffffffffffffffffffffffffff1661065d6114d8565b73ffffffffffffffffffffffffffffffffffffffff16146106b3576040517f08c379a00000000000000000000000000000000000000000000000000000000081526004016106aa906124d1565b60405180910390fd5b6106bc8161152f565b61071581600067ffffffffffffffff8111156106db576106da612aac565b5b6040519080825280601f01601f19166020018201604052801561070d5781602001600182028036833780820191505090505b50600061153a565b50565b600060d0600060ca54815260200190815260200160002060020154905090565b600080606560003373ffffffffffffffffffffffffffffffffffffffff1673ffffffffffffffffffffffffffffffffffffffff16815260200190815260200160002060009054906101000a900460ff166107c7576040517f08c379a00000000000000000000000000000000000000000000000000000000081526004016107be90612551565b60405180910390fd5b600073ffffffffffffffffffffffffffffffffffffffff1660cf60009054906101000a900473ffffffffffffffffffffffffffffffffffffffff1673ffffffffffffffffffffffffffffffffffffffff161415610859576040517f08c379a000000000000000000000000000000000000000000000000000000000815260040161085090612631565b60405180910390fd5b60006127108561086991906129bf565b905060d1600087815260200190815260200160002087815481106108905761088f612a7d565b5b9060005260206000200154811015610afe576000612710856108b291906129bf565b9050605a81101561097a5760cf60009054906101000a900473ffffffffffffffffffffffffffffffffffffffff1673ffffffffffffffffffffffffffffffffffffffff1663a1e463d88a60026040518363ffffffff1660e01b815260040161091b9291906123f5565b602060405180830381600087803b15801561093557600080fd5b505af1158015610949573d6000803e3d6000fd5b505050506040513d601f19601f8201168201806040525081019061096d9190612038565b6002935093505050610b07565b6103df811015610a415760cf60009054906101000a900473ffffffffffffffffffffffffffffffffffffffff1673ffffffffffffffffffffffffffffffffffffffff1663a1e463d88a60016040518363ffffffff1660e01b81526004016109e29291906123cc565b602060405180830381600087803b1580156109fc57600080fd5b505af1158015610a10573d6000803e3d6000fd5b505050506040513d601f19601f82011682018060405250810190610a349190612038565b6001935093505050610b07565b60cf60009054906101000a900473ffffffffffffffffffffffffffffffffffffffff1673ffffffffffffffffffffffffffffffffffffffff1663a1e463d88a60006040518363ffffffff1660e01b8152600401610a9f9291906123a3565b602060405180830381600087803b158015610ab957600080fd5b505af1158015610acd573d6000803e3d6000fd5b505050506040513d601f19601f82011682018060405250810190610af19190612038565b6000935093505050610b07565b60008092509250505b9550959350505050565b7f000000000000000000000000000000000000000000000000000000000000000073ffffffffffffffffffffffffffffffffffffffff163073ffffffffffffffffffffffffffffffffffffffff161415610ba0576040517f08c379a0000000000000000000000000000000000000000000000000000000008152600401610b97906124b1565b60405180910390fd5b7f000000000000000000000000000000000000000000000000000000000000000073ffffffffffffffffffffffffffffffffffffffff16610bdf6114d8565b73ffffffffffffffffffffffffffffffffffffffff1614610c35576040517f08c379a0000000000000000000000000000000000000000000000000000000008152600401610c2c906124d1565b60405180910390fd5b610c3e8261152f565b610c4a8282600161153a565b5050565b60007f000000000000000000000000000000000000000000000000000000000000000073ffffffffffffffffffffffffffffffffffffffff163073ffffffffffffffffffffffffffffffffffffffff1614610cde576040517f08c379a0000000000000000000000000000000000000000000000000000000008152600401610cd5906124f1565b60405180910390fd5b7f360894a13ba1a3210667c828492db98dca3e2076cc3735a920a3ca505d382bbc60001b905090565b600060ca54905090565b606560003373ffffffffffffffffffffffffffffffffffffffff1673ffffffffffffffffffffffffffffffffffffffff16815260200190815260200160002060009054906101000a900460ff16610d9d576040517f08c379a0000000000000000000000000000000000000000000000000000000008152600401610d9490612551565b60405180910390fd5b60d0600060ca54815260200190815260200160002060010154421115610e0f5760ca6000815480929190610dd090612976565b91905055504260d0600060ca5481526020019081526020016000206000018190555060cc5460d2600060ca548152602001908152602001600020819055505b620186a060d2600060ca5481526020019081526020016000205482610e3491906127d0565b610e3e919061279f565b60d0600060ca5481526020019081526020016000206002016000828254610e659190612749565b9250508190555050565b6000606560008373ffffffffffffffffffffffffffffffffffffffff1673ffffffffffffffffffffffffffffffffffffffff16815260200190815260200160002060009054906101000a900460ff169050919050565b610ecd61145a565b610ed760006116b7565b565b600060d2600060ca54815260200190815260200160002054905090565b60008060019054906101000a900460ff16159050808015610f275750600160008054906101000a900460ff1660ff16105b80610f545750610f363061177d565b158015610f535750600160008054906101000a900460ff1660ff16145b5b610f93576040517f08c379a0000000000000000000000000000000000000000000000000000000008152600401610f8a90612531565b60405180910390fd5b60016000806101000a81548160ff021916908360ff1602179055508015610fd0576001600060016101000a81548160ff0219169083151502179055505b610fd86117a0565b80156110315760008060016101000a81548160ff0219169083151502179055507f7f26b83ff96e1f2b6a682f133852f6798a09c465da95921460cefb384740249860016040516110289190612454565b60405180910390a15b50565b600080620151804261104691906129bf565b905060cd54811015801561105c575060ce548111155b1561106b576001915050611071565b60009150505b90565b6000603360009054906101000a900473ffffffffffffffffffffffffffffffffffffffff16905090565b6110a661145a565b8060cc8190555050565b6110b861145a565b8060cf60006101000a81548173ffffffffffffffffffffffffffffffffffffffff021916908373ffffffffffffffffffffffffffffffffffffffff16021790555050565b60006111066114d8565b905090565b61111361145a565b6000606560008373ffffffffffffffffffffffffffffffffffffffff1673ffffffffffffffffffffffffffffffffffffffff16815260200190815260200160002060006101000a81548160ff02191690831515021790555050565b61117661145a565b6001606560008373ffffffffffffffffffffffffffffffffffffffff1673ffffffffffffffffffffffffffffffffffffffff16815260200190815260200160002060006101000a81548160ff02191690831515021790555050565b600060ca54821115611218576040517f08c379a000000000000000000000000000000000000000000000000000000000815260040161120f906125f1565b60405180910390fd5b60d26000838152602001908152602001600020549050919050565b61123b61145a565b8160cd819055508060ce819055505050565b606560003373ffffffffffffffffffffffffffffffffffffffff1673ffffffffffffffffffffffffffffffffffffffff16815260200190815260200160002060009054906101000a900460ff166112d9576040517f08c379a00000000000000000000000000000000000000000000000000000000081526004016112d090612551565b60405180910390fd5b600060ca541480156113035750600060d0600060ca54815260200190815260200160002060000154145b15611342574260d0600060ca5481526020019081526020016000206000018190555060cc5460d2600060ca548152602001908152602001600020819055505b565b606060cb805461135390612913565b80601f016020809104026020016040519081016040528092919081815260200182805461137f90612913565b80156113cc5780601f106113a1576101008083540402835291602001916113cc565b820191906000526020600020905b8154815290600101906020018083116113af57829003601f168201915b5050505050905090565b6113de61145a565b600073ffffffffffffffffffffffffffffffffffffffff168173ffffffffffffffffffffffffffffffffffffffff16141561144e576040517f08c379a000000000000000000000000000000000000000000000000000000000815260040161144590612491565b60405180910390fd5b611457816116b7565b50565b611462611936565b73ffffffffffffffffffffffffffffffffffffffff16611480611074565b73ffffffffffffffffffffffffffffffffffffffff16146114d6576040517f08c379a00000000000000000000000000000000000000000000000000000000081526004016114cd906125b1565b60405180910390fd5b565b60006115067f360894a13ba1a3210667c828492db98dca3e2076cc3735a920a3ca505d382bbc60001b61193e565b60000160009054906101000a900473ffffffffffffffffffffffffffffffffffffffff16905090565b61153761145a565b50565b6115667f4910fdfa16fed3260ed0e7147f7cc6da11a60208b5b9406d12a635614ffd914360001b611948565b60000160009054906101000a900460ff161561158a5761158583611952565b6116b2565b8273ffffffffffffffffffffffffffffffffffffffff166352d1902d6040518163ffffffff1660e01b815260040160206040518083038186803b1580156115d057600080fd5b505afa92505050801561160157506040513d601f19601f820116820180604052508101906115fe9190611fde565b60015b611640576040517f08c379a000000000000000000000000000000000000000000000000000000000815260040161163790612571565b60405180910390fd5b7f360894a13ba1a3210667c828492db98dca3e2076cc3735a920a3ca505d382bbc60001b81146116a5576040517f08c379a000000000000000000000000000000000000000000000000000000000815260040161169c90612511565b60405180910390fd5b506116b1838383611a0b565b5b505050565b6000603360009054906101000a900473ffffffffffffffffffffffffffffffffffffffff16905081603360006101000a81548173ffffffffffffffffffffffffffffffffffffffff021916908373ffffffffffffffffffffffffffffffffffffffff1602179055508173ffffffffffffffffffffffffffffffffffffffff168173ffffffffffffffffffffffffffffffffffffffff167f8be0079c531659141344cd1fd0a4f28419497f9722a3daafe3b4186f6b6457e060405160405180910390a35050565b6000808273ffffffffffffffffffffffffffffffffffffffff163b119050919050565b60008060019054906101000a900460ff161590508080156117d15750600160008054906101000a900460ff1660ff16105b806117fe57506117e03061177d565b1580156117fd5750600160008054906101000a900460ff1660ff16145b5b61183d576040517f08c379a000000000000000000000000000000000000000000000000000000000815260040161183490612531565b60405180910390fd5b60016000806101000a81548160ff021916908360ff160217905550801561187a576001600060016101000a81548160ff0219169083151502179055505b611882611a37565b6001606560003373ffffffffffffffffffffffffffffffffffffffff1673ffffffffffffffffffffffffffffffffffffffff16815260200190815260200160002060006101000a81548160ff02191690831515021790555080156119335760008060016101000a81548160ff0219169083151502179055507f7f26b83ff96e1f2b6a682f133852f6798a09c465da95921460cefb3847402498600160405161192a9190612454565b60405180910390a15b50565b600033905090565b6000819050919050565b6000819050919050565b61195b8161177d565b61199a576040517f08c379a000000000000000000000000000000000000000000000000000000000815260040161199190612591565b60405180910390fd5b806119c77f360894a13ba1a3210667c828492db98dca3e2076cc3735a920a3ca505d382bbc60001b61193e565b60000160006101000a81548173ffffffffffffffffffffffffffffffffffffffff021916908373ffffffffffffffffffffffffffffffffffffffff16021790555050565b611a1483611a90565b600082511180611a215750805b15611a3257611a308383611adf565b505b505050565b600060019054906101000a900460ff16611a86576040517f08c379a0000000000000000000000000000000000000000000000000000000008152600401611a7d90612611565b60405180910390fd5b611a8e611bc3565b565b611a9981611952565b8073ffffffffffffffffffffffffffffffffffffffff167fbc7cd75a20ee27fd9adebab32041f755214dbc6bffa90cc0225b39da2e5c2d3b60405160405180910390a250565b6060611aea8361177d565b611b29576040517f08c379a0000000000000000000000000000000000000000000000000000000008152600401611b20906125d1565b60405180910390fd5b6000808473ffffffffffffffffffffffffffffffffffffffff1684604051611b519190612371565b600060405180830381855af49150503d8060008114611b8c576040519150601f19603f3d011682016040523d82523d6000602084013e611b91565b606091505b5091509150611bb98282604051806060016040528060278152602001612f0560279139611c24565b9250505092915050565b600060019054906101000a900460ff16611c12576040517f08c379a0000000000000000000000000000000000000000000000000000000008152600401611c0990612611565b60405180910390fd5b611c22611c1d611936565b6116b7565b565b60608315611c3457829050611c3f565b611c3e8383611c46565b5b9392505050565b600082511115611c595781518083602001fd5b806040517f08c379a0000000000000000000000000000000000000000000000000000000008152600401611c8d919061246f565b60405180910390fd5b828054828255906000526020600020908101928215611cd2579160200282015b82811115611cd1578251825591602001919060010190611cb6565b5b509050611cdf9190611ce3565b5090565b5b80821115611cfc576000816000905550600101611ce4565b5090565b6000611d13611d0e846126ba565b612695565b90508083825260208201905082856020860282011115611d3657611d35612ae0565b5b60005b85811015611d665781611d4c8882611e38565b845260208401935060208301925050600181019050611d39565b5050509392505050565b6000611d83611d7e846126e6565b612695565b905082815260208101848484011115611d9f57611d9e612ae5565b5b611daa8482856128d1565b509392505050565b600081359050611dc181612ebf565b92915050565b600082601f830112611ddc57611ddb612adb565b5b8135611dec848260208601611d00565b91505092915050565b600081519050611e0481612ed6565b92915050565b600082601f830112611e1f57611e1e612adb565b5b8135611e2f848260208601611d70565b91505092915050565b600081359050611e4781612eed565b92915050565b600081519050611e5c81612eed565b92915050565b600060208284031215611e7857611e77612aef565b5b6000611e8684828501611db2565b91505092915050565b60008060408385031215611ea657611ea5612aef565b5b6000611eb485828601611db2565b925050602083013567ffffffffffffffff811115611ed557611ed4612aea565b5b611ee185828601611e0a565b9150509250929050565b600080600080600060a08688031215611f0757611f06612aef565b5b6000611f1588828901611db2565b9550506020611f2688828901611e38565b9450506040611f3788828901611e38565b9350506060611f4888828901611e38565b9250506080611f5988828901611e38565b9150509295509295909350565b60008060408385031215611f7d57611f7c612aef565b5b600083013567ffffffffffffffff811115611f9b57611f9a612aea565b5b611fa785828601611dc7565b925050602083013567ffffffffffffffff811115611fc857611fc7612aea565b5b611fd485828601611dc7565b9150509250929050565b600060208284031215611ff457611ff3612aef565b5b600061200284828501611df5565b91505092915050565b60006020828403121561202157612020612aef565b5b600061202f84828501611e38565b91505092915050565b60006020828403121561204e5761204d612aef565b5b600061205c84828501611e4d565b91505092915050565b6000806040838503121561207c5761207b612aef565b5b600061208a85828601611e38565b925050602061209b85828601611e38565b9150509250929050565b6120ae8161282a565b82525050565b6120bd8161283c565b82525050565b6120cc81612848565b82525050565b60006120dd82612717565b6120e7818561272d565b93506120f78185602086016128e0565b80840191505092915050565b61210c81612889565b82525050565b61211b8161289b565b82525050565b61212a816128ad565b82525050565b612139816128bf565b82525050565b600061214a82612722565b6121548185612738565b93506121648185602086016128e0565b61216d81612af4565b840191505092915050565b6000612185602683612738565b915061219082612b05565b604082019050919050565b60006121a8602c83612738565b91506121b382612b54565b604082019050919050565b60006121cb602c83612738565b91506121d682612ba3565b604082019050919050565b60006121ee603883612738565b91506121f982612bf2565b604082019050919050565b6000612211602983612738565b915061221c82612c41565b604082019050919050565b6000612234602e83612738565b915061223f82612c90565b604082019050919050565b6000612257601b83612738565b915061226282612cdf565b602082019050919050565b600061227a602e83612738565b915061228582612d08565b604082019050919050565b600061229d602d83612738565b91506122a882612d57565b604082019050919050565b60006122c0602083612738565b91506122cb82612da6565b602082019050919050565b60006122e3602683612738565b91506122ee82612dcf565b604082019050919050565b6000612306601083612738565b915061231182612e1e565b602082019050919050565b6000612329602b83612738565b915061233482612e47565b604082019050919050565b600061234c601883612738565b915061235782612e96565b602082019050919050565b61236b81612872565b82525050565b600061237d82846120d2565b915081905092915050565b600060208201905061239d60008301846120a5565b92915050565b60006040820190506123b860008301856120a5565b6123c56020830184612103565b9392505050565b60006040820190506123e160008301856120a5565b6123ee6020830184612112565b9392505050565b600060408201905061240a60008301856120a5565b6124176020830184612130565b9392505050565b600060208201905061243360008301846120b4565b92915050565b600060208201905061244e60008301846120c3565b92915050565b60006020820190506124696000830184612121565b92915050565b60006020820190508181036000830152612489818461213f565b905092915050565b600060208201905081810360008301526124aa81612178565b9050919050565b600060208201905081810360008301526124ca8161219b565b9050919050565b600060208201905081810360008301526124ea816121be565b9050919050565b6000602082019050818103600083015261250a816121e1565b9050919050565b6000602082019050818103600083015261252a81612204565b9050919050565b6000602082019050818103600083015261254a81612227565b9050919050565b6000602082019050818103600083015261256a8161224a565b9050919050565b6000602082019050818103600083015261258a8161226d565b9050919050565b600060208201905081810360008301526125aa81612290565b9050919050565b600060208201905081810360008301526125ca816122b3565b9050919050565b600060208201905081810360008301526125ea816122d6565b9050919050565b6000602082019050818103600083015261260a816122f9565b9050919050565b6000602082019050818103600083015261262a8161231c565b9050919050565b6000602082019050818103600083015261264a8161233f565b9050919050565b60006020820190506126666000830184612362565b92915050565b60006040820190506126816000830185612362565b61268e6020830184612362565b9392505050565b600061269f6126b0565b90506126ab8282612945565b919050565b6000604051905090565b600067ffffffffffffffff8211156126d5576126d4612aac565b5b602082029050602081019050919050565b600067ffffffffffffffff82111561270157612700612aac565b5b61270a82612af4565b9050602081019050919050565b600081519050919050565b600081519050919050565b600081905092915050565b600082825260208201905092915050565b600061275482612872565b915061275f83612872565b9250827fffffffffffffffffffffffffffffffffffffffffffffffffffffffffffffffff03821115612794576127936129f0565b5b828201905092915050565b60006127aa82612872565b91506127b583612872565b9250826127c5576127c4612a1f565b5b828204905092915050565b60006127db82612872565b91506127e683612872565b9250817fffffffffffffffffffffffffffffffffffffffffffffffffffffffffffffffff048311821515161561281f5761281e6129f0565b5b828202905092915050565b600061283582612852565b9050919050565b60008115159050919050565b6000819050919050565b600073ffffffffffffffffffffffffffffffffffffffff82169050919050565b6000819050919050565b600060ff82169050919050565b600061289482612872565b9050919050565b60006128a682612872565b9050919050565b60006128b88261287c565b9050919050565b60006128ca82612872565b9050919050565b82818337600083830152505050565b60005b838110156128fe5780820151818401526020810190506128e3565b8381111561290d576000848401525b50505050565b6000600282049050600182168061292b57607f821691505b6020821081141561293f5761293e612a4e565b5b50919050565b61294e82612af4565b810181811067ffffffffffffffff8211171561296d5761296c612aac565b5b80604052505050565b600061298182612872565b91507fffffffffffffffffffffffffffffffffffffffffffffffffffffffffffffffff8214156129b4576129b36129f0565b5b600182019050919050565b60006129ca82612872565b91506129d583612872565b9250826129e5576129e4612a1f565b5b828206905092915050565b7f4e487b7100000000000000000000000000000000000000000000000000000000600052601160045260246000fd5b7f4e487b7100000000000000000000000000000000000000000000000000000000600052601260045260246000fd5b7f4e487b7100000000000000000000000000000000000000000000000000000000600052602260045260246000fd5b7f4e487b7100000000000000000000000000000000000000000000000000000000600052603260045260246000fd5b7f4e487b7100000000000000000000000000000000000000000000000000000000600052604160045260246000fd5b600080fd5b600080fd5b600080fd5b600080fd5b600080fd5b6000601f19601f8301169050919050565b7f4f776e61626c653a206e6577206f776e657220697320746865207a65726f206160008201527f6464726573730000000000000000000000000000000000000000000000000000602082015250565b7f46756e6374696f6e206d7573742062652063616c6c6564207468726f7567682060008201527f64656c656761746563616c6c0000000000000000000000000000000000000000602082015250565b7f46756e6374696f6e206d7573742062652063616c6c6564207468726f7567682060008201527f6163746976652070726f78790000000000000000000000000000000000000000602082015250565b7f555550535570677261646561626c653a206d757374206e6f742062652063616c60008201527f6c6564207468726f7567682064656c656761746563616c6c0000000000000000602082015250565b7f45524331393637557067726164653a20756e737570706f727465642070726f7860008201527f6961626c65555549440000000000000000000000000000000000000000000000602082015250565b7f496e697469616c697a61626c653a20636f6e747261637420697320616c72656160008201527f647920696e697469616c697a6564000000000000000000000000000000000000602082015250565b7f63616c6c6572206973206e6f7420746865206f70657261746f72730000000000600082015250565b7f45524331393637557067726164653a206e657720696d706c656d656e7461746960008201527f6f6e206973206e6f742055555053000000000000000000000000000000000000602082015250565b7f455243313936373a206e657720696d706c656d656e746174696f6e206973206e60008201527f6f74206120636f6e747261637400000000000000000000000000000000000000602082015250565b7f4f776e61626c653a2063616c6c6572206973206e6f7420746865206f776e6572600082015250565b7f416464726573733a2064656c65676174652063616c6c20746f206e6f6e2d636f60008201527f6e74726163740000000000000000000000000000000000000000000000000000602082015250565b7f696e76616c696420736561736f6e496400000000000000000000000000000000600082015250565b7f496e697469616c697a61626c653a20636f6e7472616374206973206e6f74206960008201527f6e697469616c697a696e67000000000000000000000000000000000000000000602082015250565b7f4e465420636f6e7472616374206d757374206265207365740000000000000000600082015250565b612ec88161282a565b8114612ed357600080fd5b50565b612edf81612848565b8114612eea57600080fd5b50565b612ef681612872565b8114612f0157600080fd5b5056fe416464726573733a206c6f772d6c6576656c2064656c65676174652063616c6c206661696c6564a2646970667358221220d406382d60c42790c8b977424051896620f2aec10072c9380a280aea49fa511a64736f6c63430008070033",
  "linkReferences": {},
  "deployedLinkReferences": {}
}